:020000040000FA
:0600000002135402082B5C
:030013000208F1EF
:03002B000210F1CF
:03003300020FBAFF
:03003B0002094671
:0300530002076041
:100083000207BF0100F0FF0700080000FFFF0000A8
:100093000704000000030001FF0530750000002085
:1000A300FD000206FFFFFF0186000000000079FF4C
:1000B3000179000000000086FF0179A00000000024
:1000C300E6FF01870000000000781E01010019000F
:1000D3000000320000006B1D000000000000000063
:1000E30000000000000001001706010001000100EC
:1000F300D007900100000100010001000100D007BA
:1001030090010000000000000E000E000104010C2D
:100113000002040D91019592020401020302027987
:1001230092000000010400006719000000E80300CA
:1001330000FFFFC41988130000E803000064006493
:1001430000B801A0BB0D00A0BB0D00020202070412
:100153000101071E02051E020A0A0101010809081E
:100163000103B80B02803E0102FEFFE8030A05000B
:1001730001FFFF010A011401E00200000001050371
:1001830001010F10FEFF030003000300030003003F
:10019300030003000300030005000A001400280005
:1001A3004F009E000000F1330000000027330000E1
:1001B3000000FF000000FF0012138260461213A02C
:1001C300603DE9687008F618F618F618F622748090
:1001D30067F71201EF090909748067F7221213A068
:1001E300601D1213827005191919801A12121670E4
:1001F3001F12122AC37003E667331919194007182F
:1002030018182208080874FFF618F618F618F622CC
:1002130012122A6017121420702192F012140E7019
:1002230019501720F014080808090909E7F61819E6
:10023300E7F61819E7F61819E7F62212140E60E626
:10024300E869701F0808E62480F608E436F61854B7
:100253007FB47F0CE654806007F6E418F618F622A4
:10026300181822E9C6CC08C6CD08C6CE08C6CFC02A
:10027300E0E8C0E0EAC0E0EBC0E009E9F809E7FA2A
:1002830009E7FBE6F918E6F8C3EC98ED99EE9AEB6B
:10029300C2E7F5F0EFC2E795F0500E600CEBCFFB31
:1002A300EACEFAE9CDF9E8CCF8EAA2E7D2E7FAEB2D
:1002B30033FB13F5F0EEA2E7D2E7FEEF33FFC5F011
:1002C30013A2E730E601B313C5F0C3C0E0C0F07F6B
:1002D30000C39BFB605E9418600F401D14601AD02E
:1002E300E023F9D0E0F80203C18AF0E9486003D2C1
:1002F300F0E4AFF0FAF9F8803BEB30E40D89F0EA73
:100303006003D2F0E4AFF0F9CAF8EB30E30D88F004
:10031300EF6002D2F0AFF0E4CAC9F8EB54076014FF
:10032300FBC3EA13FAE913F9E813F8EF135002D207
:10033300E0FFDBEDD0E0C0E030E739C3E49FFFF539
:10034300F0EC98FC42F0ED99FD42F0EE9AFE42F09B
:10035300D0E0F9D0E0F8E5F0607AE923F9EE20E7A0
:1003630042D8028067C3EF33FFEC33FCED33FDEE7D
:1003730033FE80EAEC28FCED39FDEE3AFED0E023B3
:10038300F9D0E0F84002801BC3EE13FEED13FDEC41
:1003930013FCEF135002D2E0FF08B800067F7F740E
:1003A300FF802EEF3350178CF020F00260100CBC4E
:1003B300000C0DBD00080EBE000408E860DFE93341
:1003C300E813FFEE2313FE4F4D4C8008E95480FFE2
:1003D300E4FEFDFCEE33EF33F47004FCFD7E80D0CD
:1003E300E0FBD0E0FAD0E0F8D0E0CFC618CEC618D4
:1003F300CDC618CCC6F9221213A0700418181822FF
:10040300121382700D74FFF61819F61819F61819DD
:10041300F622E7548066F612140E700F1214207041
:10042300F014F608F608F608F680D1121420700CC2
:10043300F608F608768008E6447F80EC12122D70E9
:100443000C12121960BFE65480F6E480BB12121935
:10045300700519191980A5E869700C763F18768024
:1004630018F618F6E8F922E6CDC0E018ECC0E0E68D
:1004730033CD33CDD313F6E719FCE7191933CC3356
:10048300C3947F400ECD9D502408E65480F6E418B3
:10049300F6800FF4043D14501408E6447FF61876F2
:1004A30080E418F618F6D0E0FCD0E0FD22CCD3139C
:1004B300CCFD18E4C6CBC0E018E4C6CAC0E0080807
:1004C300ED08C633E613F618E433C675F003C3CA62
:1004D30097CA09CB97CB199C40047D08802EBD0099
:1004E300030205A316B6FF050606081618C3CA338A
:1004F300CACB33CB33CA27CA09CB37CB193CC37D0D
:1005030008803E187D0820E75CC633C6CA33CACBD1
:1005130033CB33DDF1D5F0EB30E77BCA97CA09CB98
:10052300974ACB199C406F4B7025E620E0218066EB
:10053300187D08C3CA97CA09CB97CB199CD3C63376
:10054300C6CA33CACB33CB3350C9DDE7D5F0E1D3C9
:10055300E4C636C608C636C608C636C608C636C694
:100563001818188031C3CA97CA09CB97CB199CB303
:100573004097C633C6CA33CACB33CB33DD34D5F049
:100583002EC6A2E0C640C8CA27CA09CB37194A708B
:10059300BECB3CB480B90808E63308E633601F18C5
:1005A3001818D0E0FAD0E0FBD0E0FCD0E0FD221830
:1005B3007D08CA27CA09CB37CB193CD3808013F6F1
:1005C30018E4B67F11F618B6FF0EF618C60470D2FB
:1005D3000808768080CAF618F618F680C50012134C
:1005E300A0604F1213826012E7548066F61212164F
:1005F3007011121420703B090909F4F618F618F665
:1006030018F62212122A701512140E08080860EA4E
:10061300E6447FF618768018E4F618F62212140ED4
:1006230060161214207012E4F608F608F608E65471
:1006330080F609090918181822EAC0E0EBC0E0ECBB
:10064300C0E0EDC0E0E687F0A4FBACF008E687F07D
:10065300A42CFCE435F0FA1809E687F0A42C4B60CF
:10066300027401CA35F0FCE433FB09E687F0D2F7E4
:10067300A42CCB35F0FC1908E687F0A42BCC35F07D
:10068300FBE433FD0819E687F0D2E7A42C4ACB3507
:10069300F0CD3400FC09E687F0D2E7A42DCC35F089
:1006A300FDE433FA0918E687F0D2F7A42CCD35F030
:1006B300CA3400FC08E687F0D2E7D2F7A42ACC3587
:1006C300F07A7E20E70B0ACB33CBCD33CDCC33CCC2
:1006D30033CB3350147004ED30E00ED2F1E4CD3D52
:1006E300CDCC3CCC3B5005DA05C2F1EB547FC6338D
:1006F30008E63392F0FBE73309E733C39A502D2B17
:1007030070190C0D4C4D70151806E608C333700DA7
:1007130020F10AA2F013F6E418800B4024E4F6302B
:10072300F002768018F618F618F68024D33B14509E
:100733001074FFA2F013F6187680E418F618F6800A
:100743000FA2F013F618E63303F618ECF618EDF6DD
:10075300D0E0FDD0E0FCD0E0FBD0E0FA22C0E074B2
:10076300F1120BF8A2AFE433F509D2AF85A708AFB6
:10077300A1EF5508FE74105E600612177175A1EFA4
:1007830074085E600812177775A1F78024EFA2E062
:1007930092F0E508A2E082F05017906198E0F8909B
:1007A30009C2E0C398A2D265D0335002E8F075A124
:1007B300FEE509A2E092AF7F02020C57C0E074F29B
:1007C300120BF8A2AFE433FED2AF9061A4E0F87548
:1007D3009B00E59158540860087591F71217C5807E
:1007E30023E59158541060087591EF1217CB8014CC
:1007F300E591A2E092F0E8A2E082F05007E0C2E0C7
:10080300F01219219061A3E0F8E5E9585404600E51
:100813001218F775E9FB906193E0A2E640F2EEA2AD
:10082300E092AF7F01020C57C0E074F2120BF8A202
:10083300AFE433FED2AF9061A5E0F8E5BF585404AE
:10084300600675BFFB12193980D41208A230F04339
:100853001208E7803E8A088B098C0A8D0B780812F0
:1008630008A220F01430E72B74FFFCFBFA747F809E
:1008730022E4FCFBFA7480801AB48008BC00F2BB4B
:1008830000EF800F50EBF9E4C39AFAE49BFBE49C7E
:10089300FCE499C6CC18C6CB18C6CA18C6F922E41C
:1008A300C9C608CAC608CBC6D3330308CCC633921D
:1008B300F0C3947F402E94184019C9B90704CACBDA
:1008C300CC225025C309CA33CACB33CBCC33CC3368
:1008D300D9F422F4600DC9CCC313CB13CBCA13CA0A
:1008E300D9F6CC22E4FCFBFA2214FCFBFA22C0E08A
:1008F300C0D0E8C0E0E9C0E0C082C083A8C1E8C0BE
:10090300E09006A7E0F8742628F582E43406F58320
:10091300D0E0F09006A6E0F8A3E0687006E59590B5
:1009230006A9F09006A7E004F0C394804002E4F027
:10093300A374C6F0D083D082D0E0F9D0E0F8D0D051
:10094300D0E032C0E0C0D0E8C0E0E9C0E0C082C07F
:100953008390072AE0F8A3E0687008539AFBA37416
:10096300018022C2E990072AE0F8740128F074AAF2
:1009730028F582E43406F583E0F5C190072AE0C345
:1009830094804002E4F080ACC3E498F8E499F9124F
:1009930009CC8026C3E49AFAE49BFBE920E7E91239
:1009A30009CCE498F8E499F922C3E498F8E499F9B6
:1009B3001209CCE498F8E499F9C3E49AFAE49BFBAE
:1009C30022EB20E7CFE920E7E0B90010BB0008E8FD
:1009D3008AF084F8AAF022E4FBC8FA22EB70227BA7
:1009E30010C833C8C933C9335007C39AC3DBF28075
:1009F300069A50012ADBEAC833F4C8C933F4C9FAAA
:100A03002275F008E4C833C8C933C933C99AC99BEE
:100A13005004C92AC93BD5F0ECFBC833F4C8E4C978
:100A2300FA22080808EAC0E0EBC0E086F0E7A4FA7F
:100A3300180986F0E7A42AFA180986F0E7A42AFA27
:100A4300180986F0E7A42AFA1986F0E7A4FBE5F073
:100A53002AFA190886F0E7A42BFBE5F03AFA1908FD
:100A630086F0E7A42BFBE5F03AFA18180986F0E7BD
:100A7300A4C5F02BFBE43AFA1908E7C5F0C6A4268F
:100A8300F6E5F03BFBE43AFA1886F0E7A4F6E5F066
:100A93000826F6E43B08F6E43A08F6D0E0FBD0E09B
:100AA300FA22080808E630E7111211EE120ABD080F
:100AB3000808C64480C618181822181818E9799E21
:100AC300C608CAC608CBC608CCC6C370207996CA66
:100AD300CBCC7019798ECBCC70137986CC700EF990
:100AE300802ACA33CACB33CBCC33CC331930E7F2A9
:100AF300CCCBCA3350147004EA30E00DE4CA3ACACE
:100B0300CB3BCBCC3CCC500209C3E913C6CC182356
:100B130013C6CB18C6CA18C6F922E4CFC0E0E4CE88
:100B2300C0E0E4CDC0E0E4CCC0E075F020E626F6FA
:100B330008E633F608E633F608E633F6181818EC39
:100B430033FCED33FDEE33FEEF33FFC3EC9709EDDA
:100B53009709EE9709EF97191919400FFFEC97FCC6
:100B630009ED97FD09EE97FE191906D5F0BFECF7CD
:100B730009EDF709EEF709EFF7191919D0E0FCD0E1
:100B8300E0FDD0E0FED0E0FF222521C582C0E0E5F4
:100B93002234FFC583C0E0E521C3958224F810AF5A
:100BA300088583228582218008858322858221D23C
:100BB300AFCEF0A3E520F0A37808E608F0A3DEFAB1
:100BC300EFF0A3E58124FAF8E608F0A3E608F0A322
:100BD300E608F0A30808E608F0A3E608F0A31581E9
:100BE3001581D0E0FED0E0F8158115811581E8C0AC
:100BF300E0EEC0E022C0D02521C582C0E0E522346A
:100C0300FFC583C0E0E521C3958224F310AF0885B7
:100C130083228582218008858322858221D2AFC8E1
:100C2300F0A3E9F0A3EAF0A3EBF0A37908E709F056
:100C3300A3D8FAECF0A3EDF0A3EEF0A3EFF0A3D06A
:100C4300E0F0A3D0E0F0A3D0E0F0A3E520F0A3E52B
:100C5300F0F0A322852283852182E0C0E0A3E0F99E
:100C6300A3E0FAA3E0FBA37808E0F608A3DFFAE029
:100C7300FCA3E0FDA3E0FEA3E0FFA3E0C0E0A3E04C
:100C8300C0E0A3E0F5D0A3E0F520A3E0A3F5F010C6
:100C9300AF0885832285822180088583228582216E
:100CA300D2AFD082D083D0E0F8D0E0321213F9B9BA
:100CB3000003020CEEE490050178BE79188002F07F
:100CC300A3D8FCD9FA7ABE7B1C90008678367902C9
:100CD3008015E493A3AD82AE838A828B83F0A3AAAB
:100CE30082AB838D828E83D8E9D9E77582E67583DB
:100CF300CB740612108275824F7583307400121004
:100D03008275F0108E238F24858228858327852181
:100D130082852283E0CEA3E0CF852882852783EBDB
:100D2300C9EAC8EDCBECCAC3E833C8E933C9EA332F
:100D3300CAEB33CBC3EA9EF526EB9FF525B35004EC
:100D4300AB25AA26EC33CCED33CDD5F0DAAE23AF09
:100D530024221213A0601C121382601712140E7047
:100D6300071214207001D322C0D01214207006D0B1
:100D7300D0B322C32233D0D0501430E0F6C3E79669
:100D83000809E7960809E7960809E796B32220E0E1
:100D9300D5E6970809E6970809E6970809E697B3A1
:100DA300221213A0601B121382601612140E700716
:100DB300121420600CB322C0D01214207005D0D0BE
:100DC30022C32233D0D0501330E0EBC3E796080997
:100DD300E7960809E7960809E7962220E0E4E697F4
:100DE3000809E6970809E6970809E69722D083D011
:100DF30082ECC0E0EDC0E0E493A3FCE493A3FDED3B
:100E03004C600D120EC8EC24FFFCED34FFFD80EFA7
:100E1300E493A3FCE493A3FDED4C600D120F65EC8A
:100E230024FFFCED34FFFD80EFD0E0FDD0E0FCE4D7
:100E330093A3C0E0E493C0E022852283852182E06E
:100E4300A3FEE0A3F5207808E0A3F608DFFAE0A309
:100E5300FFE0A3C0E0E0A3C0E0E0A3C0E0E0A3C0E4
:100E6300E0E0A3C0E010AF088582218583228008DB
:100E7300858221858322D2AFD083D082021088D08D
:100E830083D082E9C0E0E493A3C386F0C5F095F074
:100E9300F908E493A386F0C5F095F0700BE493A3EF
:100EA300C3994005E9048002A3E475F002A42582F6
:100EB300F582E5F03583F583D0E0F9E493A3C0E050
:100EC300E493C0E022C0E0C3E493960874019396D0
:100ED30018400FE493667008087401936618700055
:100EE3007019A3A3C3E49396087401939618A3A35C
:100EF300400DD0E0D0E0D0E0020E2CA3A3A3A3A327
:100F0300A3D0E0227404800474028000CCC0E0ED1E
:100F1300C0E0E521C39CCCAD2250011D10AF068C6F
:100F2300218D2280068C218D22D2AF121004D0E0B5
:100F3300FDD0E0FC2274028000CCC0E0EDC0E0E50F
:100F430021C39CCCAD2250011D10AF068C218D22F4
:100F530080068C218D22D2AF120FE2D0E0FDD0E0CB
:100F6300FC22C0E0C0F088F0E493667008087401C6
:100F73009366187000A8F0A3A3700BD0F0D0E0D054
:100F8300E0D0E0020E2CA3A3D0F0D0E022D083D097
:100F930082CCC0E0E493A360061210441470FAE418
:100FA30093A360061211841470FAD0E0FCE493A3B7
:100FB300C0E0E493C0E022C0E074F2120BF8A2AFE9
:100FC300E433FED2AFE58BA2E05005790412164B51
:100FD300758B00C2E8EEA2E092AF7F01020C57CA04
:100FE300C0E0E493A3C582CCC582C583CDC583F09D
:100FF300A3C582CCC582C583CDC583DAE5D0E0CA5B
:1010030022CAC0E0E0A3C582CCC582C583CDC58317
:10101300F0A3C582CCC582C583CDC583DAE6D0E013
:10102300CA227009080808226016181818C6C333A4
:10103300C608C633C608C633C608C633C6D5E0EAF3
:1010430022C0E0E493A3D39C5010E493A3C39C4039
:101053000AD0E0D0E0D0E0020FADA3A3A3D0E022FA
:10106300C008C3E096F50808A3E096420808A3E089
:1010730096420808A3E09645087001D3D00822C021
:101083009FF59FE473D09F22D083D082C09FE493C7
:10109300C0E0740193C0E0740293F59F227404804E
:1010A3000A74038006740280027401C0E0F404121F
:1010B30010BBD0E01213BC222521F58210AF08F536
:1010C30021400C15228008F52140021522D2AF855C
:1010D30022832200C0D0252110AF08F521500C0532
:1010E300228008F52150020522D2AFD0D022C0E0E1
:1010F300C0D0E8C0E0A8A8D2AFC2C7E8A2E792AFC9
:10110300D0E0F8D0D0D0E032BB0102E722C082C0E9
:101113008389828A83BB0003E08002E493D083D077
:1011230082226016080808C6C313C618C613C61859
:10113300C613C618C613C6D5E0EA22C3E0C696F6A0
:1011430008A3E0C696F608A3E0C696F608A3E0C691
:1011530096F6222521F8E43522F9222521FAE435F1
:1011630022FB222521FCE43522FD22252110AF0894
:10117300F521400C15228008F52140021522D2AF3B
:1011830022C0E0E493A36C7009D0E0D0E0D0E00289
:101193000FADA3A3D0E022E76670100809E76670DD
:1011A3000A0809E76670040809E76622E06670101A
:1011B30008A3E066700A08A3E066700408A3E0666B
:1011C30022C3E7960809E7960809E7960809E79610
:1011D300A2D265D03322C3E09608A3E09608A3E029
:1011E3009608A3E096A2D265D03322181818E4C358
:1011F30096F608E496F608E496F608E496F622C313
:10120300E096F008A3E096F008A3E096F008A3E0C8
:1012130096F022181818E60846087009E6260870A2
:1012230005E633F4220822191919E7094709700959
:10123300E727097005E733F4220922C3E697F60886
:1012430009E697F60809E697F60809E697F622C332
:10125300E4939608740193960874029396087403B2
:10126300939622E627F60809E637F60809E637F6E5
:101273000809E637F622700422600D18C6C333C688
:1012830008C633C6D5E0F41822E657F60809E65730
:10129300F60809E657F60809E657F622E056F60877
:1012A300A3E056F608A3E056F608A3E056F622E0BC
:1012B30026F608A3E036F608A3E036F608A3E036E0
:1012C300F622E026F008A3E036F008A3E036F008A3
:1012D300A3E036F022E647F60809E647F60809E6F2
:1012E30047F60809E647F622E493F608740193F6F5
:1012F30008740293F608740393F622E667F6080966
:10130300E667F60809E667F60809E667F622E05697
:10131300F008A3E056F008A3E056F008A3E056F067
:1013230022C6F4C608C6F4C608C6F4C608C6F4C680
:1013330022C3E09608A3E09608A3E09608A3E096EC
:1013430022C3E7960809E7960809E7960809E7968E
:101353002275D00075813F75210175220500020CAD
:10136300AF600C08C6C313C618C613C6D5E0F42273
:10137300E6F008A3E6F008A3E6F008A3E6F022E708
:10138300094709C3134709336002E733F422E0F640
:1013930008A3E0F608A3E0F608A3E0F622E6084671
:1013A30008C3134608336002E633F422800100E9E0
:1013B300F874FF28F90470F622CAC0E0E6F0A30827
:1013C300DAFAD0E0FA22E0F8A3E0F9A3E0FAA3E026
:1013D300FB22E8F0A3E9F0A3EAF0A3EBF022EAF0A2
:1013E300A3EBF0A3ECF0A3EDF022E0FAA3E0FBA360
:1013F300E0FCA3E0FD22E5C754F84401F5C77901F9
:10140300222521F582E43522F58322E626184618A3
:1014130046184622C2AF75D69F02000022E727195D
:1014230047194719472212108B18890512108BACE4
:10143300890512108B5D8A0512108BAE8A05121076
:101443008BF28A0512108B8C8B0512108BFC8B058B
:1014530012108B2B8C0512108B318D0512108B5BA8
:101463008D0512108BAF8D0512108B838E05121014
:101473008BB1900512108B5F910512108BCC9305E5
:1014830012108B51940512108B54970512108B88F0
:10149300990512108BC4990512108B1D9B05121010
:1014A3008B309B0512108B6D9B0512108B099D05CC
:1014B30012108BBD9E0512108B67EF0212108BE387
:1014C300EF0212108B16F00212108B44F00212106E
:1014D3008B82F00212108BBFF20212108BDEF2022B
:1014E30012108B23F30212108BB9F30212108B0527
:1014F300F40212108B99F40212108B72F50212107F
:101503008BCEF50212108B2CF60212108B9FF60273
:1015130012108BE3F60212108B3BF70212108B5D55
:10152300F70212108BEDF70212108B7EF8021210E5
:101533008BCAF80212108BF6F80212108B37F902DD
:1015430012108BCDFA0212108BB9FB0212108B947E
:10155300FC0212108B68B60612108B93B60612109B
:101563008BB3B60612108BDAB60612108B21B806AF
:1015730012108B42B80612108B16B90612108BADDF
:10158300B90612108B2FD90612108B34D9061210FC
:101593008B67D90612108BBEFF0112108BD9FF0186
:1015A30012108B647D0012108B2E7E0012108B4064
:1015B3007E0012108BB77E0012108B63DA061210B6
:1015C3008B7DDA0612108BF47F0012108BD8FF028A
:1015D30012108B4CD70612108B5CD70612108B712E
:1015E300D70612108BD9D70612108B75D00612109E
:1015F3008BF9D00612108B61D10612108BC7C90666
:1016030012108BDBC90612108B51CA0612108BA065
:10161300CA0612108BD5CA0612108BF8CA0612100E
:101623008B1BCB0612108B54CB0612108B85CB066B
:1016330012108BCCCB0612108B7CD30612108B03AB
:10164300D40612108B0CD40612108B33D40612104E
:101653008B5AAF0612108B68AF0612108BE1AF06E0
:1016630012108BBAB00612108B7DB20612108BFFCC
:10167300D90612108B6EFD0212108BB8FD021210E8
:101683008B4EFE0212108BD4FE0212108B06FF0249
:1016930012108B1EFF0212108B92FF0212108BA8E6
:1016A300FF0212108BBBFF0212108BC5FF02121038
:1016B3008B41C50612108B6CC50612108BA8C6068B
:1016C30012108BDDC60612108BFFC60612108B3666
:1016D3009C0612108B609C0612108B789C061210CD
:1016E3008B8F9C0612108BB89C0612108B499D069B
:1016F30012108B5A9D0612108BC29D0612108B215D
:101703009F0612108B20A00612108B9A89061210C6
:101713008BC6890612108B308C0612108B708C06C8
:1017230012108BAC8C0612108BC08C0612108BD946
:101733008C0612108BCB8D0612108B7E8E06121028
:101743008B928E0612108BE3CD0612108B07CE06FA
:1017530012108B20CE0612108B5ECE0612108B8ECB
:10176300CE0612108BBBCE0612108B21CF061210A1
:101773008B24CF0612108B2ECF0612108B3BCF0675
:1017830012108B45C00612108B65C00612108BA475
:10179300C00612108BC2C00612108BDDC0061210D9
:1017A3008B43C10612108B4FC10612108BACC106BE
:1017B30012108BBBC10612108BDFC10612108BA057
:1017C300C20612108BADC20612108BBEC2061210D7
:1017D3008BE3D70612108B2BD80612108B57D80623
:1017E30012108BA0930612108BF4940612108B0226
:1017F300950612108B15950612108B2A950612105A
:101803008B3F950612108B52950612108BCE9506C0
:1018130012108B33960612108BC9960612108BA2E8
:10182300970612108BB2970612108BC197061210EF
:101833008BB3D60612108BD7D60612108BFFD606A3
:1018430012108B27D70612108BECC20612108B13C3
:10185300C30612108B31C30612108BA0C3061210DD
:101863008B34BD0612108B4DBD0612108B59BD066D
:1018730012108B6DBD0612108B8BBD0612108B954B
:10188300BD0612108B9FBD0612108BB2BD0612103F
:101893008B3CBE0612108BB1BE0612108BE5BE0642
:1018A30012108B33BF0612108B80BF0612108B9B56
:1018B300BF0612108BA5BF0612108BCBBF061210EA
:1018C3008B30C00612108BF4D50612108B16D60679
:1018D30012108BDA7F0012108B00800612108B2CF3
:1018E300800612108B49800612108B5C8006121042
:1018F3008B77800612108BD1800612108BFF800627
:1019030012108B13850612108B71860612108BA38F
:10191300860612108B06870612108B8B8806121010
:101923008BB3880612108BC8880612108BD88806D2
:1019330012108B18890612108B5A890612108B6AA3
:10194300890612108B45CF0612108B5FCF0612103B
:101953008B87CF0612108BA0CF0612108BC4CF0635
:1019630012108BE2CF0612108BF9CF0612108B27C1
:10197300D00612108B42D00612108BBBD906121060
:101983008BD1AB0612108BE1AB0612108BE6AC06C3
:1019930012108B18AD0612108B48AD0612108B6B0C
:1019A300AD0612108B82AD0612108BBCAD06121061
:1019B3008B21AE0612108B63AE0612108BAAAE06F5
:1019C30012108BD7AE0612108B02AF0612108B8843
:1019D300FE0412108BA8FE0412108BBCFF0412101D
:1019E3008BBFFF0412108BE9FE0312108B1FFF0342
:1019F30012108B37FF0312108B79FF0312108B89A0
:101A0300FF0312108BCDFF0312108BD7FF031210AD
:101A13008BF7F70312108B3AF80312108B9FF8031E
:101A230012108BBEF80312108B60F90312108B692E
:101A3300F90312108BBAF90312108BE3F903121096
:101A43008BF0F90312108B62FA0312108BF0FA0376
:101A530012108B35FB0312108B6EFB0312108BD30A
:101A6300FB0312108BFCFB0312108B73FC0312108D
:101A73008BC2FC0312108BFFFC0312108B34FD038B
:101A830012108B46FD0312108B58FD0312108B7737
:101A9300FD0312108B80FD0312108B3CFE0312100A
:101AA3008B7FFE0312108BBDFE0312108B96FF0576
:101AB30012108BE2B20612108B22B40612108B4561
:101AC300B40612108B56B40612108B48B6061210C9
:101AD3008B89C70612108BBFC70612108B07C80667
:101AE30012108B60C90612108BA3EB0112108BC965
:101AF300EC0112108B05ED0112108BC3EE011210D5
:101B03008BF1EE0112108B5BF10112108B9BF10133
:101B130012108B3DF30112108BD3F30112108B2D96
:101B2300F40112108BBDF40112108B01F501121098
:101B33008B43F50112108BA8F60112108B28F801C4
:101B430012108B69FA0112108B97FA0112108BC3D2
:101B5300FA0112108BCCFA0112108B29FB0112101F
:101B63008BC2FB0112108BD9FE0112108B5FFF0198
:101B730012108B5AD80612108B70D80612108B7A5B
:101B8300D80612108B58A00612108B6EA0061210E6
:101B93008B12A10612108B51A10612108B6EA10697
:101BA30012108B9FA10612108BECA10612108B2032
:101BB300A20612108B5BA20612108B50A406121001
:101BC3008B7CD20612108BDBD20612108B19D30634
:101BD30012108B5AD30612108B39D50612108BA70D
:101BE300D50612108BC7D50612108BDAD506121044
:101BF3008B7AD10612108B8BD10612108BA3D106D0
:101C030012108BBED10612108BD9D10612108B0E77
:101C1300D20612108B25D20612108B2CD20612106C
:101C23008B36D20612108B42D20612108B7BD4064F
:101C330012108BEFB90412108BFBB90412108B5DD9
:101C4300BA0412108B67BA0412108BF6BA0412107E
:101C53008B32BB0412108B2BBC0412108B88BC0478
:101C630012108B16BD0412108B67BD0412108BE784
:101C7300BD0412108B9BBF0412108B73C00412108F
:101C83008B78C20412108B72C30412108BA4C40489
:101C930012108BF6C60412108B39C80412108BDE97
:101CA300C80412108B8CCD0412108B82CE04121038
:101CB3008B18CF0412108B3DCF0412108BDACF0494
:101CC30012108BF7CF0412108B17D00412108B85D0
:101CD300D00412108BA2D00412108BD0D004121097
:101CE3008B68D20412108B89D20412108B2FD30469
:101CF30012108B77D30412108BD5D30412108B7868
:101D0300D40412108BDDD40412108B3CD5041210B2
:101D13008BEED50412108B5DD60412108B98D6046B
:101D230012108B0CD70412108B57D80412108BE7A8
:101D3300D90412108B86DA0412108BC6DC0412103D
:101D43008B28DD0412108B56DD0412108B79DF040F
:101D530012108B23E20412108B36E30412108B0053
:101D6300800412108BD0820412108BE284041210B0
:101D73008BEC840412108B0C850412108B83850466
:101D830012108BA7860412108B3D880412108B0D42
:101D9300890412108BF4890412108B168A04121012
:101DA3008B2B8B0412108B4E8D0412108B758D04AC
:101DB30012108B968D0412108BB78D0412108B4D5D
:101DC3009A0412108B609B0412108B639C041210F4
:101DD3008B629F0412108BE2A40412108B00A804E0
:101DE30012108BC9A90412108BA0B80412108B40D7
:101DF300B90412108BA9B90412108B42A806121051
:101E03008BFDA80612108B63A90612108B84A906FA
:101E130012108B5FAA0612108B43BC0512108B7233
:101E2300BC0512108BF6BC0512108B59BE0512109F
:101E33008B43BF0512108BFFC00512108B24C10505
:101E430012108B76C10512108B08C20512108B5429
:101E5300C20512108B67C20512108BC4C205121083
:101E63008B91C30512108B03C40512108B3AC40562
:101E730012108B83C40512108B2BC60512108B0A0C
:101E8300C70512108B58C80512108B3BC9051210D9
:101E93008BC7C90512108B00CA0512108B1FCA0508
:101EA30012108B6ACA0512108B8ACA0512108B474F
:101EB300CB0512108B6ACC0512108BC5CC05121002
:101EC3008B0BCD0512108B13CE0512108BAED005E4
:101ED30012108BD4D00512108B4FD10512108B74B6
:101EE300D10512108BE8D10512108BC6D205121042
:101EF3008B04D30512108B8ED30512108B75D4056A
:101F030012108B78D40512108B82D40512108B8C8F
:101F1300D40512108BA8D40512108B1AD5051210F4
:101F23008B53D50512108B7FD50512108BA6D505C3
:101F330012108BCAD50512108B05D60512108B789B
:101F4300D60512108BACD60512108BB6D60512101F
:101F53008BF2D60512108B27D70512108B46D705A7
:101F630012108B75D90612108B8DD90612108BF7B0
:101F73007F0012108B74A00512108B97A00512100E
:101F83008BF5A10512108B3EA20512108BAAA20598
:101F930012108B08A30512108B0BA30512108B5C78
:101FA300A30512108BD1A30512108B61A405121087
:101FB3008B64A40512108BE5A40512108B26A505CE
:101FC30012108B4BA90512108BF5AA0512108B4921
:101FD300AB0512108BD8AE0512108B10B005121082
:101FE3008BE4B00512108B4EB10512108B78B1053E
:101FF30012108B31B30512108B14B50512108BC35D
:10200300B50512108B60B60512108B4BB705121075
:102013008BB3B90512108B0DBB0512108B7BBB055F
:1020230012108B79D70512108B23D80512108B8EC3
:10203300D80512108BA9D80512108B2AD9051210B6
:102043008B84D90512108BCBD90512108B2ADA0594
:1020530012108B3CDB0512108B65DE0512108B957D
:10206300DF0512108B1DE00512108B26E2051210FE
:102073008BD8E20512108B72E30512108B43E40533
:1020830012108BFEE50512108B9CE70512108B29AD
:10209300E80512108B4FE90512108B5FD503121060
:1020A3008BC2D50312108B0AD60312108B4ED603A4
:1020B30012108BA9D60312108B06D70312108B4173
:1020C300D70312108BC3D70312108B1DD803121022
:1020D3008B9BD90312108B13DA0312108B30DB03A3
:1020E30012108B58DB0312108BABDC0312108BBC6A
:1020F300DC0312108BD4DC0312108BDDDD03121012
:102103008BBADE0312108BB7DF0312108BDBDF03F6
:1021130012108BF2DF0312108B13E00312108B35B6
:10212300E00312108B54E00312108B2CE103121006
:102133008B86E10312108B1DE40312108B76E403EC
:1021430012108B95E40312108B85E50312108BA0FC
:10215300FC0512108BEEE60312108B6DE7031210D1
:102163008BA9E70312108BE3E70312108B52E803EA
:1021730012108BB8880512108BDFEA0312108BEC58
:10218300EB0312108B64ED0312108B5AEF03121042
:102193008BD0F10312108BAAF30312108B6BF40391
:1021A30012108BE3F40312108BFAF40312108BF169
:1021B300F50312108BE5F60312108B54F70312107C
:1021C3008BE9B90612108B99BB0612108B58BC060B
:1021D30012108B2C820512108B5DA40612108B7BC0
:1021E300A40612108BBFA40612108BE5A4061210CE
:1021F3008B0CA50612108B24A50612108B3CA5068A
:1022030012108BDEA50612108B20A60612108B432C
:10221300A70612108B4CA70612108B55A706121097
:102223008B5EA70612108B68A70612108B89A70670
:1022330012108BA68E0612108BE4920612108BF2EC
:10224300920612108BF7920612108B70CC061210A6
:102253008B37DA0612108BD0D80612108BE0D80613
:1022630012108BF2970612108B9F920112108BD1D2
:10227300920112108B3D930112108BD8930112100F
:102283008B77940112108BBC940112108BDE940196
:1022930012108BF7940112108B1D950112108B3FB6
:1022A300950112108B7D950112108BC195011210AF
:1022B3008BE3950112108B45960112108B0C97013D
:1022C30012108BC3970112108B35980112108B07D4
:1022D300990112108B51990112108BA499011210BC
:1022E3008B0A9A0112108B449A0112108B969A0151
:1022F30012108BB29A0112108BDD9A0112108BE42B
:102303009C0112108B389E0112108B5A9E011210E1
:102313008B8E9E0112108BAF9E0112108BBE9E01FD
:1023230012108BC99E0112108B799F0112108BE240
:102333009F0112108B8FA00112108BC7A0011210E6
:102343008B8DA10112108B9AA20112108BE4A201B2
:1023530012108B73A30112108BD7A30112108B12CF
:10236300A40112108B7EA60112108BD2A7011210AA
:102373008B0BAB0112108BD8AB0112108B66AC0127
:1023830012108B8FAC0112108B01AD0112108B95C3
:10239300AD0112108BF3AD0112108BE5AE011210DB
:1023A3008B07AF0112108B63B00112108B7CB0014D
:1023B30012108B8FB00112108BFEB00112108B0A1A
:1023C300B20112108B17B20112108B20B20112103E
:1023D3008BF8B30112108B1EB50112108B2EB501B1
:1023E30012108B30B60112108BA7B60112108BD6C8
:1023F300B60112108BEBB70112108BB7B901121093
:102403008B8FBD0112108B99BD0112108BADBD01D5
:1024130012108BB7BD0112108BC1BD0112108BCBF3
:10242300BD0112108BE4BD0112108BEEBD01121021
:102433008B62BE0112108B6DBE0112108B92BE0116
:1024430012108B9DBE0112108BEBBE0112108BF587
:10245300BE0112108B00BF0112108B24BF0112109A
:102463008B48BF0112108BA4BF0112108BEABF016E
:1024730012108B07C00112108B84C00112108BBB8A
:10248300C00112108BFAC00112108B47C101121048
:102493008BC9C10112108B62C20112108B32C401AD
:1024A30012108B90C40112108BACC50112108BD289
:1024B300C50112108B11C70112108B37CA011210FC
:1024C3008B78CC0112108B54CE0112108BEACE0103
:1024D30012108B11D10112108BBDD10112108BF28E
:1024E300D10112108B57D20112108B61D20112103D
:1024F3008B8BD40112108BB2D50112108BF2D50144
:1025030012108B98D60112108B29D80112108BB29E
:10251300D90112108BD2D90112108B2BDA011210B0
:102523008B2DDB0112108B77DB0112108BC7DB01C4
:1025330012108BB1DC0112108B26DD0112108B40BF
:10254300DE0112108BBBDE0112108BC0DF011210F3
:102553008B6BE20112108B8AE20112108BEBE30109
:1025630012108BADE50112108B01E60112108BB92D
:10257300E60112108B68E70112108BBEE7011210FF
:102583008B74E80112108B09E90112108B75E901B4
:1025930012108BAFE90112108BE0E90112108B3C92
:1025A300EB0112108B00800312108B328003121088
:1025B3008B69800312108B52820312108B358303B5
:1025C30012108B8D830312108BC8840312108B148B
:1025D300850312108B3C880312108B9E8B03121001
:1025E3008BEB8C0312108B818D0312108B8D8D035B
:1025F30012108BBF8D0312108B418F0312108BDCD3
:10260300900312108B84910312108BC79103121045
:102613008B2D920312108B4A920312108B7A920322
:1026230012108BAF920312108B7F930312108B281F
:10263300940312108BAC960312108BCC97031210D9
:102643008BB5980312108B37990312108B569D0389
:1026530012108B939D0312108BEB9D0312108B1E94
:102663009E0312108B9F9E0312108BEC9E0312107D
:102673008B779F0312108BC99F0312108BA0A003AB
:1026830012108B59A10312108BF4A10312108B0D9E
:10269300A50312108B2DA60312108BDAA9031210B7
:1026A3008BF8AA0312108BFBAA0312108B2AAB031D
:1026B30012108B30AD0312108B09AE0312108B3E38
:1026C300AE0312108B46AF0312108BFCAF03121034
:1026D3008B9DB10312108BC2B10312108B01B20395
:1026E30012108B73B20312108B57B30312108B2487
:1026F300B40312108B5AB60312108BCBB60312100D
:102703008B0BB70312108B6CB70312108B2FBB0309
:1027130012108B1EBC0312108B05BD0312108B7D90
:10272300BD0312108B3FBE0312108B3DC00312106A
:102733008B55C00312108B69C00312108BA1C00309
:1027430012108BCFC00312108B56C20312108B6171
:10275300C30312108BB3C30312108B14C4031210E0
:102763008BC6C40312108BEDC40312108BD1C503A7
:1027730012108B82C60312108B71C80312108BA622
:10278300C80312108B0EC90312108B3DCA0312101B
:102793008BEFCA0312108B20CB0312108B38CB03A1
:1027A30012108BC7CB0312108B7BCE0312108B53EB
:1027B300D00312108B6FD00312108B8BD003121027
:1027C3008B59D10312108B3DD50312108B0080025D
:1027D30012108B38800212108B16850212108B5C3C
:1027E300850212108BA9860212108B148702121015
:1027F3008B9D880212108BAD8B0212108BC88C023A
:1028030012108BDA960212108B6D970212108BBF87
:102813009A0212108BBB9B0212108B169C02121091
:102823008B609D0212108B4E9E0212108BEAA00247
:1028330012108B5EA20212108BE1A20212108BE423
:10284300A20212108B59A30212108B63A30212105F
:102853008B70A30212108B9BA30212108B4BA4024A
:1028630012108B44A50212108BEFA50212108B0DD0
:10287300A60212108B26A60212108B4FA60212106C
:102883008B71A60212108BC6A80212108B8BA902A1
:1028930012108BD0A90212108B4FAA0212108BFBBD
:1028A300AA0212108B2DAB0212108B81AB021210F5
:1028B3008BBCAB0212108B03AC0212108B53AC0215
:1028C30012108B58AC0212108BACAC0212108BD8C6
:1028D300AC0212108BC1AD0212108B12AE02121099
:1028E3008B72AE0212108BCCAE0212108B67AF024A
:1028F30012108BA6B20212108BB8B30212108B32D5
:10290300B50212108B42B80212108BE0B8021210FB
:102913008BD6BB0212108B95BC0212108BD9BC0252
:1029230012108B84BE0212108B98BE0212108BA25F
:10293300BE0212108BACBE0212108BB8BE02121074
:102943008BDDBE0212108BB6C00212108B0BC102BC
:1029530012108B15C10212108B1FC10212108B941F
:10296300C10212108BE3C10212108BF4C2021210C7
:102973008B41C30212108B4EC40212108B92C402FD
:1029830012108B38C50212108B2BC60212108BF15A
:10299300C60212108B14C80212108B32C902121015
:1029A3008B1ACA0212108B32CA0212108B89CA0206
:1029B30012108B93CA0212108B9ECA0212108BBC88
:1029C300CA0212108B04CB0212108B66CB021210B8
:1029D3008B8DCB0212108B9FCB0212108B3ACC0241
:1029E30012108B6FCC0212108B56CD0212108B9BE0
:1029F300CD0212108B81CE0212108BA8CE021210C0
:102A03008B2BCF0212108B9CCF0212108B25D1027D
:102A130012108B51D20212108B14D30212108BDCC2
:102A2300D30212108B66D40212108B8ED5021210B1
:102A33008B30D60212108BABD60212108B67D702E3
:102A430012108BB1D70212108B0BD80212108BE32A
:102A5300D80212108B06D90212108BB9D9021210A8
:102A63008BDBD90212108B44DA0212108B5ADC0270
:102A730012108B52DD0212108B16DE0212108B48DD
:102A8300E00212108B92E00212108BE2E0021210AD
:102A93008B46E10212108BA8E10212108BD6E102E1
:102AA30012108BFAE10212108B2FE20212108B60CC
:102AB300E20212108B93E20212108BE3E202121075
:102AC3008B36E30212108B5BE40212108BFBE502E0
:102AD30012108B56E60212108B7FE60212108B0C3B
:102AE300E70212108B7AE70212108B88E7021210AA
:102AF3008BACE70212108B01E80212108B1CE80268
:102B030012108BCEE80212108B06E90212108B49C9
:102B1300E90212108BACE90212108BAEEB02121019
:102B23008BD8EB0212108BCFEC0212108BD9ED0273
:102B330012108B89EE0212108B4F720012108B87CA
:102B4300720012108BA8720012108BEA720012101E
:102B53008B4C730012108B56730012108B6673002C
:102B630012108BA1730012108B81770012108B6EE1
:102B7300790012108B547B0012108BEB7B00121028
:102B83008B8D7C0012108B40380012108BEB3800B9
:102B930012108B99390012108B9F3A0012108BBFC1
:102BA3003A0012108BE83B0012108BA33D00121069
:102BB3008B163E0012108BBA3E0012108BC63F00DC
:102BC30012108B31400012108B6D400012108BB02D
:102BD300400012108BEB400012108B2D410012109D
:102BE3008BC2410012108B3E420012108B0843002F
:102BF30012108BE5430012108B7D440012108B974B
:102C0300440012108BC7440012108BF844001210BA
:102C13008BBE450012108BCE450012108B1D460053
:102C230012108B2A460012108B33460012108BB100
:102C3300460012108B0D470012108B5847001210DC
:102C43008B73470012108B9E470012108BBB4700FB
:102C530012108BC7470012108B5E490012108B773E
:102C6300490012108BFC490012108B0F4A001210FE
:102C73008B2E4A0012108BD24A0012108B534C0039
:102C830012108B064E0012108B9C4E0012108B9F5D
:102C93004E0012108B0F4F0012108B2D4F0012108D
:102CA3008BC44F0012108B0C500012108B0F50006E
:102CB30012108BD5500012108B42510012108B68EA
:102CC300510012108BF3510012108B11520012108D
:102CD3008B57520012108B0B530012108B5553005D
:102CE30012108B84530012108BE1530012108B16B9
:102CF300540012108B42540012108B5054001210C7
:102D03008B9D540012108B0D550012108B565500DD
:102D130012108BA2550012108BCE550012108BD9B6
:102D2300550012108BF7550012108BE2560012104B
:102D33008BEC560012108B27570012108B3757005D
:102D430012108B8B570012108B9F570012108BCED3
:102D5300580012108BE3580012108B715900121097
:102D63008BB6590012108B425A0012108B4D5A0029
:102D730012108B8F5B0012108BAA5B0012108BF664
:102D83005B0012108B655C0012108B9E5C001210AE
:102D93008BB85C0012108B185D0012108BB75D00AE
:102DA30012108B025E0012108BD2600012108B8403
:102DB300610012108BF1610012108B31640012104C
:102DC3008B49640012108B4C640012108B58640002
:102DD30012108B6C640012108B74640012108BA79A
:102DE300640012108BAA650012108B376600121054
:102DF3008BA7660012108B29670012108BEA6700FD
:102E030012108B09680012108BAA680012108B072E
:102E1300690012108B0A690012108B7E6900121070
:102E23008BCD6A0012108BD36B0012108B5E6C007B
:102E330012108B796D0012108B416E0012108B7281
:102E43006E0012108B956E0012108B9E6E00121086
:102E53008BCD6E0012108B5D6F0012108B13700000
:102E630012108B88700012108B2F710012108BA41C
:102E7300710012108BDB710012108B19720012108B
:102E83008B88880512108B03FC0512108BF9FB0548
:102E930012108BEFFB0512108B88FB0512108B6D44
:102EA300FB0512108BCAFA0512108BCAF905121012
:102EB3008BE8F80512108BD8F60512108BE6F50592
:102EC30012108B84F50512108BDC870512108B070B
:102ED300E90312108B74FE0412108B6AFE041210A5
:102EE3008B80810512108BEE800512108BFFFD0481
:102EF30012108B33FC0412108BF1FB0412108BFDA8
:102F0300FA0412108BD1FA0412108B88FA041210EF
:102F13008BC9F90412108BA1F60412108B45F4042B
:102F230012108B15F40412108BC5F30412108B5F6F
:102F3300F30412108B1EF30412108B50F2041210C0
:102F43008BEAF10412108B89F10412108B29F1041E
:102F530012108BC7EF0412108B5BEF0412108BAFB0
:102F6300EE0412108BAAEE0412108B93EE041210CF
:102F73008BA8800512108B5EEE0412108B738005F4
:102F830012108B40800512108B2B800512108B00C2
:102F9300800512108B50FF0512108B1CFF051210B9
:102FA3008BF0EA0412108BEDEA0412108BABEA04E7
:102FB30012108BC5FE0512108B98EA0412108B8D2C
:102FC300EA0412108B5CEA0412108B54E80412100A
:102FD3008B75850512108BC7E70412108BC0BC06D6
:102FE30012108B83E70412108B57E70412108B1413
:102FF300F50512108BE7F40512108BB4F4051210CB
:103003008B8CF40512108B2DF40512108B0DF40527
:1030130012108BD8F30512108B84F00512108B6CF1
:10302300EE0512108B56EC0512108BD6EB05121021
:103033008B82EB0512108B8EEA0512108B4EFD0569
:1030430012108B36EB0512108BBBE50300000080DA
:10305300FB000022E4738F000100B01D8700010014
:10306300AE1D35000400741D25000200781D2600E6
:1030730002007A1D270002007C1D28000100861D26
:1030830029000100871D84000400521A86000100F4
:10309300CC1C2A000100881D2B000100891D2C0077
:1030A30001008E1D2D000800601A2E0001008F1DE7
:1030B3002F000100901D30000100911D310001001F
:1030C300921D32000100681A33000100691A3400AE
:1030D3000100931D360001006A1A38000100941D97
:1030E300390001008D1D83000200AC1D6300010047
:1030F300751A640001008A1D650001008B1D6D00B7
:103103000100761A71000800581A66000100AB1D11
:10311300430001009C1D440002009D1D4500010069
:103123009F1D46000200A01D470008006D1A4800BD
:103133000100A21D4B000100A31D04000100AF1DEF
:10314300A1000100B31D37000100B21D880001007A
:10315300B11D3C0001006B1A3D000100951D4900A3
:103163000200A41D67000100771A4D000200A61D8E
:103173004E000100A81D4F000200A91D3E000100E2
:103183009B1D51000100971D52000100981D530023
:1031930001009A1D540001006C1A00000000000099
:1031A30000000000200197920000010020019E9280
:1031B3000000020020019992000003002001989270
:1031C300000004004201DC8F000005004201898FEA
:1031D300000006004201C6900000070030019D92E6
:1031E30000000040420181910000FDFF2101939204
:1031F3000A000700230128190300000021231A19DC
:103203000300FDFF214193920D04000039051C19B1
:103213000D04210221232B1D0D04220221232D1D28
:103223000D04200210232F1D0D0425021023301D31
:103233000D0411021023211D0D0401041023221D6E
:103243000D0405042023231D0D0406042023241D3F
:103253000D0402041023251D0D0402021023261D54
:103263000D044404210122190D0445042023431DA8
:1032730000013636010100010201000103010001D2
:103283000401060605020000070100340801000FCF
:10329300090401010D0100FF0E08000017020000E0
:1032A300190100FF1A0100011B0100FE1C010008A7
:1032B3001D0200001F010001200100012102000086
:1032C3002301000F2402000026010001270100084A
:1032D300280200FF2A0100072B0102402C010000F5
:1032E3002D0100012E0100012F0100FF30010B1DF4
:1032F300310800003A0100083B01000F3C010001C6
:103303003D0100FF3E0400004204000046040000AB
:103313004A0400004E04000052040000560400005A
:103323005A040000010371030103010301030103B4
:10333300010322030203010310030003000300033C
:1033430000030003000300034203000324030603F6
:1033530000030003040312032503230325032303AC
:1033630004030403000300030003440300030003F6
:1033730023030003650321003503810300030503D1
:103383000003000300030003250323030302710268
:103393003001600211027002010202020202800285
:1033A300100261023A004100630273027202620278
:1033B3004302000213023800000200020402120258
:1033C3000002000200020002040204023700370078
:1033D3003C024402000239000002000265020002BE
:1033E3003502810200020502820283020002030009
:1033F300710030016000110070003102200350049D
:10340300800010006100000014006300730072006C
:1034130062004300000013000600000000000400E7
:103423001200000000000000000004000400370048
:1034330037003C024400000000000000000065006B
:10344300000035008100000005000000830000003B
:1034530001017101010101011101010131010101A9
:1034630001018001100161013B001400630173013C
:103473007201620143010001130106013D013500A0
:103483000401120100010001000100010401040113
:10349300330133013C0144013201360000010001D4
:1034A30065010001350081010001050182018301ED
:1034B3000001030471040204600411047004020493
:1034C30002040104020410046104000414046304EC
:1034D3007304720462044304000413040604000426
:1034E3000004040412040004000400040004510452
:1034F3006400000400040004440400040004000405
:103503000004650400043504810464000504000418
:103513008304000436000100060000000F000000D1
:103523000000000000000000000003FFFF00000493
:1035330003FFFF0000FFFF0FF4010005C404032095
:10354300000100000B000000000000000003010F59
:103553000000000000000000000000000000000068
:103563000000000000000000000000000000000058
:1035730000001D1D471D231D511C291D4D1D291D07
:10358300591D2F1D511C291D4D1D351D511C00009A
:1035930000003B1D511C0000000000000000411D05
:1035A300511C0000000000000000000000000000AB
:1035B3000000000000000000000000000000000008
:1035C30000000000000000000000000000001300E5
:1035D300ED1F1F00F31F1F80F91F00005320010080
:1035E30053200200991F0280931F03009F1F0400B2
:1035F300A51F0480AB1F0500B11F0600BD1F3100CE
:10360300CF1F3300D51F3400DB1F3600E11FFFFF40
:1036130000000A000000020000000400000008008F
:1036230000001000000020000000400000008000A7
:103633000000000100000002000000040000000878
:1036430000000010000000200000004000000109FD
:10365300280639280833280B5728105725020F2826
:103663000527280715280CF1270DFD27644D23FF97
:103673000000030003000400080010001F003E00C8
:103683007B00F600EC01D703AF075D0FB91E713D58
:103693000000020400002905241902041002292352
:1036A300271D0504000021052619050410022923FE
:1036B300291D07ECFDFDFDECDCDCCCBCACAC9C9C1B
:1036C3008C7C7C6C6C5C5C5C4C4C3C3C2C2C1C1CE7
:1036D30000160F00000B150B020002220F3300002F
:1036E3000E0F0000000000000000000000000000BA
:1036F30000005A6967426565416C6C69616E636578
:103703003039D0D1D2D3D4D5D6D7D8D9DADBDCDD92
:10371300DEDF150AF4D4C0A5958272636155504962
:1037230000034D4C4651181A25050230301718195D
:1037330021301B1D1F30003C40423A3F3F392F4789
:103743003000011916181616182303003030161806
:103753001920231A1C1E300C0E020B040B0A070837
:10376300000F02040201010101090200BE040AE87C
:10377300030000F6FB010003000000E8030000B5AE
:10378300360E007F0015370C0504041E1010080ABE
:1037930028FF001A0402040009033C0C090508155C
:1037A3000800FF030C031EE4F0A3F0A3F0A322120E
:1037B30037AAF022901BBE124DB6122BF3221237FA
:1037C300C522E0F508E4F509F50AF50B22E824FB28
:1037D300F582E934FFF58322E82411F582E439F513
:1037E30083E022F5831237EC22E0F508A3E0F50924
:1037F30022122E6F74041210D67F08020E3C74013D
:10380300F09009DAE0640F2274091210D67F0402E3
:103813000E3CEA2413FAE43FFB122D9DE9227905BD
:10382300122DA9740622A3A3E024F5C39413221234
:103833002E7B9009FA126D747A147B0022C082C029
:1038430083901B9D74E7F0A3742BF0A374F9F0A38A
:10385300742BF0901BA174CFF0A3742BF0A374C945
:10386300F0A3742BF0A37405F0A3742CF0A3740BD2
:10387300F0A3742CF0A374FFF0A3742BF0A374B71C
:10388300F0A3742BF0901BAD74DBF0A3742BF0A3A7
:1038930074E1F0A3742BF0A374D5F0A3742BF0A3FD
:1038A3007411F0A3742CF0901BBE1257856009901D
:1038B3001BBE124DB2121AE3901BBB1250CC7408FC
:1038C300126421A3F0901C67F0901BC0F07C0BFDE9
:1038D300F97AC17B1B121A1D7C0B7D0079007ACC0F
:1038E3007B1B121A1D024F2674F7120B8C74F712EE
:1038F300116EEAFEEBFF12397E74051251EA74036E
:10390300F0123A951251CC2430FCE43FFD8C821224
:10391300397612398A60081241A374FFF0A3F0EEDE
:10392300242EE43F1C1CFD8C82F583A3E0C0E08AB7
:10393300828B83124E7ED0E012398A888289831269
:1039430056B92403F0EE1241AD1214047403F0903F
:1039530009EF120F0B7402121166123D771210D683
:10396300E9F5087007EEFAEFFB122C83A908740936
:103973000241BCF583E08882898322EA12398322DB
:103983001258C83FF583221266A11251D8E8F0A35A
:10399300E9126978E02274F0120B8CEAFEEBFF8CDB
:1039A3000C8D0D890B123A95F5831251E0741012A8
:1039B3001404E0F508A3123978F0E824FFF582E94E
:1039C300123D89E508F0E824FEF582E9123D89E518
:1039D3000BF09009F4E0C0E0E824FDF582E9123D24
:1039E30089D0E0F09009F3E0C0E0E824FCF582E937
:1039F300123D89D0E0F074121214041237E8123722
:103A0300D0E509F0E824FAF8E934FFF98882F58370
:103A1300E508F0EE2404FCE43FFD88088A828B83EA
:103A2300E0F50E8C828D83E0250EC395081266A106
:103A3300125006850C82850D83A3A3A3A3A3A3A37E
:103A4300A3E064037009EE1251BAF0A3E4800312F9
:103A53003D8E123D967409F07508C175091B750AF0
:103A63000078081210A412616B1210D67508FF7546
:103A730009FF78081210A8AC0CAD0D123D77121097
:103A8300D6E9F5087007EEFAEFFB122C83A90802BA
:103A930037FCEA2402FAE43FFB8A8222C082C08315
:103AA300901BDDE0C39408400474078001E08A8220
:103AB3008B83F033333354F8F9024F2674F0120B2F
:103AC3008C8A088B09890A8C0E8D0F750C00A2AFA6
:103AD300E433F50BC2AF901BD78045123BC1503D79
:103AE300123BDB64037036E50824F9F508E5093475
:103AF300FFF5098E828F83A3A3E02405FCA3E034A2
:103B030000FDAA08AB09121BD3E50824FFF508E55D
:103B13000934FFF5097410250CF50C150A123FB092
:103B2300127129E50A6004EE4F70B0E50BA2E09232
:103B3300AFA2AFE433F50BC2AF901BD7803E125652
:103B4300928882F583124906850882850983F08A63
:103B5300828983123BD2A3A3E0C0E0E50824FFF5EA
:103B630082E509123D89D0E0F0E50824FEF508E579
:103B73000934FFF509050C150A123FB0123E046023
:103B830021123BDB640270F1123BC1EE40B01253D1
:103B930001A2E550E4850E82850F837401F0E50AE6
:103BA30070D7E50BA2E092AF850882850983E50C07
:103BB300F0E50824FFFAE50934FFFB0237FC123B6A
:103BC300C7A2E622EE2411F582E43FF583E0221238
:103BD3003BD6221256D7A3228E828F83A3A3124EE3
:103BE30082125DAE2274F0120B8C74F312116E7498
:103BF30003121404E9F07402121404EAF08B0B8527
:103C03002182852283E4F00412115E122B99E9F8D4
:103C13009009D9E0292437F508FA7B00121A2F8A74
:103C23000C8B0DAE0CAF0DEA4F7003023D6EEA2410
:103C330002F50EE43FF50FA808EA28F8E43BF985FE
:103C43000E82850F831247029009D9E0F9FAC3E483
:103C53009AFA95E0FB850E82850F83E02AF50CA383
:103C6300E03BF50D9009D71237E8750A0078081282
:103C730010A4E9FC7D00AA0CAB0D12513C1210D626
:103C8300AC21AD227401121404E0F9E50C24FFFA0F
:103C9300E50D34FFFB122B9F8A828B83E4F0E50B47
:103CA300C454F0F9901C68E0C4333354C0F890094D
:103CB300D3E0A2E0E43313134849440FC0E0EA24FD
:103CC300FFF582EB123D89D0E0F0EA24FEF50CEB20
:103CD30034FFF50D7403121404E0F8740212140493
:103CE300E0C454F048850C82850D83F0A80C850E42
:103CF30082850F831263EE2AC3988E828F83A3A3D8
:103D0300A3A3F0850E82850F83E8F0A3E50DF012DF
:103D13003D8E123D96E4F0740C121404E4F0750821
:103D2300CC75091B78081210A412616B1210D6858A
:103D33002182852283E06009EE240E125303440896
:103D4300F0122D8BE9F9E4F508F50978081210A8AB
:103D53007406121166123D791210D6E97006EEFA56
:103D6300EFFB800BEEFAEFFB121A357A007B00743F
:103D73000D0237F97903EEFAEFFB122DA374022239
:103D8300EE24FFF582EF34FFF58322EE123983E44C
:103D9300F0A322F0123D9B22EE12608E3FF58322A8
:103DA30074F2120B8C8A0C8B0DA2AFE433F50AC2AA
:103DB300AF750800750900901BD7802C123FC050C7
:103DC30024850C82850D83A3A312617E8E828F834B
:103DD300A3A3124DB2122D91E9600A123FBBC2E6B2
:103DE300F08E088F09123FB0123E0470CFE50845EC
:103DF300096006123E9DD2E6F0E50AA2E092AF808A
:103E03000DE0FEA3E0FFEE4F2274021210D67F06F0
:103E1300020E3C74F0120B8C8A0E8B0F8C0C8D0DE2
:103E2300750A00A2AFE433F50BC2AF7E007F0090AA
:103E33001BD78010AE08AF09123E95125301D2E78B
:103E4300F0124D90124DA46034123E9DA2E750F142
:103E5300850882850983A3A3120F0BAC0CAD0DAAB1
:103E63000EAB0F122D9774021210D6E960D3EE4FEA
:103E730060C21242377006123EAFD2E4F0E50BA2E5
:103E8300E092AFEE4F6006122C7D750A01A90A027B
:103E930037FC123BC7D2E4F0EE22E5081260A835E6
:103EA30009F583E022AA82AB83121BD38E828F8310
:103EB300A3A3124E82E02274F2120B8C74FE121131
:103EC3006E750C00750D00852182852283E4F0A3B5
:103ED300F0A2AF33F50AC2AF901BD7127129802B22
:103EE300EE24FBF582EF34FF1237E6780C1210A8AC
:103EF300123F9E1210D6EEFCEFFDAA21AB22121A3E
:103F030053AE08AF09901BDDE014F0EE4F602B12A7
:103F13003FC0501DEE240BF8E43FF98882F583E09F
:103F230024FFF0A3E034FFF0888289831257856071
:103F3300AF8E0C8F0D123FB080A1E50AA2E092AFC5
:103F4300901BDDE0602C9009DAE0640F6006901CA2
:103F530067E0701E7AB57B1B122E7B90928D120F39
:103F6300077AB57B1B124FAE1210D6800574F01280
:103F73004E8FAA21AB22121A598A088B09AE08AFB9
:103F830009EA4F6013122BAB123FBBA2E28E828F62
:103F930083A350D974E980D7023E0CEEFCEFFD7A7F
:103FA300D77B1B121A657402228E0A8F0BEE24FB39
:103FB300F582EF34FFF58322EE123BC822123BC792
:103FC300A2E72274F7120B8CEAFEEBFF122BAB1263
:103FD3004E7B123057E964019009F6700AE0240120
:103FE300F8A3E034008003124E01F9125503125076
:103FF30006901BDDE0701F9009DAE0640F70177AFA
:10400300B57B1B122E7B90928D120F077AB57B1B0B
:10401300124FAE1210D6A8A8C2AF901BDDE004F079
:10402300E8A2E78004E508A2E092AF02541174F716
:10403300120B8CEAFEEBFFEA124067F0122BABEE99
:10404300FCEFFD7AD77B1B121A5FA8A8C2AF901BA7
:10405300DD1249559009DAE0640F70057908122DD5
:1040630043025411123BC8C2E42274F7120B8C743E
:10407300EA12116EEAFEEBFF9009D3E0602A852174
:10408300828522837401F0121404E4124122121473
:1040930004123EA8C0E0740A121404D0E012640EA5
:1040A300740B12140412566E74160241BC74F71288
:1040B3000B8CEAFEEBFF122B8DE9F974DC69601EB1
:1040C30074DD69601974E469601474F369600F74D2
:1040D300DE69600A74DF69600574DB697007EEFAF4
:1040E300EFFB122D4902541174F7120B8C74EB126F
:1040F300116EEAFEEBFF852182852283740612414D
:1041030022121404AA82AB83121BD3EE2408FCE40C
:104113003FFD740A12140412566E74150241BCF06A
:10412300EA2413FCE43FFD74022274F7120B8C742F
:10413300F712116EEAFEEBFFEA2430125303605DBF
:10414300EA1241AD1214047403F09009EF120F0B3D
:104153001241A3120F0B900A02E0F97404121166C4
:10416300EEFAEFFB122B9374041210D6E9F974DC08
:1041730069602374DD69601E74E469601974F3690E
:10418300601474DE69600F74DF69600A74E8696043
:104193000574DB697007EEFAEFFB122D49023971E2
:1041A300EE242EF582E43FF5832212657FAA21AB2C
:1041B30022121BD374082274031210D602541174F2
:1041C300F2120B8C8A0C8B0D750A00750B007508A7
:1041D300E7A2AFE433F509C2AF901BD78003123FC8
:1041E300AC123E046025123FC050F312423770EE0A
:1041F300EE24321243CEE06870E4780A1210A8125B
:104203003F9E1210D6901BDDE014F0E509A2E09268
:10421300AFEE4F6013EEFAEFFB122BAB79F0EEFA31
:10422300EFFB122D49750800A908AA0CAB0D122D3E
:1042330049023E11123D9BE064012274F4120B8C7F
:1042430074F712116EEAFEEBFF8A82F583A3E06432
:10425300F370030242DC8A828B83A3E064DF60791C
:104263008A828B83A3E064E8606F8A828B83A3E0F6
:1042730064DB6065122BEDE9F5087055EE240E1230
:104283005303604D1242E66048740812140412424C
:10429300F5120F0B7508FF7509FF78081210A88E29
:1042A300828F83A3A3A3A3A3A3A3A3E0F9740412FC
:1042B3001166122B9374041210D6E9F50874F3698E
:1042C300600F74DF69600A74E869600574DB697004
:1042D3000F8E828F83A3E508F0EEFAEFFB122BF922
:1042E30002380BEE240FFAE43FFB7909122C2FEA74
:1042F3004B227402125B7474FFF0A3124302221266
:1043030056C2A3A32274F1120B8CEAFEEBFF7508CD
:10431300008A82F583A3A3A3A3A3A312382940038E
:104323007508E88A828B83A3A3A3A3A3A3A3A3A350
:10433300A3E0C3941040057508E880138A828B8339
:10434300A3A3A3A3A3A3A3A3A3A3E0640F600B90BE
:104353001C44E0540870037508E8EA240B1243CEAA
:10436300A3A3A3A3A3A3A3A3E0C398500DEA240B81
:10437300125303640F60037508E89009F3E0F470C7
:1043830003A3E0F470037508EC7A237B00121ADDB3
:104393008B0BA90B901BBE1243DD60278E828F838C
:1043A300A3A3A982AA83890C8A0D750E00780C1227
:1043B30010A47C237D00901BBEE0FA12513C121026
:1043C300D6800375081AA908026166F582E43FF5F1
:1043D30083E0F88A828B83A3A322EAF0A3EBF0EABB
:1043E300492274F5120B8CEAFEEBFF8A82F583A354
:1043F300A3A3A3A3A3A3A3E09009DA124475E090B7
:1044030009F5F0EA240B1253039009D5124475A35E
:10441300E0901C68F0F9121873901C68E0600BEED2
:1044230024041252F5240612446B901C67123801BF
:104433006004740180027400901BC0126AB91210E8
:10444300A47C0B7D007AC17B1B12513C1210D6EE6B
:104453002418F508E43FF50978081210A47C0B7DB5
:10446300007ACC7B1B025129FAE43FFB79E1121855
:104473005B22126AA3A3A3A3A32274F7120B8CEAF1
:10448300FEEBFF8A82F583A3E070031237B712664F
:104493002A02541174F7120B8CEAFEEBFF901BBE39
:1044A3001257856010901BBE124DB2901BBEE4F0F4
:1044B300A3F0121AE38E828F837408124E9612228F
:1044C3003302541174F6120B8C901C67E060109049
:1044D3001BC0E0700A1244E5EA4B6003122C83020E
:1044E30067249009D5E0FB9009F5E0FA9009DAE03A
:1044F300F9122BA52274F4120B8C74E712116EEAD5
:10450300FEEBFF750B018A82F583A3A3A3A3A3A3E9
:10451300A3E0A2E25069EA242BF582E43F12617C16
:10452300EA2413FAE43FFB122BB1E9705290915E37
:10453300E064017005750B0080451245B71210A4A5
:104543007C0B7D00741112115E12513C1210D612B5
:104553002D8BE9FA740E121156880889097808120E
:1045630010A875083075090078081210A8EE1263B8
:10457300D7120F0B12657179011238231210D685E9
:1045830021828522837410F012657174021214045F
:10459300AA82AB83121BC7EE242B126D6A740B1213
:1045A3001404125006740D121404E50B1267E3741D
:1045B3001902380DEE2408126AC122C082C083900A
:1045C3001C68E06003122DFD024F26C082C0839059
:1045D3001C5F749DF0A3741BF0A374A1F0A3741B60
:1045E300F0A374ADF0A3741BF0901DE974B5F0A3B0
:1045F3007434F0901C497487F0A3742BF0901BE281
:1046030074BDF0A3742BF0901BE474C3F0A3742B5C
:10461300F0901C44E04402024A2AC082C083EAFCB0
:10462300EBFD7903025731C082C08379080268A485
:10463300C082C08374FE12116E901BEA746BF0A3E8
:10464300742CF0901BEC7465F0A3742CF080077A43
:10465300D77B1B12468F901BD712578570F1901B87
:10466300D912578560097AD97B1B12468F80EF9048
:104673001BD7E4F0A3F0901BDDF0A3F0A3F0901B95
:10468300F874A7F0A3742CF07402801C121A5985D5
:104693002182852283EAF0A3EB1246A3122D79220D
:1046A300F0AA21AB222274111210D6024F2674F6FF
:1046B300120B8CE9FF743929F582E43437F583E46E
:1046C30093FEFA7B00121A2FEA4B6007EA2E12467A
:1046D300FF80267A027B00121A2FEA4B6017742E92
:1046E3002FF582E43437F583E4938A828B83F0A336
:1046F300741A124AC87A007B00026724124FF5E845
:1047030012669EA3A3A3A3E4F022E9FC740629F88E
:10471300EAA2E0501EE875F00A84E5F0F96014742B
:104723000A28C399F8E9C394054004740A28F87465
:104733000B28F8ECC394134004791480027906E83B
:104743002979002409F85001097A0A7B001209C467
:10475300E8F9021088C082C083901C44E0540260D0
:104763000A122239E96004790180027900024F2696
:10477300C082C083901C44E054026014901BDDE0AF
:10478300700A125782600912479850047901800217
:104793007900024F261237DBA2E722C082C0839042
:1047A300915BE0F8901BDFE0C3985005121A2F804D
:1047B300047A007B00024F26C082C083122D7979D0
:1047C30000024F26C082C08374FE12116E852182BF
:1047D300852283EAF0A3EB124931A3A3A3A3A3E0A9
:1047E300600A14605724FE605A0248A19009DAE077
:1047F300640F6012122D4FE9700C124DAC901BE642
:10480300124E7E123057900A02E0C0E08521828565
:1048130022831256A5D0E012493174141260C2FCEF
:10482300A3E0FD7AD97B1B121A53A8A8C2AF901B31
:10483300DF1249557920122D4302468B124BFF7428
:104843001580D9124BFFA3A3A3A3E06051124BFF22
:10485300123EB3C0E0852182852283E02406F582DF
:10486300E43BF583D0E01260C22402F8A3E03400F5
:10487300F98882F583E02401FAA3E03400FB8882FF
:104883008983EAF0A3EB1260C2124C3F8521828533
:104893002283601312490660051249184048AA2171
:1048A300AB22122D79809212490660F212491850F8
:1048B30021124925FA852182852283A3E0C8240693
:1048C300124BFBF874641258BA3437F583E4936AD5
:1048D3006014852182852283124906640870BF1201
:1048E3004925640870B812492514124939240AC0AD
:1048F300E0852182852283124E7ED0E0124939045D
:1049030002481F12490A22124E01C82406F582E406
:1049130038F583E02285218285228312490AC394D4
:104923000A22852182852283123BD6A3E0221249E3
:1049330043F583888222124943C82406124C292254
:10494300F0852182852283124E0122A8A8C2AF904E
:104953001BDEE004F0E8A2E792AF22C082C083909E
:104963001BEE1257856008124C06123057800279ED
:1049730000024F2674F7120B8CEAFEEBFFEA123D9E
:104983009C7401124FB4F8A3E0F912397E12500659
:10499300EA2435125303C0E0EA2413F582E43FF519
:1049A30083D0E0F0EA2436125303C0E0EA2414F57E
:1049B30082E43FF583D0E0F0EA2438125303C0E0E9
:1049C300EA2418F582E43FF583D0E0F0EA242FF5DA
:1049D30082E43FF583120F0B12657EEA24311253F2
:1049E30003F9123D7D1210D6E9F5087007EEFAEFD0
:1049F300FB122C83A908025411C082C083122D4FCD
:104A0300E96004792080027901024F26C082C083C5
:104A1300EA2411124A20D2E0800DEA240DF582E443
:104A23003BF583E022F0A3F0024F26C082C083123D
:104A33004A1D64017011124AC2400C8A828B83A3FF
:104A4300E0F9122D498066124AB3A2E650128A8217
:104A53008B83A3E0F9901BE8124E7E123057804DF2
:104A6300124A1D6401700D124AC250088A828B8358
:104A7300743080368A828B83A3E0641B8A828B83A3
:104A8300700474228024A3E0700D124A1DF8744F41
:104A93001258BA3437800B124A1DF8742E1258BAC2
:104AA3003437F583E4938A828B83124AC8024F26F4
:104AB300124AB722EA2410F582E43BF583E022127E
:104AC3004AB7A2E322F0901C3FE0F9121A3B22748A
:104AD300F7120B8CE9FE1257827003024BF8EE605B
:104AE30014741B6E701AE812608E39F583E0640546
:104AF3007003024BD0901BE1124C06A3E4024BD788
:104B030074E96E7068E82412F582E439F583E07085
:104B13000B12223FE96005124C49606179EE1217CE
:104B2300DD901BE0124C20901BE0603A124C4C903D
:104B33001BE0700B124C2014F012199F024BF81259
:104B43004C3EC2E7124DE7240D124BFB6403700980
:104B5300124C19124D9DD2E2F079ED1217DD124C71
:104B6300311230578078124C0C74E9806774E16E0F
:104B7300703E12223FE96055124C4970509009FC77
:104B8300E0C0E0124C192412F582E438F583D0E03A
:104B9300F09009EBE0C0E0901BE0124C15124C15AD
:104BA300D0E0F09009EBE004F07901121987804519
:104BB300741C6E7018901BE0124DB2901BF0124ED5
:104BC3007E123057901BE0E4F0A3F08028901BE0A6
:104BD300124C0CEEF0901BE0124DB2122C71124DE0
:104BE300C8E054806003126893901BE0E4F0A3F0E4
:104BF3007910122D43025411124C292285218285EA
:104C03002283A3E0F583888222124C1022124E865F
:104C1300A3221256D322901BE01256B4221256B48A
:104C23002412124C2922F582E438F583E022901BEA
:104C3300E0124DB6901BE4124E8222E0F8A3E0C8C6
:104C43002410124C2922901BE0124DCFE054042271
:104C530074F4120B8C750A00750B00A2AFE433FEDB
:104C6300C2AF1257826003024D46124E7B12305779
:104C7300E94410F8901BD7800985080A85090B12AF
:104C83004D90124DA47003024D46123E9D5868701C
:104C9300E8780A1210A8AC08AD09123FA21210D688
:104CA300901BE0E508F0A3E509124DE7124D9DA224
:104CB300E75003024D4D901BDEE014F0EEA2E092AC
:104CC300AF901BE0E0240EF8A3E03400F9E8FEE91E
:104CD300FF8882F583124DB2901BE012492BF91223
:104CE3002C35E9901BDB1264218E828F83E0548084
:104CF3006018124C192413124BFBF9121897124C1B
:104D0300192414124BFBF912188B124DC8A3E0544B
:104D130001605F901BDB1257856045124DDE6040DA
:104D2300124DDEF87900901BDB124DB21209CCE86C
:104D3300C0E0124DBCD0E0124DECC394134011748B
:104D430002800FEEA2E092AF8037901BDD024CBCD5
:104D53007400C0E0901BE1E0C8124D87D0E0800DE5
:104D6300124DBC7401124DE7124D877401F07903A3
:104D7300800C901BE0124C3EA2E1B3E433F912190C
:104D830087023810241AF582E438F58322E50824D3
:104D9300FBF582E50934FFF583221260A8124C2C3F
:104DA300221237ECE50845092285218285228312E8
:104DB3004DB622E0FAA3E0FB221256B12419F58284
:104DC300E438F58322901BE0124DCF22124E01C826
:104DD300124DD7221258C838F583221256B124181F
:104DE300124C2922124DF9C822124DF9F5838882FB
:104DF300A3A3A3A3E022F0901BE0124E0122E0F84C
:104E0300A3E02274F7120B8CEAFEEBFF122D731250
:104E13005300A2E3400A1242377005909159800370
:104E230090915AE0F9EEFCEFFD7AD77B1B121A6BD7
:104E3300E96038EEFAEFFB901BEA124E7E12305710
:104E4300EE240E1253035404701212494EEE12391B
:104E53007FA3E05401701E122C7D8019EEFAEFFB44
:104E6300901BE2124E7E123057800A8E828F83A3EC
:104E730074F1124E8F025411901BEC124E822212C7
:104E83004E8622E0F8A3E0F583888222124E961222
:104E93002C7122F0EEFAEFFB22024F1F74F7120B74
:104EA3008CEAFEEBFF7900901C44E05402700CEA9C
:104EB30024331253035404600279E8901C44E054F1
:104EC30060700CEA24331253035402600279E88AB7
:104ED300828B83A3A3A3A3E0F890915FE0C39850D0
:104EE3000279E8EA2431125303700CEA242E125398
:104EF30003700479F5800BE97005122C5FE9F9E979
:104F03006007EEFAEFFB122D49025411C082C083F1
:104F13008A828B83740DF01222338007C082C08390
:104F2300122C7DD083D08202108874F4120B8CEA89
:104F3300FEEBFF8A82F583E4F0A3124FB45404908E
:104F430091597012E0F8901BDEE0C398401279F19A
:104F5300122D49023810E0F8901BDDE0C39850EEA3
:104F6300124FBAA3E054016037EA2437125303C344
:104F730094054033EA2433125303540570297AF21B
:104F83007B1B122E7BEE2437F582E43FF583123729
:104F9300C178081210A07AF27B1B124FAE1210D602
:104FA300EEFA1259AB80AC79E880A5122E6F740427
:104FB30022F0124FBAE022EA2433F582E43FF5836C
:104FC3002274F6120B8CE9FE2451FAE43400FB122E
:104FD3001A2FEA4B6015EE8A828B83A3A3A3A3F057
:104FE300EA2451124FF512500680047A007B000226
:104FF3006724F8E43BF98A828B83A3A322126D749E
:10500300901CBCE8F0A3E9F022024F1FC082C083CA
:10501300901BFB74D1F0A3742CF0A37401F0A37460
:105023002DF0A374D7F0A3742CF0A374DDF0A37454
:105033002CF0A374FBF0A3742CF0A374EFF0A3740F
:105043002CF0A374E9F0A3742CF0A37407F0A374F9
:105053002DF0A3740DF0A3742DF0A37413F0A374B7
:105063002DF0A3741FF0A3742DF0A374E3F0A374C5
:105073002CF0A374CBF0A3742CF0A374C5F0A37429
:105083002CF0901C1774F5F0A3742CF0A37419F092
:10509300A3742DF0A37433F0A3742EF0A37425F03E
:1050A300A3742DF0A3742BF0A3742DF0901C3BE498
:1050B300F0901C3EF0901C271250CC7402F0901C10
:1050C300301250CC7401024A2A7443F0A3742DF0B9
:1050D300A32274F5120B8C74F112116E8521828553
:1050E30022837402F07401121404E9F060047AFF5D
:1050F3007BFF7402121404125B6975083375091C73
:10510300750A0078081210A47C0B7D007407121432
:1051130004AA82AB8312513C1210D6AA21AB2212ED
:105123002233740F800312513C1210D67F03020EF8
:105133003C7C0B7D007A337B1C121A11740322749E
:10514300F7120B8C74FD12116E85218285228374F4
:105153000AF07401121404E9F07402121404EA123E
:1051630067E30241BA74F6120B8C74F712116EEAFC
:10517300FEEBFFEA1251BA1251EA7402F0EA242854
:10518300FCE43FFDAA21AB22121BC7EE24311251CE
:10519300C024331261E21210A874021211667983DB
:1051A3001A1A123D7B1210D6E9F5087007EEFAEFD2
:1051B300FB122C8302671D123983740122F582E4EA
:1051C3003FF5831237EC12568AF5831251D8E8F073
:1051D300A3E9F0EE221251E08A828B8322E024FFBE
:1051E300F8A3E034FFF922F0A3E4F0EA123D9C2295
:1051F30074F0120B8C126C521213917808790C1202
:105203000A2578081210A07A2A7B1C0237F474F45A
:10521300120B8C74C612116E9009DAE0640F600DE4
:10522300852182852283742E125B8880227A217BDA
:105233001C1238321209CC88088909E4F50AF50BE7
:1052430078081210A07A217B1C124FAE1210D6746C
:105253003A02380D74F5120B8CEAFEEBFF8A82F5E5
:1052630083A3E0F87078EA243012530364026007E2
:10527300E06403600278E8EA2426F582E43FF583DC
:1052830012382B400478E88058E87052EA2426123A
:10529300446BEE24311252F524301253036402702E
:1052A3000EEE2428126D6A9009E9125006801790B9
:1052B30009E974FEF0A304F0EE2428FCE43FFD7A30
:1052C300E07B09121BD3EE241B1245BA1210A41261
:1052D30051341210D6EEFAEFFB122CBFE9F8E86056
:1052E3000EE88E828F83A3126586741712663002CE
:1052F300512FFAE43FFB795012185BEE22EE241093
:10530300F582E43FF583E02274F6120B8C74F712F6
:10531300116E901C3EE070377401F0F9121951AA16
:1053230021AB22122D8575083375091C78081210DC
:10533300A875080175090078081210A89009EF12E2
:105343000F0B74061211667A031238211210D6025B
:10535300671F74F7120B8C1255317004A374EBF0B2
:10536300901C3EE0A2E25003C2E2F0E0A2E150054D
:1053730012554280098E828F83742A12663002543A
:105383001174F4120B8C74FE12116E1254371256F0
:105393007DEC8521828522831256CCE0F50B7015B6
:1053A300AA21AB22795312185BEE2413FAE43FFBD4
:1053B300794A12185B1245B71210A4125134121015
:1053C300D6124DACA90B122CB3901C3EE0A2E150B7
:1053D30003125549901C3EE4F0740202380D74F731
:1053E300120B8CEAFEEBFF8A82F583A374EBF09039
:1053F3001C3EE0A2E150077A0079EB122CB9EEFAD9
:10540300EFFB122CEF8007EEFAEFFB122DF17F0179
:10541300020E3C74F7120B8C125437901C3BE4F0D1
:10542300901C3EF07AFF7BFF8E828F83A3E0F912FC
:105433002CB380DA1255827A2A7B1C122E7B2274BB
:10544300F7120B8CEAFEEBFF122CE980BA74F71209
:105453000B8C1255BFA3A3A3E060047400800274F5
:10546300EB1254905003C2E2F0E0A2E15005125552
:10547300938011A2E0500D8E828F83742AF0A3745F
:10548300EB126630EEFAEFFB122C9580818E828F41
:1054930083A3F0901C3EE0A2E22274F6120B8CEA86
:1054A300FEEBFF901C3EE0D2E1F079011219518E20
:1054B300828F83A3E07038122D8BE9FAEE240DF569
:1054C30008E43FF50978081210A87508017509006A
:1054D30078081210A8125503120F0BEE2402FCE4F5
:1054E3003FFD1238211210D6E98E828F83A3F08EEE
:1054F300828F83A3E060067A00F9122CB902672435
:10550300EE240BF582E43FF5832274F7120B8C1221
:1055130055317004A374EBF0901C3EE0A2E25003FB
:10552300C2E2F0E0A2E15003125542025411EAFE36
:10553300EBFF79011219578E828F83E0642022C218
:10554300E1F0125549227A008E828F83A3E0F9128B
:105553002CB92274F7120B8C1255828E828F83A37F
:10556300A3A3A3E060047400800274EB1254905070
:1055730003C2E2F0E0A2E15003125593025487EA1A
:10558300FEEBFF79011219577A217B1C122E7B2225
:10559300C2E1126AB4E0A2E4E433FA12554B227476
:1055A300F7120B8C1255BF74EB1254955003C2E2E1
:1055B300F0E0A2E15003125542025411EAFEEBFF60
:1055C30079011219578E828F83A32274F7120B8CE1
:1055D3001255E402540A74F7120B8C1255E4025468
:1055E30011EAFEEBFF7A217B1C122E7BEEFAEFFB16
:1055F300122D132274F7120B8C74EF12116EEAFE44
:10560300EBFFEA1265727AE07B09121BC1E960566F
:105613008521828522837409F0740112140474EFC6
:10562300F012567D7402121404EC1256CCA3A3E0BC
:10563300C0E07404121404D0E01256B96408701563
:105643008E828F83A3A31256A5E0C0E074051214C3
:1056530004D0E080067405121404E412640E740688
:1056630012140412566E74110241BCAA82AB831247
:105673002DBBAA21AB221222332212568AF58312A2
:10568300569CFCA3E0F922EE125692FB8882222458
:1056930002F8E43FF9E8FAE922124E018882F58321
:1056A300E0221256B42407F582E438F58322901BD6
:1056B300E0124E01C8221256BD221256C2E022F059
:1056C3008E828F83A3A3A3A32212669E1256D32294
:1056D3001256D722E0F8A3E0F5838882A3A322C061
:1056E30082C083122DFD024F26C082C083901C5BB3
:1056F30074FBF0A3741BF0A37417F0A3741CF09055
:105703001DE37453F0A37434F0A3748FF0A37433C4
:10571300F0901C4774ADF0A3742CF0901C44E0444B
:1057230001024A2AC082C083EAFCEBFD7902122DF2
:1057330061024F2674F6120B8C74FE12116E901CCC
:105743004012578560077A407B1C122D79901C46C6
:10575300E4F090109512578560208007AA21AB22B0
:10576300122D79901C3FE0F9121A478B09A909857C
:1057730021828522831243DD70E274020267219045
:105783001BE0126D74E8492274F7120B8CE9FA7B63
:1057930000901C3FE0F9121A7102541174F7120BB6
:1057A3008C74F012116EEAFCEBFDE9FE8A828B83A6
:1057B300E0F8745A1258BA3437F583E493C0E074AE
:1057C30001121404D0E0F0640B700DE98A828B831C
:1057D300A3F0122DDF0258B5E070030258B5640C34
:1057E30060030258A6741A6E700B7404121404E456
:1057F300F0A30258A57404121404125B69EA24325C
:10580300126072C0E07403121404D0E0126A9F1293
:1058130013C974061214041213D58C828D83A3A3A7
:10582300A3A3A3A3A3A3A3126D70740A121404E881
:10583300F0A3E91258BFE054106009852182852244
:1058430083E48013EC2412126072F89009FCE0C325
:1058530098852182852283F0E0C0E0740C12140441
:10586300D0E0F0EC2415126072C0E0740D12140441
:10587300D0E0F0EC2416126072C0E0740E1214042F
:10588300D0E0F0EC2417126072C0E0740F1214041D
:10589300D0E01258BFA3E05401600874011214044D
:1058A3007411F07402121404EEF0740112115E12FA
:1058B300223374100241BC28F582E422F0EC125822
:1058C300C83DF58322240EF582E422C082C0839072
:1058D3001C46E064037004790180027900024F26BC
:1058E30074F7120B8C901C46E012595E74E128F594
:1058F30082741D39F583125DF0C2E7F0125965A376
:10590300E493FE25E0FCE433FD74E12CF582741D81
:105913003D12617CEC4D6005EE901C46F08A828B53
:1059230083E025E0FCE433FDE82CF582E93DF583D3
:10593300E493FCC4540F25E0F874551258BA341C90
:10594300F5831257857005122DCD800CEC540F1280
:105953005965124E7E12305702541125E0F8E43394
:10596300F92225E0FCE82CF582E439F5832274F270
:10597300120B8C74FE12116E890B8A088B09125A52
:1059830010125A01601A12641BF50A78081210A447
:10599300125A1D24021261721210D61259A98003E1
:1059A300125A2F023E0CAA0CEFFB901C3FE0F91297
:1059B3001A3B2274F0120B8C74FE12116E890B8A3F
:1059C3000E8B0F125A10F508125A01602712641B2E
:1059D300A808EA281246FF850E08850F09F50A78FC
:1059E300081210A4125A1D1261701210D61259A96E
:1059F30079008005125A2F791A74020237F9FA7B5B
:105A030000121A2F8A0C8B0DAF0DEA4F2274232933
:105A1300F582E43437F583E49322A80B74441258D7
:105A2300BA3437F583E493FC7D00EA22852182852D
:105A33002283E50BF0791AAA21AB22122D4922C049
:105A430082C083E9901C3F024A2A74F6120B8C74BD
:105A5300FE12116EEAFEEBFFEA542070308039A883
:105A6300A8C2AF901BDFE0141249578A828B8312BE
:105A73005B56901C42125B69122D5585218285224B
:105A830083E0641560077A427B1C122D797AD97BF7
:105A93001B121A59EA4B70C7EF5480700C80169092
:105AA3001C42EAF0A3EB125B7C901C3FE0F9121A54
:105AB30047EA4B70EAEE5410600B852182852283FE
:105AC300742D125B88EEA2E0500B85218285228320
:105AD3007424125B88EE5402600B85218285228335
:105AE3007425125B88EE5404600B85218285228322
:105AF3007426125B88EE5408600B8521828522830D
:105B03007428125B88EE5440600D74011214041261
:105B13005B6F742C125B88EE5480600D7401121459
:105B230004125B6F742F125B88901C4012578560C0
