:020000040000FA
:060000000213640208383F
:030013000208FEE2
:03002B00021101BE
:03003300020FCAEF
:03003B0002095364
:0300530002076D34
:100083000207CC0100F0FF0700080000FFFF00009B
:100093000704000000030001FF0530750000002085
:1000A300FD000206FFFFFF0186000000000079FF4C
:1000B3000179000000000086FF0179A00000000024
:1000C300E6FF0187000000000078FF018807D000E9
:1000D3000000A01E01010019000000320000008191
:1000E3001D000000000000000000000000000001EF
:1000F3000017060000000001000100D00790010076
:100103000001000100000001000100D00790010080
:1001130000000000000E000E000104010C000203A9
:100123006D91018F92020401020302027392000097
:1001330000010400006719000000E8030000FFFF4E
:10014300C41988130000E803000064006400B801C8
:10015300A0BB0D00A0BB0D000202020704010107B2
:100163001E02051E020A0A0101010809080103B85B
:100173000B02803E0102FEFFE8030A050001FFFFB8
:10018300010A011401E00200000001050301010F4F
:1001930010FEFF030003000300030003000300033A
:1001A300000300030005000A00140028004F009E0E
:1001B3000000000434000000003A3300000000FF98
:1001C300000000FF0012139260461213B0603DE975
:1001D300687008F618F618F618F622748067F71296
:1001E30001FC090909748067F7221213B0601D121C
:1001F30013927005191919801A121226701F121200
:100203003AC37003E66733191919400718181822FF
:1002130008080874FFF618F618F618F62212123AB0
:100223006017121430702192F012141E70195017B7
:1002330020F014080808090909E7F61819E7F61861
:1002430019E7F61819E7F62212141E60E6E869703A
:100253001F0808E62480F608E436F618547FB47FB6
:100263000CE654806007F6E418F618F622181822F4
:10027300E9C6CC08C6CD08C6CE08C6CFC0E0E8C0E4
:10028300E0EAC0E0EBC0E009E9F809E7FA09E7FBB7
:10029300E6F918E6F8C3EC98ED99EE9AEBC2E7F5A8
:1002A300F0EFC2E795F0500E600CEBCFFBEACEFA0D
:1002B300E9CDF9E8CCF8EAA2E7D2E7FAEB33FB138E
:1002C300F5F0EEA2E7D2E7FEEF33FFC5F013A2E7A6
:1002D30030E601B313C5F0C3C0E0C0F07F00C39B99
:1002E300FB605E9418600F401D14601AD0E023F980
:1002F300D0E0F80203CE8AF0E9486003D2F0E4AF1D
:10030300F0FAF9F8803BEB30E40D89F0EA6003D2B0
:10031300F0E4AFF0F9CAF8EB30E30D88F0EF6002D8
:10032300D2F0AFF0E4CAC9F8EB54076014FBC3EA98
:1003330013FAE913F9E813F8EF135002D2E0FFDBE5
:10034300EDD0E0C0E030E739C3E49FFFF5F0EC986F
:10035300FC42F0ED99FD42F0EE9AFE42F0D0E0F956
:10036300D0E0F8E5F0607AE923F9EE20E742D8021D
:100373008067C3EF33FFEC33FCED33FDEE33FE80D8
:10038300EAEC28FCED39FDEE3AFED0E023F9D0E0AB
:10039300F84002801BC3EE13FEED13FDEC13FCEFDC
:1003A300135002D2E0FF08B800067F7F74FF802E4F
:1003B300EF3350178CF020F00260100CBC000C0DD2
:1003C300BD00080EBE000408E860DFE933E813FF50
:1003D300EE2313FE4F4D4C8008E95480FFE4FEFDED
:1003E300FCEE33EF33F47004FCFD7E80D0E0FBD0F1
:1003F300E0FAD0E0F8D0E0CFC618CEC618CDC618C4
:10040300CCC6F9221213B0700418181822121392D2
:10041300700D74FFF61819F61819F61819F622E775
:10042300548066F612141E700F12143070F014F616
:1004330008F608F608F680D1121430700CF608F6A8
:1004430008768008E6447F80EC12123D700C12128D
:100453002960BFE65480F6E480BB121229700519A7
:10046300191980A5E869700C763F18768018F6187C
:10047300F6E8F922E6CDC0E018ECC0E0E633CD3370
:10048300CDD313F6E719FCE7191933CC33C3947FA3
:10049300400ECD9D502408E65480F6E418F6800FF4
:1004A300F4043D14501408E6447FF6187680E418EB
:1004B300F618F6D0E0FCD0E0FD22CCD313CCFD1827
:1004C300E4C6CBC0E018E4C6CAC0E00808ED08C61D
:1004D30033E613F618E433C675F003C3CA97CA09A3
:1004E300CB97CB199C40047D08802EBD00030205E9
:1004F300B016B6FF050606081618C3CA33CACB33AF
:10050300CB33CA27CA09CB37CB193CC37D08803EFE
:10051300187D0820E75CC633C6CA33CACB33CB3356
:10052300DDF1D5F0EB30E77BCA97CA09CB974ACB0D
:10053300199C406F4B7025E620E0218066187D08EA
:10054300C3CA97CA09CB97CB199CD3C633C6CA3340
:10055300CACB33CB3350C9DDE7D5F0E1D3E4C6369C
:10056300C608C636C608C636C608C636C61818181C
:100573008031C3CA97CA09CB97CB199CB34097C69E
:1005830033C6CA33CACB33CB33DD34D5F02EC6A240
:10059300E0C640C8CA27CA09CB37194A70BECB3C4C
:1005A300B480B90808E63308E633601F181818D07A
:1005B300E0FAD0E0FBD0E0FCD0E0FD22187D08CAD1
:1005C30027CA09CB37CB193CD3808013F618E4B67E
:1005D3007F11F618B6FF0EF618C60470D208087617
:1005E3008080CAF618F618F680C5001213B0604F63
:1005F3001213926012E7548066F6121226701112DB
:100603001430703B090909F4F618F618F618F622A7
:1006130012123A701512141E08080860EAE6447FA5
:10062300F618768018E4F618F62212141E601612D5
:1006330014307012E4F608F608F608E65480F6095A
:10064300090918181822EAC0E0EBC0E0ECC0E0ED9D
:10065300C0E0E687F0A4FBACF008E687F0A42CFC2E
:10066300E435F0FA1809E687F0A42C4B6002740114
:10067300CA35F0FCE433FB09E687F0D2F7A42CCBB0
:1006830035F0FC1908E687F0A42BCC35F0FBE433F6
:10069300FD0819E687F0D2E7A42C4ACB35F0CD3418
:1006A30000FC09E687F0D2E7A42DCC35F0FDE43356
:1006B300FA0918E687F0D2F7A42CCD35F0CA340036
:1006C300FC08E687F0D2E7D2F7A42ACC35F07A7E8D
:1006D30020E70B0ACB33CBCD33CDCC33CC33CB3369
:1006E30050147004ED30E00ED2F1E4CD3DCDCC3C9E
:1006F300CC3B5005DA05C2F1EB547FC63308E63331
:1007030092F0FBE73309E733C39A502D2B70190C92
:100713000D4C4D70151806E608C333700D20F10A11
:10072300A2F013F6E418800B4024E4F630F00276CE
:100733008018F618F618F68024D33B14501074FF73
:10074300A2F013F6187680E418F618F6800FA2F0DC
:1007530013F618E63303F618ECF618EDF6D0E0FDC1
:10076300D0E0FCD0E0FBD0E0FA22C0E074F1120C40
:1007730005A2AFE433F509D2AF85A708AFA1EF55C2
:1007830008FE74105E600612177B75A1EF74085E95
:10079300600812178175A1F78024EFA2E092F0E5BB
:1007A30008A2E082F05017906198E0F89009C2E047
:1007B300C398A2D265D0335002E8F075A1FEE509D3
:1007C300A2E092AF7F02020C64C0E074F2120C0547
:1007D300A2AFE433FED2AF9061A4E0F8759B00E5CD
:1007E3009158540860087591F71217CF8023E5914B
:1007F30058541060087591EF1217D58014E591A233
:10080300E092F0E8A2E082F05007E0C2E0F01219B3
:100813002B9061A3E0F8E5E9585404600E12190126
:1008230075E9FB906193E0A2E640F2EEA2E092AF9D
:100833007F01020C64C0E074F2120C05A2AFE43332
:10084300FED2AF9061A5E0F8E5BF58540460067589
:10085300BFFB12194380D41208AF30F0431208F4DF
:10086300803E8A088B098C0A8D0B78081208AF200A
:10087300F01430E72B74FFFCFBFA747F8022E4FC56
:10088300FBFA7480801AB48008BC00F2BB00EF80CE
:100893000F50EBF9E4C39AFAE49BFBE49CFCE49964
:1008A300C6CC18C6CB18C6CA18C6F922E4C9C608EE
:1008B300CAC608CBC6D3330308CCC63392F0C3945D
:1008C3007F402E94184019C9B90704CACBCC2250D3
:1008D30025C309CA33CACB33CBCC33CC33D9F422A7
:1008E300F4600DC9CCC313CB13CBCA13CAD9F6CC4E
:1008F30022E4FCFBFA2214FCFBFA22C0E0C0D0E89D
:10090300C0E0E9C0E0C082C083A8C1E8C0E09006AF
:10091300A7E0F8742628F582E43406F583D0E0F0E6
:100923009006A6E0F8A3E0687006E5959006A9F0A6
:100933009006A7E004F0C394804002E4F0A374C6D9
:10094300F0D083D082D0E0F9D0E0F8D0D0D0E0323C
:10095300C0E0C0D0E8C0E0E9C0E0C082C083900737
:100963002AE0F8A3E0687008539AFBA3740180227D
:10097300C2E990072AE0F8740128F074AA28F582E6
:10098300E43406F583E0F5C190072AE0C394804080
:1009930002E4F080ACC3E498F8E499F91209D98031
:1009A30026C3E49AFAE49BFBE920E7E91209D9E4B8
:1009B30098F8E499F922C3E498F8E499F91209D96B
:1009C300E498F8E499F9C3E49AFAE49BFB22EB2058
:1009D300E7CFE920E7E0B90010BB0008E88AF0841C
:1009E300F8AAF022E4FBC8FA22EB70227B10C8338A
:1009F300C8C933C9335007C39AC3DBF280069A5080
:100A0300012ADBEAC833F4C8C933F4C9FA2275F002
:100A130008E4C833C8C933C933C99AC99B5004C948
:100A23002AC93BD5F0ECFBC833F4C8E4C9FA220861
:100A33000808EAC0E0EBC0E086F0E7A4FA180986EC
:100A4300F0E7A42AFA180986F0E7A42AFA18098617
:100A5300F0E7A42AFA1986F0E7A4FBE5F02AFA19CD
:100A63000886F0E7A42BFBE5F03AFA190886F0E7CD
:100A7300A42BFBE5F03AFA18180986F0E7A4C5F0B1
:100A83002BFBE43AFA1908E7C5F0C6A426F6E5F00D
:100A93003BFBE43AFA1886F0E7A4F6E5F00826F6FD
:100AA300E43B08F6E43A08F6D0E0FBD0E0FA22088B
:100AB3000808E630E7111211FE120ACA080808C630
:100AC3004480C618181822181818E9799EC608CA4F
:100AD300C608CBC608CCC6C370207996CACBCC70E7
:100AE30019798ECBCC70137986CC700EF9802ACA13
:100AF30033CACB33CBCC33CC331930E7F2CCCBCAAC
:100B03003350147004EA30E00DE4CA3ACACB3BCB4D
:100B1300CC3CCC500209C3E913C6CC182313C6CB73
:100B230018C6CA18C6F922E4CFC0E0E4CEC0E0E498
:100B3300CDC0E0E4CCC0E075F020E626F608E6334D
:100B4300F608E633F608E633F6181818EC33FCED2E
:100B530033FDEE33FEEF33FFC3EC9709ED9709EE58
:100B63009709EF97191919400FFFEC97FC09ED97B7
:100B7300FD09EE97FE191906D5F0BFECF709EDF75D
:100B830009EEF709EFF7191919D0E0FCD0E0FDD011
:100B9300E0FED0E0FF222521C582C0E0E52234FF3C
:100BA300C583C0E0E521C3958224F810AF0885838F
:100BB300228582218008858322858221D2AFCEF0CF
:100BC300A3E520F0A37808E608F0A3DEFAEFF0A38C
:100BD300E58124FAF8E608F0A3E608F0A3E608F0B6
:100BE300A30808E608F0A3E608F0A315811581D051
:100BF300E0FED0E0F8158115811581E8C0E0EEC074
:100C0300E022C0D02521C582C0E0E52234FFC583A0
:100C1300C0E0E521C3958224F310AF0885832285C4
:100C230082218008858322858221D2AFC8F0A3E97F
:100C3300F0A3EAF0A3EBF0A37908E709F0A3D8FA4D
:100C4300ECF0A3EDF0A3EEF0A3EFF0A3D0E0F0A35C
:100C5300D0E0F0A3D0E0F0A3E520F0A3E5F0F0A30B
:100C630022852283852182E0C0E0A3E0F9A3E0FA94
:100C7300A3E0FBA37808E0F608A3DFFAE0FCA3E017
:100C8300FDA3E0FEA3E0FFA3E0C0E0A3E0C0E0A378
:100C9300E0F5D0A3E0F520A3E0A3F5F010AF0885BD
:100CA30083228582218008858322858221D2AFD049
:100CB30082D083D0E0F8D0E032121409B9000302E5
:100CC3000CFBE490050178BE79188002F0A3D8FCF0
:100CD300D9FA7ABE7B1C900086784379028015E4AA
:100CE30093A3AD82AE838A828B83F0A3AA82AB8364
:100CF3008D828E83D8E9D9E77582A27583CF740676
:100D03001210927582657583307400121092000080
:100D13002275F0108E238F248582288583278521D1
:100D230082852283E0CEA3E0CF852882852783EBCB
:100D3300C9EAC8EDCBECCAC3E833C8E933C9EA331F
:100D4300CAEB33CBC3EA9EF526EB9FF525B35004DC
:100D5300AB25AA26EC33CCED33CDD5F0DAAE23AFF9
:100D630024221213B0601C121392601712141E7007
:100D7300071214307001D322C0D01214307006D081
:100D8300D0B322C32233D0D0501430E0F6C3E79659
:100D93000809E7960809E7960809E796B32220E0D1
:100DA300D5E6970809E6970809E6970809E697B391
:100DB300221213B0601B121392601612141E7007D6
:100DC300121430600CB322C0D01214307005D0D08E
:100DD30022C32233D0D0501330E0EBC3E796080987
:100DE300E7960809E7960809E7962220E0E4E697E4
:100DF3000809E6970809E6970809E69722D083D001
:100E030082ECC0E0EDC0E0E493A3FCE493A3FDED2A
:100E13004C600D120ED8EC24FFFCED34FFFD80EF87
:100E2300E493A3FCE493A3FDED4C600D120F75EC6A
:100E330024FFFCED34FFFD80EFD0E0FDD0E0FCE4C7
:100E430093A3C0E0E493C0E022852283852182E05E
:100E5300A3FEE0A3F5207808E0A3F608DFFAE0A3F9
:100E6300FFE0A3C0E0E0A3C0E0E0A3C0E0E0A3C0D4
:100E7300E0E0A3C0E010AF088582218583228008CB
:100E8300858221858322D2AFD083D082021098D06D
:100E930083D082E9C0E0E493A3C386F0C5F095F064
:100EA300F908E493A386F0C5F095F0700BE493A3DF
:100EB300C3994005E9048002A3E475F002A42582E6
:100EC300F582E5F03583F583D0E0F9E493A3C0E040
:100ED300E493C0E022C0E0C3E493960874019396C0
:100EE30018400FE493667008087401936618700045
:100EF3007019A3A3C3E49396087401939618A3A34C
:100F0300400DD0E0D0E0D0E0020E3CA3A3A3A3A306
:100F1300A3D0E0227404800474028000CCC0E0ED0E
:100F2300C0E0E521C39CCCAD2250011D10AF068C5F
:100F3300218D2280068C218D22D2AF121014D0E095
:100F4300FDD0E0FC2274028000CCC0E0EDC0E0E5FF
:100F530021C39CCCAD2250011D10AF068C218D22E4
:100F630080068C218D22D2AF120FF2D0E0FDD0E0AB
:100F7300FC22C0E0C0F088F0E493667008087401B6
:100F83009366187000A8F0A3A3700BD0F0D0E0D044
:100F9300E0D0E0020E3CA3A3D0F0D0E022D083D077
:100FA30082CCC0E0E493A360061210541470FAE4F8
:100FB30093A360061211941470FAD0E0FCE493A397
:100FC300C0E0E493C0E022C0E074F2120C05A2AFCB
:100FD300E433FED2AFE58BA2E05005790412165537
:100FE300758B00C2E8EEA2E092AF7F01020C64CAE7
:100FF300C0E0E493A3C582CCC582C583CDC583F08D
:10100300A3C582CCC582C583CDC583DAE5D0E0CA4A
:1010130022CAC0E0E0A3C582CCC582C583CDC58307
:10102300F0A3C582CCC582C583CDC583DAE6D0E003
:10103300CA227009080808226016181818C6C33394
:10104300C608C633C608C633C608C633C6D5E0EAE3
:1010530022C0E0E493A3D39C5010E493A3C39C4029
:101063000AD0E0D0E0D0E0020FBDA3A3A3D0E022DA
:10107300C008C3E096F50808A3E096420808A3E079
:1010830096420808A3E09645087001D3D00822C011
:101093009FF59FE473D09F22D083D082C09FE493B7
:1010A300C0E0740193C0E0740293F59F227404803E
:1010B3000A74038006740280027401C0E0F404120F
:1010C30010CBD0E01213CC222521F58210AF08F506
:1010D30021400C15228008F52140021522D2AF854C
:1010E30022832200C0D0252110AF08F521500C0522
:1010F300228008F52150020522D2AFD0D022C0E0D1
:10110300C0D0E8C0E0A8A8D2AFC2C7E8A2E792AFB8
:10111300D0E0F8D0D0D0E032BB0102E722C082C0D9
:101123008389828A83BB0003E08002E493D083D067
:1011330082226016080808C6C313C618C613C61849
:10114300C613C618C613C6D5E0EA22C3E0C696F690
:1011530008A3E0C696F608A3E0C696F608A3E0C681
:1011630096F6222521F8E43522F9222521FAE435E1
:1011730022FB222521FCE43522FD22252110AF0884
:10118300F521400C15228008F52140021522D2AF2B
:1011930022C0E0E493A36C7009D0E0D0E0D0E00279
:1011A3000FBDA3A3D0E022E76670100809E76670BD
:1011B3000A0809E76670040809E76622E06670100A
:1011C30008A3E066700A08A3E066700408A3E0665B
:1011D30022C3E7960809E7960809E7960809E79600
:1011E300A2D265D03322C3E09608A3E09608A3E019
:1011F3009608A3E096A2D265D03322181818E4C348
:1012030096F608E496F608E496F608E496F622C302
:10121300E096F008A3E096F008A3E096F008A3E0B8
:1012230096F022181818E60846087009E626087092
:1012330005E633F4220822191919E7094709700949
:10124300E727097005E733F4220922C3E697F60876
:1012530009E697F60809E697F60809E697F622C322
:10126300E4939608740193960874029396087403A2
:10127300939622E627F60809E637F60809E637F6D5
:101283000809E637F622700422600D18C6C333C678
:1012930008C633C6D5E0F41822E657F60809E65720
:1012A300F60809E657F60809E657F622E056F60867
:1012B300A3E056F608A3E056F608A3E056F622E0AC
:1012C30026F608A3E036F608A3E036F608A3E036D0
:1012D300F622E026F008A3E036F008A3E036F00893
:1012E300A3E036F022E647F60809E647F60809E6E2
:1012F30047F60809E647F622E493F608740193F6E5
:1013030008740293F608740393F622E667F6080955
:10131300E667F60809E667F60809E667F622E05687
:10132300F008A3E056F008A3E056F008A3E056F057
:1013330022C6F4C608C6F4C608C6F4C608C6F4C670
:1013430022C3E09608A3E09608A3E09608A3E096DC
:1013530022C3E7960809E7960809E7960809E7967E
:101363002275D00075813F75210175220500020C9D
:10137300BC600C08C6C313C618C613C6D5E0F42256
:10138300E6F008A3E6F008A3E6F008A3E6F022E7F8
:10139300094709C3134709336002E733F422E0F630
:1013A30008A3E0F608A3E0F608A3E0F622E6084661
:1013B30008C3134608336002E633F422800100E9D0
:1013C300F874FF28F90470F622CAC0E0E6F0A30817
:1013D300DAFAD0E0FA22E0F8A3E0F9A3E0FAA3E016
:1013E300FB22E8F0A3E9F0A3EAF0A3EBF022EAF092
:1013F300A3EBF0A3ECF0A3EDF022E0FAA3E0FBA350
:10140300E0FCA3E0FD22E5C754F84401F5C77901E8
:10141300222521F582E43522F58322E62618461893
:1014230046184622C2AF75D69F02000022E727194D
:1014330047194719472212109BAC890512109B5D6F
:101443008A0512109BAE8A0512109BF28A051210B0
:101453009B8C8B0512109BFC8B0512109B2B8C0510
:1014630012109B318D0512109B5B8D0512109BAFE3
:101473008D0512109B838E0512109BB190051210DF
:101483009B5F910512109BCC930512109B51940501
:1014930012109B54970512109B88990512109BC438
:1014A300990512109B1D9B0512109B309B05121072
:1014B3009B6D9B0512109B099D0512109BBD9E05FC
:1014C30012109B67EF0212109BE3EF0212109B16A0
:1014D300F00212109B44F00212109B82F0021210D1
:1014E3009BBFF20212109BDEF20212109B23F30247
:1014F30012109BB9F30212109B05F40212109B9970
:10150300F40212109B72F50212109BCEF502121018
:101513009B2CF60212109B9FF60212109BE3F6021D
:1015230012109B3BF70212109B5DF70212109BED0A
:10153300F70212109B7EF80212109BCAF8021210D7
:101543009BF6F80212109B37F90212109BCDFA0298
:1015530012109BB9FB0212109B94FC0212109BBA4F
:10156300B70612109BE5B70612109B05B8061210BA
:101573009B2CB80612109B73B90612109B94B906E4
:1015830012109B68BA0612109BFFBA0612109BD367
:10159300DC0612109BD8DC0612109B0BDD06121022
:1015A3009B19DD0612109B3BDD0612109B6EFD029C
:1015B30012109B38FE0212109B4AFE0212109BC1AE
:1015C300FE0212109BC2FF0512109BDCFF051210D6
:1015D3009BEFFF0312109BEBFF0512109B98DA069B
:1015E30012109BA8DA0612109BBDDA0612109B2577
:1015F300DB0612109B95D50612109B19D606121006
:101603009B81D60612109B83CD0612109B97CD06A5
:1016130012109B0DCE0612109B5CCE0612109B91EE
:10162300CE0612109BB4CE0612109BD7CE06121014
:101633009B10CF0612109B41CF0612109B88CF063A
:1016430012109B9CD80612109B23D90612109B2CB8
:10165300D90612109B53D90612109BACB006121078
:101663009BBAB00612109B33B10612109B0CB20644
:1016730012109BCFB30612109BC87F0012109B3E23
:10168300C40612109B88C40612109B1EC5061210B6
:101693009BA4C50612109BD6C50612109BEEC50669
:1016A30012109B62C60612109B78C60612109B8B03
:1016B300C60612109B95C60612109BFDC806121093
:1016C3009B28C90612109B64CA0612109B99CA066E
:1016D30012109BBBCA0612109B889D0612109BB268
:1016E3009D0612109BCA9D0612109BE19D061210C7
:1016F3009B0A9E0612109B9B9E0612109BAC9E0695
:1017030012109B149F0612109B73A00612109B725B
:10171300A10612109BEC8A0612109B188B0612105E
:101723009B828D0612109BC28D0612109BFE8D06A6
:1017330012109B128E0612109B2B8E0612109B1DED
:101743008F0612109BD08F0612109BE48F06121087
:101753009B03D30612109B27D30612109B40D3067C
:1017630012109B7ED30612109BAED30612109BDB86
:10177300D30612109B41D40612109B44D4061210B8
:101783009B4ED40612109B5BD40612109B97C10686
:1017930012109BB7C10612109BF6C10612109B14C0
:1017A300C20612109B2FC20612109B95C20612107E
:1017B3009BA1C20612109BFEC20612109B0DC3060C
:1017C30012109B31C30612109BF2C30612109BFF2B
:1017D300C30612109B10C40612109B2FDB061210B7
:1017E3009B77DB0612109BA3DB0612109BF2940679
:1017F30012109B46960612109B54960612109B6776
:10180300960612109B7C960612109B919606121058
:101813009BA4960612109B20970612109B85970691
:1018230012109B1B980612109BF4980612109B042F
:10183300990612109B13990612109B29FF0512108B
:101843009B4DFF0512109B75FF0512109B9DFF0515
:1018530012109BA8C60612109BCFC60612109BED52
:10186300C60612109B5CC70612109B86BE0612109A
:101873009B9FBE0612109BABBE0612109BBFBE06FB
:1018830012109BDDBE0612109BE7BE0612109BF1E1
:10189300BE0612109B04BF0612109B8EBF061210C9
:1018A3009B03C00612109B37C00612109B85C0060F
:1018B30012109BD2C00612109BEDC00612109BF7AC
:1018C300C00612109B1DC10612109B82C106121086
:1018D3009B19FF0412109B3BFF0412109BE4FF02B1
:1018E30012109B70750012109B9C750012109BB90F
:1018F300750012109BCC750012109BE77500121037
:101903009B41760012109B6F760012109B837A0026
:1019130012109BE17B0012109B137C0012109B762C
:101923007C0012109BFB7D0012109B237E00121083
:101933009B387E0012109B487E0012109B887E000D
:1019430012109BCA7E0012109BDA7E0012109B6558
:10195300D40612109B7FD40612109BA7D406121034
:101963009BC0D40612109BE4D40612109B02D5062A
:1019730012109B19D50612109B47D50612109B62B5
:10198300D50612109B62DD0612109B23AD061210C2
:101993009B33AD0612109B38AE0612109B6AAE063F
:1019A30012109B9AAE0612109BBDAE0612109BD46A
:1019B300AE0612109B0EAF0612109B73AF061210E9
:1019C3009BB5AF0612109BFCAF0612109B29B00605
:1019D30012109B54B00612109B9FD10612109BBF8E
:1019E300D10612109BD3D20612109BD6D206121028
:1019F3009BE9FE0312109B1FFF0312109B37FF038B
:101A030012109B79FF0312109B89FF0312109BCDC9
:101A1300FF0312109BD7FF0312109BF7F70312105B
:101A23009B3AF80312109B9FF80312109BBEF80316
:101A330012109B60F90312109B69F90312109BBAF1
:101A4300F90312109BE3F90312109BF0F903121030
:101A53009B62FA0312109BF0FA0312109B35FB03EF
:101A630012109B6EFB0312109BD3FB0312109BFC03
:101A7300FB0312109B73FC0312109BC2FC03121096
:101A83009BFFFC0312109B34FD0312109B46FD03C6
:101A930012109B58FD0312109B77FD0312109B80BD
:101AA300FD0312109B3CFE0312109B7FFE031210DA
:101AB3009BBDFE0312109B1CDC0612109B34B40664
:101AC30012109B74B50612109B97B50612109BA8B3
:101AD300B50612109B9AB70612109B45CB0612103F
:101AE3009B7BCB0612109BC3CB0612109B1CCD060F
:101AF30012109B9DEB0112109BC3EC0112109BFF74
:101B0300EC0112109BBDEE0112109BEBEE011210C3
:101B13009B55F10112109B95F10112109B37F301B4
:101B230012109BCDF30112109B27F40112109BB7E7
:101B3300F40112109BFBF40112109B3DF5011210EE
:101B43009BA2F60112109B22F80112109B63FA016B
:101B530012109B91FA0112109BBDFA0112109BC641
:101B6300FA0112109B23FB0112109BBCFB01121004
:101B73009BD3FE0112109B59FF0112109BA6DB069B
:101B830012109BBCDB0612109BC6DB0612109BAA2D
:101B9300A10612109BC0A10612109B64A20612108C
:101BA3009BA3A20612109BC0A20612109BF1A206D1
:101BB30012109B3EA30612109B72A30612109BAD3C
:101BC300A30612109BA2A50612109B9CD706121007
:101BD3009BFBD70612109B39D80612109B7AD806A6
:101BE30012109B9BD90612109B08DA0612109B2831
:101BF300DA0612109B47DA0612109B69DA061210F6
:101C03009B77DA0612109B9AD60612109BABD60668
:101C130012109BC3D60612109BDED60612109BF938
:101C2300D60612109B2ED70612109B45D70612100C
:101C33009B4CD70612109B56D70612109B62D706F1
:101C430012109B0A7F0012109BA5BA0412109BB1BD
:101C5300BA0412109B13BB0412109B1DBB04121079
:101C63009BACBB0412109BE8BB0412109BE1BC04A9
:101C730012109B3EBD0412109BCCBD0412109B1D81
:101C8300BE0412109B9DBE0412109B51C00412107F
:101C93009B29C10412109B2EC30412109B28C40459
:101CA30012109B5AC50412109BACC70412109BEF71
:101CB300C80412109B94C90412109B42CE04121044
:101CC3009B38CF0412109BCECF0412109BF3CF048A
:101CD30012109B90D00412109BADD00412109BCD18
:101CE300D00412109B3BD10412109B58D104121044
:101CF3009B86D10412109B1ED30412109B3FD30466
:101D030012109BE5D30412109B2DD40412109B8B4D
:101D1300D40412109B2ED50412109B93D5041210D9
:101D23009BF2D50412109BA4D60412109B13D70464
:101D330012109B4ED70412109BC2D70412109B0D96
:101D4300D90412109B9DDA0412109B3CDB04121081
:101D53009B7CDD0412109BDEDD0412109B0CDE0461
:101D630012109B2FE00412109BD9E20412109BEC7B
:101D7300E30412109BBD370012109BB53A001210FA
:101D83009BDA3C0012109BE43C0012109B043D00C4
:101D930012109B933D0012109BB73E0012109B4DF7
:101DA300400012109BB4410012109BE74200121036
:101DB3009B09430012109B1E440012109B5A4600BD
:101DC30012109B81460012109BC4460012109BE523
:101DD300460012109B84530012109B97540012105C
:101DE3009B9A550012109B99580012109B57600044
:101DF30012109B81630012109B4A650012109B21F5
:101E0300740012109BC1740012109B2A75001210EB
:101E13009B94A90612109B4FAA0612109BB5AA0603
:101E230012109BD6AA0612109BB1AB0612109B434D
:101E3300BC0512109B72BC0512109BF6BC05121058
:101E43009B59BE0512109B43BF0512109BFFC00593
:101E530012109B24C10512109B76C10512109B081A
:101E6300C20512109B54C20512109B67C2051210C3
:101E73009BC4C20512109B91C30512109B03C4059A
:101E830012109B3AC40512109B83C40512109B2B9E
:101E9300C60512109B0AC70512109B58C8051210DD
:101EA3009B3BC90512109BC7C90512109B00CA05AD
:101EB30012109B1FCA0512109B6ACA0512109B8A37
:101EC300CA0512109B47CB0512109B6ACC05121052
:101ED3009BC5CC0512109B0BCD0512109B13CE0591
:101EE30012109BAED00512109BD4D00512109B4F3D
:101EF300D10512109B74D10512109BE8D105121065
:101F03009BC6D20512109B04D30512109B8ED305DA
:101F130012109B75D40512109B78D40512109B8266
:101F2300D40512109B8CD40512109BA8D405121053
:101F33009B1AD50512109B53D50512109B7FD5050F
:101F430012109BA6D50512109BCAD50512109B052E
:101F5300D60512109B78D60512109BACD60512102D
:101F63009BB6D60512109BF2D60512109B27D705F8
:101F730012109B46D70512109BB8FF0112109BD07D
:101F8300FF0112109BF2FF0312109B74A0051210A5
:101F93009B97A00512109BF5A10512109B3EA2056D
:101FA30012109BAAA20512109B08A30512109B0BEB
:101FB300A30512109B5CA30512109BD1A30512105D
:101FC3009B61A40512109B64A40512109BE5A40554
:101FD30012109B26A50512109B4BA90512109BF509
:101FE300AA0512109B49AB0512109BD8AE0512101F
:101FF3009B10B00512109BE4B00512109B4EB10567
:1020030012109B78B10512109B31B30512109B146B
:10201300B50512109BC3B50512109B60B6051210CF
:102023009B4BB70512109BB3B90512109B0DBB0553
:1020330012109B7BBB0512109B79D70512109B23B3
:10204300D80512109B8ED80512109BA9D805121023
:102053009B2AD90512109B84D90512109BCBD90555
:1020630012109B2ADA0512109B3CDB0512109B65AC
:10207300DE0512109B95DF0512109B1DE005121063
:102083009B26E20512109BD8E20512109B72E30512
:1020930012109B43E40512109BFEE50512109B9C56
:1020A300E70512109B29E80512109B4FE905121052
:1020B3009B5FD50312109BC2D50312109B0AD60354
:1020C30012109B4ED60312109BA9D60312109B0627
:1020D300D70312109B41D70312109BC3D7031210CF
:1020E3009B1DD80312109B9BD90312109B13DA0379
:1020F30012109B30DB0312109B58DB0312109BABB7
:10210300DC0312109BBCDC0312109BD4DC03121003
:102113009BDDDD0312109BBADE0312109BB7DF03B6
:1021230012109BDBDF0312109BF2DF0312109B13D1
:10213300E00312109B35E00312109B54E0031210CE
:102143009B2CE10312109B86E10312109B1DE403F9
:1021530012109B76E40312109B95E40312109B85E7
:10216300E50312109BDAFC0512109BEEE603121036
:102173009B6DE70312109BA9E70312109BE3E70390
:1021830012109B18890512109B07E90312109BDF9D
:10219300EA0312109BECEB0312109B64ED03121085
:1021A3009B5AEF0312109BD0F10312109BAAF30367
:1021B30012109B6BF40312109BE3F40312109BFAAF
:1021C300F40312109BF1F50312109BE5F6031210B2
:1021D3009B54F70312109B3BBB0612109BEBBC06F0
:1021E30012109BAABD0612109B75850512109BAF9A
:1021F300A50612109BCDA50612109B11A606121060
:102203009B37A60612109B5EA60612109B76A606A7
:1022130012109B8EA60612109B30A70612109B72FB
:10222300A70612109B95A80612109B9EA8061210D3
:102233009BA7A80612109BB0A80612109BBAA8066B
:1022430012109BDBA80612109BF88F0612109B3608
:10225300940612109B44940612109B499406121084
:102263009B2CD00612109BD1FF0412109B74DC062A
:1022730012109B84DC0612109B44990612109B9942
:10228300920112109BCB920112109B3793011210F3
:102293009BD2930112109B71940112109BB694016F
:1022A30012109BD8940112109BF1940112109B17EA
:1022B300950112109B39950112109B77950112100D
:1022C3009BBB950112109BDD950112109B3F96015C
:1022D30012109B06970112109BBD970112109B2FA2
:1022E300980112109B01990112109B4B9901121036
:1022F3009B9E990112109B049A0112109B3E9A0116
:1023030012109B909A0112109BAC9A0112109BD74A
:102313009A0112109BDE9C0112109B329E01121037
:102323009B549E0112109B889E0112109BA99E0133
:1023330012109BB89E0112109BC39E0112109B7337
:102343009F0112109BDC9F0112109B89A0011210A8
:102353009BC1A00112109B87A10112109B94A201A3
:1023630012109BDEA20112109B6DA30112109BD1D0
:10237300A30112109B0CA40112109B78A60112104A
:102383009BCCA70112109B05AB0112109BD2AB0192
:1023930012109B60AC0112109B89AC0112109BFBC5
:1023A300AC0112109B8FAD0112109BEDAD01121009
:1023B3009BDFAE0112109B01AF0112109B5DB001B8
:1023C30012109B76B00112109B89B00112109BF87A
:1023D300B00112109B04B20112109B11B201121032
:1023E3009B1AB20112109BF2B30112109B18B50194
:1023F30012109B28B50112109B2AB60112109BA143
:10240300B60112109BD0B60112109BE5B701121052
:102413009BB1B90112109B89BD0112109B93BD01A1
:1024230012109BA7BD0112109BB1BD0112109BBBE3
:10243300BD0112109BC5BD0112109BDEBD01121020
:102443009BE8BD0112109B5CBE0112109B67BE018D
:1024530012109B8CBE0112109B97BE0112109BE5BC
:10246300BE0112109BEFBE0112109BFABE011210A7
:102473009B1EBF0112109B42BF0112109B9EBF0106
:1024830012109BE4BF0112109B01C00112109B7E2E
:10249300C00112109BB5C00112109BF4C0011210B1
:1024A3009B41C10112109BC3C10112109B5CC2016D
:1024B30012109B2CC40112109B8AC40112109BA6FC
:1024C300C50112109BCCC50112109B0BC701121042
:1024D3009B31CA0112109B72CC0112109B4ECE018C
:1024E30012109BE4CE0112109B0BD10112109BB76B
:1024F300D10112109BECD10112109B51D201121089
:102503009B5BD20112109B85D40112109BACD501A9
:1025130012109BECD50112109B92D60112109B2333
:10252300D80112109BACD90112109BCCD901121007
:102533009B25DA0112109B27DB0112109B71DB0133
:1025430012109BC1DB0112109BABDC0112109B200C
:10255300DD0112109B3ADE0112109BB5DE01121051
:102563009BBADF0112109B65E20112109B84E2010A
:1025730012109BE5E30112109BA7E50112109BFBD0
:10258300E50112109BB3E60112109B62E7011210E2
:102593009BB8E70112109B6EE80112109B03E9013F
:1025A30012109B6FE90112109BA9E90112109BDA2B
:1025B300E90112109B36EB0112109B0080031210ED
:1025C3009B32800312109B69800312109B5282037B
:1025D30012109B35830312109B8D830312109BC82B
:1025E300840312109B14850312109B3C8803121062
:1025F3009B9E8B0312109BEB8C0312109B818D030C
:1026030012109B8D8D0312109BBF8D0312109B41E3
:102613008F0312109BDC900312109B849103121002
:102623009BC7910312109B2D920312109B4A920396
:1026330012109B7A920312109BAF920312109B7F8E
:10264300930312109B28940312109BAC9603121051
:102653009BCC970312109BB5980312109B379903D9
:1026630012109B569D0312109B939D0312109BEB1C
:102673009D0312109B1E9E0312109B9F9E0312101C
:102683009BEC9E0312109B779F0312109BC99F0321
:1026930012109BA0A00312109B59A10312109BF4CC
:1026A300A10312109B0DA50312109B2DA60312105C
:1026B3009BDAA90312109BF8AA0312109BFBAA032F
:1026C30012109B2AAB0312109B30AD0312109B090F
:1026D300AE0312109B3EAE0312109B46AF031210C3
:1026E3009BFCAF0312109B9DB10312109BC2B1035D
:1026F30012109B01B20312109B73B20312109B576B
:10270300B30312109B24B40312109B5AB603121086
:102713009BCBB60312109B0BB70312109B6CB70332
:1027230012109B2FBB0312109B1EBC0312109B05A0
:10273300BD0312109B7DBD0312109B3FBE031210FD
:102743009B3DC00312109B55C00312109B69C0032D
:1027530012109BA1C00312109BCFC00312109B56F3
:10276300C20312109B61C30312109BB3C303121065
:102773009B14C40312109BC6C40312109BEDC40325
:1027830012109BD1C50312109B82C60312109B71BA
:10279300C80312109BA6C80312109B0EC903121084
:1027A3009B3DCA0312109BEFCA0312109B20CB035D
:1027B30012109B38CB0312109BC7CB0312109B7BC9
:1027C300CE0312109B53D00312109B6FD003121031
:1027D3009B8BD00312109B59D10312109B3DD50341
:1027E30012109B00800212109B38800212109B165D
:1027F300850212109B5C850212109BA9860212109F
:102803009B14870212109B9D880212109BAD8B02B2
:1028130012109BC88C0212109BDA960212109B6D49
:10282300970212109BBF9A0212109BBB9B021210BD
:102833009B169C0212109B609D0212109B4E9E02DF
:1028430012109BEAA00212109B5EA20212109BE1DF
:10285300A20212109BE4A20212109B59A3021210AF
:102863009B63A30212109B70A30212109B9BA302F3
:1028730012109B4BA40212109B44A50212109BEF53
:10288300A50212109B0DA60212109B26A60212107F
:102893009B4FA60212109B71A60212109BC6A802A0
:1028A30012109B8BA90212109BD0A90212109B4FEE
:1028B300AA0212109BFBAA0212109B2DAB0212104C
:1028C3009B81AB0212109BBCAB0212109B03AC02A8
:1028D30012109B53AC0212109B58AC0212109BAC0B
:1028E300AC0212109BD8AC0212109BC1AD021210A5
:1028F3009B12AE0212109B72AE0212109BCCAE0260
:1029030012109B67AF0212109BA6B20212109BB863
:10291300B30212109B32B50212109B42B80212107E
:102923009BE0B80212109BD6BB0212109B95BC020F
:1029330012109BD9BC0212109B84BE0212109B98EA
:10294300BE0212109BA2BE0212109BACBE0212105A
:102953009BB8BE0212109BDDBE0212109BB6C002D2
:1029630012109B0BC10212109B15C10212109B1F68
:10297300C10212109B94C10212109BE3C1021210F8
:102983009BF4C20212109B41C30212109B4EC4025D
:1029930012109B92C40212109B38C50212109B2B7B
:1029A300C60212109BF1C60212109B14C802121029
:1029B3009B32C90212109B1ACA0212109B32CA021E
:1029C30012109B89CA0212109B93CA0212109B9E7B
:1029D300CA0212109BBCCA0212109B04CB02121033
:1029E3009B66CB0212109B8DCB0212109B9FCB02D6
:1029F30012109B3ACC0212109B6FCC0212109B5602
:102A0300CD0212109B9BCD0212109B81CE0212109D
:102A13009BA8CE0212109B2BCF0212109B9CCF02BD
:102A230012109B25D10212109B51D20212109B143B
:102A3300D30212109BDCD30212109B66D402121035
:102A43009B8ED50212109B30D60212109BABD6027E
:102A530012109B67D70212109BB1D70212109B0B67
:102A6300D80212109BE3D80212109B06D90212104F
:102A73009BB9D90212109BDBD90212109B44DA02D4
:102A830012109B5ADC0212109B52DD0212109B168D
:102A9300DE0212109B48E00212109B92E002121019
:102AA3009BE2E00212109B46E10212109BA8E10296
:102AB30012109BD6E10212109BFAE10212109B2F17
:102AC300E20212109B60E20212109B93E2021210C8
:102AD3009BE3E20212109B36E30212109B5BE402BB
:102AE30012109BFBE50212109B56E60212109B7F0D
:102AF300E60212109B0CE70212109B7AE7021210F7
:102B03009B88E70212109BACE70212109B01E802BC
:102B130012109B1CE80212109BCEE80212109B06B7
:102B2300E90212109B49E90212109BACE902121050
:102B33009BAEEB0212109BD8EB0212109BCFEC0260
:102B430012109BD9ED0212109B89EE0212109B8E7C
:102B5300EA0512109BC6EA0512109BE7EA0512105C
:102B63009B29EB0512109B8BEB0512109B95EB0534
:102B730012109BA5EB0512109BE0EB0512109BC0F6
:102B8300EF0512109BADF10512109B93F305121084
:102B93009B2AF40512109BCCF40512109B9680041B
:102BA30012109B41810412109BEF810412109BF5BC
:102BB300820412109B15830412109B3E840412108E
:102BC3009BF9850412109B6C860412109B108704DA
:102BD30012109B1C880412109B87880412109BC33D
:102BE300880412109B06890412109B418904121059
:102BF3009B83890412109B188A0412109B948A04E5
:102C030012109B5E8B0412109B3B8C0412109BD3FF
:102C13008C0412109BED8C0412109B1D8D0412105A
:102C23009B4E8D0412109B148E0412109B248E0451
:102C330012109B738E0412109B808E0412109B89BA
:102C43008E0412109B078F0412109B638F041210C3
:102C53009BAE8F0412109BC98F0412109BF48F0438
:102C630012109B11900412109B1D900412109BB420
:102C7300910412109BCD910412109B5292041210D6
:102C83009B65920412109B84920412109B28930458
:102C930012109BA9940412109B5C960412109BF2D1
:102CA300960412109BF5960412109B65970412105C
:102CB3009B83970412109B1A980412109B6298042A
:102CC30012109B65980412109B2B990412109B9869
:102CD300990412109BBE990412109B499A04121076
:102CE3009B679A0412109BAD9A0412109B619B047C
:102CF30012109BAB9B0412109BDA9B0412109B37A0
:102D03009C0412109B6C9C0412109B989C04121040
:102D13009BA69C0412109BF39C0412109B639D04BE
:102D230012109BAC9D0412109BF89D0412109B245F
:102D33009E0412109B2F9E0412109B4D9E04121092
:102D43009B389F0412109B429F0412109B7D9F048B
:102D530012109B8D9F0412109BE19F0412109BF590
:102D63009F0412109B24A10412109B39A10412107A
:102D73009BC7A10412109B0CA20412109B98A204DF
:102D830012109BA3A20412109BE5A30412109B0034
:102D9300A40412109B4CA40412109BBBA404121095
:102DA3009BF4A40412109B0EA50412109B6EA504A1
:102DB30012109B0DA60412109B58A60412109B28F8
:102DC300A90412109BDAA90412109B47AA0412103B
:102DD3009B87AC0412109B9FAC0412109BA2AC0403
:102DE30012109BAEAC0412109BC2AC0412109BCA0F
:102DF300AC0412109BFDAC0412109B00AE04121025
:102E03009B8DAE0412109BFDAE0412109B7FAF048A
:102E130012109B40B00412109B5FB00412109B0071
:102E2300B10412109B5DB10412109B60B104121027
:102E33009BD4B10412109B23B30412109B29B40436
:102E430012109BB4B40412109BCFB50412109B97BD
:102E5300B60412109BC8B60412109BEBB6041210F2
:102E63009BF4B60412109B23B70412109BB3B70450
:102E730012109B69B80412109BDEB80412109B85D4
:102E8300B90412109BFAB90412109B31BA04121040
:102E93009B6FBA0412109BB8880512109B2CFC057B
:102EA30012109B22FC0512109B18FC0512109BB1FB
:102EB300FB0512109B96FB0512109BF3FA051210EB
:102EC3009BF3F90512109B11F90512109B01F705ED
:102ED30012109B0FF60512109BADF50512109B887F
:102EE300880512109B52E80312109B05FF04121071
:102EF3009BFBFE0412109B2C820512109B80810504
:102F030012109B90FE0412109BC4FC0412109B82AF
:102F1300FC0412109B8EFB0412109B62FB04121024
:102F23009B19FB0412109B5AFA0412109B46F704D8
:102F330012109BFBF40412109BCBF40412109B7B26
:102F4300F40412109B15F40412109BD4F304121012
:102F53009B06F30412109BA0F20412109B3FF20491
:102F630012109BDFF10412109B7DF00412109B11D1
:102F7300F00412109B65EF0412109B60EF04121013
:102F83009B49EF0412109BEE800512109B14EF0473
:102F930012109BA8800512109B73800512109B4092
:102FA300800512109B2B800512109B0080051210C8
:102FB3009BDCFE0512109BA6EB0412109BA3EB04F3
:102FC30012109B61EB0412109BA8FE0512109B4E7E
:102FD300EB0412109B43EB0412109B12EB04121030
:102FE3009B0AE90412109BDC870512109B7DE80401
:102FF30012109B12BE0612109B39E80412109B0D8F
:10300300E80412109B868A0612109B598A06121036
:103013009B268A0612109BFE890612109B9F890627
:1030230012109B7F890612109B4A890612109BF689
:10303300850612109BDE830612109BC881061210B0
:103043009B48810612109BF4800612109B00800699
:1030530012109B51FE0512109BA8800612109BBBF9
:10306300E50300000080FBE4738F000100BD1D87B2
:10307300000100BB1D35000400811D2500020085F1
:103083001D26000200871D27000200891D2800015C
:1030930000931D29000100941D84000400521A8628
:1030A300000100CC1C2A000100951D2B0001009695
:1030B3001D2C0001009B1D2D000800601A2E00012D
:1030C300009C1D2F0001009D1D300001009E1D313D
:1030D3000001009F1D32000100681A3300010069DE
:1030E3001A34000100A01D360001006A1A380001DD
:1030F30000A11D390001009A1D83000200B91D6360
:10310300000100751A64000100971D650001009815
:103113001D6D000100761A71000800581A6600013F
:1031230000B81D43000100A91D44000200AA1D456B
:10313300000100AC1D46000200AD1D470008006DF4
:103143001A48000100AF1D4B000100B01D0400012F
:1031530000BC1DA1000100C01D37000100BF1D8878
:10316300000100BE1D3C0001006B1A3D000100A2DE
:103173001D49000200B11D67000100771A4D0002CE
:1031830000B31D4E000100B51D4F000200B61D3EE9
:10319300000100A81D51000100A41D52000100A55B
:1031A3001D53000100A71D540001006C1A0000000C
:1031B30000000000000000200191920000010020A7
:1031C3000198920000020020019392000003002066
:1031D300019292000004004201DC8F0000050042CE
:1031E300011B8F000006004201AC90000007003075
:1031F3000197920000004042017F910000FDFF21F2
:10320300018D920A00070023012819030000002101
:10321300231A190D04000039051C190D042102217C
:1032230023361D0D0422022123381D0D0420021014
:10323300233A1D0D04250210233B1D0D041102101A
:10324300232A1D0D04010410232B1D0D0405042046
:10325300232C1D0D04060420232D1D0D0402041030
:10326300232E1D0D04020210232F1D0D040702211E
:1032730023301D0D044404210122190D04450420AB
:1032830023501D0001363601010001020100010334
:1032930001000104010606050200000701003408CD
:1032A30001000F090401010D0100FF0E08000017C2
:1032B300020000190100FF1A0100011B0100FE1C9E
:1032C3000100081D0200001F01000120010001216F
:1032D3000200002301000F24020000260100012741
:1032E300010008280200FF2A0100072B0102402CDD
:1032F3000100002D0100012E0100012F0100FF300C
:10330300010B1D310800003A0100083B01000F3C8E
:103313000100013D0100FF3E04000042040000469D
:103323000400004A0400004E04000052040000564A
:103333000400005A040000010371030103010301A7
:10334300030103010322030203010310030003002B
:1033530003000300030003000300034203000324EC
:1033630003060300030003040312032503230325B9
:1033730003230304030403000300030003440300C3
:1033830003000323030003650321003503810300C6
:1033930003050300030003000300032503230303C2
:1033A3000271023001600211027002010202020284
:1033B300028002100261023A00410063027302724A
:1033C30002620243020002130238000002000204F8
:1033D3000212020002000200020002040204023789
:1033E3000037003C0244020002390000020002657B
:1033F30002000235028102000205028202830200FA
:1034030002030071003001600011007000310220DE
:103413000350048000100061000000140063007377
:103423000072006200430000001300060000000069
:10343300000400120000000000000000000400046B
:1034430000370037003C0244000000000000000089
:1034530000650000003500810000000500000083C6
:10346300000000010171010101010111010101319C
:1034730001010101018001100161013B001400639E
:103483000173017201620143010001130106013D51
:1034930001350004011201000100010001000104D3
:1034A300010401330133013C0144013201360000C0
:1034B3000100016501000135008101000105018260
:1034C3000183010001030471040204600411047008
:1034D300040204020401040204100461040004143D
:1034E30004630473047204620443040004130406B3
:1034F3000400040004040412040004000400040093
:1035030004510464000004000400044404000400A3
:103513000400040004650400043504810464000508
:103523000400048304000436000100060000000FB9
:103533000000000000000000000000000003FFFF87
:1035430000000403FFFF0000FFFF0FF4010005C4A8
:10355300040320000100000B000000000000000035
:1035630003010F0000000000000000000000000045
:103573000000000000000000000000000000000048
:103583000000000000331D5D1D391D671C3F1D63D6
:103593001D3F1D6F1D451D671C3F1D631D4B1D6793
:1035A3001C00000000511D671C000000000000000B
:1035B30000571D671C000000000000000000000011
:1035C30000000000000000000000000000000000F8
:1035D30000000000000000000000000000000000E8
:1035E30000130003201F0009201F800F2000006923
:1035F30020010069200200AF1F0280A91F0300B54C
:103603001F0400BB1F0480C11F0500C71F0600D392
:103613001F3100E51F3300EB1F3400F11F3600F7A5
:103623001FFFFF00000A000000020000000400006A
:10363300000800000010000000200000004000000F
:1036430000800000000001000000020000000400F0
:1036530000000800000010000000200000004000EF
:1036630000011F28064F280849280B6D28106D25D7
:10367300022528053D28072B280C07280D1328644D
:103683006323FF0000030003000400080010001F71
:10369300003E007B00F600EC01D703AF075D0FB9D6
:1036A3001E713D00000204000029052419020410C4
:1036B300022923321D0504000021052619050410E3
:1036C300022923341D07ECFDFDFDECDCDCCCBCAC96
:1036D300AC9C9C8C7C7C6C6C5C5C5C4C4C3C3C2C57
:1036E3002C1C1C00160F00000B150B020002220FEE
:1036F3003300000E0F000000000000000000000077
:1037030000000000005A6967426565416C6C69619D
:103713006E63653039D0D1D2D3D4D5D6D7D8D9DAE0
:10372300DBDCDDDEDF150AF4D4C0A59582726361AC
:1037330055504900034D4C4651181A2505023030A7
:1037430017181921301B1D1F30003C40423A3F3FE0
:10375300392F4730000119161816161823030030A5
:103763003016181920231A1C1E300C0E020B040BE2
:103773000A0708000F02040201010101090200BE49
:10378300040AE8030000F6FB010003000000E8035D
:103793000000C8360E007F0028370C0504041E10F5
:1037A30010080A28FF001A0402040009033C0C094C
:1037B3000508150800FF030C031E74F6120B99E9A4
:1037C300FEE4F508F50978081210B87C2A7D007A22
:1037D300017B04121B5F74021210E6E9F874096896
:1037E300702375082A75091D78081210B875082A00
:1037F30075090078081210B87C007D007A017B04FB
:10380300121B6B8024E8702675082A75091D780839
:103813001210B875082A75090078081210B87C00D0
:103823007D007A017B04121B7174041210E6901A56
:1038330016E4F0EE9018B6F07A547B1D122FF97A45
:103843001A7B1D901D54E0F9121E117CB67D319038
:1038530037A9E493FA901D54E0F9121C737A607B44
:103863001D122FF97A1A7B1D901D60E0F9121E11AB
:103873007CA87D369037AAE493FA901D60E0F91294
:103883001C737C877D1D7A007B00901D54E0F91228
:103893001C797C877D1D7A007B00901D60E0F91206
:1038A3001C799018B6E0F9121C559018B6E0F9127D
:1038B30019F77A057B1E122EA97508167509197852
:1038C300081210B875085875090278081210B8E480
:1038D300F508F50978081210B87C007D007A0D7B95
:1038E3000479011214B774061210E67508127509EB
:1038F3001D78081210B87508587509027808121057
:10390300B875080F75090078081210B87C007D009F
:103913007A027B0479021214B774061210E6750852
:103923001675091D78081210B875085875090278BC
:10393300081210B875080F75090078081210B87CC2
:10394300007D007A057B0479021214B77406121005
:10395300E6D2927A327B001215A77A327B001215D7
:10396300A7121607121C077A327B001215A712162C
:10397300D9121DBD75083078081210B8750854782F
:10398300081210B875080075098078081210B87904
:10399300017C007D007A007B00121703740612106D
:1039A300E612170912170F7AC47B091215A77AC4F6
:1039B3007B091215A775081975090078081210B844
:1039C30078081210B87508D875098978081210B8E4
:1039D30079017C0B7D007A1E7B001217037406129B
:1039E30010E612170912170F7AAC7B0D1215A712E6
:1039F30016E57AFF7B1D121BE3D293D292C2847A1F
:103A0300DC7B051215A7D293C284C2927ADC7B05B4
:103A13001215A7D284D293C2927ADC7B051215A722
:103A2300D284D292C2937ADC7B051215A7D284C2C8
:103A330093C2927ADC7B051215A7901D2EE06004D9
:103A4300790180027900121BE97A019018B6E0F936
:103A5300121B89909217120F177A107B009018B6D9
:103A6300E0F9121BAD74041210E690921B120F17AB
:103A73007A007B019018B6E0F9121BAD74041210A2
:103A8300E690921F120F177A007B109018B6E0F998
:103A9300121BAD74041210E6909223120F177A00D2
:103AA3007B049018B6E0F9121BAD74041210E60201
:103AB3003D8E74F0120B99EAFEEBFF548060030213
:103AC3003B8CEE54107003023C2D9018BCE064D084
:103AD3007004A3E064077003023C04901D2DE0C34F
:103AE3009418400574171242DF901D2CE0C39418FC
:103AF300400574171242DF9018B9E0FA901D2DE0CB
:103B0300FC901D2CE0F8C3EC123CCA4003023BEBD3
:103B1300123CC84003023BF8023BF0EA2417F8E4E6
:103B23003509F9880A890B8882F58312537C605220
:103B33008A828B83A3A3A3A3A3A3A3A3E0640A7092
:103B430002A3E0703188828983A3A3A3A3A3E0F82F
:103B5300A3E0F5838882780C1213A1901928780CBE
:103B63001213839018CD780C121383AA0CAB0DACEF
:103B73000EAD0F121AC3850A82850B83125364128A
:103B83001AEDAA08AB09121A3F9018B6E0F9121AF7
:103B9300518A088B09EA450960468A828B83E024AF
:103BA300CC7003023B1E247470D8A3A3A3E0F50BCF
:103BB3008A828B83A3A3E0F50A901CCDE064017095
:103BC30007AA0BA90A1215B9AA0BA90A121589E5A6
:103BD3000AA2E650AD9018C37401F0121DAB80A287
:103BE300EEFAEF6480023CBF123CC8400FC3EA9C6C
:103BF300123CCB50079018CA740180049018CAE491
:103C0300F09018C2E0C394075018E004F0901D2E02
:103C1300E06004790180027900121BE99018C374F3
:103C230001F0121DABEE64108058EF5404600B12C8
:103C33001BFBEEFAEF6404023CBFEF5401601E90DD
:103C4300925F120F177A807B009018B6E0F9121B6F
:103C5300A774041210E6EEFAEF6401805FEE54409D
:103C63006008121D8DEE64408018EE542060081227
:103C73001D99EE6420800BEE5480600A121D9FEEA6
:103C83006480FAEF8036EF5410600D125361121DF9
:103C9300DBEEFAEF64108024EF540860229091D792
:103CA300120F177A007B089018B6E0F9121BA7745D
:103CB300041210E6121E0BEEFAEF6408FB80047A7E
:103CC300007B00800DC3EA9895E0C365D0332212D0
:103CD30010E67F08020E4CC082C083121D8D024382
:103CE30002C082C083909227120F177A407B009004
:103CF30018B6E0F9121BA774041210E67900024308
:103D03000274F6120B9975082A75091D78081210AA
:103D1300B875082A75090078081210B87C007D0070
:103D23007A017B04121B6B74041210E6901D50126F
:103D330042CBA3E0687003A3E069600B901D52E8D7
:103D4300F0A3E9F0121DBD901D2AE0F8901D3CE0A0
:103D530068600E901D2AE0901D3CF0125361121D05
:103D6300CF12419B6006125361121DCF801D78084C
:103D73001210B879017C007D007A007B00121703D2
:103D830074061210E612170912170F7F02020E4C67
:103D930074F0120B9974F812117E74041214141235
:103DA300558985218285228312558AAC21AD2274DF
:103DB3000412116E1216C1901D34125888120AB2E1
:103DC300852182852283780C1213A17808790C123D
:103DD30001ED9091DB780C1213A17808790C120590
:103DE300ED780812086F901926125592901D321221
:103DF3005888120AB290922B780C1213A178087982
:103E03000C1204077404121414780C1213A178080A
:103E1300790C1201ED9091DB780C1213A1780879DB
:103E23000C1205ED780812086F9019241255929020
:103E33001CCDE06016901924E024E4F0A3E034FDE7
:103E4300F0A3E024E8F0A3E03403F090192412581F
:103E530088120AB290922B780C1213A17808790C6D
:103E630012040790922F780C1213A17808790C1280
:103E730001ED780812086F9018C612559290192612
:103E83001274B2120ACD9091DB780C1213A1780848
:103E9300790C12040790922F780C1213A1780879E9
:103EA3000C1201ED780812086F9018C8125592741D
:103EB30008023CD274F4120B999018C0124193601B
:103EC3001B14603914603F147003023F5F147003C6
:103ED300023FD0147003023FD5023FDD121DA590AF
:103EE30018C3E064017006121DB7023FFE7C007D1B
:103EF300007A0D7B04901D54E0F9023FCB1216BBF0
:103F0300121D93023FFE9018C3E0640170467A0BC2
:103F13007B00121AE78A088B09EA45097003023FFE
:103F2300B812402074291246237424F0A374191282
:103F330040387432F0A3741D12464A1210BC750A3D
:103F430001780A1210BC780A1210BC78081210B853
:103F53007C0280517C007D007A0280689018C3E067
:103F63006401705A7A0B7B00121AE78A088B09EAFC
:103F73004509604112402074211246237426F0A3A0
:103F830074191240387434F0A3741D12464A121087
:103F9300BC750A01780A1210BC780A1210BC7808A2
:103FA3001210B87C057D047AD27B187902121CA901
:103FB30074051210E6AA08AB09121AED803D7C00C5
:103FC3007D007A057B0479021214BD802E121DB187
:103FD3008029125361121DCF8021E4F09018C3E0B1
:103FE30064017034909233120F177A807B0090181B
:103FF300B6E0F9121BA774041210E69018C0E06033
:10400300179091BB120F177A207B009018B6E0F936
:10401300121BA774041210E67F04020E4C8A828BD3
:10402300837402F0A3E4F0A312402F22F08A828B60
:1040330083A3A3A322124627A3A37410F0A374029D
:104043001246347429124634A32274F6120B99745F
:10405300FF12117E9018C112419360151470030270
:10406300410414700302413614700302414A0241B1
:104073008A7A0C7B00121AE78A088B09AE08AF090B
:104083008E828F83E4F0A31241A674021241A6A389
:1040930014F0852182852283F01214147407F0A38F
:1040A300E4F09018D1124193F50878081210BC750A
:1040B300080178081210BC78081210BC740312119E
:1040C300668808890978081210B87C0A7D0079018E
:1040D300121C8B74051210E6EEFAEFFB121AED9028
:1040E30018C1E0601790925F120F177A807B0090DF
:1040F30018B6E0F9121BA774041210E67401023A11
:10410300AF901D2FE0640170D6121BEF901D2FE4BA
:104113001242D11210B875082A75090078081210D6
:10412300B87C007D007A017B04121B6B74041210AF
:10413300E680AC12419B60A7E8F060077901121B8F
:10414300E9809C790080F7901D3012537C6090C306
:10415300E89490E99401500B901D307490F0A3748F
:10416300018012C3E89489E99413400A901D3074C6
:1041730088F0A37413F0901D30125364121BF59052
:104183001D30E4F0A38089E4F09018C3F00240FFEF
:10419300E0F8740128F0E822901D2EE0F8901D3E0F
:1041A300E06822F08E828F83A3A3A3A3A3A3A3A378
:1041B3002274F6120B99901D2AE0F8901D3CE068DA
:1041C300600A901D2AE0901D3C1242DF901D3612BA
:1041D30042CB901D46E0687003A3E0696006901D22
:1041E300461242DB901D381242CB901D48E06870A6
:1041F30003A3E0696006901D481242DB901D3AE07C
:10420300F8901D4AE0686004E81242DF901D3BE02D
:10421300F8901D4BE0686004E81242DF901D2BE02C
:10422300F8901D3DE068600B9018C37401F0E890AE
:104233001D3DF0901D321242CB901D42E068700389
:10424300A3E0696006901D421242DB901D341242C6
:10425300CB901D44E0687003A3E0696006901D44A1
:104263001242DB901D2FE0F8901D3FE068602B9019
:1042730018C37401F0E8901D3F1242D11210B875B3
:10428300082A75090078081210B87C007D007A01AD
:104293007B04121B6B74041210E6901D301242CB88
:1042A300901D40E0687003A3E069600E9018C3742A
:1042B30001F0901D40E8F0A3E9F012419B600690E5
:1042C30018C37401F0023D8EE0F8A3E0F922F07503
:1042D300082A75091D780822E8F0A3E9F09018C3AD
:1042E3007401F022C082C08390925F120F177A206C
:1042F3007B009018B6E0F9121BA774041210E6D0E5
:1043030083D08202109874F6120B99901D3AE064E0
:104313000160030244129019201242CB901D36E033
:10432300FCA3E0FDC3EC98ED99500E9018C4E07027
:10433300087401F09018C5E4F0901D38125873E822
:104343009AE99B500E9018C5E070087401F090181C
:10435300C4E4F0C3EC98ED99500A901D3BE064016E
:1043630060528012C3E89AE99B400302441B901DEC
:104373003BE06401703E122EEBE9F9E4F508F50920
:1043830078081210B878081210B8E9F508780812FE
:1043930010BCE4F50878081210B875080178081203
:1043A30010BC75080078081210BC75080178081253
:1043B30010BC803F122EEBE9F9E4F508F509780803
:1043C3001210B878081210B8E9F50878081210BC72
:1043D300E4F50878081210B875080178081210BCC3
:1043E30075080078081210BC75080178081210BC13
:1043F30075080078081210BC7C067D007AD27B1801
:10440300901D54E0F9121C85740B1210E68009907C
:1044130018C4E4F09018C5F0023D8E74F4120B99A1
:10442300901CCDE070030245F47A477B00121AE733
:104433008A088B09EA450970030245ED8A828B835A
:10444300740E1240267439124623741CF0A3741997
:10445300124623A3A37421F0A374021246307421DD
:10446300124630A37436F0A3741DF0EA240B1245F0
:10447300F77422124643240D12460B240E1245F7FD
:104483007438F0A3741DF0EA24101245F774201257
:104493004643241212461724131245F7743AF0A325
:1044A300741DF0EA24151245F774251246432417A8
:1044B30012461724181245F7743BF0A3741DF0EA53
:1044C300241A1245F77411124643241C124617246A
:1044D3001D1245F7742AF0A3741DF0EA241F124538
:1044E300F7740112463C242112461724221245F781
:1044F300742BF0A3741DF0EA24241245F77405F01D
:10450300A314F0EA24261245FF24271245F7742C3E
:10451300F0A3741DF0EA24291245F7740612463CF1
:10452300242B1245FF242C1245F7742DF0A3741D80
:10453300F0EA242E1245F7740212463C2430124648
:104543001724311245F7742EF0A3741DF0EA2433B7
:104553001245F7744412463C243512460B24361296
:1045630045F77422F0A37419F0EA24381245F7745E
:104573004512463C243A1245FF243B1245F774503A
:10458300F0A3741DF0EA243D1245F77402F0A3F082
:10459300EA243F12461724401245F7742FF0A37400
:1045A3001DF0EA24421245F77407124643244412CD
:1045B300460B24451245F77430F0A3741D12464A86
:1045C3001210BC750A01780A1210BC780A1210BCCA
:1045D30078081210B87C0D7D047AD27B18901D5494
:1045E300E0F9121CA974051210E6AA08AB09121A05
:1045F300ED02401BF582E43509F58322F582E435AB
:1046030009F5837420F0EA22F582E43509F5837411
:1046130021F0EA22F582E43509F5837410F0EA22E9
:104623001246272212462B2212402FA3221246346F
:104633002212462BA3A3A3A322F0A37404F0EA221D
:10464300F0A37402F0EA22F09018D1E0F874012884
:10465300F0E8F50A780A22C082C083901D50C3E0B7
:104663009429A3E094004009901D507428F0A3E41A
:10467300F0901D50E02428F91216DF02430274F66D
:10468300120B9975083075090078081210B875086F
:104693005478081210B87508F07509837808121059
:1046A300B879017C007D007A007B00121703740641
:1046B3001210E612170912170F9018C2E4F0023D08
:1046C3008E74F6120B99750830750900780812106C
:1046D300B875085478081210B87508E8750985028A
:1046E3003D7174E0120B9974F512117EEAFEEBFF33
:1046F30012537960030253579018C6125364121D64
:10470300E79018C8E0F9121DED121DE1EEF8EFF97C
:104713007AE87B031209D9EAF8EBF97A647B001291
:1047230009D9E8F50CEEF8EFF97A647B001209D9A0
:10473300EAF8EBF97A0A7B001209D9E8F50DEEF8ED
:10474300EFF97A0A7B001209D97406121414EAF0FD
:10475300740912141474C7F0A37491F0740712143B
:1047630014747DF0A3748EF0740412141474D9F0CD
:10477300A3748EF074021214147489F0A3748FF06E
:104783008521828522837497F0A3748EF0751E05AC
:10479300751F8F751C47751D8F7516AD75178E7533
:1047A300143175158F7512C375138E75105D7511E0
:1047B3008F750EEF750F8E750A15750B917508D3EE
:1047C30075099075187375198FC3EE94E8EF940308
:1047D3004003024CE3751A05751B00781A1210B8D2
:1047E300751A0B781A1210B878181210B879017C60
:1047F300177D007A427B0012170374061210E690AD
:104803001D3AE0640160030248B29018C4E06401F9
:10481300704112536A701A1210B875180B78181277
:1048230010B878081210B879017C207D007A428094
:10483300181210B875180878181210B8780A1210E0
:10484300B879017C207D007A447B0012170374063B
:104853001210E69018C5E064017054901D3BE064AB
:1048630001702275080475090078081210B87508DC
:104873000878081210B8780A1210B879017C207DE4
:10488300007A448020750A04750B00780A1210B868
:10489300750A0B780A1210B878081210B879017CDF
:1048A300207D007A427B0012170374061210E6E59E
:1048B3000C60301460441460581460731470030265
:1048C300494D14700302496814700302498214703D
:1048D3000302499C1470030249B61470030249D0C1
:1048E3000249FA75080D75090078081210B87508A1
:1048F3000B78081210B87408802C75080D75090020
:1049030078081210B875080B78081210B87406806E
:104913001575080D75090078081210B875080B781D
:10492300081210B87404121414120F1B0249E8750C
:10493300080D75090078081210B875080B7808126D
:1049430010B8781E1210B80249E875080D750900F1
:1049530078081210B875080B78081210B8781C1272
:1049630010B80249E875080D75090078081210B8E7
:1049730075080B78081210B878161210B88066758F
:10498300080D75090078081210B875080B7808121D
:1049930010B878141210B8804C75080D750900789A
:1049A300081210B875080B78081210B87812121094
:1049B300B8803275080D75090078081210B87508AB
:1049C3000B78081210B878101210B8801875080DFB
:1049D30075090078081210B875080B78081210B81A
:1049E300780E1210B879017C177D007A327B0012A1
:1049F300170374061210E6E50D603014604414606A
:104A030058146073147003024A95147003024AB079
:104A1300147003024ACA147003024AE414700302B6
:104A23004AFE147003024B18024B4275080D7509B8
:104A33000078081210B875080B78081210B87408BB
:104A4300802C75080D75090078081210B875080BCD
:104A530078081210B87406801575080D750900786A
:104A6300081210B875080B78081210B874041214E1
:104A730014120F1B024B3075080D750900780812CC
:104A830010B875080B78081210B8781E1210B80207
:104A93004B3075080D75090078081210B875080BAE
:104AA30078081210B8781C1210B8024B3075080D34
:104AB30075090078081210B875080B78081210B839
:104AC30078161210B8806675080D750900780812FB
:104AD30010B875080B78081210B878141210B88043
:104AE3004C75080D75090078081210B875080B7815
:104AF300081210B878121210B8803275080D7509B3
:104B03000078081210B875080B78081210B87810DE
:104B13001210B8801875080D75090078081210B8BE
:104B230075080B78081210B8780E1210B879017C4A
:104B3300177D007A257B0012170374061210E674A2
:104B430006121414E0603014604414605814607347
:104B5300147003024BE1147003024BFC1470030244
:104B63004C16147003024C30147003024C4A147038
:104B730003024C64024C8E75080D75090078081207
:104B830010B875080B78081210B87408802C7508D3
:104B93000D75090078081210B875080B7808121003
:104BA300B87406801575080D75090078081210B8D9
:104BB30075080B78081210B87404121414120F1B22
:104BC300024C7C75080D75090078081210B8750839
:104BD3000B78081210B8781E1210B8024C7C7508B6
:104BE3000D75090078081210B875080B78081210B3
:104BF300B8781C1210B8024C7C75080D7509007842
:104C0300081210B875080B78081210B8781612102D
:104C1300B8806675080D75090078081210B8750814
:104C23000B78081210B878141210B8804C75080D60
:104C330075090078081210B875080B78081210B8B7
:104C430078121210B8803275080D750900780812B1
:104C530010B875080B78081210B878101210B880C5
:104C63001875080D75090078081210B875080B78C7
:104C7300081210B8780E1210B879017C177D007AEB
:104C8300187B0012170374061210E675080D7509D8
:104C93000078081210B878081210B8740B121414A4
:104CA300120F1B79017C177D007A097B0012170311
:104CB30074061210E6901D2EE06401600302534453
:104CC30075080478081210B878081210B8740D1219
:104CD3001414120F1B79017C207D007A0902533AC8
:104CE300751A0D751B00781A1210B8751A0B781AFD
:104CF3001210B878181210B879017C177D007A4821
:104D03007B0012170374061210E6901D3AE064014B
:104D13006003024DBD9018C4E06401704112536AF0
:104D2300701A1210B875180B78181210B878081288
:104D330010B879017C207D007A4880181210B8756C
:104D4300180878181210B8780A1210B879017C2064
:104D53007D007A4A7B0012170374061210E690183E
:104D6300C5E064017054901D3BE064017022750836
:104D73000475090078081210B8750808780812102D
:104D8300B8780A1210B879017C207D007A4A802015
:104D9300750A04750B00780A1210B8750A0B780AA5
:104DA3001210B878081210B879017C207D007A4877
:104DB3007B0012170374061210E6EEF8EFF97AE897
:104DC3007B031209D9E860301460441460581460FE
:104DD30073147003024E62147003024E7D14700349
:104DE300024E97147003024EB1147003024ECB149B
:104DF3007003024EE5024F0F75080D750900780820
:104E03001210B875080B78081210B87408802C7546
:104E1300080D75090078081210B875080B78081288
:104E230010B87406801575080D75090078081210FE
:104E3300B875080B78081210B87404121414120F02
:104E43001B024EFD75080D75090078081210B87520
:104E5300080B78081210B8781E1210B8024EFD75B0
:104E6300080D75090078081210B875080B78081238
:104E730010B8781C1210B8024EFD75080D750900A4
:104E830078081210B875080B78081210B878161243
:104E930010B8806675080D75090078081210B8758A
:104EA300080B78081210B878141210B8804C7508E3
:104EB3000D75090078081210B875080B78081210E0
:104EC300B878121210B8803275080D750900780889
:104ED3001210B875080B78081210B878101210B8B1
:104EE300801875080D75090078081210B875080B3D
:104EF30078081210B8780E1210B879017C177D006B
:104F03007A387B0012170374061210E6E50C603042
:104F1300146044146058146073147003024FAA148D
:104F23007003024FC5147003024FDF147003024F66
:104F3300F914700302501314700302502D025057DA
:104F430075080D75090078081210B875080B7808F4
:104F53001210B87408802C75080D750900780812B2
:104F630010B875080B78081210B874068015750808
:104F73000D75090078081210B875080B780812101F
:104F8300B87404121414120F1B02504575080D75E2
:104F9300090078081210B875080B78081210B87851
:104FA3001E1210B802504575080D750900780812D5
:104FB30010B875080B78081210B8781C1210B802D4
:104FC300504575080D75090078081210B875080B5F
:104FD30078081210B878161210B8806675080D7527
:104FE300090078081210B875080B78081210B87801
:104FF300141210B8804C75080D750900780812104A
:10500300B875080B78081210B878121210B88032ED
:1050130075080D75090078081210B875080B780823
:105023001210B878101210B8801875080D750900A1
:1050330078081210B875080B78081210B8780E1299
:1050430010B879017C177D007A2B7B00121703744B
:10505300061210E6E50D60301460441460581460C5
:10506300731470030250F214700302510D14700391
:1050730002512714700302514114700302515B144F
:10508300700302517502519F75080D750900780868
:105093001210B875080B78081210B87408802C75B4
:1050A300080D75090078081210B875080B780812F6
:1050B30010B87406801575080D750900780812106C
:1050C300B875080B78081210B87404121414120F70
:1050D3001B02518D75080D75090078081210B875FB
:1050E300080B78081210B8781E1210B802518D758B
:1050F300080D75090078081210B875080B780812A6
:1051030010B8781C1210B802518D75080D7509007E
:1051130078081210B875080B78081210B8781612B0
:1051230010B8806675080D75090078081210B875F7
:10513300080B78081210B878141210B8804C750850
:105143000D75090078081210B875080B780812104D
:10515300B878121210B8803275080D7509007808F6
:105163001210B875080B78081210B878101210B81E
:10517300801875080D75090078081210B875080BAA
:1051830078081210B8780E1210B879017C177D00D8
:105193007A1E7B0012170374061210E674061214AB
:1051A30014E0603014604414605814607314700386
:1051B30002523E14700302525914700302527314C4
:1051C300700302528D1470030252A714700302522B
:1051D300C10252EB75080D75090078081210B875F5
:1051E300080B78081210B87408802C75080D75091F
:1051F3000078081210B875080B78081210B87406F6
:10520300801575080D75090078081210B875080B1C
:1052130078081210B87404121414120F1B0252D916
:1052230075080D75090078081210B875080B780811
:105233001210B8781E1210B80252D975080D7509EC
:105243000078081210B875080B78081210B8781C8B
:105253001210B80252D975080D750900780812109A
:10526300B875080B78081210B878161210B8806653
:1052730075080D75090078081210B875080B7808C1
:105283001210B878141210B8804C75080D75090007
:1052930078081210B875080B78081210B878121233
:1052A30010B8803275080D75090078081210B875AA
:1052B300080B78081210B878101210B88018750807
:1052C3000D75090078081210B875080B78081210CC
:1052D300B8780E1210B879017C177D007A117B0023
:1052E30012170374061210E675080D750900780885
:1052F3001210B878081210B8740B121414120F1B82
:1053030079017C177D007A027B0012170374061261
:1053130010E6901D2EE064017027750804780812CA
:1053230010B878081210B8740D121414120F1B79E8
:10533300017C207D007A027B001217037406121091
:10534300E6121DF3121DF912170912170FEEFAEFE9
:10535300FB121DD5740B1210E67F18020E4C901928
:1053630020E0FAA3E0FB22901D3BE06401751804E2
:1053730075190078182290191AE0F8A3E0F9E849A2
:105383002274F7120B99901D2AE064016003025402
:105393008CEA2487FEEB34FAFFEA2417FCEB34FC97
:1053A300FDEA24A7F8EB34FDF9A3E06401600302EE
:1053B300543F9018BCE064D07004A3E06407607CA1
:1053C3009018CAE0F5089018CBE065089018CA60F9
:1053D30068E06401700DC284C293C2929018CB74CA
:1053E300018053C3EA9459EB94025008D293D292AA
:1053F300C284803EC3E89490E994015006D293C2DC
:1054030084802DC3EC9490ED94015006D284D29302
:10541300801EC3EE9490EF94015008D284D292C2BE
:1054230093800FC3EA9409EB94074006D284C29396
:10543300C292E09018CBF08056E07053C3EA9459BF
:10544300EB94025008D293D292C2848042C3E89470
:1054530090E994015006D293C2848031C3EC9490B6
:10546300ED94015006D284D2938022C3EE9490EF40
:1054730094015008D284D292C2938013C3EA940950
:10548300EB9407400AD2848002C284C293C2927F03
:1054930001020E4C74F0120B998A088B09E4F50A89
:1054A300F50B901D10C3E0943CA3E09400501190C1
:1054B300191278081212D5901D101274A90255857D
:1054C300901D107401F0A3E4F090191278081212E1
:1054D300C290920B780C1213A17808790C120B2A44
:1054E300901912125589909237780C1213A19019C2
:1054F3000E780C1211E9503090190E780C1213A18A
:105503007401780C12128974DE250CF58274183537
:105513000DF5831255929091BF78081213A190193B
:105523000E78081212D58055909237780C1213A179
:1055330090190E780C1211BF70439018DEE0FEA391
:10554300E0FF7800790012587AFA74183BFB8A82DC
:105553008B83A3A3E0FCA3E0FD8A828B83ECF0A3FF
:10556300EDF008E8700109C3941712584C40D79026
:10557300190CEEF0A3EFF090190C1255929018CC81
:105583007401F0023CD5E4F0A3F0A3F0A3F022E50C
:1055930008F0A3E509F02274EA120B997E4C7F0010
:1055A300901D0FE06401700A750C90750D01E4F015
:1055B300800A9018DEE0F50CA3E0F50D7800790081
:1055C300125869EA950CEB950D50048A0C8B0D0863
:1055D300E870010912584540E79018DEE0F50EA384
:1055E300E0F50F78007900125869E50E9AE50F9BF4
:1055F3005008EA4B60048A0E8B0F08E87001091209
:10560300584540E38F108F11A810E828F8E51133AF
:10561300F974DE28F582741839F583125888120A52
:10562300B278081210B090923B120F1790925B124F
:105633000F17850E08850F09E4F50AF50B78081294
:105643000ACD78081210B0850C08850D09E4F50A17
:10565300F50B7808120ACDAA08AB09AC0AAD0B12F8
:105663001C4374101210E61208658508128509138D
:1056730074176510451175080975090078086003EA
:1056830002574C1210B875080278081210B8790145
:105693007C007D007A007B001216F174041210E680
:1056A30075080978081210B875080278081210B83E
:1056B30079017C007D007A017B001216F1740412DB
:1056C30010E6750800804A1258551210B875140276
:1056D30078141210B87901AC0AAD0B7A007B001272
:1056E30016F174041210E675140978141210B875C3
:1056F300140278141210B87901AC0AAD0B7A017B4D
:10570300001216F174041210E60508E5087002058C
:105713000912583640B17508097509007808121046
:10572300B875080278081210B875082F750907783C
:10573300081210B879017C0C7D00EEFAEFFB12170A
:105743000374061210E60258171210B8750802788F
:10575300081210B879017C007D007A007B001216D4
:10576300F174041210E675080978081210B8750868
:105773000278081210B879017C007D007A017B0061
:105783001216F174041210E6750800804A12585577
:105793001210B875140278141210B87901AC0AAD5E
:1057A3000B7A007B001216F174041210E6751409CB
:1057B30078141210B875140278141210B87901AC69
:1057C3000AAD0B7A017B001216F174041210E60580
:1057D30008E5087002050912583640B175080975C5
:1057E300090078081210B875080278081210B87505
:1057F300082F75090778081210B879017C0C7D0011
:10580300EEFAEFFB12170374061210E6EE24FDFE08
:10581300EF34FFFF79001216F70510E5107002054B
:1058230011C39418E51112584D500302560B7F0E05
:10583300020E4CC3E5089512E5099513A2D265D073
:105843003322C3941812584C22E99400A2D265D093
:105853003322E5082401F50AE43509F50B7514092B
:1058630075150078142212587AF58274183BF58363
:10587300E0FAA3E0FBC322E8FAE9FBEA2AFAEB33F6
:10588300FB74DE2A22E0F508A3E0F5093395E0F581
:105893000AF50B78082274E0120B9974FE12117E3C
:1058A300EAFCEBFDECF8EDF97A647B001209D9E828
:1058B300F51CECF8EDF97A647B001209D9EAF8EBF0
:1058C300F97A0A7B001209D9E8FEECF8EDF97A0AB5
:1058D3007B001209D9EAFF8521828522837435F082
:1058E300A37491F0751E8B751F92751A3E751B90EC
:1058F30075187E7519907516FE75178F75144E758C
:10590300159075120E75139075101E751190750E06
:105913002E750F90750C6E750D90750A8E750B9024
:1059230075085E750990E51C6003025C18EE603033
:105933001460481460601460781470030259CF1423
:1059430070030259EA147003025A04147003025AD2
:105953001E147003025A38147003025A52025A7CFE
:10596300751C09751D00781C1210B8751C08781C6D
:105973001210B8781A1210B8025A6A751C09751DEC
:1059830000781C1210B8751C08781C1210B878180F
:105993001210B8025A6A751C09751D00781C121082
:1059A300B8751C08781C1210B878161210B8025A71
:1059B3006A751C09751D00781C1210B8751C0878CF
:1059C3001C1210B878141210B8025A6A751C0975A3
:1059D3001D00781C1210B8751C08781C1210B878BA
:1059E300121210B8025A6A751C09751D00781C1230
:1059F30010B8751C08781C1210B878101210B880F3
:105A030066751C09751D00781C1210B8751C087882
:105A13001C1210B8780E1210B8804C751C09751D35
:105A230000781C1210B8751C08781C1210B8780C7A
:105A33001210B88032751C09751D00781C1210B83D
:105A4300751C08781C1210B8780A1210B8801875E3
:105A53001C09751D00781C1210B8751C08781C12DF
:105A630010B878081210B879017C007D007A417B68
:105A73000012170374061210E6751C09751D0078D1
:105A83001C1210B8751C01781C1210B8781E121065
:105A9300B879017C007D007A3F7B001217037406FE
:105AA3001210E6EF603014604814606014607814DC
:105AB3007003025B45147003025B60147003025BA6
:105AC3007A147003025B94147003025BAE147003C8
:105AD300025BC8025BF275080975090078081210A9
:105AE300B875080878081210B8781A1210B8025B53
:105AF300E075080975090078081210B87508087868
:105B0300081210B878181210B8025BE0750809750E
:105B1300090078081210B875080878081210B878C8
:105B2300161210B8025BE0750809750900780812AF
