:020000040000FA
:060000000213640208383F
:030013000208FEE2
:03002B00021101BE
:03003300020FCAEF
:03003B0002095364
:0300530002076D34
:100083000207CC0100F0FF0700080000FFFF00009B
:100093000704000000030001FF0530750000002085
:1000A300FD000206FFFFFF0186000000000079FF4C
:1000B3000179000000000086FF0179A00000000024
:1000C300E6FF0187000000000078FF018807D000E9
:1000D3000000A01E0101001900000032000000878B
:1000E3001D000000000000000000000000000001EF
:1000F3000017060000000001000100D00790010076
:100103000001000100000001000100D00790010080
:1001130000000000000E000E000104010C000204A8
:100123000D910195920204010203020279920000EB
:1001330000010400006719000000E8030000FFFF4E
:10014300C41988130000E803000064006400B801C8
:10015300A0BB0D00A0BB0D000202020704010107B2
:100163001E02051E020A0A0101010809080103B85B
:100173000B02803E0102FEFFE8030A050001FFFFB8
:10018300010A011401E00200000001050301010F4F
:1001930010FEFF030003000300030003000300033A
:1001A300000300030005000A00140028004F009E0E
:1001B300000000123400000000483300000000FF7C
:1001C300000000FF0012139260461213B0603DE975
:1001D300687008F618F618F618F622748067F71296
:1001E30001FC090909748067F7221213B0601D121C
:1001F30013927005191919801A121226701F121200
:100203003AC37003E66733191919400718181822FF
:1002130008080874FFF618F618F618F62212123AB0
:100223006017121430702192F012141E70195017B7
:1002330020F014080808090909E7F61819E7F61861
:1002430019E7F61819E7F62212141E60E6E869703A
:100253001F0808E62480F608E436F618547FB47FB6
:100263000CE654806007F6E418F618F622181822F4
:10027300E9C6CC08C6CD08C6CE08C6CFC0E0E8C0E4
:10028300E0EAC0E0EBC0E009E9F809E7FA09E7FBB7
:10029300E6F918E6F8C3EC98ED99EE9AEBC2E7F5A8
:1002A300F0EFC2E795F0500E600CEBCFFBEACEFA0D
:1002B300E9CDF9E8CCF8EAA2E7D2E7FAEB33FB138E
:1002C300F5F0EEA2E7D2E7FEEF33FFC5F013A2E7A6
:1002D30030E601B313C5F0C3C0E0C0F07F00C39B99
:1002E300FB605E9418600F401D14601AD0E023F980
:1002F300D0E0F80203CE8AF0E9486003D2F0E4AF1D
:10030300F0FAF9F8803BEB30E40D89F0EA6003D2B0
:10031300F0E4AFF0F9CAF8EB30E30D88F0EF6002D8
:10032300D2F0AFF0E4CAC9F8EB54076014FBC3EA98
:1003330013FAE913F9E813F8EF135002D2E0FFDBE5
:10034300EDD0E0C0E030E739C3E49FFFF5F0EC986F
:10035300FC42F0ED99FD42F0EE9AFE42F0D0E0F956
:10036300D0E0F8E5F0607AE923F9EE20E742D8021D
:100373008067C3EF33FFEC33FCED33FDEE33FE80D8
:10038300EAEC28FCED39FDEE3AFED0E023F9D0E0AB
:10039300F84002801BC3EE13FEED13FDEC13FCEFDC
:1003A300135002D2E0FF08B800067F7F74FF802E4F
:1003B300EF3350178CF020F00260100CBC000C0DD2
:1003C300BD00080EBE000408E860DFE933E813FF50
:1003D300EE2313FE4F4D4C8008E95480FFE4FEFDED
:1003E300FCEE33EF33F47004FCFD7E80D0E0FBD0F1
:1003F300E0FAD0E0F8D0E0CFC618CEC618CDC618C4
:10040300CCC6F9221213B0700418181822121392D2
:10041300700D74FFF61819F61819F61819F622E775
:10042300548066F612141E700F12143070F014F616
:1004330008F608F608F680D1121430700CF608F6A8
:1004430008768008E6447F80EC12123D700C12128D
:100453002960BFE65480F6E480BB121229700519A7
:10046300191980A5E869700C763F18768018F6187C
:10047300F6E8F922E6CDC0E018ECC0E0E633CD3370
:10048300CDD313F6E719FCE7191933CC33C3947FA3
:10049300400ECD9D502408E65480F6E418F6800FF4
:1004A300F4043D14501408E6447FF6187680E418EB
:1004B300F618F6D0E0FCD0E0FD22CCD313CCFD1827
:1004C300E4C6CBC0E018E4C6CAC0E00808ED08C61D
:1004D30033E613F618E433C675F003C3CA97CA09A3
:1004E300CB97CB199C40047D08802EBD00030205E9
:1004F300B016B6FF050606081618C3CA33CACB33AF
:10050300CB33CA27CA09CB37CB193CC37D08803EFE
:10051300187D0820E75CC633C6CA33CACB33CB3356
:10052300DDF1D5F0EB30E77BCA97CA09CB974ACB0D
:10053300199C406F4B7025E620E0218066187D08EA
:10054300C3CA97CA09CB97CB199CD3C633C6CA3340
:10055300CACB33CB3350C9DDE7D5F0E1D3E4C6369C
:10056300C608C636C608C636C608C636C61818181C
:100573008031C3CA97CA09CB97CB199CB34097C69E
:1005830033C6CA33CACB33CB33DD34D5F02EC6A240
:10059300E0C640C8CA27CA09CB37194A70BECB3C4C
:1005A300B480B90808E63308E633601F181818D07A
:1005B300E0FAD0E0FBD0E0FCD0E0FD22187D08CAD1
:1005C30027CA09CB37CB193CD3808013F618E4B67E
:1005D3007F11F618B6FF0EF618C60470D208087617
:1005E3008080CAF618F618F680C5001213B0604F63
:1005F3001213926012E7548066F6121226701112DB
:100603001430703B090909F4F618F618F618F622A7
:1006130012123A701512141E08080860EAE6447FA5
:10062300F618768018E4F618F62212141E601612D5
:1006330014307012E4F608F608F608E65480F6095A
:10064300090918181822EAC0E0EBC0E0ECC0E0ED9D
:10065300C0E0E687F0A4FBACF008E687F0A42CFC2E
:10066300E435F0FA1809E687F0A42C4B6002740114
:10067300CA35F0FCE433FB09E687F0D2F7A42CCBB0
:1006830035F0FC1908E687F0A42BCC35F0FBE433F6
:10069300FD0819E687F0D2E7A42C4ACB35F0CD3418
:1006A30000FC09E687F0D2E7A42DCC35F0FDE43356
:1006B300FA0918E687F0D2F7A42CCD35F0CA340036
:1006C300FC08E687F0D2E7D2F7A42ACC35F07A7E8D
:1006D30020E70B0ACB33CBCD33CDCC33CC33CB3369
:1006E30050147004ED30E00ED2F1E4CD3DCDCC3C9E
:1006F300CC3B5005DA05C2F1EB547FC63308E63331
:1007030092F0FBE73309E733C39A502D2B70190C92
:100713000D4C4D70151806E608C333700D20F10A11
:10072300A2F013F6E418800B4024E4F630F00276CE
:100733008018F618F618F68024D33B14501074FF73
:10074300A2F013F6187680E418F618F6800FA2F0DC
:1007530013F618E63303F618ECF618EDF6D0E0FDC1
:10076300D0E0FCD0E0FBD0E0FA22C0E074F1120C40
:1007730005A2AFE433F509D2AF85A708AFA1EF55C2
:1007830008FE74105E600612178175A1EF74085E8F
:10079300600812178775A1F78024EFA2E092F0E5B5
:1007A30008A2E082F05017906198E0F89009C2E047
:1007B300C398A2D265D0335002E8F075A1FEE509D3
:1007C300A2E092AF7F02020C64C0E074F2120C0547
:1007D300A2AFE433FED2AF9061A4E0F8759B00E5CD
:1007E3009158540860087591F71217D58023E59145
:1007F30058541060087591EF1217DB8014E591A22D
:10080300E092F0E8A2E082F05007E0C2E0F01219B3
:10081300319061A3E0F8E5E9585404600E1219071A
:1008230075E9FB906193E0A2E640F2EEA2E092AF9D
:100833007F01020C64C0E074F2120C05A2AFE43332
:10084300FED2AF9061A5E0F8E5BF58540460067589
:10085300BFFB12194980D41208AF30F0431208F4D9
:10086300803E8A088B098C0A8D0B78081208AF200A
:10087300F01430E72B74FFFCFBFA747F8022E4FC56
:10088300FBFA7480801AB48008BC00F2BB00EF80CE
:100893000F50EBF9E4C39AFAE49BFBE49CFCE49964
:1008A300C6CC18C6CB18C6CA18C6F922E4C9C608EE
:1008B300CAC608CBC6D3330308CCC63392F0C3945D
:1008C3007F402E94184019C9B90704CACBCC2250D3
:1008D30025C309CA33CACB33CBCC33CC33D9F422A7
:1008E300F4600DC9CCC313CB13CBCA13CAD9F6CC4E
:1008F30022E4FCFBFA2214FCFBFA22C0E0C0D0E89D
:10090300C0E0E9C0E0C082C083A8C1E8C0E09006AF
:10091300A7E0F8742628F582E43406F583D0E0F0E6
:100923009006A6E0F8A3E0687006E5959006A9F0A6
:100933009006A7E004F0C394804002E4F0A374C6D9
:10094300F0D083D082D0E0F9D0E0F8D0D0D0E0323C
:10095300C0E0C0D0E8C0E0E9C0E0C082C083900737
:100963002AE0F8A3E0687008539AFBA3740180227D
:10097300C2E990072AE0F8740128F074AA28F582E6
:10098300E43406F583E0F5C190072AE0C394804080
:1009930002E4F080ACC3E498F8E499F91209D98031
:1009A30026C3E49AFAE49BFBE920E7E91209D9E4B8
:1009B30098F8E499F922C3E498F8E499F91209D96B
:1009C300E498F8E499F9C3E49AFAE49BFB22EB2058
:1009D300E7CFE920E7E0B90010BB0008E88AF0841C
:1009E300F8AAF022E4FBC8FA22EB70227B10C8338A
:1009F300C8C933C9335007C39AC3DBF280069A5080
:100A0300012ADBEAC833F4C8C933F4C9FA2275F002
:100A130008E4C833C8C933C933C99AC99B5004C948
:100A23002AC93BD5F0ECFBC833F4C8E4C9FA220861
:100A33000808EAC0E0EBC0E086F0E7A4FA180986EC
:100A4300F0E7A42AFA180986F0E7A42AFA18098617
:100A5300F0E7A42AFA1986F0E7A4FBE5F02AFA19CD
:100A63000886F0E7A42BFBE5F03AFA190886F0E7CD
:100A7300A42BFBE5F03AFA18180986F0E7A4C5F0B1
:100A83002BFBE43AFA1908E7C5F0C6A426F6E5F00D
:100A93003BFBE43AFA1886F0E7A4F6E5F00826F6FD
:100AA300E43B08F6E43A08F6D0E0FBD0E0FA22088B
:100AB3000808E630E7111211FE120ACA080808C630
:100AC3004480C618181822181818E9799EC608CA4F
:100AD300C608CBC608CCC6C370207996CACBCC70E7
:100AE30019798ECBCC70137986CC700EF9802ACA13
:100AF30033CACB33CBCC33CC331930E7F2CCCBCAAC
:100B03003350147004EA30E00DE4CA3ACACB3BCB4D
:100B1300CC3CCC500209C3E913C6CC182313C6CB73
:100B230018C6CA18C6F922E4CFC0E0E4CEC0E0E498
:100B3300CDC0E0E4CCC0E075F020E626F608E6334D
:100B4300F608E633F608E633F6181818EC33FCED2E
:100B530033FDEE33FEEF33FFC3EC9709ED9709EE58
:100B63009709EF97191919400FFFEC97FC09ED97B7
:100B7300FD09EE97FE191906D5F0BFECF709EDF75D
:100B830009EEF709EFF7191919D0E0FCD0E0FDD011
:100B9300E0FED0E0FF222521C582C0E0E52234FF3C
:100BA300C583C0E0E521C3958224F810AF0885838F
:100BB300228582218008858322858221D2AFCEF0CF
:100BC300A3E520F0A37808E608F0A3DEFAEFF0A38C
:100BD300E58124FAF8E608F0A3E608F0A3E608F0B6
:100BE300A30808E608F0A3E608F0A315811581D051
:100BF300E0FED0E0F8158115811581E8C0E0EEC074
:100C0300E022C0D02521C582C0E0E52234FFC583A0
:100C1300C0E0E521C3958224F310AF0885832285C4
:100C230082218008858322858221D2AFC8F0A3E97F
:100C3300F0A3EAF0A3EBF0A37908E709F0A3D8FA4D
:100C4300ECF0A3EDF0A3EEF0A3EFF0A3D0E0F0A35C
:100C5300D0E0F0A3D0E0F0A3E520F0A3E5F0F0A30B
:100C630022852283852182E0C0E0A3E0F9A3E0FA94
:100C7300A3E0FBA37808E0F608A3DFFAE0FCA3E017
:100C8300FDA3E0FEA3E0FFA3E0C0E0A3E0C0E0A378
:100C9300E0F5D0A3E0F520A3E0A3F5F010AF0885BD
:100CA30083228582218008858322858221D2AFD049
:100CB30082D083D0E0F8D0E032121409B9000302E5
:100CC3000CFBE490050178BE79188002F0A3D8FCF0
:100CD300D9FA7ABE7B1C900086784379028015E4AA
:100CE30093A3AD82AE838A828B83F0A3AA82AB8364
:100CF3008D828E83D8E9D9E77582A27583CF740676
:100D030012109275826B758330740012109200007A
:100D13002275F0108E238F248582288583278521D1
:100D230082852283E0CEA3E0CF852882852783EBCB
:100D3300C9EAC8EDCBECCAC3E833C8E933C9EA331F
:100D4300CAEB33CBC3EA9EF526EB9FF525B35004DC
:100D5300AB25AA26EC33CCED33CDD5F0DAAE23AFF9
:100D630024221213B0601C121392601712141E7007
:100D7300071214307001D322C0D01214307006D081
:100D8300D0B322C32233D0D0501430E0F6C3E79659
:100D93000809E7960809E7960809E796B32220E0D1
:100DA300D5E6970809E6970809E6970809E697B391
:100DB300221213B0601B121392601612141E7007D6
:100DC300121430600CB322C0D01214307005D0D08E
:100DD30022C32233D0D0501330E0EBC3E796080987
:100DE300E7960809E7960809E7962220E0E4E697E4
:100DF3000809E6970809E6970809E69722D083D001
:100E030082ECC0E0EDC0E0E493A3FCE493A3FDED2A
:100E13004C600D120ED8EC24FFFCED34FFFD80EF87
:100E2300E493A3FCE493A3FDED4C600D120F75EC6A
:100E330024FFFCED34FFFD80EFD0E0FDD0E0FCE4C7
:100E430093A3C0E0E493C0E022852283852182E05E
:100E5300A3FEE0A3F5207808E0A3F608DFFAE0A3F9
:100E6300FFE0A3C0E0E0A3C0E0E0A3C0E0E0A3C0D4
:100E7300E0E0A3C0E010AF088582218583228008CB
:100E8300858221858322D2AFD083D082021098D06D
:100E930083D082E9C0E0E493A3C386F0C5F095F064
:100EA300F908E493A386F0C5F095F0700BE493A3DF
:100EB300C3994005E9048002A3E475F002A42582E6
:100EC300F582E5F03583F583D0E0F9E493A3C0E040
:100ED300E493C0E022C0E0C3E493960874019396C0
:100EE30018400FE493667008087401936618700045
:100EF3007019A3A3C3E49396087401939618A3A34C
:100F0300400DD0E0D0E0D0E0020E3CA3A3A3A3A306
:100F1300A3D0E0227404800474028000CCC0E0ED0E
:100F2300C0E0E521C39CCCAD2250011D10AF068C5F
:100F3300218D2280068C218D22D2AF121014D0E095
:100F4300FDD0E0FC2274028000CCC0E0EDC0E0E5FF
:100F530021C39CCCAD2250011D10AF068C218D22E4
:100F630080068C218D22D2AF120FF2D0E0FDD0E0AB
:100F7300FC22C0E0C0F088F0E493667008087401B6
:100F83009366187000A8F0A3A3700BD0F0D0E0D044
:100F9300E0D0E0020E3CA3A3D0F0D0E022D083D077
:100FA30082CCC0E0E493A360061210541470FAE4F8
:100FB30093A360061211941470FAD0E0FCE493A397
:100FC300C0E0E493C0E022C0E074F2120C05A2AFCB
:100FD300E433FED2AFE58BA2E05005790412165B31
:100FE300758B00C2E8EEA2E092AF7F01020C64CAE7
:100FF300C0E0E493A3C582CCC582C583CDC583F08D
:10100300A3C582CCC582C583CDC583DAE5D0E0CA4A
:1010130022CAC0E0E0A3C582CCC582C583CDC58307
:10102300F0A3C582CCC582C583CDC583DAE6D0E003
:10103300CA227009080808226016181818C6C33394
:10104300C608C633C608C633C608C633C6D5E0EAE3
:1010530022C0E0E493A3D39C5010E493A3C39C4029
:101063000AD0E0D0E0D0E0020FBDA3A3A3D0E022DA
:10107300C008C3E096F50808A3E096420808A3E079
:1010830096420808A3E09645087001D3D00822C011
:101093009FF59FE473D09F22D083D082C09FE493B7
:1010A300C0E0740193C0E0740293F59F227404803E
:1010B3000A74038006740280027401C0E0F404120F
:1010C30010CBD0E01213CC222521F58210AF08F506
:1010D30021400C15228008F52140021522D2AF854C
:1010E30022832200C0D0252110AF08F521500C0522
:1010F300228008F52150020522D2AFD0D022C0E0D1
:10110300C0D0E8C0E0A8A8D2AFC2C7E8A2E792AFB8
:10111300D0E0F8D0D0D0E032BB0102E722C082C0D9
:101123008389828A83BB0003E08002E493D083D067
:1011330082226016080808C6C313C618C613C61849
:10114300C613C618C613C6D5E0EA22C3E0C696F690
:1011530008A3E0C696F608A3E0C696F608A3E0C681
:1011630096F6222521F8E43522F9222521FAE435E1
:1011730022FB222521FCE43522FD22252110AF0884
:10118300F521400C15228008F52140021522D2AF2B
:1011930022C0E0E493A36C7009D0E0D0E0D0E00279
:1011A3000FBDA3A3D0E022E76670100809E76670BD
:1011B3000A0809E76670040809E76622E06670100A
:1011C30008A3E066700A08A3E066700408A3E0665B
:1011D30022C3E7960809E7960809E7960809E79600
:1011E300A2D265D03322C3E09608A3E09608A3E019
:1011F3009608A3E096A2D265D03322181818E4C348
:1012030096F608E496F608E496F608E496F622C302
:10121300E096F008A3E096F008A3E096F008A3E0B8
:1012230096F022181818E60846087009E626087092
:1012330005E633F4220822191919E7094709700949
:10124300E727097005E733F4220922C3E697F60876
:1012530009E697F60809E697F60809E697F622C322
:10126300E4939608740193960874029396087403A2
:10127300939622E627F60809E637F60809E637F6D5
:101283000809E637F622700422600D18C6C333C678
:1012930008C633C6D5E0F41822E657F60809E65720
:1012A300F60809E657F60809E657F622E056F60867
:1012B300A3E056F608A3E056F608A3E056F622E0AC
:1012C30026F608A3E036F608A3E036F608A3E036D0
:1012D300F622E026F008A3E036F008A3E036F00893
:1012E300A3E036F022E647F60809E647F60809E6E2
:1012F30047F60809E647F622E493F608740193F6E5
:1013030008740293F608740393F622E667F6080955
:10131300E667F60809E667F60809E667F622E05687
:10132300F008A3E056F008A3E056F008A3E056F057
:1013330022C6F4C608C6F4C608C6F4C608C6F4C670
:1013430022C3E09608A3E09608A3E09608A3E096DC
:1013530022C3E7960809E7960809E7960809E7967E
:101363002275D00075813F75210175220500020C9D
:10137300BC600C08C6C313C618C613C6D5E0F42256
:10138300E6F008A3E6F008A3E6F008A3E6F022E7F8
:10139300094709C3134709336002E733F422E0F630
:1013A30008A3E0F608A3E0F608A3E0F622E6084661
:1013B30008C3134608336002E633F422800100E9D0
:1013C300F874FF28F90470F622CAC0E0E6F0A30817
:1013D300DAFAD0E0FA22E0F8A3E0F9A3E0FAA3E016
:1013E300FB22E8F0A3E9F0A3EAF0A3EBF022EAF092
:1013F300A3EBF0A3ECF0A3EDF022E0FAA3E0FBA350
:10140300E0FCA3E0FD22E5C754F84401F5C77901E8
:10141300222521F582E43522F58322E62618461893
:1014230046184622C2AF75D69F02000022E727194D
:1014330047194719472212109B18890512109BACB4
:10144300890512109B5D8A0512109BAE8A05121046
:101453009BF28A0512109B8C8B0512109BFC8B054B
:1014630012109B2B8C0512109B318D0512109B5B68
:101473008D0512109BAF8D0512109B838E051210E4
:101483009BB1900512109B5F910512109BCC9305A5
:1014930012109B51940512109B54970512109B88B0
:1014A300990512109BC4990512109B1D9B051210E0
:1014B3009B309B0512109B6D9B0512109B099D058C
:1014C30012109BBD9E0512109B67EF0212109BE347
:1014D300EF0212109B16F00212109B44F00212103E
:1014E3009B82F00212109BBFF20212109BDEF202EB
:1014F30012109B23F30212109BB9F30212109B05E7
:10150300F40212109B99F40212109B72F50212104E
:101513009BCEF50212109B2CF60212109B9FF60233
:1015230012109BE3F60212109B3BF70212109B5D15
:10153300F70212109BEDF70212109B7EF8021210B5
:101543009BCAF80212109BF6F80212109B37F9029D
:1015530012109BCDFA0212109BB9FB0212109B943E
:10156300FC0212109BBAB70612109BE5B7061210C5
:101573009B05B80612109B2CB80612109B73B90674
:1015830012109B94B90612109B68BA0612109BFFA7
:10159300BA0612109B1BDD0612109B20DD061210EB
:1015A3009B53DD0612109B61DD0612109B83DD0643
:1015B30012109B6EFD0212109B38FE0212109B4A02
:1015C300FE0212109BC1FE0212109B60DE06121077
:1015D3009B7ADE0612109BF87F0012109B89DE06B1
:1015E30012109B38DB0612109B48DB0612109B5D22
:1015F300DB0612109BC5DB0612109B95D506121055
:101603009B19D60612109B81D60612109B83CD061A
:1016130012109B97CD0612109B0DCE0612109B5CE9
:10162300CE0612109B91CE0612109BB4CE0612105A
:101633009BD7CE0612109B10CF0612109B41CF06EC
:1016430012109B88CF0612109B9CD80612109B2366
:10165300D90612109B2CD90612109B53D9061210CF
:101663009BACB00612109BBAB00612109B33B106A6
:1016730012109B0CB20612109BCFB30612109BBE26
:10168300FF0112109B3EC40612109B88C406121061
:101693009B1EC50612109BA4C50612109BD6C50639
:1016A30012109BEEC50612109B62C60612109B78A1
:1016B300C60612109B8BC60612109B95C606121007
:1016C3009BFDC80612109B28C90612109B64CA060C
:1016D30012109B99CA0612109BBBCA0612109B8854
:1016E3009D0612109BB29D0612109BCA9D061210F6
:1016F3009BE19D0612109B0A9E0612109B9B9E0661
:1017030012109BAC9E0612109B149F0612109B7323
:10171300A00612109B72A10612109BEC8A061210EF
:101723009B188B0612109B828D0612109BC28D068E
:1017330012109BFE8D0612109B128E0612109B2B0D
:101743008E0612109B1D8F0612109BD08F0612104F
:101753009BE48F0612109B03D30612109B27D3061C
:1017630012109B40D30612109B7ED30612109BAE21
:10177300D30612109BDBD30612109B41D406121022
:101783009B44D40612109B4ED40612109B5BD406C6
:1017930012109B97C10612109BB7C10612109BF63D
:1017A300C10612109B14C20612109B2FC206121000
:1017B3009B95C20612109BA1C20612109BFEC20685
:1017C30012109B0DC30612109B31C30612109BF21D
:1017D300C30612109BFFC30612109B10C4061210FF
:1017E3009BCFDB0612109B17DC0612109B43DC0613
:1017F30012109BF2940612109B46960612109B54ED
:10180300960612109B67960612109B7C9606121082
:101813009B91960612109BA4960612109B20970686
:1018230012109B85970612109B1B980612109BF4AF
:10183300980612109B04990612109B139906121016
:101843009B9FDA0612109BC3DA0612109BEBDA0693
:1018530012109B13DB0612109BA8C60612109BCF17
:10186300C60612109BEDC60612109B5CC70612102B
:101873009B86BE0612109B9FBE0612109BABBE0634
:1018830012109BBFBE0612109BDDBE0612109BE713
:10189300BE0612109BF1BE0612109B04BF06121067
:1018A3009B8EBF0612109B03C00612109B37C00607
:1018B30012109B85C00612109BD2C00612109BED1E
:1018C300C00612109BF7C00612109B1DC106121012
:1018D3009B82C10612109B3DFF0512109B5FFF0503
:1018E30012109BE4FF0212109BA3F50512109BCF6D
:1018F300F50512109BECF50512109BFFF505121070
:101903009B1AF60512109B74F60512109BA2F6059E
:1019130012109BB6FA0512109B14FC0512109B467D
:10192300FC0512109BA9FC0512109B2EFE0512103C
:101933009B56FE0512109B6BFE0512109B7BFE054A
:1019430012109BBBFE0512109BFDFE0512109B0D92
:10195300FF0512109B65D40612109B7FD40612104C
:101963009BA7D40612109BC0D40612109BE4D40686
:1019730012109B02D50612109B19D50612109B4715
:10198300D50612109B62D50612109BF0DD061210CD
:101993009B23AD0612109B33AD0612109B38AE0687
:1019A30012109B6AAE0612109B9AAE0612109BBDD4
:1019B300AE0612109BD4AE0612109B0EAF06121089
:1019C3009B73AF0612109BB5AF0612109BFCAF06BC
:1019D30012109B29B00612109B54B00612109B9F45
:1019E300D10612109BBFD10612109BD3D206121040
:1019F3009BD6D20612109BE9FE0312109B1FFF0316
:101A030012109B37FF0312109B79FF0312109B895F
:101A1300FF0312109BCDFF0312109BD7FF0312107D
:101A23009BF7F70312109B3AF80312109B9FF803DE
:101A330012109BBEF80312109B60F90312109B69EE
:101A4300F90312109BBAF90312109BE3F903121066
:101A53009BF0F90312109B62FA0312109BF0FA0336
:101A630012109B35FB0312109B6EFB0312109BD3CA
:101A7300FB0312109BFCFB0312109B73FC0312105D
:101A83009BC2FC0312109BFFFC0312109B34FD034B
:101A930012109B46FD0312109B58FD0312109B77F7
:101AA300FD0312109B80FD0312109B3CFE031210DA
:101AB3009B7FFE0312109BBDFE0312109BA07F00B1
:101AC30012109B34B40612109B74B50612109B9728
:101AD300B50612109BA8B50612109B9AB7061210F2
:101AE3009B45CB0612109B7BCB0612109BC3CB06E8
:101AF30012109B1CCD0612109BA3EB0112109BC965
:101B0300EC0112109B05ED0112109BC3EE011210A4
:101B13009BF1EE0112109B5BF10112109B9BF101F3
:101B230012109B3DF30112109BD3F30112109B2D56
:101B3300F40112109BBDF40112109B01F501121068
:101B43009B43F50112109BA8F60112109B28F80184
:101B530012109B69FA0112109B97FA0112109BC392
:101B6300FA0112109BCCFA0112109B29FB011210EF
:101B73009BC2FB0112109BD9FE0112109B5FFF0158
:101B830012109B46DC0612109B5CDC0612109B664F
:101B9300DC0612109BAAA10612109BC0A10612100C
:101BA3009B64A20612109BA3A20612109BC0A2065E
:101BB30012109BF1A20612109B3EA30612109B72F9
:101BC300A30612109BADA30612109BA2A50612102A
:101BD3009B9CD70612109BFBD70612109B39D80685
:101BE30012109B7AD80612109B9BD90612109B08E1
:101BF300DA0612109B28DA0612109B47DA06121037
:101C03009B69DA0612109B77DA0612109B9AD606A6
:101C130012109BABD60612109BC3D60612109BDE86
:101C2300D60612109BF9D60612109B2ED706121059
:101C33009B45D70612109B4CD70612109B56D7060E
:101C430012109B62D70612109B3EFF0412109BA535
:101C5300BA0412109BB1BA0412109B13BB041210E6
:101C63009B1DBB0412109BACBB0412109BE8BB046E
:101C730012109BE1BC0412109B3EBD0412109BCCBE
:101C8300BD0412109B1DBE0412109B9DBE041210B6
:101C93009B51C00412109B29C10412109B2EC30434
:101CA30012109B28C40412109B5AC50412109BAC3B
:101CB300C70412109BEFC80412109B94C90412109E
:101CC3009B42CE0412109B38CF0412109BCECF043C
:101CD30012109BF3CF0412109B90D00412109BADF3
:101CE300D00412109BCDD00412109B3BD1041210D0
:101CF3009B58D10412109B86D10412109B1ED3044F
:101D030012109B3FD30412109BE5D30412109B2D9A
:101D1300D40412109B8BD40412109B2ED5041210E2
:101D23009B93D50412109BF2D50412109BA4D604E6
:101D330012109B13D70412109B4ED70412109BC290
:101D4300D70412109B0DD90412109B9DDA041210B4
:101D53009B3CDB0412109B7CDD0412109BDEDD0434
:101D630012109B0CDE0412109B2FE00412109BD95F
:101D7300E20412109BECE30412109BCB3700121009
:101D83009BC33A0012109BE83C0012109BF23C00EC
:101D930012109B123D0012109BA13D0012109BC517
:101DA3003E0012109B5B400012109BC541001210B5
:101DB3009BF8420012109B1A430012109B2F440001
:101DC30012109B6E460012109B95460012109BD872
:101DD300460012109BF9460012109B9853001210F4
:101DE3009BAB540012109BAE550012109BAD5800D4
:101DF30012109B6B600012109B95630012109B5E88
:101E0300650012109B35740012109BD574001210DC
:101E13009B3E750012109B94A90612109B4FAA06B5
:101E230012109BB5AA0612109BD6AA0612109BB1DC
:101E3300AB0612109B43BC0512109B72BC0512101B
:101E43009BF6BC0512109B59BE0512109B43BF05A0
:101E530012109BFFC00512109B24C10512109B7624
:101E6300C10512109B08C20512109B54C205121023
:101E73009B67C20512109BC4C20512109B91C30538
:101E830012109B03C40512109B3AC40512109B83C6
:101E9300C40512109B2BC60512109B0AC70512100E
:101EA3009B58C80512109B3BC90512109BC7C90557
:101EB30012109B00CA0512109B1FCA0512109B6AC1
:101EC300CA0512109B8ACA0512109B47CB05121034
:101ED3009B6ACC0512109BC5CC0512109B0BCD053C
:101EE30012109B13CE0512109BAED00512109BD47B
:101EF300D00512109B4FD10512109B74D1051210FF
:101F03009BE8D10512109BC6D20512109B04D30582
:101F130012109B8ED30512109B75D40512109B785B
:101F2300D40512109B82D40512109B8CD405121079
:101F33009BA8D40512109B1AD50512109B53D505E7
:101F430012109B7FD50512109BA6D50512109BCAB4
:101F5300D50512109B05D60512109B78D6051210D5
:101F63009BACD60512109BB6D60512109BF2D60574
:101F730012109B27D70512109B46D70512109BAA58
:101F8300DD0612109BC2DD0612109BFB7F001210B0
:101F93009B74A00512109B97A00512109BF5A10539
:101FA30012109B3EA20512109BAAA20512109B08B9
:101FB300A30512109B0BA30512109B5CA305121023
:101FC3009BD1A30512109B61A40512109B64A40569
:101FD30012109BE5A40512109B26A50512109B4B1E
:101FE300A90512109BF5AA0512109B49AB05121007
:101FF3009BD8AE0512109B10B00512109BE4B005E0
:1020030012109B4EB10512109B78B10512109B3133
:10201300B30512109B14B50512109BC3B50512101E
:102023009B60B60512109B4BB70512109BB3B90505
:1020330012109B0DBB0512109B7BBB0512109B79E5
:10204300D70512109B23D80512109B8ED8051210AA
:102053009BA9D80512109B2AD90512109B84D90578
:1020630012109BCBD90512109B2ADA0512109B3C48
:10207300DB0512109B65DE0512109B95DF05121020
:102083009B1DE00512109B26E20512109BD8E2056A
:1020930012109B72E30512109B43E40512109BFE82
:1020A300E50512109B9CE70512109B29E805121009
:1020B3009B4FE90512109B5FD50312109BC2D503FA
:1020C30012109B0AD60312109B4ED60312109BA923
:1020D300D60312109B06D70312109B41D70312108D
:1020E3009BC3D70312109B1DD80312109B9BD903CC
:1020F30012109B13DA0312109B30DB0312109B5850
:10210300DB0312109BABDC0312109BBCDC0312102D
:102113009BD4DC0312109BDDDD0312109BBADE039C
:1021230012109BB7DF0312109BDBDF0312109BF22D
:10213300DF0312109B13E00312109B35E003121010
:102143009B54E00312109B2CE10312109B86E103C6
:1021530012109B1DE40312109B76E40312109B954F
:10216300E40312109BAA7C0012109BBBE503121020
:102173009BEEE60312109B6DE70312109BA9E70386
:1021830012109BE3E70312109BB8880512109B07FC
:10219300E90312109BDFEA0312109BECEB0312100E
:1021A3009B64ED0312109B5AEF0312109BD0F103B3
:1021B30012109BAAF30312109B6BF40312109BE300
:1021C300F40312109BFAF40312109BF1F50312109F
:1021D3009BE5F60312109B54F70312109B3BBB06BF
:1021E30012109BEBBC0612109B2C820512109B1243
:1021F300BE0612109BAFA50612109BCDA5061210AA
:102203009B11A60612109B37A60612109B5EA6060C
:1022130012109B76A60612109B8EA60612109B30F8
:10222300A70612109B72A70612109B95A806121000
:102233009B9EA80612109BA7A80612109BB0A80687
:1022430012109BBAA80612109BDBA80612109BF86B
:102253008F0612109B36940612109B44940612109C
:102263009B49940612109B2CD00612109B34DE0659
:1022730012109BBCDC0612109BCCDC0612109B4494
:10228300990612109B9F920112109BD1920112107A
:102293009B3D930112109BD8930112109B779401DD
:1022A30012109BBC940112109BDE940112109BF739
:1022B300940112109B1D950112109B3F9501121062
:1022C3009B7D950112109BC1950112109BE3950113
:1022D30012109B45960112109B0C970112109BC381
:1022E300970112109B35980112109B079901121048
:1022F3009B51990112109BA4990112109B0A9A01F8
:1023030012109B449A0112109B969A0112109BB2D1
:102313009A0112109BDD9A0112109BE49C0112108A
:102323009B389E0112109B5A9E0112109B8E9E0198
:1023330012109BAF9E0112109BBE9E0112109BC9EF
:102343009E0112109B799F0112109BE29F011210B4
:102353009B8FA00112109BC7A00112109B8DA1019E
:1023630012109B9AA20112109BE4A20112109B73FC
:10237300A30112109BD7A30112109B12A4011210E8
:102383009B7EA60112109BD2A70112109B0BAB01DF
:1023930012109BD8AB0112109B66AC0112109B8FDD
:1023A300AC0112109B01AD0112109B95AD011210EF
:1023B3009BF3AD0112109BE5AE0112109B07AF0119
:1023C30012109B63B00112109B7CB00112109B8F03
:1023D300B00112109BFEB00112109B0AB201121041
:1023E3009B17B20112109B20B20112109BF8B3018C
:1023F30012109B1EB50112109B2EB50112109B30BB
:10240300B60112109BA7B60112109BD6B60112108B
:102413009BEBB70112109BB7B90112109B8FBD0143
:1024230012109B99BD0112109BADBD0112109BB7F9
:10243300BD0112109BC1BD0112109BCBBD01121037
:102443009BE4BD0112109BEEBD0112109B62BE0105
:1024530012109B6DBE0112109B92BE0112109B9D28
:10246300BE0112109BEBBE0112109BF5BE011210B0
:102473009B00BF0112109B24BF0112109B48BF0198
:1024830012109BA4BF0112109BEABF0112109B07FD
:10249300C00112109B84C00112109BBBC00112101B
:1024A3009BFAC00112109B47C10112109BC9C101C5
:1024B30012109B62C20112109B32C40112109B9036
:1024C300C40112109BACC50112109BD2C50112109E
:1024D3009B11C70112109B37CA0112109B78CC01C4
:1024E30012109B54CE0112109BEACE0112109B11C5
:1024F300D10112109BBDD10112109BF2D101121018
:102503009B57D20112109B61D20112109B8BD401F5
:1025130012109BB2D50112109BF2D50112109B9899
:10252300D60112109B29D80112109BB2D9011210A7
:102533009BD2D90112109B2BDA0112109B2DDB01C8
:1025430012109B77DB0112109BC7DB0112109BB1AA
:10255300DC0112109B26DD0112109B40DE011210DC
:102563009BBBDE0112109BC0DF0112109B6BE201CB
:1025730012109B8AE20112109BEBE30112109BAD38
:10258300E50112109B01E60112109BB9E60112103E
:102593009B68E70112109BBEE70112109B74E801D0
:1025A30012109B09E90112109B75E90112109BAFF0
:1025B300E90112109BE0E90112109B3CEB011210A0
:1025C3009B00800312109B32800312109B698003CF
:1025D30012109B52820312109B35830312109B8DA2
:1025E300830312109BC8840312109B1485031210DB
:1025F3009B3C880312109B9E8B0312109BEB8C0356
:1026030012109B818D0312109B8D8D0312109BBFA3
:102613008D0312109B418F0312109BDC9003121049
:102623009B84910312109BC7910312109B2D92035D
:1026330012109B4A920312109B7A920312109BAFC3
:10264300920312109B7F930312109B289403121082
:102653009BAC960312109BCC970312109BB5980367
:1026630012109B37990312109B569D0312109B93D4
:102673009D0312109BEB9D0312109B1E9E031210D1
:102683009B9F9E0312109BEC9E0312109B779F034C
:1026930012109BC99F0312109BA0A00312109B59F9
:1026A300A10312109BF4A10312109B0DA50312109A
:1026B3009B2DA60312109BDAA90312109BF8AA0301
:1026C30012109BFBAA0312109B2AAB0312109B3020
:1026D300AD0312109B09AE0312109B3EAE03121002
:1026E3009B46AF0312109BFCAF0312109B9DB103DB
:1026F30012109BC2B10312109B01B20312109B7301
:10270300B20312109B57B30312109B24B40312108D
:102713009B5AB60312109BCBB60312109B0BB70345
:1027230012109B6CB70312109B2FBB0312109B1E3E
:10273300BC0312109B05BD0312109B7DBD03121039
:102743009B3FBE0312109B3DC00312109B55C00359
:1027530012109B69C00312109BA1C00312109BCFE0
:10276300C00312109B56C20312109B61C3031210C5
:102773009BB3C30312109B14C40312109BC6C40360
:1027830012109BEDC40312109BD1C50312109B8240
:10279300C60312109B71C80312109BA6C803121024
:1027A3009B0EC90312109B3DCA0312109BEFCA0371
:1027B30012109B20CB0312109B38CB0312109BC724
:1027C300CB0312109B7BCE0312109B53D00312102A
:1027D3009B6FD00312109B8BD00312109B59D10314
:1027E30012109B3DD50312109B00800212109B38E0
:1027F300800212109B16850212109B5C8502121038
:102803009BA9860212109B14870212109B9D8802BB
:1028130012109BAD8B0212109BC88C0212109BDA14
:10282300960212109B6D970212109BBF9A02121010
:102833009BBB9B0212109B169C0212109B609D0275
:1028430012109B4E9E0212109BEAA00212109B5E76
:10285300A20212109BE1A20212109BE4A202121028
:102863009B59A30212109B63A30212109B70A30235
:1028730012109B9BA30212109B4BA40212109B44A9
:10288300A50212109BEFA50212109B0DA6021210B7
:102893009B26A60212109B4FA60212109B71A60242
:1028A30012109BC6A80212109B8BA90212109BD078
:1028B300A90212109B4FAA0212109BFBAA0212102C
:1028C3009B2DAB0212109B81AB0212109BBCAB027F
:1028D30012109B03AC0212109B53AC0212109B58B4
:1028E300AC0212109BACAC0212109BD8AC021210BB
:1028F3009BC1AD0212109B12AE0212109B72AE026C
:1029030012109BCCAE0212109B67AF0212109BA653
:10291300B20212109BB8B30212109B32B50212100E
:102923009B42B80212109BE0B80212109BD6BB0266
:1029330012109B95BC0212109BD9BC0212109B84EF
:10294300BE0212109B98BE0212109BA2BE0212106E
:102953009BACBE0212109BB8BE0212109BDDBE02DE
:1029630012109BB6C00212109B0BC10212109B15D2
:10297300C10212109B1FC10212109B94C1021210BC
:102983009BE3C10212109BF4C20212109B41C302CB
:1029930012109B4EC40212109B92C40212109B3859
:1029A300C50212109B2BC60212109BF1C602121015
:1029B3009B14C80212109B32C90212109B1ACA023E
:1029C30012109B32CA0212109B89CA0212109B93E7
:1029D300CA0212109B9ECA0212109BBCCA0212109A
:1029E3009B04CB0212109B66CB0212109B8DCB0271
:1029F30012109B9FCB0212109B3ACC0212109B6FBA
:102A0300CC0212109B56CD0212109B9BCD021210CA
:102A13009B81CE0212109BA8CE0212109B2BCF02D9
:102A230012109B9CCF0212109B25D10212109B51B6
:102A3300D20212109B14D30212109BDCD302121089
:102A43009B66D40212109B8ED50212109B30D602C5
:102A530012109BABD60212109B67D70212109BB1C8
:102A6300D70212109B0BD80212109BE3D80212104C
:102A73009B06D90212109BB9D90212109BDBD90213
:102A830012109B44DA0212109B5ADC0212109B5262
:102A9300DD0212109B16DE0212109B48E002121098
:102AA3009B92E00212109BE2E00212109B46E102AD
:102AB30012109BA8E10212109BD6E10212109BFA9E
:102AC300E10212109B2FE20212109B60E20212102D
:102AD3009B93E20212109BE3E20212109B36E30285
:102AE30012109B5BE40212109BFBE50212109B5633
:102AF300E60212109B7FE60212109B0CE7021210F3
:102B03009B7AE70212109B88E70212109BACE70244
:102B130012109B01E80212109B1CE80212109BCEBC
:102B2300E80212109B06E90212109B49E9021210F7
:102B33009BACE90212109BAEEB0212109BD8EB0286
:102B430012109BCFEC0212109BD9ED0212109B893D
:102B5300EE0212109B8EEA0512109BC6EA051210B4
:102B63009BE7EA0512109B29EB0512109B8BEB05E3
:102B730012109B95EB0512109BA5EB0512109BE021
:102B8300EB0512109BC0EF0512109BADF10512105F
:102B93009B93F30512109B2AF40512109BCCF405AA
:102BA30012109B96800412109B41810412109BEF1C
:102BB300810412109BF5820412109B1583041210DA
:102BC3009B3E840412109BF9850412109B6C8604AF
:102BD30012109B10870412109B1C880412109B87F1
:102BE300880412109BC3880412109B0689041210D8
:102BF3009B41890412109B83890412109B188A0439
:102C030012109B948A0412109B5E8B0412109B3B40
:102C13008C0412109BD38C0412109BED8C041210A5
:102C23009B1D8D0412109B4E8D0412109B148E0459
:102C330012109B248E0412109B738E0412109B801F
:102C43008E0412109B898E0412109B078F0412109E
:102C53009B638F0412109BAE8F0412109BC98F04C9
:102C630012109BF48F0412109B11900412109B1DE1
:102C7300900412109BB4910412109BCD9104121076
:102C83009B52920412109B65920412109B8492042F
:102C930012109B28930412109BA9940412109B5C9E
:102CA300960412109BF2960412109BF596041210D0
:102CB3009B65970412109B83970412109B1A980428
:102CC30012109B62980412109B65980412109B2BA0
:102CD300990412109B98990412109BBE9904121028
:102CE3009B499A0412109B679A0412109BAD9A0495
:102CF30012109B619B0412109BAB9B0412109BDA76
:102D03009B0412109B379C0412109B6C9C041210A2
:102D13009B989C0412109BA69C0412109BF39C048A
:102D230012109B639D0412109BAC9D0412109BF820
:102D33009D0412109B249E0412109B2F9E041210BC
:102D43009B4D9E0412109B389F0412109B429F04BC
:102D530012109B7D9F0412109B8D9F0412109BE108
:102D63009F0412109BF59F0412109B24A1041210C0
:102D73009B39A10412109BC7A10412109B0CA2043F
:102D830012109B98A20412109BA3A20412109BE59D
:102D9300A30412109B00A40412109B4CA404121051
:102DA3009BBBA40412109BF4A40412109B0EA50455
:102DB30012109B6EA50412109B0DA60412109B58B3
:102DC300A60412109B28A90412109BDAA90412105E
:102DD3009B47AA0412109B87AC0412109B9FAC0460
:102DE30012109BA2AC0412109BAEAC0412109BC237
:102DF300AC0412109BCAAC0412109BFDAC0412105D
:102E03009B00AE0412109B8DAE0412109BFDAE040A
:102E130012109B7FAF0412109B40B00412109B5FF3
:102E2300B00412109B00B10412109B5DB104121088
:102E33009B60B10412109BD4B10412109B23B30402
:102E430012109B29B40412109BB4B40412109BCF2C
:102E5300B50412109B97B60412109BC8B604121047
:102E63009BEBB60412109BF4B60412109B23B70419
:102E730012109BB3B70412109B69B80412109BDEA7
:102E8300B80412109B85B90412109BFAB9041210EE
:102E93009B31BA0412109B6FBA0412109B888805E9
:102EA30012109B0D7C0012109B037C0012109BF9E7
:102EB3007B0012109B927B0012109B777B001210F9
:102EC3009BD47A0012109BD4790012109BF27800E5
:102ED30012109BE2760012109BF0750012109B8E6D
:102EE300750012109BDC870512109B52E803121029
:102EF3009B2AFF0412109B20FF0412109B80810564
:102F030012109BEE800512109BB5FE0412109BE974
:102F1300FC0412109BA7FC0412109BB3FB041210B9
:102F23009B87FB0412109B3EFB0412109B7FFA0449
:102F330012109B57F70412109BFBF40412109BCB47
:102F4300F40412109B7BF40412109B15F40412106A
:102F53009BD4F30412109B06F30412109BA0F204FB
:102F630012109B3FF20412109BDFF10412109B7DA1
:102F7300F00412109B11F00412109B65EF04121061
:102F83009B60EF0412109B49EF0412109BA880056D
:102F930012109B14EF0412109B73800512109B40B8
:102FA300800512109B2B800512109B0080051210C8
:102FB3009B5A7F0012109B267F0012109BA6EB04E6
:102FC30012109BA3EB0412109B61EB0412109BCF16
:102FD3007E0012109B4EEB0412109B43EB04121065
:102FE3009B12EB0412109B0AE90412109B758505D2
:102FF30012109B7DE80412109BAABD0612109B3988
:10300300E80412109B0DE80412109B868A06121026
:103013009B598A0612109B268A0612109BFE89066C
:1030230012109B9F890612109B7F890612109B4AE0
:10303300890612109BF6850612109BDE830612107A
:103043009BC8810612109B48810612109BF48006D0
:1030530012109B00800612109B587D0012109BA833
:10306300800612109B85E50300000080FBE4738F4C
:10307300000100BD1D87000100BB1D350004008158
:103083001D25000200851D26000200871D27000262
:1030930000891D28000100931D29000100941D844F
:1030A300000400521A86000100CC1C2A000100957E
:1030B3001D2B000100961D2C0001009B1D2D0008F7
:1030C30000601A2E0001009C1D2F0001009D1D3081
:1030D3000001009E1D310001009F1D3200010068A8
:1030E3001A33000100691A34000100A01D360001E3
:1030F300006A1A38000100A11D390001009A1D83DE
:10310300000200B91D63000100751A6400010097F5
:103113001D65000100981D6D000100761A710008FD
:1031230000581A66000100B81D43000100A91D44A0
:10313300000200AA1D45000100AC1D46000200ADBF
:103143001D470008006D1A48000100AF1D4B000128
:1031530000B01D04000100BC1DA1000100C01D370B
:10316300000100BF1D88000100BE1D3C0001006B73
:103173001A3D000100A21D49000200B11D670001B4
:1031830000771A4D000200B31D4E000100B51D4F1C
:10319300000200B61D3E000100A81D51000100A45D
:1031A3001D52000100A51D53000100A71D5400017D
:1031B300006C1A00000000000000000000200197CE
:1031C300920000010020019E92000002002001995C
:1031D300920000030020019892000004004201DCE9
:1031E3008F000005004201898F000006004201C6DE
:1031F300900000070030019D9200000040420181D1
:10320300910000FDFF210193920A0007002301288A
:10321300190300000021231A190300FDFF21419324
:10322300920D04000039051C190D042102212336D7
:103233001D0D0422022123381D0D04200210233A00
:103243001D0D04250210233B1D0D04110210232A1A
:103253001D0D04010410232B1D0D04050420232C34
:103263001D0D04060420232D1D0D04020410232E1E
:103273001D0D04020210232F1D0D0407022123300C
:103283001D0D044404210122190D0445042023507B
:103293001D00013636010100010201000103010096
:1032A30001040106060502000007010034080100BD
:1032B3000F090401010D0100FF0E080000170200B1
:1032C30000190100FF1A0100011B0100FE1C01008F
:1032D300081D0200001F010001200100012102005E
:1032E300002301000F240200002601000127010032
:1032F30008280200FF2A0100072B0102402C0100CD
:10330300002D0100012E0100012F0100FF30010BF0
:103313001D310800003A0100083B01000F3C010089
:10332300013D0100FF3E040000420400004604008A
:10333300004A0400004E040000520400005604003A
:10334300005A040000010371030103010301030197
:10335300030103220302030103100300030003001C
:1033630003000300030003000342030003240306D6
:10337300030003000304031203250323032503238C
:1033830003040304030003000300034403000300D6
:1033930003230300036503210035038103000305B1
:1033A3000300030003000300032503230303027147
:1033B3000230016002110270020102020202028065
:1033C30002100261023A0041006302730272026258
:1033D3000243020002130238000002000204021238
:1033E3000200020002000200020402040237003756
:1033F300003C0244020002390000020002650200A0
:1034030002350281020002050282028302000203E6
:103413000071003001600011007000310220035080
:103423000480001000610000001400630073007248
:1034330000620043000000130006000000000004C7
:103443000012000000000000000000040004003728
:103453000037003C0244000000000000000000654B
:10346300000000350081000000050000008300001B
:10347300000101710101010101110101013101018A
:103483000101018001100161013B0014006301731C
:10349300017201620143010001130106013D01357F
:1034A30000040112010001000100010001040104F4
:1034B30001330133013C01440132013600000100B4
:1034C30001650100013500810100010501820183CD
:1034D3000100010304710402046004110470040276
:1034E30004020401040204100461040004140463CC
:1034F3000473047204620443040004130406040006
:103503000400040404120400040004000400045131
:1035130004640000040004000444040004000400E4
:1035230004000465040004350481046400050400F8
:10353300048304000436000100060000000F0000AD
:10354300000000000000000000000003FFFF000077
:103553000403FFFF0000FFFF0FF4010005C4040391
:1035630020000100000B0000000000000000030128
:103573000F00000000000000000000000000000039
:103583000000000000000000000000000000000038
:10359300000000391D631D3F1D6D1C451D691D4540
:1035A3001D751D4B1D6D1C451D691D511D6D1C0099
:1035B300000000571D6D1C00000000000000005DAE
:1035C3001D6D1C0000000000000000000000000052
:1035D30000000000000000000000000000000000E8
:1035E30000000000000000000000000000000013C5
:1035F3000009201F000F201F80152000006F2001ED
:10360300006F200200B51F0280AF1F0300BB1F0421
:1036130000C11F0480C71F0500CD1F0600D91F313D
:1036230000EB1F3300F11F3400F71F3600FD1FFFAF
:10363300FF00000A00000002000000040000000870
:103643000000001000000020000000400000008087
:103653000000000001000000020000000400000060
:1036630008000000100000002000000040000001DE
:103673002528065528084F280B7328107325022B7D
:10368300280543280731280C0D280D1928646923C0
:10369300FF0000030003000400080010001F003EA9
:1036A300007B00F600EC01D703AF075D0FB91E7175
:1036B3003D00000204000029052419020410022918
:1036C30023321D05040000210526190504100229D3
:1036D30023341D07ECFDFDFDECDCDCCCBCACAC9C69
:1036E3009C8C7C7C6C6C5C5C5C4C4C3C3C2C2C1C47
:1036F3001C00160F00000B150B020002220F3300F3
:10370300000E0F0000000000000000000000000099
:103713000000005A6967426565416C6C69616E63BC
:10372300653039D0D1D2D3D4D5D6D7D8D9DADBDCEA
:10373300DDDEDF150AF4D4C0A595827263615550AE
:103743004900034D4C4651181A250502303017180D
:103753001921301B1D1F30003C40423A3F3F392F97
:1037630047300001191618161618230300303016B7
:10377300181920231A1C1E300C0E020B040B0A0707
:1037830008000F02040201010101090200BE040A3C
:10379300E8030000F6FB010003000000E80300005B
:1037A300D6360E007F0036370C0504041E101008B1
:1037B3000A28FF001B0402040009033C0C09050846
:1037C300150800FF030C031E74F6120B99E9FEE4BF
:1037D300F508F50978081210B87C2A7D007A017B78
:1037E30004121B6574021210E6E9F8740968702369
:1037F30075082A75091D78081210B875082A750905
:103803000078081210B87C007D007A017B04121B3B
:10381300718024E8702675082A75091D780812102E
:10382300B875082A75090078081210B87C007D0065
:103833007A017B04121B7774041210E6901A16E4C3
:10384300F0EE9018B6F07A547B1D122FFF7A1A7B94
:103853001D901D54E0F9121E177CBC7D319037B7C3
:10386300E493FA901D54E0F9121C797A607B1D12DF
:103873002FFF7A1A7B1D901D60E0F9121E177CB68C
:103883007D369037B8E493FA901D60E0F9121C7905
:103893007C8D7D1D7A007B00901D54E0F9121C7F06
:1038A3007C8D7D1D7A007B00901D60E0F9121C7FEA
:1038B3009018B6E0F9121C5B9018B6E0F91219FDE6
:1038C3007A0B7B1E122EAF7508167509197808122C
:1038D30010B875085875090278081210B8E4F5088D
:1038E300F50978081210B87C007D007A0D7B047905
:1038F300011214BD74061210E675081275091D78BD
:10390300081210B875085875090278081210B875AE
:10391300080F75090078081210B87C007D007A0240
:103923007B0479021214BD74061210E6750816752D
:10393300091D78081210B87508587509027808121D
:1039430010B875080F75090078081210B87C007D4F
:10395300007A057B0479021214BD74061210E6D2B4
:10396300927A327B001215AD7A327B001215AD12BA
:10397300160D121C0D7A327B001215AD1216DF12D2
:103983001DC375083078081210B8750854780812EA
:1039930010B87508F875098178081210B879017C98
:1039A300007D007A007B0012170974061210E612DC
:1039B300170F1217157AC47B091215AD7AC47B0948
:1039C3001215AD75081975090078081210B8780832
:1039D3001210B87508D875098978081210B87901DA
:1039E3007C0B7D007A1E7B0012170974061210E609
:1039F30012170F1217157AAC7B0D1215AD1216EBB9
:103A03007A057B1E121BE9D293D292C2847ADC7BA5
:103A1300051215ADD293C284C2927ADC7B051215CE
:103A2300ADD284D293C2927ADC7B051215ADD284D7
:103A3300D292C2937ADC7B051215ADD284C293C2B3
:103A4300927ADC7B051215AD901D2EE0600479019E
:103A530080027900121BEF7A019018B6E0F9121B6D
:103A63008F90921D120F177A107B009018B6E0F911
:103A7300121BB374041210E6909221120F177A00EE
:103A83007B019018B6E0F9121BB374041210E69090
:103A93009225120F177A007B109018B6E0F9121BCB
:103AA300B374041210E6909229120F177A007B0464
:103AB3009018B6E0F9121BB374041210E6023D9C91
:103AC30074F0120B99EAFEEBFF54806003023B9AF9
:103AD300EE54107003023C3B9018BCE064D07004B9
:103AE300A3E064077003023C12901D2DE0C39418F9
:103AF300400574171242F0901D2CE0C39418400542
:103B030074171242F09018B9E0FA901D2DE0FC9062
:103B13001D2CE0F8C3EC123CD84003023BF9123CE5
:103B2300D64003023C06023BFEEA2417F8E43509BB
:103B3300F9880A890B8882F58312539060528A822E
:103B43008B83A3A3A3A3A3A3A3A3E0640A7002A3E9
:103B5300E0703188828983A3A3A3A3A3E0F8A3E041
:103B6300F5838882780C1213A1901928780C12130C
:103B7300839018CD780C121383AA0CAB0DAC0EAD49
:103B83000F121AC9850A82850B83125378121AF30E
:103B9300AA08AB09121A459018B6E0F9121A578A07
:103BA300088B09EA450960468A828B83E024CC703E
:103BB30003023B2C247470D8A3A3A3E0F50B8A82E1
:103BC3008B83A3A3E0F50A901CCDE064017007AAE0
:103BD3000BA90A1215BFAA0BA90A12158FE50AA28F
:103BE300E650AD9018C37401F0121DB180A2EEFA35
:103BF300EF6480023CCD123CD6400FC3EA9C123CDA
:103C0300D950079018CA740180049018CAE4F09040
:103C130018C2E0C394075018E004F0901D2EE06032
:103C230004790180027900121BEF9018C37401F02C
:103C3300121DB1EE64108058EF5404600B121C0186
:103C4300EEFAEF6404023CCDEF5401601E90926DD6
:103C5300120F177A807B009018B6E0F9121BAD742F
:103C6300041210E6EEFAEF6401805FEE5440600840
:103C7300121D93EE64408018EE54206008121D9FBD
:103C8300EE6420800BEE5480600A121DA5EE648062
:103C9300FAEF8036EF5410600D125375121DE1EEEA
:103CA300FAEF64108024EF54086022909285120F7B
:103CB300177A007B089018B6E0F9121BAD74041252
:103CC30010E6121E11EEFAEF6408FB80047A007B03
:103CD30000800DC3EA9895E0C365D033221210E645
:103CE3007F08020E4CC082C083121D93024313C08F
:103CF30082C08390922D120F177A407B009018B6E2
:103D0300E0F9121BAD74041210E679000243137438
:103D1300F6120B9975082A75091D78081210B875E3
:103D2300082A75090078081210B87C007D007A0112
:103D33007B04121B7174041210E6901D501242DCB6
:103D4300A3E0687003A3E069600B901D52E8F0A341
:103D5300E9F0121DC3901D2AE0F8901D3CE0686055
:103D63000E901D2AE0901D3CF0125375121DD512C2
:103D730041AC6006125375121DD5801D78081210D0
:103D8300B879017C007D007A007B00121709740664
:103D93001210E612170F1217157F02020E4C74F061
:103DA300120B9974F812117E740412141412559D97
:103DB30085218285228312559EAC21AD2274041283
:103DC300116E1216C7901D3412589C120AB2852127
:103DD30082852283780C1213A17808790C1201EDE5
:103DE3009091E1780C1213A17808790C1205ED7803
:103DF3000812086F9019261255A6901D3212589C6E
:103E0300120AB2909231780C1213A17808790C122D
:103E130004077404121414780C1213A17808790C93
:103E23001201ED9091E1780C1213A17808790C122C
:103E330005ED780812086F9019241255A6901CCD31
:103E4300E06016901924E024E4F0A3E034FDF0A32D
:103E5300E024E8F0A3E03403F090192412589C12F4
:103E63000AB2909231780C1213A17808790C1204DB
:103E730007909235780C1213A17808790C1201ED92
:103E8300780812086F9018C61255A6901926127456
:103E9300C6120ACD9091E1780C1213A17808790C1F
:103EA300120407909235780C1213A17808790C123A
:103EB30001ED780812086F9018C81255A67408020D
:103EC3003CE074F4120B999018C01241A4601B14C7
:103ED300603914603F147003023F6D147003023F96
:103EE300DE147003023FE3023FEB121DAB9018C3D5
:103EF300E064017006121DBD02400C7C007D007A57
:103F03000D7B04901D54E0F9023FD91216C1121D16
:103F13009902400C9018C3E0640170467A0B7B0051
:103F2300121AED8A088B09EA45097003023FC6128B
:103F3300402E74291246377424F0A3741912404694
:103F43007432F0A3741D12465E1210BC750A017818
:103F53000A1210BC780A1210BC78081210B87C023E
:103F630080517C007D007A0280689018C3E0640170
:103F7300705A7A0B7B00121AED8A088B09EA4509FD
:103F8300604112402E74211246377426F0A374192F
:103F93001240467434F0A3741D12465E1210BC75B1
:103FA3000A01780A1210BC780A1210BC78081210A1
:103FB300B87C057D047AD27B187902121CAF740594
:103FC3001210E6AA08AB09121AF3803D7C007D00AB
:103FD3007A057B0479021214C3802E121DB780293F
:103FE300125375121DD58021E4F09018C3E06401CB
:103FF3007034909239120F177A807B009018B6E0D4
:10400300F9121BAD74041210E69018C0E06017900B
:104013009219120F177A207B009018B6E0F9121B41
:10402300AD74041210E67F04020E4C8A828B8374F3
:1040330002F0A3E4F0A312403D22F08A828B83A313
:10404300A3A32212463BA3A37410F0A37402124647
:10405300487429124648A32274F6120B9974FF126E
:10406300117E9018C11241A460151470030241150A
:1040730014700302414714700302415B02419B7AAF
:104083000C7B00121AED8A088B09AE08AF098E82E9
:104093008F83E4F0A31241B774021241B7A314F063
:1040A300852182852283F01214147407F0A3E4F0AF
:1040B3009018D11241A4F50878081210BC750801B4
:1040C30078081210BC75080078081210BC7403122B
:1040D30011668808890978081210B87C0A7D00796E
:1040E30001121C9174051210E6EEFAEFFB121AF39B
:1040F3009018C1E0601790926D120F177A807B00C1
:104103009018B6E0F9121BAD74041210E6740102A4
:104113003ABD901D2FE0640170D6121BF5901D2F40
:10412300E41242E21210B875082A750900780812E1
:1041330010B87C007D007A017B04121B7174041299
:1041430010E680AC1241AC60A7E8F0600779011279
:104153001BEF809C790080F7901D30125390609084
:10416300C3E89490E99401500B901D307490F0A330
:1041730074018012C3E89489E99413400A901D30B6
:104183007488F0A37413F0901D30125378121BFB44
:10419300901D30E4F0A38089E4F09018C3F002414D
:1041A30010E0F8740128F0E822901D2EE0F8901D2D
:1041B3003EE06822F08E828F83A3A3A3A3A3A3A3CD
:1041C300A32274F6120B99901D2AE0F8901D3CE08F
:1041D30068600A901D2AE0901D3C1242F0901D3643
:1041E3001242DC901D46E0687003A3E0696006900C
:1041F3001D461242EC901D381242DC901D48E068C7
:104203007003A3E0696006901D481242EC901D3ACA
:10421300E0F8901D4AE0686004E81242F0901D3B0C
:10422300E0F8901D4BE0686004E81242F0901D2B0B
:10423300E0F8901D3DE068600B9018C37401F0E84E
:10424300901D3DF0901D321242DC901D42E06870DB
:1042530003A3E0696006901D421242EC901D3412E4
:1042630042DC901D44E0687003A3E0696006901D82
:10427300441242EC901D2FE0F8901D3FE068602B44
:104283009018C37401F0E8901D3F1242E21210B877
:1042930075082A75090078081210B87C007D007A29
:1042A300017B04121B7174041210E6901D3012423C
:1042B300DC901D40E0687003A3E069600E9018C3B2
:1042C3007401F0901D40E8F0A3E9F01241AC6006E0
:1042D3009018C37401F0023D9CE0F8A3E0F922F0CA
:1042E30075082A75091D780822E8F0A3E9F09018EB
:1042F300C37401F022C082C08390926D120F177AAB
:10430300207B009018B6E0F9121BAD74041210E67E
:10431300D083D08202109874F6120B99901D3AE064
:10432300640160030244239019201242DC901D367D
:10433300E0FCA3E0FDC3EC98ED99500E9018C4E0A7
:1043430070087401F09018C5E4F0901D3812588776
:10435300E89AE99B500E9018C5E070087401F0903C
:1043630018C4E4F0C3EC98ED99500A901D3BE06447
:104373000160528012C3E89AE99B400302442C90E7
:104383001D3BE06401703E122EF1E9F9E4F508F5F6
:104393000978081210B878081210B8E9F5087808F7
:1043A3001210BCE4F50878081210B87508017808F3
:1043B3001210BC75080078081210BC750801780843
:1043C3001210BC803F122EF1E9F9E4F508F50978E3
:1043D300081210B878081210B8E9F5087808121016
:1043E300BCE4F50878081210B875080178081210B3
:1043F300BC75080078081210BC7508017808121003
:10440300BC75080078081210BC7C067D007AD27B4C
:1044130018901D54E0F9121C8B740B1210E68009DE
:104423009018C4E4F09018C5F0023D9C74F4120B8C
:1044330099901CCDE070030246087A477B00121A5C
:10444300ED8A088B09EA450970030246018A828BCB
:1044530083740E1240347439124637741CF0A374FB
:1044630019124637A3A37421F0A3740212464474AD
:1044730021124644A37436F0A3741DF0EA240B12F0
:10448300460B7422124657240D12461F240E124661
:104493000B7438F0A3741DF0EA241012460B742039
:1044A300124657241212462B241312460B743AF069
:1044B300A3741DF0EA241512460B742512465724E3
:1044C3001712462B241812460B743BF0A3741DF0ED
:1044D300EA241A12460B7411124657241C12462B57
:1044E300241D12460B742AF0A3741DF0EA241F1234
:1044F300460B7401124650242112462B24221246E5
:104503000B742BF0A3741DF0EA242412460B7405DC
:10451300F0A314F0EA2426124613242712460B7440
:104523002CF0A3741DF0EA242912460B74061246DC
:1045330050242B124613242C12460B742DF0A37413
:104543001DF0EA242E12460B740212465024301238
:10455300462B243112460B742EF0A3741DF0EA246B
:104563003312460B7402F0A3F0EA243512462B24CF
:104573003612460B742FF0A3741DF0EA243812464A
:104583000B7407124657243A12461F243B12460B5C
:104593007430F0A3741DF0EA243D12460B744412E8
:1045A3004650243F12461F244012460B7422F0A3A8
:1045B3007419F0EA244212460B74451246502444FF
:1045C300124613244512460B7450F0A3741D124671
:1045D3005E1210BC750A01780A1210BC750A0078C5
:1045E3000A1210BC78081210B87C0D7D047AD27BB5
:1045F30018901D54E0F9121CAF74051210E6AA08B6
:10460300AB09121AF3024029F582E43509F5832236
:10461300F582E43509F5837420F0EA22F582E43566
:1046230009F5837421F0EA22F582E43509F58374F0
:1046330010F0EA2212463B2212463F2212403DA3CB
:10464300221246482212463FA3A3A3A322F0A37437
:1046530004F0EA22F0A37402F0EA22F09018D1E009
:10466300F8740128F0E8F50A780A22C082C0839022
:104673001D50C3E09429A3E094004009901D507499
:1046830028F0A3E4F0901D50E02428F91216E50267
:10469300431374F6120B99750830750900780812E4
:1046A30010B875085478081210B87508E8750985AC
:1046B30078081210B879017C007D007A007B001223
:1046C300170974061210E612170F1217159018C265
:1046D300E4F0023D9C74F6120B99750830750900DD
:1046E30078081210B875085478081210B87508E0E5
:1046F300750987023D7F74E0120B9974F512117EE0
:10470300EAFEEBFF12538D600302536B9018C6123F
:104713005378121DED9018C8E0F9121DF3121DE72E
:10472300EEF8EFF97AE87B031209D9EAF8EBF97AA4
:10473300647B001209D9E8F50CEEF8EFF97A647B93
:10474300001209D9EAF8EBF97A0A7B001209D9E8D1
:10475300F50DEEF8EFF97A0A7B001209D974061207
:104763001414EAF0740912141474CDF0A37491F0C4
:104773007407121414747DF0A3748EF0740412146D
:10478300147405F0A3748FF0740212141474D9F026
:10479300A3748EF08521828522837497F0A3748E8F
:1047A300F0751EAD751F8E751CC3751D8E7516EFC6
:1047B30075178E75147375158F75125D75138F7557
:1047C300101B75118F750E31750F8F750A15750BCB
:1047D300917508D375099075184775198FC3EE94B1
:1047E300E8EF94034003024CF7751A05751B007834
:1047F3001A1210B8751A0B781A1210B8781812100A
:10480300B879017C177D007A427B00121709740680
:104813001210E6901D3AE0640160030248C6901846
:10482300C4E06401704112537E701A1210B87518F7
:104833000B78181210B878081210B879017C207D13
:10484300007A4280181210B875180878181210B838
:10485300780A1210B879017C207D007A447B00121B
:10486300170974061210E69018C5E064017054909D
:104873001D3BE06401702275080475090078081275
:1048830010B875080878081210B8780A1210B879A9
:10489300017C207D007A448020750A04750B007822
:1048A3000A1210B8750A0B780A1210B87808121099
:1048B300B879017C207D007A427B001217097406C7
:1048C3001210E6E50C6030146044146058146073F1
:1048D30014700302496114700302497C14700302CB
:1048E30049961470030249B01470030249CA147044
:1048F300030249E4024A0E75080D7509007808128F
:1049030010B875080B78081210B87408802C750855
:104913000D75090078081210B875080B7808121085
:10492300B87406801575080D75090078081210B85B
:1049330075080B78081210B87404121414120F1BA4
:104943000249FC75080D75090078081210B875083E
:104953000B78081210B8781E1210B80249FC7508BB
:104963000D75090078081210B875080B7808121035
:10497300B8781C1210B80249FC75080D7509007847
:10498300081210B875080B78081210B878161210B0
:10499300B8806675080D75090078081210B8750897
:1049A3000B78081210B878141210B8804C75080DE3
:1049B30075090078081210B875080B78081210B83A
:1049C30078121210B8803275080D75090078081234
:1049D30010B875080B78081210B878101210B88048
:1049E3001875080D75090078081210B875080B784A
:1049F300081210B8780E1210B879017C177D007A6E
:104A0300327B0012170974061210E6E50D603014AC
:104A13006044146058146073147003024AA914703C
:104A230003024AC4147003024ADE147003024AF8F4
:104A3300147003024B12147003024B2C024B567575
:104A4300080D75090078081210B875080B7808125C
:104A530010B87408802C75080D75090078081210B9
:104A6300B875080B78081210B87406801575080D10
:104A730075090078081210B875080B78081210B879
:104A83007404121414120F1B024B4475080D75099C
:104A93000078081210B875080B78081210B8781E41
:104AA3001210B8024B4475080D75090078081210EE
:104AB300B875080B78081210B8781C1210B8024B9E
:104AC3004475080D75090078081210B875080B783D
:104AD300081210B878161210B8806675080D75099B
:104AE3000078081210B875080B78081210B87814FB
:104AF3001210B8804C75080D75090078081210B8AB
:104B030075080B78081210B878121210B880327535
:104B1300080D75090078081210B875080B7808128B
:104B230010B878101210B8801875080D7509007840
:104B3300081210B875080B78081210B8780E121006
:104B4300B879017C177D007A257B0012170974065A
:104B53001210E67406121414E060301460441460FA
:104B630058146073147003024BF5147003024C1055
:104B7300147003024C2A147003024C441470030291
:104B83004C5E147003024C78024CA275080D750933
:104B93000078081210B875080B78081210B874085A
:104BA300802C75080D75090078081210B875080B6C
:104BB30078081210B87406801575080D7509007809
:104BC300081210B875080B78081210B87404121480
:104BD30014120F1B024C9075080D7509007808120A
:104BE30010B875080B78081210B8781E1210B802A6
:104BF3004C9075080D75090078081210B875080BEC
:104C030078081210B8781C1210B8024C9075080D71
:104C130075090078081210B875080B78081210B8D7
:104C230078161210B8806675080D75090078081299
:104C330010B875080B78081210B878141210B880E1
:104C43004C75080D75090078081210B875080B78B3
:104C5300081210B878121210B8803275080D750951
:104C63000078081210B875080B78081210B878107D
:104C73001210B8801875080D75090078081210B85D
:104C830075080B78081210B8780E1210B879017CE9
:104C9300177D007A187B0012170974061210E67547
:104CA300080D75090078081210B878081210B87446
:104CB3000B121414120F1B79017C177D007A097BE8
:104CC3000012170974061210E6901D2EE0640160AD
:104CD3000302535875080478081210B878081210A4
:104CE300B8740D121414120F1B79017C207D007A05
:104CF3000902534E751A0D751B00781A1210B875F8
:104D03001A0B781A1210B878181210B879017C1798
:104D13007D007A487B0012170974061210E6901D75
:104D23003AE064016003024DD19018C4E06401705D
:104D33004112537E701A1210B875180B781812109E
:104D4300B878081210B879017C207D007A48801861
:104D53001210B875180878181210B8780A1210B81B
:104D630079017C207D007A4A7B00121709740612B0
:104D730010E69018C5E064017054901D3BE0640197
:104D8300702275080475090078081210B8750808B0
:104D930078081210B8780A1210B879017C207D00C7
:104DA3007A4A8020750A04750B00780A1210B875C8
:104DB3000A0B780A1210B878081210B879017C200F
:104DC3007D007A487B0012170974061210E6EEF88C
:104DD300EFF97AE87B031209D9E8603014604414D0
:104DE3006058146073147003024E76147003024EFD
:104DF30091147003024EAB147003024EC51470037A
:104E0300024EDF147003024EF9024F2375080D752D
:104E1300090078081210B875080B78081210B874D6
:104E230008802C75080D75090078081210B87508EC
:104E33000B78081210B87406801575080D750900F3
:104E430078081210B875080B78081210B874041299
:104E53001414120F1B024F1175080D750900780801
:104E63001210B875080B78081210B8781E1210B813
:104E7300024F1175080D75090078081210B87508EE
:104E83000B78081210B8781C1210B8024F1175086D
:104E93000D75090078081210B875080B7808121000
:104EA300B878161210B8806675080D750900780871
:104EB3001210B875080B78081210B878141210B8CD
:104EC300804C75080D75090078081210B875080B29
:104ED30078081210B878121210B8803275080D7560
:104EE300090078081210B875080B78081210B87802
:104EF300101210B8801875080D7509007808121083
:104F0300B875080B78081210B8780E1210B879012A
:104F13007C177D007A387B0012170974061210E69D
:104F2300E50C60301460441460581460731470030B
:104F3300024FBE147003024FD9147003024FF314CF
:104F4300700302500D1470030250271470030250B3
:104F53004102506B75080D75090078081210B87579
:104F6300080B78081210B87408802C75080D7509A1
:104F73000078081210B875080B78081210B8740678
:104F8300801575080D75090078081210B875080B9F
:104F930078081210B87404121414120F1B0250591B
:104FA30075080D75090078081210B875080B780894
:104FB3001210B8781E1210B802505975080D7509F1
:104FC3000078081210B875080B78081210B8781C0E
:104FD3001210B802505975080D750900780812109F
:104FE300B875080B78081210B878161210B88066D6
:104FF30075080D75090078081210B875080B780844
:105003001210B878141210B8804C75080D75090089
:1050130078081210B875080B78081210B8781212B5
:1050230010B8803275080D75090078081210B8752C
:10503300080B78081210B878101210B88018750889
:105043000D75090078081210B875080B780812104E
:10505300B8780E1210B879017C177D007A2B7B008B
:1050630012170974061210E6E50D6030146044143B
:1050730060581460731470030251061470030251D4
:105083002114700302513B14700302515514700331
:1050930002516F1470030251890251B375080D75E3
:1050A300090078081210B875080B78081210B87444
:1050B30008802C75080D75090078081210B875085A
:1050C3000B78081210B87406801575080D75090061
:1050D30078081210B875080B78081210B874041207
:1050E3001414120F1B0251A175080D7509007808DD
:1050F3001210B875080B78081210B8781E1210B881
:105103000251A175080D75090078081210B87508C9
:105113000B78081210B8781C1210B80251A1750848
:105123000D75090078081210B875080B780812106D
:10513300B878161210B8806675080D7509007808DE
:105143001210B875080B78081210B878141210B83A
:10515300804C75080D75090078081210B875080B96
:1051630078081210B878121210B8803275080D75CD
:10517300090078081210B875080B78081210B8786F
:10518300101210B8801875080D75090078081210F0
:10519300B875080B78081210B8780E1210B8790198
:1051A3007C177D007A1E7B0012170974061210E625
:1051B3007406121414E060301460441460581460D0
:1051C3007314700302525214700302526D1470036D
:1051D3000252871470030252A11470030252BB14CB
:1051E30070030252D50252FF75080D750900780845
:1051F3001210B875080B78081210B87408802C7553
:10520300080D75090078081210B875080B78081294
:1052130010B87406801575080D750900780812100A
:10522300B875080B78081210B87404121414120F0E
:105233001B0252ED75080D75090078081210B87538
:10524300080B78081210B8781E1210B80252ED75C8
:10525300080D75090078081210B875080B78081244
:1052630010B8781C1210B80252ED75080D750900BC
:1052730078081210B875080B78081210B87816124F
:1052830010B8806675080D75090078081210B87596
:10529300080B78081210B878141210B8804C7508EF
:1052A3000D75090078081210B875080B78081210EC
:1052B300B878121210B8803275080D750900780895
:1052C3001210B875080B78081210B878101210B8BD
:1052D300801875080D75090078081210B875080B49
:1052E30078081210B8780E1210B879017C177D0077
:1052F3007A117B0012170974061210E675080D75F2
:10530300090078081210B878081210B8740B121438
:1053130014120F1B79017C177D007A027B00121790
:105323000974061210E6901D2EE0640170277508BB
:105333000478081210B878081210B8740D121414F7
:10534300120F1B79017C207D007A027B0012170962
:1053530074061210E6121DF9121DFF12170F121711
:1053630015EEFAEFFB121DDB740B1210E67F180229
:105373000E4C901920E0FAA3E0FB22901D3BE06461
:105383000175180475190078182290191AE0F8A30A
:10539300E0F9E8492274F7120B99901D2AE06401A1
:1053A30060030254A0EA2487FEEB34FAFFEA2417D1
:1053B300FCEB34FCFDEA24A7F8EB34FDF9A3E0642D
:1053C3000160030254539018BCE064D07004A3E05E
:1053D3006407607C9018CAE0F5089018CBE0650874
:1053E3009018CA6068E06401700DC284C293C292CF
:1053F3009018CB74018053C3EA9459EB940250087C
:10540300D293D292C284803EC3E89490E99401502F
:1054130006D293C284802DC3EC9490ED9401500680
:10542300D284D293801EC3EE9490EF94015008D29D
:1054330084D292C293800FC3EA9409EB9407400687
:10544300D284C293C292E09018CBF08056E070539E
:10545300C3EA9459EB94025008D293D292C2848047
:1054630042C3E89490E994015006D293C2848031F8
:10547300C3EC9490ED94015006D284D2938022C35E
:10548300EE9490EF94015008D284D292C293801389
:10549300C3EA9409EB9407400AD2848002C284C20F
:1054A30093C2927F01020E4C74F0120B998A088BFF
:1054B30009E4F50AF50B901D10C3E0943CA3E094B6
:1054C30000501190191278081212D5901D10127401
:1054D300BD025599901D107401F0A3E4F0901912C8
:1054E30078081212C2909211780C1213A1780879DD
:1054F3000C120B2A90191212559D90923D780C12A2
:1055030013A190190E780C1211E9503090190E78EE
:105513000C1213A17401780C12128974DE250CF598
:10552300827418350DF5831255A69091D978081217
:1055330013A190190E78081212D5805590923D78D8
:105543000C1213A190190E780C1211BF704390180E
:10555300DEE0FEA3E0FF7800790012588EFA74189B
:105563003BFB8A828B83A3A3E0FCA3E0FD8A828BAF
:1055730083ECF0A3EDF008E8700109C39417125807
:105583006040D790190CEEF0A3EFF090190C125570
:10559300A69018CC7401F0023CE3E4F0A3F0A3F06E
:1055A300A3F022E508F0A3E509F02274EA120B99AF
:1055B3007E4C7F00901D0FE06401700A750C90759E
:1055C3000D01E4F0800A9018DEE0F50CA3E0F50D80
:1055D3007800790012587DEA950CEB950D50048AFA
:1055E3000C8B0D08E870010912585940E79018DE3A
:1055F300E0F50EA3E0F50F7800790012587DE50E73
:105603009AE50F9B5008EA4B60048A0E8B0F08E85B
:1056130070010912585940E38F108F11A810E82820
:10562300F8E51133F974DE28F582741839F583121D
:10563300589C120AB278081210B0909241120F17B8
:10564300909265120F17850E08850F09E4F50AF588
:105653000B7808120ACD78081210B0850C08850D56
:1056630009E4F50AF50B7808120ACDAA08AB09ACD0
:105673000AAD0B121C4974101210E6120865850856
:10568300128509137417651045117508097509000A
:10569300780860030257601210B875080278081280
:1056A30010B879017C007D007A007B001216F77434
:1056B300041210E675080978081210B87508027804
:1056C300081210B879017C007D007A017B00121664
:1056D300F774041210E6750800804A125869121014
:1056E300B875140278141210B87901AC0AAD0B7AAC
:1056F300007B001216F774041210E675140978146F
:105703001210B875140278141210B87901AC0AADEE
:105713000B7A017B001216F774041210E60508E5F4
:10572300087002050912584A40B175080975090045
:1057330078081210B875080278081210B875082F87
:1057430075090778081210B879017C0C7D00EEFA10
:10575300EFFB12170974061210E602582B1210B849
:1057630075080278081210B879017C007D007A0070
:105773007B001216F774041210E6750809780812F4
:1057830010B875080278081210B879017C007D0002
:105793007A017B001216F774041210E67508008074
:1057A3004A1258691210B875140278141210B87995
:1057B30001AC0AAD0B7A007B001216F774041210C9
:1057C300E675140978141210B875140278141210BF
:1057D300B87901AC0AAD0B7A017B001216F7740499
:1057E3001210E60508E5087002050912584A40B18F
:1057F30075080975090078081210B8750802780849
:105803001210B875082F75090778081210B87901B6
:105813007C0C7D00EEFAEFFB12170974061210E6FA
:10582300EE24FDFEEF34FFFF79001216FD0510E5AF
:105833001070020511C39418E51112586150030248
:10584300561F7F0E020E4CC3E5089512E50995130A
:10585300A2D265D03322C3941812586022E994006F
:10586300A2D265D03322E5082401F50AE43509F50F
:105873000B75140975150078142212588EF582746D
:10588300183BF583E0FAA3E0FBC322E8FAE9FBEA5D
:105893002AFAEB33FB74DE2A22E0F508A3E0F509CC
:1058A3003395E0F50AF50B78082274E0120B99742E
:1058B300FE12117EEAFCEBFDECF8EDF97A647B0055
:1058C3001209D9E8F51CECF8EDF97A647B001209AA
:1058D300D9EAF8EBF97A0A7B001209D9E8FEECF869
:1058E300EDF97A0A7B001209D9EAFF852182852224
:1058F30083743DF0A37491F0751E91751F92751A10
:105903001E751B9075188E75199075165E75179018
:1059130075143E75159075122E7513907510FE75DE
:10592300118F750E7E750F90750C4E750D90750A5F
:10593300EE750B8F75086E750990E51C6003025CAC
:105943002CEE6030146048146060146078147003A7
:105953000259E31470030259FE147003025A181417
:105963007003025A32147003025A4C147003025A21
:1059730066025A90751C09751D00781C1210B875C3
:105983001C08781C1210B8781A1210B8025A7E75C7
:105993001C09751D00781C1210B8751C08781C12A0
:1059A30010B878181210B8025A7E751C09751D00BC
:1059B300781C1210B8751C08781C1210B8781612CF
:1059C30010B8025A7E751C09751D00781C1210B898
:1059D300751C08781C1210B878141210B8025A7E7D
:1059E300751C09751D00781C1210B8751C08781CED
:1059F3001210B878121210B8025A7E751C09751D60
:105A030000781C1210B8751C08781C1210B8781096
:105A13001210B88066751C09751D00781C1210B829
:105A2300751C08781C1210B8780E1210B8804C75CB
:105A33001C09751D00781C1210B8751C08781C12FF
:105A430010B8780C1210B88032751C09751D0078D7
:105A53001C1210B8751C08781C1210B8780A1210A2
:105A6300B88018751C09751D00781C1210B8751CB8
:105A730008781C1210B878081210B879017C007DE0
:105A8300007A417B0012170974061210E6751C098F
:105A9300751D00781C1210B8751C01781C1210B803
:105AA300781E1210B879017C007D007A3F7B0012CA
:105AB300170974061210E6EF603014604814606032
:105AC300146078147003025B59147003025B74143E
:105AD3007003025B8E147003025BA8147003025BF5
:105AE300C2147003025BDC025C06750809750900C9
:105AF30078081210B875080878081210B8781A12C6
:105B030010B8025BF475080975090078081210B81B
:105B130075080878081210B878181210B8025BF4E8
:105B230075080975090078081210B875080878080F
