:020000040000FA
:0600000002134802081D76
:030013000208E3FD
:03002B000210E5DB
:03003300020FAE0B
:03003B000209387F
:030053000207524F
:100083000207B10100F0FF0700080000FFFF0000B6
:100093000704000000030001FF0530750000002085
:1000A300FD000206FFFFFE0400000004E5C6FE0695
:1000B300001F0000AC03FE06001F00B4AC741E0159
:1000C30001001900000032000000591D000000006B
:1000D30000000000000000000000010017060101FD
:1000E300000100D0079001000001000101000100A0
:1000F300D00790010000000000000E000E00010474
:10010300010C0002041091019892020401020302FF
:10011300027C92000000010400006719000000E85F
:10012300030000FFFFC41988130000E80300006404
:10013300006400B801A0BB0D00A0BB0D00020202C9
:1001430007040101071E02051E020A0A0101010834
:1001530009080103B80B02803E0102FEFFE8030A0F
:10016300050001FFFF010A011401E0020000000184
:10017300050301010F10FEFF03000300030003004A
:100183000300030003000300030005000A0014003A
:1001930028004F009E000000D533000000000B3301
:1001A30000000000FF000000FF00121376604612FB
:1001B3001394603DE9687008F618F618F618F622ED
:1001C300748067F71201E1090909748067F7221245
:1001D3001394601D1213767005191919801A1212DF
:1001E3000A701F12121EC37003E6673319191940F0
:1001F300071818182208080874FFF618F618F618D6
:10020300F62212121E6017121414702192F01214A7
:10021300027019501720F014080808090909E7F6B5
:100223001819E7F61819E7F61819E7F62212140257
:1002330060E6E869701F0808E62480F608E436F6ED
:1002430018547FB47F0CE654806007F6E418F61860
:10025300F622181822E9C6CC08C6CD08C6CE08C6B1
:10026300CFC0E0E8C0E0EAC0E0EBC0E009E9F8098C
:10027300E7FA09E7FBE6F918E6F8C3EC98ED99EE1F
:100283009AEBC2E7F5F0EFC2E795F0500E600CEB86
:10029300CFFBEACEFAE9CDF9E8CCF8EAA2E7D2E758
:1002A300FAEB33FB13F5F0EEA2E7D2E7FEEF33FFF1
:1002B300C5F013A2E730E601B313C5F0C3C0E0C035
:1002C300F07F00C39BFB605E9418600F401D1460B9
:1002D3001AD0E023F9D0E0F80203B38AF0E94860CA
:1002E30003D2F0E4AFF0FAF9F8803BEB30E40D8988
:1002F300F0EA6003D2F0E4AFF0F9CAF8EB30E30DB3
:1003030088F0EF6002D2F0AFF0E4CAC9F8EB54070B
:100313006014FBC3EA13FAE913F9E813F8EF135077
:1003230002D2E0FFDBEDD0E0C0E030E739C3E49F69
:10033300FFF5F0EC98FC42F0ED99FD42F0EE9AFEE9
:1003430042F0D0E0F9D0E0F8E5F0607AE923F9EE85
:1003530020E742D8028067C3EF33FFEC33FCED3371
:10036300FDEE33FE80EAEC28FCED39FDEE3AFED0DB
:10037300E023F9D0E0F84002801BC3EE13FEED1337
:10038300FDEC13FCEF135002D2E0FF08B800067F28
:100393007F74FF802EEF3350178CF020F002601033
:1003A3000CBC000C0DBD00080EBE000408E860DFA5
:1003B300E933E813FFEE2313FE4F4D4C8008E95455
:1003C30080FFE4FEFDFCEE33EF33F47004FCFD7EAE
:1003D30080D0E0FBD0E0FAD0E0F8D0E0CFC618CE72
:1003E300C618CDC618CCC6F9221213947004181877
:1003F3001822121376700D74FFF61819F61819F6F1
:100403001819F622E7548066F6121402700F1214BC
:100413001470F014F608F608F608F680D1121414D6
:10042300700CF608F608768008E6447F80EC12121A
:1004330021700C12120D60BFE65480F6E480BB12EB
:10044300120D700519191980A5E869700C763F180B
:10045300768018F618F6E8F922E6CDC0E018ECC06D
:10046300E0E633CD33CDD313F6E719FCE71919339F
:10047300CC33C3947F400ECD9D502408E65480F6C0
:10048300E418F6800FF4043D14501408E6447FF694
:10049300187680E418F618F6D0E0FCD0E0FD22CC04
:1004A300D313CCFD18E4C6CBC0E018E4C6CAC0E041
:1004B3000808ED08C633E613F618E433C675F003EF
:1004C300C3CA97CA09CB97CB199C40047D08802ED9
:1004D300BD000302059516B6FF050606081618C3E8
:1004E300CA33CACB33CB33CA27CA09CB37CB193C60
:1004F300C37D08803E187D0820E75CC633C6CA3337
:10050300CACB33CB33DDF1D5F0EB30E77BCA97CAE7
:1005130009CB974ACB199C406F4B7025E620E0210D
:100523008066187D08C3CA97CA09CB97CB199CD399
:10053300C633C6CA33CACB33CB3350C9DDE7D5F094
:10054300E1D3E4C636C608C636C608C636C608C6EC
:1005530036C61818188031C3CA97CA09CB97CB1966
:100563009CB34097C633C6CA33CACB33CB33DD34CF
:10057300D5F02EC6A2E0C640C8CA27CA09CB371990
:100583004A70BECB3CB480B90808E63308E6336052
:100593001F181818D0E0FAD0E0FBD0E0FCD0E0FD43
:1005A30022187D08CA27CA09CB37CB193CD38080D0
:1005B30013F618E4B67F11F618B6FF0EF618C60444
:1005C30070D20808768080CAF618F618F680C5003F
:1005D300121394604F1213766012E7548066F6127A
:1005E300120A7011121414703B090909F4F618F673
:1005F30018F618F62212121E7015121402080808B3
:1006030060EAE6447FF618768018E4F618F62212BC
:10061300140260161214147012E4F608F608F608B1
:10062300E65480F609090918181822EAC0E0EBC05D
:10063300E0ECC0E0EDC0E0E687F0A4FBACF008E638
:1006430087F0A42CFCE435F0FA1809E687F0A42C13
:100653004B60027401CA35F0FCE433FB09E687F012
:10066300D2F7A42CCB35F0FC1908E687F0A42BCCE9
:1006730035F0FBE433FD0819E687F0D2E7A42C4AF2
:10068300CB35F0CD3400FC09E687F0D2E7A42DCCBE
:1006930035F0FDE433FA0918E687F0D2F7A42CCD40
:1006A30035F0CA3400FC08E687F0D2E7D2F7A42A73
:1006B300CC35F07A7E20E70B0ACB33CBCD33CDCCD0
:1006C30033CC33CB3350147004ED30E00ED2F1E46D
:1006D300CD3DCDCC3CCC3B5005DA05C2F1EB547F8C
:1006E300C63308E63392F0FBE73309E733C39A5086
:1006F3002D2B70190C0D4C4D70151806E608C333DD
:10070300700D20F10AA2F013F6E418800B4024E4E4
:10071300F630F002768018F618F618F68024D33BEC
:1007230014501074FFA2F013F6187680E418F6182C
:10073300F6800FA2F013F618E63303F618ECF6185A
:10074300EDF6D0E0FDD0E0FCD0E0FBD0E0FA22C033
:10075300E074F1120BEAA2AFE433F509D2AF85A737
:1007630008AFA1EF5508FE74105E60061217657599
:10077300A1EF74085E600812176B75A1F78024EF70
:10078300A2E092F0E508A2E082F05017906198E0B1
:10079300F89009C2E0C398A2D265D0335002E8F0C2
:1007A30075A1FEE509A2E092AF7F02020C49C0E009
:1007B30074F2120BEAA2AFE433FED2AF9061A4E06D
:1007C300F8759B00E59158540860087591F7121766
:1007D300B98023E59158541060087591EF1217BF43
:1007E3008014E591A2E092F0E8A2E082F05007E0E5
:1007F300C2E0F01219159061A3E0F8E5E95854043A
:10080300600E1218EB75E9FB906193E0A2E640F2EB
:10081300EEA2E092AF7F01020C49C0E074F2120B2A
:10082300EAA2AFE433FED2AF9061A5E0F8E5BF588A
:100833005404600675BFFB12192D80D4120894303E
:10084300F0431208D9803E8A088B098C0A8D0B78F5
:100853000812089420F01430E72B74FFFCFBFA74A1
:100863007F8022E4FCFBFA7480801AB48008BC0009
:10087300F2BB00EF800F50EBF9E4C39AFAE49BFB61
:10088300E49CFCE499C6CC18C6CB18C6CA18C6F9B2
:1008930022E4C9C608CAC608CBC6D3330308CCC6EC
:1008A3003392F0C3947F402E94184019C9B90704BA
:1008B300CACBCC225025C309CA33CACB33CBCC33E2
:1008C300CC33D9F422F4600DC9CCC313CB13CBCAF8
:1008D30013CAD9F6CC22E4FCFBFA2214FCFBFA225D
:1008E300C0E0C0D0E8C0E0E9C0E0C082C083A8C1D6
:1008F300E8C0E09006A7E0F8742628F582E4340601
:10090300F583D0E0F09006A6E0F8A3E0687006E572
:10091300959006A9F09006A7E004F0C394804002E6
:10092300E4F0A374C6F0D083D082D0E0F9D0E0F82D
:10093300D0D0D0E032C0E0C0D0E8C0E0E9C0E0C031
:1009430082C08390072AE0F8A3E0687008539AFBFB
:10095300A374018022C2E990072AE0F8740128F009
:1009630074AA28F582E43406F583E0F5C190072ADA
:10097300E0C394804002E4F080ACC3E498F8E499C7
:10098300F91209BE8026C3E49AFAE49BFBE920E747
:10099300E91209BEE498F8E499F922C3E498F8E46B
:1009A30099F91209BEE498F8E499F9C3E49AFAE4D0
:1009B3009BFB22EB20E7CFE920E7E0B90010BB0067
:1009C30008E88AF084F8AAF022E4FBC8FA22EB7064
:1009D300227B10C833C8C933C9335007C39AC3DB5A
:1009E300F280069A50012ADBEAC833F4C8C933F40B
:1009F300C9FA2275F008E4C833C8C933C933C99AA0
:100A0300C99B5004C92AC93BD5F0ECFBC833F4C8D1
:100A1300E4C9FA22080808EAC0E0EBC0E086F0E780
:100A2300A4FA180986F0E7A42AFA180986F0E7A4BD
:100A33002AFA180986F0E7A42AFA1986F0E7A4FB34
:100A4300E5F02AFA190886F0E7A42BFBE5F03AFA59
:100A5300190886F0E7A42BFBE5F03AFA1818098683
:100A6300F0E7A4C5F02BFBE43AFA1908E7C5F0C692
:100A7300A426F6E5F03BFBE43AFA1886F0E7A4F681
:100A8300E5F00826F6E43B08F6E43A08F6D0E0FB86
:100A9300D0E0FA22080808E630E7111211E2120A40
:100AA300AF080808C64480C618181822181818E991
:100AB300799EC608CAC608CBC608CCC6C3702079BF
:100AC30096CACBCC7019798ECBCC70137986CC7047
:100AD3000EF9802ACA33CACB33CBCC33CC3319308B
:100AE300E7F2CCCBCA3350147004EA30E00DE4CA09
:100AF3003ACACB3BCBCC3CCC500209C3E913C6CC9E
:100B0300182313C6CB18C6CA18C6F922E4CFC0E00F
:100B1300E4CEC0E0E4CDC0E0E4CCC0E075F020E674
:100B230026F608E633F608E633F608E633F6181831
:100B330018EC33FCED33FDEE33FEEF33FFC3EC97DC
:100B430009ED9709EE9709EF97191919400FFFEC73
:100B530097FC09ED97FD09EE97FE191906D5F0BF2D
:100B6300ECF709EDF709EEF709EFF7191919D0E0DA
:100B7300FCD0E0FDD0E0FED0E0FF222521C582C0FD
:100B8300E0E52234FFC583C0E0E521C3958224F864
:100B930010AF088583228582218008858322858280
:100BA30021D2AFCEF0A3E520F0A37808E608F0A3A6
:100BB300DEFAEFF0A3E58124FAF8E608F0A3E608ED
:100BC300F0A3E608F0A30808E608F0A3E608F0A3FC
:100BD30015811581D0E0FED0E0F8158115811581CE
:100BE300E8C0E0EEC0E022C0D02521C582C0E0E528
:100BF3002234FFC583C0E0E521C3958224F310AFFF
:100C0300088583228582218008858322858221D2DB
:100C1300AFC8F0A3E9F0A3EAF0A3EBF0A37908E7E8
:100C230009F0A3D8FAECF0A3EDF0A3EEF0A3EFF0F4
:100C3300A3D0E0F0A3D0E0F0A3D0E0F0A3E520F050
:100C4300A3E5F0F0A322852283852182E0C0E0A3FF
:100C5300E0F9A3E0FAA3E0FBA37808E0F608A3DF3A
:100C6300FAE0FCA3E0FDA3E0FEA3E0FFA3E0C0E005
:100C7300A3E0C0E0A3E0F5D0A3E0F520A3E0A3F553
:100C8300F010AF0885832285822180088583228521
:100C93008221D2AFD082D083D0E0F8D0E0321213D9
:100CA300EDB90003020CE0E490050178BE791880E9
:100CB30002F0A3D8FCD9FA7ABE7B1C900086782870
:100CC30079028015E493A3AD82AE838A828B83F08D
:100CD300A3AA82AB838D828E83D8E9D9E77582502C
:100CE3007583CE740612107675823D758330740059
:100CF300121076E47375F0108E238F248582288575
:100D03008327852182852283E0CEA3E0CF852882B5
:100D1300852783EBC9EAC8EDCBECCAC3E833C8E93E
:100D230033C9EA33CAEB33CBC3EA9EF526EB9FF50F
:100D330025B35004AB25AA26EC33CCED33CDD5F047
:100D4300DAAE23AF2422121394601C1213766017B9
:100D530012140270071214147001D322C0D012149B
:100D6300147006D0D0B322C32233D0D0501430E055
:100D7300F6C3E7960809E7960809E7960809E79690
:100D8300B32220E0D5E6970809E6970809E6970815
:100D930009E697B322121394601B1213766016129E
:100DA30014027007121414600CB322C0D01214146E
:100DB3007005D0D022C32233D0D0501330E0EBC320
:100DC300E7960809E7960809E7960809E7962220B7
:100DD300E0E4E6970809E6970809E6970809E69725
:100DE30022D083D082ECC0E0EDC0E0E493A3FCE426
:100DF30093A3FDED4C600D120EBCEC24FFFCED340F
:100E0300FFFD80EFE493A3FCE493A3FDED4C600DA1
:100E1300120F59EC24FFFCED34FFFD80EFD0E0FD11
:100E2300D0E0FCE493A3C0E0E493C0E022852283F6
:100E3300852182E0A3FEE0A3F5207808E0A3F6086D
:100E4300DFFAE0A3FFE0A3C0E0E0A3C0E0E0A3C0BB
:100E5300E0E0A3C0E0E0A3C0E010AF0885822185F5
:100E630083228008858221858322D2AFD083D082DA
:100E730002107CD083D082E9C0E0E493A3C386F060
:100E8300C5F095F0F908E493A386F0C5F095F070EA
:100E93000BE493A3C3994005E9048002A3E475F02E
:100EA30002A42582F582E5F03583F583D0E0F9E4E9
:100EB30093A3C0E0E493C0E022C0E0C3E4939608A8
:100EC3007401939618400FE49366700808740193B5
:100ED300661870007019A3A3C3E493960874019372
:100EE3009618A3A3400DD0E0D0E0D0E0020E20A3DB
:100EF300A3A3A3A3A3D0E0227404800474028000FC
:100F0300CCC0E0EDC0E0E521C39CCCAD2250011D77
:100F130010AF068C218D2280068C218D22D2AF1238
:100F23000FF8D0E0FDD0E0FC2274028000CCC0E0DA
:100F3300EDC0E0E521C39CCCAD2250011D10AF06EE
:100F43008C218D2280068C218D22D2AF120FD6D018
:100F5300E0FDD0E0FC22C0E0C0F088F0E4936670CE
:100F6300080874019366187000A8F0A3A3700BD04F
:100F7300F0D0E0D0E0D0E0020E20A3A3D0F0D0E088
:100F830022D083D082CCC0E0E493A3600612103851
:100F93001470FAE493A360061211781470FAD0E087
:100FA300FCE493A3C0E0E493C0E022C0E074F21237
:100FB3000BEAA2AFE433FED2AFE58BA2E050057992
:100FC3000412163F758B00C2E8EEA2E092AF7F01D8
:100FD300020C49CAC0E0E493A3C582CCC582C58391
:100FE300CDC583F0A3C582CCC582C583CDC583DAC5
:100FF300E5D0E0CA22CAC0E0E0A3C582CCC582C561
:1010030083CDC583F0A3C582CCC582C583CDC583FB
:10101300DAE6D0E0CA227009080808226016181818
:1010230018C6C333C608C633C608C633C608C63394
:10103300C6D5E0EA22C0E0E493A3D39C5010E49326
:10104300A3C39C400AD0E0D0E0D0E0020FA1A3A349
:10105300A3D0E022C008C3E096F50808A3E09642B7
:101063000808A3E096420808A3E09645087001D358
:10107300D00822C09FF59FE473D09F22D083D082F3
:10108300C09FE493C0E0740193C0E0740293F59FA2
:10109300227404800A74038006740280027401C0FF
:1010A300E0F4041210AFD0E01213B0222521F58230
:1010B30010AF08F521400C15228008F521400215D8
:1010C30022D2AF8522832200C0D0252110AF08F59C
:1010D30021500C05228008F52150020522D2AFD001
:1010E300D022C0E0C0D0E8C0E0A8A8D2AFC2C7E811
:1010F300A2E792AFD0E0F8D0D0D0E032BB0102E754
:1011030022C082C08389828A83BB0003E08002E419
:1011130093D083D082226016080808C6C313C6186A
:10112300C613C618C613C618C613C6D5E0EA22C32B
:10113300E0C696F608A3E0C696F608A3E0C696F6C0
:1011430008A3E0C696F6222521F8E43522F92225E4
:1011530021FAE43522FB222521FCE43522FD222558
:101163002110AF08F521400C15228008F52140021B
:101173001522D2AF22C0E0E493A36C7009D0E0D073
:10118300E0D0E0020FA1A3A3D0E022E7667010082D
:1011930009E766700A0809E76670040809E766222A
:1011A300E066701008A3E066700A08A3E0667004A6
:1011B30008A3E06622C3E7960809E7960809E796BD
:1011C3000809E796A2D265D03322C3E09608A3E0CC
:1011D3009608A3E09608A3E096A2D265D03322181E
:1011E3001818E4C396F608E496F608E496F608E4BD
:1011F30096F622C3E096F008A3E096F008A3E096E3
:10120300F008A3E096F022181818E60846087009BB
:10121300E626087005E633F4220822191919E709AE
:1012230047097009E727097005E733F4220922C348
:10123300E697F60809E697F60809E697F60809E639
:1012430097F622C3E4939608740193960874029365
:1012530096087403939622E627F60809E637F608FC
:1012630009E637F60809E637F622700422600D18FE
:10127300C6C333C608C633C6D5E0F41822E657F60C
:101283000809E657F60809E657F60809E657F6226D
:10129300E056F608A3E056F608A3E056F608A3E0E6
:1012A30056F622E026F608A3E036F608A3E036F663
:1012B30008A3E036F622E026F008A3E036F008A300
:1012C300E036F008A3E036F022E647F60809E647E1
:1012D300F60809E647F60809E647F622E493F60816
:1012E300740193F608740293F608740393F622E6E6
:1012F30067F60809E667F60809E667F60809E66788
:10130300F622E056F008A3E056F008A3E056F008F2
:10131300A3E056F022C6F4C608C6F4C608C6F4C64F
:1013230008C6F4C622C3E09608A3E09608A3E09695
:1013330008A3E09622C3E7960809E7960809E7960B
:101343000809E7962275D00075813F752101752242
:101353000500020CA1600C08C6C313C618C613C649
:10136300D5E0F422E6F008A3E6F008A3E6F008A32C
:10137300E6F022E7094709C3134709336002E7335D
:10138300F422E0F608A3E0F608A3E0F608A3E0F6EB
:1013930022E6084608C3134608336002E633F42204
:1013A300800100E9F874FF28F90470F622CAC0E04E
:1013B300E6F0A308DAFAD0E0FA22E0F8A3E0F9A312
:1013C300E0FAA3E0FB22E8F0A3E9F0A3EAF0A3EB41
:1013D300F022EAF0A3EBF0A3ECF0A3EDF022E0FAA5
:1013E300A3E0FBA3E0FCA3E0FD22E5C754F844011E
:1013F300F5C77901222521F582E43522F58322E61A
:101403002618461846184622C2AF75D69F0200001A
:1014130022E7271947194719472212107F18890510
:1014230012107FAC890512107F5D8A0512107FAE02
:101433008A0512107FF28A0512107F8C8B05121019
:101443007FFC8B0512107F2B8C0512107F318D05CD
:1014530012107F5B8D0512107FAF8D0512107F83F5
:101463008E0512107FB1900512107F5F9105121047
:101473007FCC930512107F51940512107F5497056A
:1014830012107F88990512107FC4990512107F1DD1
:101493009B0512107F309B0512107F6D9B05121068
:1014A3007F099D0512107FBD9E0512107F67EF0215
:1014B30012107FE3EF0212107F16F00212107F4426
:1014C300F00212107F82F00212107FBFF20212109C
:1014D3007FDEF20212107F23F30212107FB9F302B0
:1014E30012107F05F40212107F99F40212107F721A
:1014F300F50212107FCEF50212107F2CF6021210A5
:101503007F9FF60212107FE3F60212107F3BF70271
:1015130012107F5DF70212107FEDF70212107F7E2B
:10152300F80212107FCAF80212107FF6F8021210A6
:101533007F37F90212107FCDFA0212107FB9FB0236
:1015430012107F94FC0212107F68B60612107F936C
:10155300B60612107FB3B60612107FDAB606121063
:101563007F21B80612107F42B80612107F16B90603
:1015730012107FADB90612107F91DB0612107F9611
:10158300DB0612107FC9DB0612107FD7DB061210B1
:101593007FF9DB0612107F6EFD0212107F38FE0208
:1015A30012107F4AFE0212107FC1FE0212107FD674
:1015B300DC0612107FF0DC0612107FFC7F00121095
:1015C3007FFFDC0612107FAED90612107FBED9064C
:1015D30012107FD3D90612107F3BDA0612107F4315
:1015E300D40612107FC7D40612107F2FD50612100F
:1015F3007F31CC0612107F45CC0612107FBBCC0680
:1016030012107F0ACD0612107F3FCD0612107F62A3
:10161300CD0612107F85CD0612107FBECD061210A7
:101623007FEFCD0612107F36CE0612107F4AD70603
:1016330012107FD1D70612107FDAD70612107F015E
:10164300D80612107F5AAF0612107F68AF06121029
:101653007FE1AF0612107FBAB00612107F7DB2068B
:1016630012107FC1FF0112107FECC20612107F36E9
:10167300C30612107FCCC30612107F52C406121089
:101683007F84C40612107F9CC40612107F10C50607
:1016930012107F26C50612107F39C50612107F432C
:1016A300C50612107FABC70612107FD6C7061210ED
:1016B3007F12C90612107F47C90612107F69C90637
:1016C30012107F369C0612107F609C0612107F78E2
:1016D3009C0612107F8F9C0612107FB89C06121076
:1016E3007F499D0612107F5A9D0612107FC29D06E8
:1016F30012107F219F0612107F20A00612107F9ADE
:10170300890612107FC6890612107F308C061210CC
:101713007F708C0612107FAC8C0612107FC08C0673
:1017230012107FD98C0612107FCB8D0612107F7E8C
:101733008E0612107F928E0612107FB1D106121000
:101743007FD5D10612107FEED10612107F2CD20660
:1017530012107F5CD20612107F89D20612107FEF1F
:10176300D20612107FF2D20612107FFCD20612109C
:101773007F09D30612107F45C00612107F65C0068D
:1017830012107FA4C00612107FC2C00612107FDDA4
:10179300C00612107F43C10612107F4FC1061210FC
:1017A3007FACC10612107FBBC10612107FDFC106DA
:1017B30012107FA0C20612107FADC20612107FBEA8
:1017C300C20612107F45DA0612107F8DDA06121058
:1017D3007FB9DA0612107FA0930612107FF49406E5
:1017E30012107F02950612107F15950612107F2A9C
:1017F300950612107F3F950612107F529506121020
:101803007FCE950612107F33960612107FC9960677
:1018130012107FA2970612107FB2970612107FC193
:10182300970612107F637F0012107F877F001210CC
:101833007FAF7F0012107FD77F0012107F56C5063F
:1018430012107F7DC50612107F9BC50612107F0AFA
:10185300C60612107F34BD0612107F4DBD0612104E
:101863007F59BD0612107F6DBD0612107F8BBD061A
:1018730012107F95BD0612107F9FBD0612107FB216
:10188300BD0612107F3CBE0612107FB1BE061210B9
:101893007FE5BE0612107F33BF0612107F80BF069E
:1018A30012107F9BBF0612107FA5BF0612107FCBBD
:1018B300BF0612107F30C00612107F49D8061210DF
:1018C3007F6BD80612107FE4FF0212107F008006A0
:1018D30012107F2C800612107F49800612107F5C45
:1018E300800612107F77800612107FD180061210B7
:1018F3007FFF800612107F13850612107F71860604
:1019030012107FA3860612107F06870612107F8BA4
:10191300880612107FB3880612107FC8880612103B
:101923007FD8880612107F18890612107F5A8906FD
:1019330012107F6A890612107F13D30612107F2DAF
:10194300D30612107F55D30612107F6ED3061210E2
:101953007F92D30612107FB0D30612107FC7D3062F
:1019630012107FF5D30612107F10D40612107F6673
:10197300DC0612107FD1AB0612107FE1AB0612100A
:101983007FE6AC0612107F18AD0612107F48AD0635
:1019930012107F6BAD0612107F82AD0612107FBC52
:1019A300AD0612107F21AE0612107F63AE06121031
:1019B3007FAAAE0612107FD7AE0612107F02AF06C3
:1019C30012107F4DD00612107F6DD00612107F814A
:1019D300D10612107F84D10612107FE9FE03121084
:1019E3007F1FFF0312107F37FF0312107F79FF035E
:1019F30012107F89FF0312107FCDFF0312107FD7D0
:101A0300FF0312107FF7F70312107F3AF803121047
:101A13007F9FF80312107FBEF80312107F60F90353
:101A230012107F69F90312107FBAF90312107FE3D2
:101A3300F90312107FF0F90312107F62FA031210F8
:101A43007FF0FA0312107F35FB0312107F6EFB0346
:101A530012107FD3FB0312107FFCFB0312107F7362
:101A6300FC0312107FC2FC0312107FFFFC03121051
:101A73007F34FD0312107F46FD0312107F58FD03D0
:101A830012107F77FD0312107F80FD0312107F3C3D
:101A9300FE0312107F7FFE0312107FBDFE031210A0
:101AA3007F96FF0512107FE2B20612107F22B40662
:101AB30012107F45B40612107F56B40612107F48E9
:101AC300B60612107FF3C90612107F29CA06121038
:101AD3007F71CA0612107FCACB0612107FA6EB01D4
:101AE30012107FCCEC0112107F08ED0112107FC69B
:101AF300EE0112107FF4EE0112107F5EF10112105D
:101B03007F9EF10112107F40F30112107FD6F30183
:101B130012107F30F40112107FC0F40112107F0401
:101B2300F50112107F46F50112107FABF60112107A
:101B33007F2BF80112107F6CFA0112107F9AFA01C1
:101B430012107FC6FA0112107FCFFA0112107F2CF8
:101B5300FB0112107FC5FB0112107FDCFE01121086
:101B63007F62FF0112107FBCDA0612107FD2DA0601
:101B730012107FDCDA0612107F58A00612107F6E57
:101B8300A00612107F12A10612107F51A106121097
:101B93007F6EA10612107F9FA10612107FECA10693
:101BA30012107F20A20612107F5BA20612107F5034
:101BB300A40612107F4AD60612107FA9D606121069
:101BC3007FE7D60612107F28D70612107F01D906A9
:101BD30012107F6FD90612107F8FD90612107F481B
:101BE300D50612107F59D50612107F71D506121033
:101BF3007F8CD50612107FA7D50612107FDCD50681
:101C030012107FF3D50612107FFAD50612107F0447
:101C1300D60612107F10D60612107F3EFF04121054
:101C23007FA5BA0412107FB1BA0412107F13BB044C
:101C330012107F1DBB0412107FACBB0412107FE88F
:101C4300BB0412107FE1BC0412107F3EBD041210CE
:101C53007FCCBD0412107F1DBE0412107F9DBE04F5
:101C630012107F51C00412107F29C10412107F2E5D
:101C7300C30412107F28C40412107F5AC504121023
:101C83007FACC70412107FEFC80412107F94C904FD
:101C930012107F42CE0412107F38CF0412107FCE71
:101CA300CF0412107FF3CF0412107F90D0041210D0
:101CB3007FADD00412107FCDD00412107F3BD1042E
:101CC30012107F58D10412107F86D10412107F1E88
:101CD300D30412107F3FD30412107FE5D3041210F4
:101CE3007F2DD40412107F8BD40412107F2ED504C1
:101CF30012107F93D50412107FF2D50412107FA423
:101D0300D60412107F13D70412107F4ED70412107B
:101D13007FC2D70412107F0DD90412107F9DDA04FD
:101D230012107F3CDB0412107F7CDD0412107FDE77
:101D3300DD0412107F0CDE0412107F2FE00412105A
:101D43007FD9E20412107FECE30412107F8E370078
:101D530012107F863A0012107FAB3C0012107FB541
:101D63003C0012107FD53C0012107F6D3D00121015
:101D73007F913E0012107F27400012107F12410016
:101D830012107FE2410012107F04420012107F19EB
:101D9300430012107F1F450012107F4645001210AA
:101DA3007F89450012107FAA450012107F40520020
:101DB30012107F53530012107F56540012107F5598
:101DC300570012107F135F0012107F3D6200121044
:101DD3007F06640012107FDD720012107F9873007B
:101DE30012107F01740012107F42A80612107FFDAB
:101DF300A80612107F63A90612107F84A906121089
:101E03007F5FAA0612107F43BC0512107F72BC05C8
:101E130012107FF6BC0512107F59BE0512107F43C6
:101E2300BF0512107FFFC00512107F24C1051210D9
:101E33007F76C10512107F08C20512107F54C205B8
:101E430012107F67C20512107FC4C20512107F9162
:101E5300C30512107F03C40512107F3AC405121084
:101E63007F83C40512107F2BC60512107F0AC70596
:101E730012107F58C80512107F3BC90512107FC787
:101E8300C90512107F00CA0512107F1FCA05121060
:101E93007F6ACA0512107F8ACA0512107F47CB05D5
:101EA30012107F6ACC0512107FC5CC0512107F0B70
:101EB300CD0512107F13CE0512107FAED005121080
:101EC3007FD4D00512107F4FD10512107F74D10536
:101ED30012107FE8D10512107FC6D20512107F04BD
:101EE300D30512107F8ED30512107F75D4051210FF
:101EF3007F78D40512107F82D40512107F8CD4050D
:101F030012107FA8D40512107F1AD50512107F5323
:101F1300D50512107F7FD50512107FA6D5051210A7
:101F23007FCAD50512107F05D60512107F78D60516
:101F330012107FACD60512107FB6D60512107FF2B1
:101F4300D60512107F27D70512107F46D70512102A
:101F53007F20DC0612107F38DC0612107FF9FF01A8
:101F630012107F74A00512107F97A00512107FF541
:101F7300A10512107F3EA20512107FAAA20512101E
:101F83007F08A30512107F0BA30512107F5CA30526
:101F930012107FD1A30512107F61A40512107F6474
:101FA300A40512107FE5A40512107F26A5051210C3
:101FB3007F4BA90512107FF5AA0512107F49AB05C7
:101FC30012107FD8AE0512107F10B00512107FE4F7
:101FD300B00512107F4EB10512107F78B1051210B3
:101FE3007F31B30512107F14B50512107FC3B505F9
:101FF30012107F60B60512107F4BB70512107FB326
:10200300B90512107F0DBB0512107F7BBB051210A3
:102013007F79D70512107F23D80512107F8ED8053C
:1020230012107FA9D80512107F2AD90512107F84B8
:10203300D90512107FCBD90512107F2ADA051210A9
:102043007F3CDB0512107F65DE0512107F95DF05EF
:1020530012107F1DE00512107F26E20512107FD8B3
:10206300E20512107F72E30512107F43E40512109C
:102073007FFEE50512107F9CE70512107F29E80516
:1020830012107F4FE90512107F5FD50312107FC234
:10209300D50312107F0AD60312107F4ED6031210F7
:1020A3007FA9D60312107F06D70312107F41D703EF
:1020B30012107FC3D70312107F1DD80312107F9B0A
:1020C300D90312107F13DA0312107F30DB031210CF
:1020D3007F58DB0312107FABDC0312107FBCDC03E1
:1020E30012107FD4DC0312107FDDDD0312107FBAE0
:1020F300DE0312107FB7DF0312107FDBDF03121042
:102103007FF2DF0312107F13E00312107F35E00329
:1021130012107F54E00312107F2CE10312107F860C
:10212300E10312107F1DE40312107F76E403121003
:102133007F95E40312107F85E50312107FBBE5034F
:1021430012107FA0FC0512107F6DE70312107FA908
:10215300E70312107FE3E70312107F52E803121024
:102163007FB8880512107FDFEA0312107FECEB03C0
:1021730012107F64ED0312107F5AEF0312107FD009
:10218300F10312107FAAF30312107F6BF4031210F2
:102193007FE3F40312107FFAF40312107FF1F503C7
:1021A30012107FE5F60312107F54F70312107FE934
:1021B300B90612107F99BB0612107F58BC06121085
:1021C3007FC0BC0612107F2C820512107F7BA406F1
:1021D30012107FBFA40612107FE5A40612107F0C15
:1021E300A50612107F24A50612107F3CA506121027
:1021F3007FDEA50612107F20A60612107F43A706D6
:1022030012107F4CA70612107F55A70612107F5E8F
:10221300A70612107F68A70612107F89A70612105F
:102223007FA68E0612107FE4920612107FF29206AA
:1022330012107FF7920612107FDACE0612107FAAD1
:10224300DC0612107F32DB0612107F42DB0612100F
:102253007FF2970612107FA2920112107FD492018F
:1022630012107F40930112107FDB930112107F7ACB
:10227300940112107FBF940112107FE19401121098
:102283007FFA940112107F20950112107F4295016D
:1022930012107F80950112107FC4950112107FE602
:1022A300950112107F48960112107F0F97011210AB
:1022B3007FC6970112107F38980112107F0A990187
:1022C30012107F54990112107FA7990112107F0DEC
:1022D3009A0112107F479A0112107F999A011210E6
:1022E3007FB59A0112107FE09A0112107FE79C01DB
:1022F30012107F3B9E0112107F5D9E0112107F9191
:102303009E0112107FB29E0112107FC19E01121016
:102313007FCC9E0112107F7C9F0112107FE59F01ED
:1023230012107F92A00112107FCAA00112107F9099
:10233300A10112107F9DA20112107FE7A2011210CA
:102343007F76A30112107FDAA30112107F15A40177
:1023530012107F81A60112107FD5A70112107F0EE4
:10236300AB0112107FDBAB0112107F69AC011210BD
:102373007F92AC0112107F04AD0112107F98AD0162
:1023830012107FF6AD0112107FE8AE0112107F0A22
:10239300AF0112107F66B00112107F7FB0011210DF
:1023A3007F92B00112107F01B10112107F0DB201B3
:1023B30012107F1AB20112107F23B20112107FFB99
:1023C300B30112107F21B50112107F31B501121034
:1023D3007F33B60112107FAAB60112107FD9B6015E
:1023E30012107FEEB70112107FBAB90112107F925B
:1023F300BD0112107F9CBD0112107FB0BD011210F0
:102403007FBABD0112107FC4BD0112107FCEBD0182
:1024130012107FE7BD0112107FF1BD0112107F651D
:10242300BE0112107F70BE0112107F95BE01121003
:102433007FA0BE0112107FEEBE0112107FF8BE0115
:1024430012107F03BF0112107F27BF0112107F4BB1
:10245300BF0112107FA7BF0112107FEDBF01121041
:102463007F0AC00112107F87C00112107FBEC00116
:1024730012107FFDC00112107F4AC10112107FCCE0
:10248300C10112107F65C20112107F35C401121001
:102493007F93C40112107FAFC50112107FD5C50110
:1024A30012107F14C70112107F3ACA0112107F7BEA
:1024B300CC0112107F57CE0112107FEDCE01121006
:1024C3007F14D10112107FC0D10112107FF5D10109
:1024D30012107F5AD20112107F64D20112107F8E24
:1024E300D40112107FB5D50112107FF5D50112105A
:1024F3007F9BD60112107F2CD80112107FB5D90112
:1025030012107FD5D90112107F2EDA0112107F30FD
:10251300DB0112107F7ADB0112107FCADB0112107C
:102523007FB4DC0112107F29DD0112107F43DE012D
:1025330012107FBEDE0112107FC3DF0112107F6E07
:10254300E20112107F8DE20112107FEEE3011210FF
:102553007FB0E50112107F04E60112107FBCE60193
:1025630012107F6BE70112107FC1E70112107F7712
:10257300E80112107F0CE90112107F78E9011210B3
:102583007FB2E90112107FE3E90112107F3FEB01F3
:1025930012107F00800312107F32800312107F69B4
:1025A300800312107F52820312107F3583031210AF
:1025B3007F8D830312107FC8840312107F14850359
:1025C30012107F3C880312107F9E8B0312107FEB47
:1025D3008C0312107F818D0312107F8D8D031210D7
:1025E3007FBF8D0312107F418F0312107FDC900396
:1025F30012107F84910312107FC7910312107F2D55
:10260300920312107F4A920312107F7A92031210E0
:102613007FAF920312107F7F930312107F289403DE
:1026230012107FAC960312107FCC970312107FB564
:10263300980312107F37990312107F569D031210CF
:102643007F939D0312107FEB9D0312107F1E9E0349
:1026530012107F9F9E0312107FEC9E0312107F7750
:102663009F0312107FC99F0312107FA0A0031210B3
:102673007F59A10312107FF4A10312107F0DA5034C
:1026830012107F2DA60312107FDAA90312107FF810
:10269300AA0312107FFBAA0312107F2AAB031210A6
:1026A3007F30AD0312107F09AE0312107F3EAE03DD
:1026B30012107F46AF0312107FFCAF0312107F9DF1
:1026C300B10312107FC2B10312107F01B2031210C3
:1026D3007F73B20312107F57B30312107F24B40326
:1026E30012107F5AB60312107FCBB60312107F0B62
:1026F300B70312107F6CB70312107F2FBB031210A6
:102703007F1EBC0312107F05BD0312107F7DBD0326
:1027130012107F3FBE0312107F3DC00312107F557E
:10272300C00312107F69C00312107FA1C0031210EF
:102733007FCFC00312107F56C20312107F61C30301
:1027430012107FB3C30312107F14C40312107FC689
:10275300C40312107FEDC40312107FD1C5031210FE
:102763007F82C60312107F71C80312107FA6C803AD
:1027730012107F0EC90312107F3DCA0312107FEFA0
:10278300CA0312107F20CB0312107F38CB03121021
:102793007FC7CB0312107F7BCE0312107F53D0036E
:1027A30012107F6FD00312107F8BD00312107F594A
:1027B300D10312107F3DD50312107F008002121047
:1027C3007F38800212107F16850212107F5C85020B
:1027D30012107FA9860212107F14870212107F9DA8
:1027E300880212107FAD8B0212107FC88C02121068
:1027F3007FDA960212107F6D970212107FBF9A0242
:1028030012107FBB9B0212107F169C0212107F6076
:102813009D0212107F4E9E0212107FEAA002121038
:102823007F5EA20212107FE1A20212107FE4A202D5
:1028330012107F59A30212107F63A30212107F703C
:10284300A30212107F9BA30212107F4BA40212104B
:102853007F44A50212107FEFA50212107F0DA6027E
:1028630012107F26A60212107F4FA60212107F714C
:10287300A60212107FC6A80212107F8BA9021210A3
:102883007FD0A90212107F4FAA0212107FFBAA0267
:1028930012107F2DAB0212107F81AB0212107FBC8E
:1028A300AB0212107F03AC0212107F53AC02121062
:1028B3007F58AC0212107FACAC0212107FD8AC026E
:1028C30012107FC1AD0212107F12AE0212107F727E
:1028D300AE0212107FCCAE0212107F67AF0212104D
:1028E3007FA6B20212107FB8B30212107F32B50274
:1028F30012107F42B80212107FE0B80212107FD686
:10290300BB0212107F95BC0212107FD9BC021210B9
:102913007F84BE0212107F98BE0212107FA2BE02F5
:1029230012107FACBE0212107FB8BE0212107FDD00
:10293300BE0212107FB6C00212107F0BC10212102A
:102943007F15C10212107F1FC10212107F94C102B2
:1029530012107FE3C10212107FF4C20212107F41F2
:10296300C30212107F4EC40212107F92C4021210CF
:102973007F38C50212107F2BC60212107FF1C602E8
:1029830012107F14C80212107F32C90212107F1A6C
:10299300CA0212107F32CA0212107F89CA021210B1
:1029A3007F93CA0212107F9ECA0212107FBCCA0212
:1029B30012107F04CB0212107F66CB0212107F8DA0
:1029C300CB0212107F9FCB0212107F3ACC0212105F
:1029D3007F6FCC0212107F56CD0212107F9BCD0267
:1029E30012107F81CE0212107FA8CE0212107F2B0D
:1029F300CF0212107F9CCF0212107F25D10212103A
:102A03007F51D20212107F14D30212107FDCD30243
:102A130012107F66D40212107F8ED50212107F30FF
:102A2300D60212107FABD60212107F67D7021210A4
:102A33007FB1D70212107F0BD80212107FE3D802A6
:102A430012107F06D90212107FB9D90212107FDB50
:102A5300D90212107F44DA0212107F5ADC021210DC
:102A63007F52DD0212107F16DE0212107F48E00251
:102A730012107F92E00212107FE2E00212107F46F2
:102A8300E10212107FA8E10212107FD6E1021210B8
:102A93007FFAE10212107F2FE20212107F60E2023E
:102AA30012107F93E20212107FE3E20212107F36CC
:102AB300E30212107F5BE40212107FFBE5021210A7
:102AC3007F56E60212107F7FE60212107F0CE702A8
:102AD30012107F7AE70212107F88E70212107FAC90
:102AE300E70212107F01E80212107F1CE8021210A5
:102AF3007FCEE80212107F06E90212107F49E90235
:102B030012107FACE90212107FAEEB0212107FD8D5
:102B1300EB0212107FCFEC0212107FD9ED021210DC
:102B23007F89EE0212107F47740012107F7F7400BA
:102B330012107FA0740012107FE2740012107F4401
:102B4300750012107F4E750012107F5E7500121013
:102B53007F99750012107F79790012107F667B00D0
:102B630012107F4C7D0012107FE37D0012107F85D1
:102B73007E0012107F96800412107F418104121090
:102B83007FEF810412107FF5820412107F158304F6
:102B930012107F3E840412107FF9850412107F6C9B
:102BA300860412107F10870412107F1C88041210F1
:102BB3007F87880412107FC3880412107F0689045C
:102BC30012107F41890412107F83890412107F1829
:102BD3008A0412107F948A0412107F5E8B041210F1
:102BE3007F3B8C0412107FD38C0412107FED8C0476
:102BF30012107F1D8D0412107F4E8D0412107F144E
:102C03008E0412107F248E0412107F738E04121010
:102C13007F808E0412107F898E0412107F078F0429
:102C230012107F638F0412107FAE8F0412107FC9BE
:102C33008F0412107FF48F0412107F11900412106E
:102C43007F1D900412107FB4910412107FCD910464
:102C530012107F52920412107F65920412107F8427
:102C6300920412107F28930412107FA99404121067
:102C73007F5C960412107FF2960412107FF596047F
:102C830012107F65970412107F83970412107F1A26
:102C9300980412107F62980412107F659804121032
:102CA3007F2B990412107F98990412107FBE990408
:102CB30012107F499A0412107F679A0412107FAD95
:102CC3009A0412107F619B0412107FAB9B041210B5
:102CD3007FDA9B0412107F379C0412107F6C9C04D4
:102CE30012107F989C0412107FA69C0412107FF38D
:102CF3009C0412107F639D0412107FAC9D0412107C
:102D03007FF89D0412107F249E0412107F2F9E04CF
:102D130012107F4D9E0412107F389F0412107F42C1
:102D23009F0412107F7D9F0412107F8D9F04121049
:102D33007FE19F0412107FF59F0412107F24A104EA
:102D430012107F39A10412107FC7A10412107F0C47
:102D5300A20412107F98A20412107FA3A2041210DF
:102D63007FE5A30412107F00A40412107F4CA40477
:102D730012107FBBA40412107FF4A40412107F0E60
:102D8300A50412107F6EA50412107F0DA604121065
:102D93007F58A60412107F28A90412107FDAA90411
:102DA30012107F47AA0412107F87AC0412107F9F72
:102DB300AC0412107FA2AC0412107FAEAC0412104C
:102DC3007FC2AC0412107FCAAC0412107FFDAC04A6
:102DD30012107F00AE0412107F8DAE0412107FFD1F
:102DE300AE0412107F7FAF0412107F40B0041210A4
:102DF3007F5FB00412107F00B10412107F5DB10435
:102E030012107F60B10412107FD4B10412107F231B
:102E1300B30412107F29B40412107FB4B404121047
:102E23007FCFB50412107F97B60412107FC8B60483
:102E330012107FEBB60412107FF4B60412107F2336
:102E4300B70412107FB3B70412107F69B8041210CD
:102E53007FDEB80412107F85B90412107FFAB9041B
:102E630012107F31BA0412107F6FBA0412107F88D8
:102E7300880512107F03FC0512107FF9FB05121061
:102E83007FEFFB0512107F88FB0512107F6DFB059A
:102E930012107FCAFA0512107FCAF90512107FE8D3
:102EA300F80512107FD8F60512107FE6F50512100B
:102EB3007F84F50512107FDC870512107F07E90375
:102EC30012107F2AFF0412107F20FF0412107F804C
:102ED300810512107FEE800512107FB5FE041210DB
:102EE3007FE9FC0412107FA7FC0412107FB3FB04DC
:102EF30012107F87FB0412107F3EFB0412107F7FAA
:102F0300FA0412107F57F70412107FFBF404121017
:102F13007FCBF40412107F7BF40412107F15F404AA
:102F230012107FD4F30412107F06F30412107FA053
:102F3300F20412107F3FF20412107FDFF10412102B
:102F43007F7DF00412107F11F00412107F65EF04EF
:102F530012107F60EF0412107F49EF0412107FA854
:102F6300800512107F14EF0412107F738005121076
:102F73007F40800512107F2B800512107F00800593
:102F830012107F50FF0512107F1CFF0512107FA641
:102F9300EB0412107FA3EB0412107F61EB041210F9
:102FA3007FC5FE0512107F4EEB0412107F43EB0426
:102FB30012107F12EB0412107F0AE90412107F75BE
:102FC300850512107F7DE80412107F5DA4061210A0
:102FD3007F39E80412107F0DE80412107F14F50501
:102FE30012107FE7F40512107FB4F40512107F8CE2
:102FF300F40512107F2DF40512107F0DF405121045
:103003007FD8F30512107F84F00512107F6CEE0554
:1030130012107F56EC0512107FD6EB0512107F823B
:10302300EB0512107F8EEA0512107F4EFD0512107C
:103033007F36EB0512107FEEE60300000080FB00F5
:1030430000228F000100A21D87000100A01D350092
:103053000400661D250002006A1D260002006C1D87
:10306300270002006E1D28000100781D29000100C1
:10307300791D84000400521A86000100CC1C2A002A
:1030830001007A1D2B0001007B1D2C000100801D17
:103093002D000800601A2E000100811D2F00010081
:1030A300821D30000100831D31000100841D3200A8
:1030B3000100681A33000100691A34000100851DFC
:1030C300360001006A1A38000100861D390001002C
:1030D3007F1D830002009E1D63000100751A6400BA
:1030E30001007C1D650001007D1D6D000100761A45
:1030F30071000800581A660001009D1D430001007D
:103103008E1D440002008F1D45000100911D4600E5
:103113000200921D470008006D1A48000100941D2B
:103123004B000100951D04000100A11DA100010039
:10313300A51D37000100A41D88000100A31D3C004C
:1031430001006B1A3D000100871D49000200961D16
:1031530067000100771A4D000200981D4E00010020
:103163009A1D4F0002009B1D3E0001008D1D510062
:103173000100891D520001008A1D530001008C1DAE
:10318300540001006C1A0000000000000000000061
:1031930020019A92000001002001A1920000020088
:1031A30020019C920000030020019B920000040078
:1031B3004201DF8F000005004201978E00000600E8
:1031C3004201C990000007003001A09200000040B6
:1031D300420184910000FDFF210196920A0007003D
:1031E300230128190300000021231A190300FDFFFE
:1031F300214196920D04000039051C190D0421028A
:1032030021231E1D0D0422022123201D0D04200253
:103213001023221D0D0425021023231D0D0411026A
:103223001023151D0D0401041023161D0D040504A0
:103233002023171D0D0406042023181D0D0402046A
:103243001023191D0D044404210122190D04450402
:103253002023351D00013636010100010201000162
:103263000301000104010606050200000701003402
:103273000801000F090401010D0100FF0E08000001
:1032830017020000190100FF1A0100011B0100FED3
:103293001C0100081D0200001F01000120010001A4
:1032A300210200002301000F240200002601000177
:1032B30027010008280200FF2A0100072B01024012
:1032C3002C0100002D0100012E0100012F0100FF40
:1032D30030010B1D310800003A0100083B01000FCB
:1032E3003C0100013D0100FF3E04000042040000D8
:1032F300460400004A0400004E040000520400008B
:10330300560400005A040000010371030103010382
:10331300010301030103220302030103100300035A
:103323000003000300030003000300034203000340
:1033330024030603000300030403120325032303EA
:1033430025032303040304030003000300034403CE
:1033530000030003230300036503210035038103F6
:1033630000030503000300030003000325032303F5
:1033730003027102300160021102700201020202B3
:1033830002028002100261023A00410063027302EA
:1033930072026202430200021302380000020002BA
:1033A30004021202000200020002000204020402EC
:1033B300370037003C0244020002390000020002D9
:1033C30065020002350281020002050282028302C5
:1033D300000203007100300160001100700031022F
:1033E30020035004800010006100000014006300FB
:1033F3007300720062004300000013000600000027
:10340300000004001200000000000000000004009F
:103413000400370037003C024400000000000000B5
:103423000000650000003500810000000500000079
:10343300830000000101710101010101110101017A
:103443003101010101018001100161013B00140000
:10345300630173017201620143010001130106015B
:103463003D013500040112010001000100010001CA
:1034730004010401330133013C01440132013600EC
:103483000001000165010001350081010001050112
:103493008201830100010304710402046004110426
:1034A3007004020402040104020410046104000411
:1034B30014046304730472046204430400041304D5
:1034C30006040004000404041204000400040004BD
:1034D30000045104640000040004000444040004D4
:1034E300000400040004650400043504810464003E
:1034F30005040004830400043600010006000000F4
:103503000F0000000000000000000000000003FFA7
:10351300FF00000403FFFF0000FFFF0FF40100059D
:10352300C4040320000100000B00000000000000A1
:103533000003010F00000000000000000000000075
:103543000000000000000000000000000000000078
:103553000000000000000B1D351D111D3F1C171D31
:103563003B1D171D471D1D1D3F1C171D3B1D231D07
:103573003F1C00000000291D3F1C0000000000004C
:1035830000002F1D3F1C0000000000000000000091
:103593000000000000000000000000000000000028
:1035A3000000000000000000000000000000000018
:1035B30000001300DB1F1F00E11F1F80E71F000037
:1035C3004120010041200200871F0280811F030068
:1035D3008D1F0400931F0480991F05009F1F060081
:1035E300AB1F3100BD1F3300C31F3400C91F36009A
:1035F300CF1FFFFF00000A000000020000000400CC
:10360300000008000000100000002000000040003F
:103613000000800000000001000000020000000420
:10362300000000080000001000000020000000401F
:10363300000001F7270627280821280B45281045F5
:103643002502FD270515280703280CDF270DEB2787
:10365300643B23FF00000300030004000800100084
:103663001F003E007B00F600EC01D703AF075D0FA0
:10367300B91E713D0000020400002905241902044B
:10368300100229231A1D050400002105261905042B
:10369300100229231C1D07ECFDFDFDECDCDCCCBC7A
:1036A300ACAC9C9C8C7C7C6C6C5C5C5C4C4C3C3C07
:1036B3002C2C1C1C00160F00000B150B0200022201
:1036C3000F3300000E0F0000000000000000000098
:1036D3000000000000005A6967426565416C6C692F
:1036E300616E63653039D0D1D2D3D4D5D6D7D8D98A
:1036F300DADBDCDDDEDF150AF4D4C0A59582726364
:103703006155504900034D4C4651181A25050230A6
:103713003017181921301B1D1F30003C40423A3F1F
:103723003F392F47300001191618161618230300C6
:10373300303016181920231A1C1E300C0E020B04ED
:103743000B0A0708000F020402010101010902002C
:10375300BE040AE8030000F6FB010003000000E8D2
:1037630003000099360E007F00F9360C0504041E91
:103773001010080A28FF00190402040009033C0C76
:10378300090508150800FF030C031E74F6120B7ECF
:10379300E9FEE4F508F509780812109C7C247D0005
:1037A3007A017B04121B4974021210CAE9F87409E6
:1037B30068702375081575091D780812109C750823
:1037C30024750900780812109C7C007D007A017B27
:1037D30004121B558024E8702675081575091D7899
:1037E3000812109C750824750900780812109C7C37
:1037F300007D007A017B04121B5B74041210CA90D3
:103803001A16E4F0EE9018B6F07A397B1D122FD118
:103813007A057B1D901D39E0F9121DE97C8F7D31FE
:1038230090377AE493FA901D39E0F9121C4B7A45EC
:103833007B1D122FD17A057B1D901D45E0F9121DCA
:10384300E97C797D3690377BE493FA901D45E0F966
:10385300121C4B7C5F7D1D7A007B00901D39E0F9C3
:10386300121C517C5F7D1D7A007B00901D45E0F9A1
:10387300121C519018B6E0F9121C2D9018B6E0F9FD
:103883001219E17ADD7B1D122E817508167509194F
:10389300780812109C750858750902780812109C54
:1038A300E4F508F509780812109C7C007D007A0D78
:1038B3007B0479011214A174061210CA7508FD75F0
:1038C300091C780812109C750858750902780812AB
:1038D300109C75080F750900780812109C7C007DF8
:1038E300007A027B0479021214A174061210CA75BD
:1038F300080175091D780812109C7508587509028E
:10390300780812109C75080F750900780812109C2E
:103913007C007D007A057B0479021214A1740612DF
:1039230010CAD2927A327B001215917A327B00123E
:1039330015911215F1121BDF7A327B0012159112C9
:1039430016C3121D95750830780812109C7508541B
:10395300780812109C7508F8750981780812109C74
:1039630079017C007D007A007B001216ED7406124B
:1039730010CA1216F31216F97AC47B091215917A3A
:10398300C47B09121591750819750900780812107E
:103993009C780812109C7508D8750989780812104C
:1039A3009C79017C0B7D007A1E7B001216ED740658
:1039B3001210CA1216F31216F97AAC7B0D12159176
:1039C3001216CF7AD77B1D121BCDD293D292C2840B
:1039D3007ADC7B05121591D293C284C2927ADC7B86
:1039E30005121591D284D293C2927ADC7B0512150B
:1039F30091D284D292C2937ADC7B05121591D28440
:103A0300C293C2927ADC7B05121591901D19E06076
:103A130004790180027900121BD37A019018B6E071
:103A2300F9121B73909220120EFB7A107B009018F0
:103A3300B6E0F9121B9774041210CA909224120E66
:103A4300FB7A007B019018B6E0F9121B97740412FD
:103A530010CA909228120EFB7A007B109018B6E0E1
:103A6300F9121B9774041210CA90922C120EFB7A4F
:103A7300007B049018B6E0F9121B9774041210CA65
:103A8300023D6874F0120B7EEAFEEBFF5480600384
:103A9300023B5DEE54107003023BFE9018BCE064E1
:103AA300D07004A3E064077003023BD5901D18E0B7
:103AB300C39418400574171241DA901D17E0C3949C
:103AC30018400574171241DA9018B9E0FA901D18DE
:103AD300E0FC901D17E0F8C3EC123C9B4003023B53
:103AE300BC123C994003023BC9023BC1EA2417F8CC
:103AF300E43509F9880A890B8882F5831252386004
:103B0300528A828B83A3A3A3A3A3A3A3A3E0640AE0
:103B13007002A3E0703188828983A3A3A3A3A3E0E7
:103B2300F8A3E0F5838882780C121385901928781E
:103B33000C1213679018CD780C121367AA0CAB0DF7
:103B4300AC0EAD0F121AAD850A82850B83123D456B
:103B5300121AD7AA08AB09121A299018B6E0F9125B
:103B63001A3B8A088B09EA450960468A828B83E0FF
:103B730024CC7003023AEF247470D8A3A3A3E0F516
:103B83000B8A828B83A3A3E0F50A901CCDE064012A
:103B93007007AA0BA90A1215A3AA0BA90A12157377
:103BA300E50AA2E650AD9018C37401F0121D83809C
:103BB300A2EEFAEF6480023C90123C99400FC3EAF4
:103BC3009C123C9C50079018CA740180049018CA38
:103BD300E4F09018C2E0C394075018E004F0901D7D
:103BE30019E06004790180027900121BD39018C395
:103BF3007401F0121D83EE64108058EF5404600BBF
:103C0300121BD9EEFAEF6404023C90EF5401601EDC
:103C1300909270120EFB7A807B009018B6E0F91236
:103C23001B9174041210CAEEFAEF6401805FEE5424
:103C3300406008121D65EE64408018EE5420600851
:103C4300121D71EE6420800BEE5480600A121D7702
:103C5300EE6480FAEF8036EF5410600D123D42128D
:103C63001DB3EEFAEF64108024EF540860229092A3
:103C730088120EFB7A007B089018B6E0F9121B91AC
:103C830074041210CA121DE3EEFAEF6408FB8004F9
:103C93007A007B00800DC3EA9895E0C365D0332298
:103CA3001210CA7F08020E30C082C083121D650243
:103CB30041FDC082C083909230120EFB7A407B009C
:103CC3009018B6E0F9121B9174041210CA7900021D
:103CD30041FD74F6120B7E75081575091D780812DF
:103CE300109C750824750900780812109C7C007DCF
:103CF300007A017B04121B5574041210CA901D35FF
:103D03001241D0A3E0687003A3E069600B901D37F4
:103D1300E8F0A3E9F0121D95901D15E0F8901D241D
:103D2300E068600E901D15E0901D24F0123D4212D4
:103D33001DA71240F96006123D42121DA78026906E
:103D43001920E0FAA3E0FB22780812109C79017C89
:103D5300007D007A007B001216ED74061210CA1261
:103D630016F31216F97F02020E3074F0120B7E74F2
:103D7300F812116274041213F812544585218285D6
:103D83002283125446AC21AD22740412115212162E
:103D9300AB901D1C125744120A97852182852283FA
:103DA300780C1213857808790C1201D29091E4787B
:103DB3000C1213857808790C1205D278081208546E
:103DC30090192612544E901D1A125744120A9790B6
:103DD3009234780C1213857808790C1203EC74046E
:103DE3001213F8780C1213857808790C1201D2900B
:103DF30091E4780C1213857808790C1205D27808AF
:103E030012085490192412544E901CCDE060169061
:103E13001924E024E4F0A3E034FDF0A3E024E8F067
:103E2300A3E03403F0901924125744120A97909296
:103E330034780C1213857808790C1203EC909238BD
:103E4300780C1213857808790C1201D278081208BD
:103E5300549018C612544E901926127389120AB23E
:103E63009091E4780C1213857808790C1203EC9086
:103E73009238780C1213857808790C1201D27808DD
:103E83001208549018C812544E7408023CA374F4D8
:103E9300120B7E9018C01240F1601B14603914603D
:103EA3003F147003023F39147003023FAA147003D6
:103EB300023FAF023FB7121D7D9018C3E06401704B
:103EC30006121D8F023FD87C007D007A0D7B049083
:103ED3001D39E0F9023FA51216A5121D6B023FD84A
:103EE3009018C3E0640170467A0B7B00121AD18AE2
:103EF300088B09EA45097003023F92123FFA7429BD
:103F03001244EF7424F0A37419124012741AF0A32C
:103F1300741D12450F1210A0750A01780A1210A021
:103F2300780A1210A0780812109C7C0280517C0041
:103F33007D007A0280689018C3E06401705A7A0B9E
:103F43007B00121AD18A088B09EA45096041123FA6
:103F5300FA74211244EF7426F0A3741912401274F8
:103F63001CF0A3741D12450F1210A0750A01780AE4
:103F73001210A0780A1210A0780812109C7C057DFC
:103F8300047AD27B187902121C8174051210CAAA12
:103F930008AB09121AD7803D7C007D007A057B04AB
:103FA30079021214A7802E121D898029123D421214
:103FB3001DA78021E4F09018C3E06401703490924F
:103FC3003C120EFB7A807B009018B6E0F9121B912D
:103FD30074041210CA9018C0E0601790921C120E5D
:103FE300FB7A207B009018B6E0F9121B917404123F
:103FF30010CA7F04020E308A828B837402F0A3E41A
:10400300F0A312400922F08A828B83A3A3A3221276
:1040130044F3A3A37410F0A374021245007429128D
:104023004500A32274F6120B7E74FF1211629018DE
:10403300C11240F160091470030240D50240E97ACD
:104043000C7B00121AD18A088B09AE08AF098E8245
:104053008F83E4F0A31241047402124104A314F009
:10406300852182852283F01213F87407F0A3E4F00C
:104073009018D11240F1F50878081210A0750801C4
:1040830078081210A075080078081210A0740312A3
:10409300114A88088909780812109C7C0A7D0079E6
:1040A30001121C6374051210CAEEFAEFFB121AD741
:1040B3009018C1E06017909270120EFB7A807B001B
:1040C3009018B6E0F9121B9174041210CA7401021D
:1040D3003A801240F960D9E8F060077901121BD3E6
:1040E30080CE790080F7E4F09018C3F080DFE0F829
:1040F300740128F0E822901D19E0F8901D26E0686D
:1041030022F08E828F83A3A3A3A3A3A3A3A322C07E
:1041130082C083901D15E0F8901D24E068600A902A
:104123001D15E0901D241241DA901D1E1241D090FE
:104133001D2BE0687003A3E0696006901D2B1241FC
:10414300D6901D201241D0901D2DE0687003A3E08E
:10415300696006901D2D1241D6901D22E0F8901D36
:104163002FE0686004E81241DA901D23E0F8901D07
:1041730030E0686004E81241DA901D16E0F8901D03
:1041830025E068600B9018C37401F0E8901D25F0DA
:10419300901D1A1241D0901D27E0687003A3E069B7
:1041A3006006901D271241D6901D1C1241D0901D10
:1041B30029E0687003A3E0696006901D291241D6C7
:1041C3001240F960069018C37401F0802DE0F8A343
:1041D300E0F922E8F0A3E9F09018C37401F022C0DB
:1041E30082C083909270120EFB7A207B009018B6E7
:1041F300E0F9121B9174041210CAD083D08202100A
:104203007C74F6120B7E901D22E06401600302436E
:104213000D9019201241D0901D1EE0FCA3E0FDC3B8
:10422300EC98ED99500E9018C4E070087401F0906A
:1042330018C5E4F0901D2012572FE89AE99B500E01
:104243009018C5E070087401F09018C4E4F0C3EC52
:1042530098ED99500A901D23E0640160528012C3C7
:10426300E89AE99B4003024316901D23E064017022
:104273003E122EC3E9F9E4F508F509780812109CFB
:10428300780812109CE9F50878081210A0E4F508E4
:10429300780812109C75080178081210A0750800A0
:1042A30078081210A075080178081210A0803F1238
:1042B3002EC3E9F9E4F508F509780812109C78088B
:1042C30012109CE9F50878081210A0E4F5087808A4
:1042D30012109C75080178081210A0750800780860
:1042E3001210A075080178081210A075080078084C
:1042F3001210A07C067D007AD27B18901D39E0F95C
:10430300121C5D740B1210CA80099018C4E4F0905B
:1043130018C5F0023D6874F4120B7E901CCDE0705A
:10432300030244B97A3D7B00121AD18A088B09EA49
:10433300450970030244B28A828B83740C124000D5
:1043430074391244EF741CF0A374191244EFA3A33D
:104353007421F0A374021244FC74211244FCA3746C
:104363001EF0A3741DF0EA240B1244BC7422124401
:10437300E8240D1244C4240E1244BC7420F0A37428
:104383001DF0EA24101244BC74201244E8241212D3
:1043930044DC24131244BC7422F0A3741DF0EA24F9
:1043A300151244BC74251244E824171244DC241863
:1043B3001244BC7423F0A3741DF0EA241A1244BC03
:1043C30074111244E8241C1244DC241D1244BC74EE
:1043D30015F0A3741DF0EA241F1244BC74011245A6
:1043E3000824211244DC24221244BC7416F0A37462
:1043F3001DF0EA24241244BC7405F0A314F0EA244B
:10440300261244D024271244BC7417F0A3741DF061
:10441300EA24291244BC7406124508242B1244D002
:10442300242C1244BC7418F0A3741DF0EA242E1239
:1044330044BC740212450824301244DC2431124473
:10444300BC7419F0A3741DF0EA24331244BC744401
:1044530012450824351244C424361244BC7422F095
:10446300A37419F0EA24381244BC74451245082495
:104473003A1244D0243B1244BC7435F0A3741D1289
:10448300450F1210A0750A01780A1210A0750A00D0
:10449300780A1210A0780812109C7C0D7D047AD241
:1044A3007B18901D39E0F9121C8174051210CAAAF9
:1044B30008AB09121AD7023FF5F582E43509F583F3
:1044C30022F582E43509F5837421F0EA22F582E4CA
:1044D3003509F5837420F0EA22F582E43509F58382
:1044E3007410F0EA22F0A37402F0EA221244F322D9
:1044F3001244F722124009A322124500221244F764
:10450300A3A3A3A322F0A37404F0EA22F09018D18A
:10451300E0F8740128F0E8F50A780A22C082C08323
:10452300901D35C3E09429A3E094004009901D3504
:104533007428F0A3E4F0901D35E02428F91216C97D
:104543000241FD74F6120B7E750830750900780878
:1045530012109C750854780812109C7508E87509A8
:1045630085780812109C79017C007D007A007B001D
:104573001216ED74061210CA1216F31216F99018D9
:10458300C2E4F0023D6874F6120B7E7508307509BB
:1045930000780812109C750854780812109C75084E
:1045A300E0750987023D4B74E0120B7E74F512111E
:1045B30062EAFEEBFF125235600302521C9018C6EA
:1045C300123D45121DBF9018C8E0F9121DC5121DFA
:1045D300B9EEF8EFF97AE87B031209BEEAF8EBF9D2
:1045E3007A647B001209BEE8F50CEEF8EFF97A6401
:1045F3007B001209BEEAF8EBF97A0A7B001209BEC6
:10460300E8F50DEEF8EFF97A0A7B001209BE74069D
:104613001213F8EAF074091213F874D0F0A374912A
:10462300F074071213F8747DF0A3748EF0740412FF
:1046330013F87408F0A3748FF074021213F874DC87
:10464300F0A3748EF08521828522837460F0A374B5
:104653008FF0751EB0751F8E751CC6751D8E751671
:10466300F275178E75147675158F75128C75138FF9
:1046730075101E75118F750E34750F8F750A1875A9
:104683000B917508D675099075184A75198FC3EE85
:1046930094E8EF94034003024BA8751A05751B00B9
:1046A300781A12109C751A0B781A12109C7818122B
:1046B300109C79017C177D007A427B001216ED7401
:1046C300061210CA901D22E064016003024777902E
:1046D30018C4E064017041125226701A12109C75BE
:1046E300180B781812109C780812109C79017C2002
:1046F3007D007A42801812109C75180878181210E1
:104703009C780A12109C79017C207D007A447B00FE
:104713001216ED74061210CA9018C5E064017054A5
:10472300901D23E064017022750804750900780860
:1047330012109C750808780812109C780A12109CB5
:1047430079017C207D007A448020750A04750B0072
:10475300780A12109C750A0B780A12109C780812BA
:10476300109C79017C207D007A427B001216ED7447
:10477300061210CAE50C60301460441460581460CB
:104783007314700302481214700302482D1470034B
:1047930002484714700302486114700302487B14F3
:1047A30070030248950248BF75080D750900780823
:1047B30012109C75080B780812109C7408802C75D5
:1047C300080D750900780812109C75080B780812FB
:1047D300109C7406801575080D7509007808121071
:1047E3009C75080B780812109C74041213F8120EAF
:1047F300FF0248AD75080D750900780812109C7505
:10480300080B780812109C781E12109C0248AD7594
:10481300080D750900780812109C75080B780812AA
:10482300109C781C12109C0248AD75080D75090088
:10483300780812109C75080B780812109C781612D1
:10484300109C806675080D750900780812109C7518
:10485300080B780812109C781412109C804C750871
:104863000D750900780812109C75080B7808121052
:104873009C781212109C803275080D750900780817
:1048830012109C75080B780812109C781012109C5B
:10489300801875080D750900780812109C75080BAF
:1048A300780812109C780E12109C79017C177D00F9
:1048B3007A327B001216ED74061210CAE50D6030D1
:1048C30014604414605814607314700302495A143A
:1048D300700302497514700302498F14700302496F
:1048E300A91470030249C31470030249DD024A0785
:1048F30075080D750900780812109C75080B780867
:1049030012109C7408802C75080D75090078081224
:10491300109C75080B780812109C74068015750896
:104923000D750900780812109C75080B7808121091
:104933009C74041213F8120EFF0249F575080D75E5
:104943000900780812109C75080B780812109C78DF
:104953001E12109C0249F575080D7509007808129E
:10496300109C75080B780812109C781C12109C027E
:1049730049F575080D750900780812109C75080B28
:10498300780812109C781612109C806675080D75B5
:104993000900780812109C75080B780812109C788F
:1049A3001412109C804C75080D75090078081210BC
:1049B3009C75080B780812109C781212109C803298
:1049C30075080D750900780812109C75080B780896
:1049D30012109C781012109C801875080D75090030
:1049E300780812109C75080B780812109C780E1228
:1049F300109C79017C177D007A257B001216ED74DB
:104A0300061210CA74061213F8E0603014604414DE
:104A13006058146073147003024AA6147003024AA8
:104A2300C1147003024ADB147003024AF5147003C5
:104A3300024B0F147003024B29024B5375080D757B
:104A43000900780812109C75080B780812109C74E2
:104A530008802C75080D750900780812109C7508DC
:104A63000B780812109C7406801575080D750900E3
:104A7300780812109C75080B780812109C740412A5
:104A830013F8120EFF024B4175080D7509007808E3
:104A930012109C75080B780812109C781E12109C3B
:104AA300024B4175080D750900780812109C7508B2
:104AB3000B780812109C781C12109C024B4175084D
:104AC3000D750900780812109C75080B78081210F0
:104AD3009C781612109C806675080D75090078087D
:104AE30012109C75080B780812109C781412109CF5
:104AF300804C75080D750900780812109C75080B19
:104B0300780812109C781212109C803275080D756B
:104B13000900780812109C75080B780812109C780D
:104B23001012109C801875080D7509007808121072
:104B33009C75080B780812109C780E12109C790152
:104B43007C177D007A187B001216ED74061210CACA
:104B530075080D750900780812109C780812109CCE
:104B6300740B1213F8120EFF79017C177D007A097A
:104B73007B001216ED74061210CA901D19E0640131
:104B83006003025209750804780812109C78081211
:104B9300109C740D1213F8120EFF79017C207D0016
:104BA3007A090251FF751A0D751B00781A12109CB1
:104BB300751A0B781A12109C781812109C79017CC4
:104BC300177D007A487B001216ED74061210CA9006
:104BD3001D22E064016003024C829018C4E064016A
:104BE3007041125226701A12109C75180B78181205
:104BF300109C780812109C79017C207D007A4880F3
:104C03001812109C751808781812109C780A121044
:104C13009C79017C207D007A4A7B001216ED740694
:104C23001210CA9018C5E064017054901D23E0640B
:104C3300017022750804750900780812109C750824
:104C430008780812109C780A12109C79017C207D48
:104C5300007A4A8020750A04750B00780A12109CAA
:104C6300750A0B780A12109C780812109C79017C43
:104C7300207D007A487B001216ED74061210CAEEEE
:104C8300F8EFF97AE87B031209BEE8603014604458
:104C9300146058146073147003024D2714700302D8
:104CA3004D42147003024D5C147003024D76147070
:104CB30003024D90147003024DAA024DD475080DE2
:104CC300750900780812109C75080B780812109C5F
:104CD3007408802C75080D750900780812109C75EE
:104CE300080B780812109C7406801575080D750959
:104CF30000780812109C75080B780812109C740435
:104D03001213F8120EFF024DC275080D75090078D3
:104D13000812109C75080B780812109C781E12104C
:104D23009C024DC275080D750900780812109C7518
:104D3300080B780812109C781C12109C024DC27547
:104D4300080D750900780812109C75080B78081275
:104D5300109C781612109C806675080D75090078F2
:104D63000812109C75080B780812109C7814121006
:104D73009C804C75080D750900780812109C750805
:104D83000B780812109C781212109C803275080D53
:104D9300750900780812109C75080B780812109C8E
:104DA300781012109C801875080D75090078081288
:104DB300109C75080B780812109C780E12109C79C1
:104DC300017C177D007A387B001216ED74061210F1
:104DD300CAE50C6030146044146058146073147096
:104DE30003024E6F147003024E8A147003024EA422
:104DF300147003024EBE147003024ED814700302E3
:104E03004EF2024F1C75080D750900780812109CAC
:104E130075080B780812109C7408802C75080D75A2
:104E23000900780812109C75080B780812109C74FE
:104E330006801575080D750900780812109C750811
:104E43000B780812109C74041213F8120EFF024F11
:104E53000A75080D750900780812109C75080B78FF
:104E63000812109C781E12109C024F0A75080D75CB
:104E73000900780812109C75080B780812109C78AA
:104E83001C12109C024F0A75080D75090078081250
:104E9300109C75080B780812109C781612109C80D1
:104EA3006675080D750900780812109C75080B7853
:104EB3000812109C781412109C804C75080D75090B
:104EC30000780812109C75080B780812109C781251
:104ED30012109C803275080D750900780812109C19
:104EE30075080B780812109C781012109C801875A6
:104EF300080D750900780812109C75080B780812C4
:104F0300109C780E12109C79017C177D007A2B7B04
:104F1300001216ED74061210CAE50D6030146044D9
:104F2300146058146073147003024FB714700302B3
:104F33004FD2147003024FEC147003025006147026
:104F43000302502014700302503A02506475080D96
:104F5300750900780812109C75080B780812109CCC
:104F63007408802C75080D750900780812109C755B
:104F7300080B780812109C7406801575080D7509C6
:104F830000780812109C75080B780812109C7404A2
:104F93001213F8120EFF02505275080D75090078AE
:104FA3000812109C75080B780812109C781E1210BA
:104FB3009C02505275080D750900780812109C75F3
:104FC300080B780812109C781C12109C0250527522
:104FD300080D750900780812109C75080B780812E3
:104FE300109C781612109C806675080D7509007860
:104FF3000812109C75080B780812109C7814121074
:105003009C804C75080D750900780812109C750872
:105013000B780812109C781212109C803275080DC0
:10502300750900780812109C75080B780812109CFB
:10503300781012109C801875080D750900780812F5
:10504300109C75080B780812109C780E12109C792E
:10505300017C177D007A1E7B001216ED7406121078
:10506300CA74061213F8E0603014604414605814D4
:10507300607314700302510314700302511E147001
:105083000302513814700302515214700302516C1D
:105093001470030251860251B075080D750900782A
:1050A3000812109C75080B780812109C7408802C49
:1050B30075080D750900780812109C75080B78089F
:1050C30012109C7406801575080D75090078081276
:1050D300109C75080B780812109C74041213F812B4
:1050E3000EFF02519E75080D750900780812109C79
:1050F30075080B780812109C781E12109C02519EA2
:1051030075080D750900780812109C75080B78084E
:1051130012109C781C12109C02519E75080D750983
:1051230000780812109C75080B780812109C7816EA
:1051330012109C806675080D750900780812109C82
:1051430075080B780812109C781412109C804C750B
:10515300080D750900780812109C75080B78081261
:10516300109C781212109C803275080D7509007816
:105173000812109C75080B780812109C78101210F6
:105183009C801875080D750900780812109C750825
:105193000B780812109C780E12109C79017C177DF5
:1051A300007A117B001216ED74061210CA75080DF1
:1051B300750900780812109C780812109C740B1261
:1051C30013F8120EFF79017C177D007A027B00121F
:1051D30016ED74061210CA901D19E064017027754C
:1051E3000804780812109C780812109C740D12138E
:1051F300F8120EFF79017C207D007A027B001216E3
:10520300ED74061210CA121DCB121DD11216F31221
:1052130016F9EEFAEFFB121DAD740B1210CA7F18CC
:10522300020E30901D23E06401751804751900788F
:10523300182290191AE0F8A3E0F9E8492274F7124A
:105243000B7E901D15E064016003025348EA248736
:10525300FEEB34FAFFEA2417FCEB34FCFDEA24A747
:10526300F8EB34FDF9A3E0640160030252FB9018EC
:10527300BCE064D07004A3E06407607C9018CAE0CB
:10528300F5089018CBE065089018CA6068E06401DF
:10529300700DC284C293C2929018CB74018053C321
:1052A300EA9459EB94025008D293D292C284803E7E
:1052B300C3E89490E994015006D293C284802DC32D
:1052C300EC9490ED94015006D284D293801EC3EEE9
:1052D3009490EF94015008D284D292C293800FC36A
:1052E300EA9409EB94074006D284C293C292E090F9
:1052F30018CBF08056E07053C3EA9459EB940250F4
:1053030008D293D292C2848042C3E89490E9940174
:105313005006D293C2848031C3EC9490ED94015033
:1053230006D284D2938022C3EE9490EF9401500866
:10533300D284D292C2938013C3EA9409EB940740B8
:105343000AD2848002C284C293C2927F01020E30C9
:1053530074F0120B7E8A088B09E4F50AF50B901C96
:10536300FBC3E0943CA3E094005011901912780819
:105373001212B9901CFB127380025441901CFB74EF
:1053830001F0A3E4F090191278081212A690921477
:10539300780C1213857808790C120B0F90191212DE
:1053A3005445909240780C12138590190E780C1284
:1053B30011CD503090190E780C1213857401780CAE
:1053C30012126D74DE250CF5827418350DF58312F7
:1053D300544E9091DC780812138590190E780812B8
:1053E30012B98055909240780C12138590190E785B
:1053F3000C1211A370439018DEE0FEA3E0FF7800C7
:105403007900125736FA74183BFB8A828B83A3A365
:10541300E0FCA3E0FD8A828B83ECF0A3EDF008E8C7
:10542300700109C3941712570840D790190CEEF076
:10543300A3EFF090190C12544E9018CC7401F002A3
:105443003CA6E4F0A3F0A3F0A3F022E508F0A3E563
:1054530009F02274EA120B7E7E4C7F00901CFAE066
:105463006401700A750C90750D01E4F0800A9018C0
:10547300DEE0F50CA3E0F50D78007900125725EA7C
:10548300950CEB950D50048A0C8B0D08E8700109FF
:1054930012570140E79018DEE0F50EA3E0F50F7810
:1054A300007900125725E50E9AE50F9B5008EA4B49
:1054B30060048A0E8B0F08E870010912570140E35C
:1054C3008F108F11A810E828F8E51133F974DE283E
:1054D300F582741839F583125744120A9778081223
:1054E3001094909244120EFB909268120EFB850E5C
:1054F30008850F09E4F50AF50B7808120AB2780853
:10550300121094850C08850D09E4F50AF50B78084B
:10551300120AB2AA08AB09AC0AAD0B121C1B741019
:105523001210CA12084A85081285091374176510E8
:1055330045117508097509007808600302560812B9
:10554300109C750802780812109C79017C007D007C
:105553007A007B001216DB74041210CA75080978EE
:105563000812109C750802780812109C79017C00BF
:105573007D007A017B001216DB74041210CA7508D1
:1055830000804A12571112109C75140278141210DD
:105593009C7901AC0AAD0B7A007B001216DB740414
:1055A3001210CA751409781412109C751402781419
:1055B30012109C7901AC0AAD0B7A017B001216DB49
:1055C30074041210CA0508E508700205091256F2A0
:1055D30040B1750809750900780812109C75080216
:1055E300780812109C75082F750907780812109C0B
:1055F30079017C0C7D00EEFAEFFB1216ED740612B6
:1056030010CA0256D312109C750802780812109C17
:1056130079017C007D007A007B001216DB74041292
:1056230010CA750809780812109C750802780812C8
:10563300109C79017C007D007A017B001216DB74DB
:10564300041210CA750800804A12571112109C7573
:105653001402781412109C7901AC0AAD0B7A007B0A
:10566300001216DB74041210CA7514097814121090
:105673009C751402781412109C7901AC0AAD0B7A54
:10568300017B001216DB74041210CA0508E50870CA
:105693000205091256F240B1750809750900780828
:1056A30012109C750802780812109C75082F750952
:1056B30007780812109C79017C0C7D00EEFAEFFB51
:1056C3001216ED74061210CAEE24FDFEEF34FFFF2E
:1056D30079001216E10510E51070020511C3941844
:1056E300E51112570950030254C77F0E020E30C34F
:1056F300E5089512E5099513A2D265D03322C39428
:105703001812570822E99400A2D265D03322E50883
:105713002401F50AE43509F50B75140975150078AC
:105723001422125736F58274183BF583E0FAA3E08E
:10573300FBC322E8FAE9FBEA2AFAEB33FB74DE2A1D
:1057430022E0F508A3E0F5093395E0F50AF50B78B7
:10575300082274E0120B7E74FE121162EAFCEBFD68
:10576300ECF8EDF97A647B001209BEE8F51CECF85D
:10577300EDF97A647B001209BEEAF8EBF97A0A7B49
:10578300001209BEE8FEECF8EDF97A0A7B00120973
:10579300BEEAFF8521828522837440F0A37491F0D1
:1057A300751E94751F92751A21751B907518917546
:1057B30019907516617517907514417515907512CA
:1057C30031751390751001751190750E81750F90D9
:1057D300750C51750D90750AF1750B8F7508717500
:1057E3000990E51C6003025AD4EE6030146048143B
:1057F300606014607814700302588B1470030258AD
:10580300A61470030258C01470030258DA1470030C
:105813000258F414700302590E025938751C0975A5
:105823001D00781C12109C751C08781C12109C78A3
:105833001A12109C025926751C09751D00781C123A
:10584300109C751C08781C12109C781812109C026E
:105853005926751C09751D00781C12109C751C08AF
:10586300781C12109C781612109C025926751C097C
:10587300751D00781C12109C751C08781C12109C56
:10588300781412109C025926751C09751D00781C8A
:1058930012109C751C08781C12109C781212109C14
:1058A300025926751C09751D00781C12109C751C65
:1058B30008781C12109C781012109C8066751C09C5
:1058C300751D00781C12109C751C08781C12109C06
:1058D300780E12109C804C751C09751D00781C12E3
:1058E300109C751C08781C12109C780C12109C805C
:1058F30032751C09751D00781C12109C751C0878E4
:105903001C12109C780A12109C8018751C09751DB6
:1059130000781C12109C751C08781C12109C7808C7
:1059230012109C79017C007D007A417B001216EDF8
:1059330074061210CA751C09751D00781C12109C80
:10594300751C01781C12109C781E12109C79017C26
:10595300007D007A3F7B001216ED74061210CAEF29
:105963006030146048146060146078147003025A45
:1059730001147003025A1C147003025A3614700384
:10598300025A50147003025A6A147003025A8402B2
:105993005AAE750809750900780812109C75080835
:1059A300780812109C781A12109C025A9C750809E8
:1059B300750900780812109C750808780812109C65
:1059C300781812109C025A9C75080975090078080A
:1059D30012109C750808780812109C781612109CF7
:1059E300025A9C750809750900780812109C7508FD
:1059F30008780812109C781412109C025A9C75089F
:105A030009750900780812109C75080878081210A7
:105A13009C781212109C025A9C750809750900782B
:105A23000812109C750808780812109C7810121040
:105A33009C8066750809750900780812109C750822
:105A430008780812109C780E12109C804C75080977
:105A5300750900780812109C750808780812109CC4
:105A6300780C12109C8032750809750900780812A9
:105A7300109C750808780812109C780A12109C80F4
:105A830018750A09750B00780A12109C750A0878B4
:105A93000A12109C780812109C79017C007D007A10
:105AA300347B001216ED74061210CA7508057509C9
:105AB30000780812109C750807780812109C74046B
:105AC3001213F8120EFF79017C047D007A2C025F19
:105AD300046030146048146060146078147003022A
:105AE3005B72147003025B8D147003025BA7147066
:105AF30003025BC1147003025BDB147003025BF5EA
:105B0300025C1F751C09751D00781C12109C751C06
:105B130008781C12109C781A12109C025C0D751CDC
:105B230009751D00781C12109C751C08781C121036
