:020000040000FA
:0600000002134802081D76
:030013000208E3FD
:03002B000210E5DB
:03003300020FAE0B
:03003B000209387F
:030053000207524F
:100083000207B10100F0FF0700080000FFFF0000B6
:100093000704000000030001FF0530750000002085
:1000A300FD000206FFFFFE0400000004E5C6FE0695
:1000B300001F0000AC03FE06001F00B4AC741E0159
:1000C30001001900000032000000531D0000000071
:1000D30000000000000000000000010017060101FD
:1000E300000100D0079001000001000101000100A0
:1000F300D00790010000000000001E001E00010454
:10010300010C0002038291018E9202040102030298
:10011300027292000000010400006719000000E869
:10012300030000FFFFC41988130000E80300006404
:10013300006400B801A0BB0D00A0BB0D00020202C9
:10014300070401010A1E02051E020A0A0101010831
:1001530009080103B80B02803E0102FEFFE8030A0F
:10016300050001FFFF010A011401E0020000000184
:10017300050301010F10FEFF03000300030003004A
:100183000300030003000300030005000A0014003A
:1001930028004F009E000000C73300000000FD321E
:1001A30000000000FF000000FF00121376604612FB
:1001B3001394603DE9687008F618F618F618F622ED
:1001C300748067F71201E1090909748067F7221245
:1001D3001394601D1213767005191919801A1212DF
:1001E3000A701F12121EC37003E6673319191940F0
:1001F300071818182208080874FFF618F618F618D6
:10020300F62212121E6017121414702192F01214A7
:10021300027019501720F014080808090909E7F6B5
:100223001819E7F61819E7F61819E7F62212140257
:1002330060E6E869701F0808E62480F608E436F6ED
:1002430018547FB47F0CE654806007F6E418F61860
:10025300F622181822E9C6CC08C6CD08C6CE08C6B1
:10026300CFC0E0E8C0E0EAC0E0EBC0E009E9F8098C
:10027300E7FA09E7FBE6F918E6F8C3EC98ED99EE1F
:100283009AEBC2E7F5F0EFC2E795F0500E600CEB86
:10029300CFFBEACEFAE9CDF9E8CCF8EAA2E7D2E758
:1002A300FAEB33FB13F5F0EEA2E7D2E7FEEF33FFF1
:1002B300C5F013A2E730E601B313C5F0C3C0E0C035
:1002C300F07F00C39BFB605E9418600F401D1460B9
:1002D3001AD0E023F9D0E0F80203B38AF0E94860CA
:1002E30003D2F0E4AFF0FAF9F8803BEB30E40D8988
:1002F300F0EA6003D2F0E4AFF0F9CAF8EB30E30DB3
:1003030088F0EF6002D2F0AFF0E4CAC9F8EB54070B
:100313006014FBC3EA13FAE913F9E813F8EF135077
:1003230002D2E0FFDBEDD0E0C0E030E739C3E49F69
:10033300FFF5F0EC98FC42F0ED99FD42F0EE9AFEE9
:1003430042F0D0E0F9D0E0F8E5F0607AE923F9EE85
:1003530020E742D8028067C3EF33FFEC33FCED3371
:10036300FDEE33FE80EAEC28FCED39FDEE3AFED0DB
:10037300E023F9D0E0F84002801BC3EE13FEED1337
:10038300FDEC13FCEF135002D2E0FF08B800067F28
:100393007F74FF802EEF3350178CF020F002601033
:1003A3000CBC000C0DBD00080EBE000408E860DFA5
:1003B300E933E813FFEE2313FE4F4D4C8008E95455
:1003C30080FFE4FEFDFCEE33EF33F47004FCFD7EAE
:1003D30080D0E0FBD0E0FAD0E0F8D0E0CFC618CE72
:1003E300C618CDC618CCC6F9221213947004181877
:1003F3001822121376700D74FFF61819F61819F6F1
:100403001819F622E7548066F6121402700F1214BC
:100413001470F014F608F608F608F680D1121414D6
:10042300700CF608F608768008E6447F80EC12121A
:1004330021700C12120D60BFE65480F6E480BB12EB
:10044300120D700519191980A5E869700C763F180B
:10045300768018F618F6E8F922E6CDC0E018ECC06D
:10046300E0E633CD33CDD313F6E719FCE71919339F
:10047300CC33C3947F400ECD9D502408E65480F6C0
:10048300E418F6800FF4043D14501408E6447FF694
:10049300187680E418F618F6D0E0FCD0E0FD22CC04
:1004A300D313CCFD18E4C6CBC0E018E4C6CAC0E041
:1004B3000808ED08C633E613F618E433C675F003EF
:1004C300C3CA97CA09CB97CB199C40047D08802ED9
:1004D300BD000302059516B6FF050606081618C3E8
:1004E300CA33CACB33CB33CA27CA09CB37CB193C60
:1004F300C37D08803E187D0820E75CC633C6CA3337
:10050300CACB33CB33DDF1D5F0EB30E77BCA97CAE7
:1005130009CB974ACB199C406F4B7025E620E0210D
:100523008066187D08C3CA97CA09CB97CB199CD399
:10053300C633C6CA33CACB33CB3350C9DDE7D5F094
:10054300E1D3E4C636C608C636C608C636C608C6EC
:1005530036C61818188031C3CA97CA09CB97CB1966
:100563009CB34097C633C6CA33CACB33CB33DD34CF
:10057300D5F02EC6A2E0C640C8CA27CA09CB371990
:100583004A70BECB3CB480B90808E63308E6336052
:100593001F181818D0E0FAD0E0FBD0E0FCD0E0FD43
:1005A30022187D08CA27CA09CB37CB193CD38080D0
:1005B30013F618E4B67F11F618B6FF0EF618C60444
:1005C30070D20808768080CAF618F618F680C5003F
:1005D300121394604F1213766012E7548066F6127A
:1005E300120A7011121414703B090909F4F618F673
:1005F30018F618F62212121E7015121402080808B3
:1006030060EAE6447FF618768018E4F618F62212BC
:10061300140260161214147012E4F608F608F608B1
:10062300E65480F609090918181822EAC0E0EBC05D
:10063300E0ECC0E0EDC0E0E687F0A4FBACF008E638
:1006430087F0A42CFCE435F0FA1809E687F0A42C13
:100653004B60027401CA35F0FCE433FB09E687F012
:10066300D2F7A42CCB35F0FC1908E687F0A42BCCE9
:1006730035F0FBE433FD0819E687F0D2E7A42C4AF2
:10068300CB35F0CD3400FC09E687F0D2E7A42DCCBE
:1006930035F0FDE433FA0918E687F0D2F7A42CCD40
:1006A30035F0CA3400FC08E687F0D2E7D2F7A42A73
:1006B300CC35F07A7E20E70B0ACB33CBCD33CDCCD0
:1006C30033CC33CB3350147004ED30E00ED2F1E46D
:1006D300CD3DCDCC3CCC3B5005DA05C2F1EB547F8C
:1006E300C63308E63392F0FBE73309E733C39A5086
:1006F3002D2B70190C0D4C4D70151806E608C333DD
:10070300700D20F10AA2F013F6E418800B4024E4E4
:10071300F630F002768018F618F618F68024D33BEC
:1007230014501074FFA2F013F6187680E418F6182C
:10073300F6800FA2F013F618E63303F618ECF6185A
:10074300EDF6D0E0FDD0E0FCD0E0FBD0E0FA22C033
:10075300E074F1120BEAA2AFE433F509D2AF85A737
:1007630008AFA1EF5508FE74105E600612175F759F
:10077300A1EF74085E600812176575A1F78024EF76
:10078300A2E092F0E508A2E082F05017906198E0B1
:10079300F89009C2E0C398A2D265D0335002E8F0C2
:1007A30075A1FEE509A2E092AF7F02020C49C0E009
:1007B30074F2120BEAA2AFE433FED2AF9061A4E06D
:1007C300F8759B00E59158540860087591F7121766
:1007D300B38023E59158541060087591EF1217B94F
:1007E3008014E591A2E092F0E8A2E082F05007E0E5
:1007F300C2E0F012190F9061A3E0F8E5E958540440
:10080300600E1218E575E9FB906193E0A2E640F2F1
:10081300EEA2E092AF7F01020C49C0E074F2120B2A
:10082300EAA2AFE433FED2AF9061A5E0F8E5BF588A
:100833005404600675BFFB12192780D41208943044
:10084300F0431208D9803E8A088B098C0A8D0B78F5
:100853000812089420F01430E72B74FFFCFBFA74A1
:100863007F8022E4FCFBFA7480801AB48008BC0009
:10087300F2BB00EF800F50EBF9E4C39AFAE49BFB61
:10088300E49CFCE499C6CC18C6CB18C6CA18C6F9B2
:1008930022E4C9C608CAC608CBC6D3330308CCC6EC
:1008A3003392F0C3947F402E94184019C9B90704BA
:1008B300CACBCC225025C309CA33CACB33CBCC33E2
:1008C300CC33D9F422F4600DC9CCC313CB13CBCAF8
:1008D30013CAD9F6CC22E4FCFBFA2214FCFBFA225D
:1008E300C0E0C0D0E8C0E0E9C0E0C082C083A8C1D6
:1008F300E8C0E09006A7E0F8742628F582E4340601
:10090300F583D0E0F09006A6E0F8A3E0687006E572
:10091300959006A9F09006A7E004F0C394804002E6
:10092300E4F0A374C6F0D083D082D0E0F9D0E0F82D
:10093300D0D0D0E032C0E0C0D0E8C0E0E9C0E0C031
:1009430082C08390072AE0F8A3E0687008539AFBFB
:10095300A374018022C2E990072AE0F8740128F009
:1009630074AA28F582E43406F583E0F5C190072ADA
:10097300E0C394804002E4F080ACC3E498F8E499C7
:10098300F91209BE8026C3E49AFAE49BFBE920E747
:10099300E91209BEE498F8E499F922C3E498F8E46B
:1009A30099F91209BEE498F8E499F9C3E49AFAE4D0
:1009B3009BFB22EB20E7CFE920E7E0B90010BB0067
:1009C30008E88AF084F8AAF022E4FBC8FA22EB7064
:1009D300227B10C833C8C933C9335007C39AC3DB5A
:1009E300F280069A50012ADBEAC833F4C8C933F40B
:1009F300C9FA2275F008E4C833C8C933C933C99AA0
:100A0300C99B5004C92AC93BD5F0ECFBC833F4C8D1
:100A1300E4C9FA22080808EAC0E0EBC0E086F0E780
:100A2300A4FA180986F0E7A42AFA180986F0E7A4BD
:100A33002AFA180986F0E7A42AFA1986F0E7A4FB34
:100A4300E5F02AFA190886F0E7A42BFBE5F03AFA59
:100A5300190886F0E7A42BFBE5F03AFA1818098683
:100A6300F0E7A4C5F02BFBE43AFA1908E7C5F0C692
:100A7300A426F6E5F03BFBE43AFA1886F0E7A4F681
:100A8300E5F00826F6E43B08F6E43A08F6D0E0FB86
:100A9300D0E0FA22080808E630E7111211E2120A40
:100AA300AF080808C64480C618181822181818E991
:100AB300799EC608CAC608CBC608CCC6C3702079BF
:100AC30096CACBCC7019798ECBCC70137986CC7047
:100AD3000EF9802ACA33CACB33CBCC33CC3319308B
:100AE300E7F2CCCBCA3350147004EA30E00DE4CA09
:100AF3003ACACB3BCBCC3CCC500209C3E913C6CC9E
:100B0300182313C6CB18C6CA18C6F922E4CFC0E00F
:100B1300E4CEC0E0E4CDC0E0E4CCC0E075F020E674
:100B230026F608E633F608E633F608E633F6181831
:100B330018EC33FCED33FDEE33FEEF33FFC3EC97DC
:100B430009ED9709EE9709EF97191919400FFFEC73
:100B530097FC09ED97FD09EE97FE191906D5F0BF2D
:100B6300ECF709EDF709EEF709EFF7191919D0E0DA
:100B7300FCD0E0FDD0E0FED0E0FF222521C582C0FD
:100B8300E0E52234FFC583C0E0E521C3958224F864
:100B930010AF088583228582218008858322858280
:100BA30021D2AFCEF0A3E520F0A37808E608F0A3A6
:100BB300DEFAEFF0A3E58124FAF8E608F0A3E608ED
:100BC300F0A3E608F0A30808E608F0A3E608F0A3FC
:100BD30015811581D0E0FED0E0F8158115811581CE
:100BE300E8C0E0EEC0E022C0D02521C582C0E0E528
:100BF3002234FFC583C0E0E521C3958224F310AFFF
:100C0300088583228582218008858322858221D2DB
:100C1300AFC8F0A3E9F0A3EAF0A3EBF0A37908E7E8
:100C230009F0A3D8FAECF0A3EDF0A3EEF0A3EFF0F4
:100C3300A3D0E0F0A3D0E0F0A3D0E0F0A3E520F050
:100C4300A3E5F0F0A322852283852182E0C0E0A3FF
:100C5300E0F9A3E0FAA3E0FBA37808E0F608A3DF3A
:100C6300FAE0FCA3E0FDA3E0FEA3E0FFA3E0C0E005
:100C7300A3E0C0E0A3E0F5D0A3E0F520A3E0A3F553
:100C8300F010AF0885832285822180088583228521
:100C93008221D2AFD082D083D0E0F8D0E0321213D9
:100CA300EDB90003020CE0E490050178BE791880E9
:100CB30002F0A3D8FCD9FA7ABE7B1C900086782870
:100CC30079028015E493A3AD82AE838A828B83F08D
:100CD300A3AA82AB838D828E83D8E9D9E775822A52
:100CE3007583CE740612107675823775833074005F
:100CF300121076E47375F0108E238F248582288575
:100D03008327852182852283E0CEA3E0CF852882B5
:100D1300852783EBC9EAC8EDCBECCAC3E833C8E93E
:100D230033C9EA33CAEB33CBC3EA9EF526EB9FF50F
:100D330025B35004AB25AA26EC33CCED33CDD5F047
:100D4300DAAE23AF2422121394601C1213766017B9
:100D530012140270071214147001D322C0D012149B
:100D6300147006D0D0B322C32233D0D0501430E055
:100D7300F6C3E7960809E7960809E7960809E79690
:100D8300B32220E0D5E6970809E6970809E6970815
:100D930009E697B322121394601B1213766016129E
:100DA30014027007121414600CB322C0D01214146E
:100DB3007005D0D022C32233D0D0501330E0EBC320
:100DC300E7960809E7960809E7960809E7962220B7
:100DD300E0E4E6970809E6970809E6970809E69725
:100DE30022D083D082ECC0E0EDC0E0E493A3FCE426
:100DF30093A3FDED4C600D120EBCEC24FFFCED340F
:100E0300FFFD80EFE493A3FCE493A3FDED4C600DA1
:100E1300120F59EC24FFFCED34FFFD80EFD0E0FD11
:100E2300D0E0FCE493A3C0E0E493C0E022852283F6
:100E3300852182E0A3FEE0A3F5207808E0A3F6086D
:100E4300DFFAE0A3FFE0A3C0E0E0A3C0E0E0A3C0BB
:100E5300E0E0A3C0E0E0A3C0E010AF0885822185F5
:100E630083228008858221858322D2AFD083D082DA
:100E730002107CD083D082E9C0E0E493A3C386F060
:100E8300C5F095F0F908E493A386F0C5F095F070EA
:100E93000BE493A3C3994005E9048002A3E475F02E
:100EA30002A42582F582E5F03583F583D0E0F9E4E9
:100EB30093A3C0E0E493C0E022C0E0C3E4939608A8
:100EC3007401939618400FE49366700808740193B5
:100ED300661870007019A3A3C3E493960874019372
:100EE3009618A3A3400DD0E0D0E0D0E0020E20A3DB
:100EF300A3A3A3A3A3D0E0227404800474028000FC
:100F0300CCC0E0EDC0E0E521C39CCCAD2250011D77
:100F130010AF068C218D2280068C218D22D2AF1238
:100F23000FF8D0E0FDD0E0FC2274028000CCC0E0DA
:100F3300EDC0E0E521C39CCCAD2250011D10AF06EE
:100F43008C218D2280068C218D22D2AF120FD6D018
:100F5300E0FDD0E0FC22C0E0C0F088F0E4936670CE
:100F6300080874019366187000A8F0A3A3700BD04F
:100F7300F0D0E0D0E0D0E0020E20A3A3D0F0D0E088
:100F830022D083D082CCC0E0E493A3600612103851
:100F93001470FAE493A360061211781470FAD0E087
:100FA300FCE493A3C0E0E493C0E022C0E074F21237
:100FB3000BEAA2AFE433FED2AFE58BA2E050057992
:100FC30004121639758B00C2E8EEA2E092AF7F01DE
:100FD300020C49CAC0E0E493A3C582CCC582C58391
:100FE300CDC583F0A3C582CCC582C583CDC583DAC5
:100FF300E5D0E0CA22CAC0E0E0A3C582CCC582C561
:1010030083CDC583F0A3C582CCC582C583CDC583FB
:10101300DAE6D0E0CA227009080808226016181818
:1010230018C6C333C608C633C608C633C608C63394
:10103300C6D5E0EA22C0E0E493A3D39C5010E49326
:10104300A3C39C400AD0E0D0E0D0E0020FA1A3A349
:10105300A3D0E022C008C3E096F50808A3E09642B7
:101063000808A3E096420808A3E09645087001D358
:10107300D00822C09FF59FE473D09F22D083D082F3
:10108300C09FE493C0E0740193C0E0740293F59FA2
:10109300227404800A74038006740280027401C0FF
:1010A300E0F4041210AFD0E01213B0222521F58230
:1010B30010AF08F521400C15228008F521400215D8
:1010C30022D2AF8522832200C0D0252110AF08F59C
:1010D30021500C05228008F52150020522D2AFD001
:1010E300D022C0E0C0D0E8C0E0A8A8D2AFC2C7E811
:1010F300A2E792AFD0E0F8D0D0D0E032BB0102E754
:1011030022C082C08389828A83BB0003E08002E419
:1011130093D083D082226016080808C6C313C6186A
:10112300C613C618C613C618C613C6D5E0EA22C32B
:10113300E0C696F608A3E0C696F608A3E0C696F6C0
:1011430008A3E0C696F6222521F8E43522F92225E4
:1011530021FAE43522FB222521FCE43522FD222558
:101163002110AF08F521400C15228008F52140021B
:101173001522D2AF22C0E0E493A36C7009D0E0D073
:10118300E0D0E0020FA1A3A3D0E022E7667010082D
:1011930009E766700A0809E76670040809E766222A
:1011A300E066701008A3E066700A08A3E0667004A6
:1011B30008A3E06622C3E7960809E7960809E796BD
:1011C3000809E796A2D265D03322C3E09608A3E0CC
:1011D3009608A3E09608A3E096A2D265D03322181E
:1011E3001818E4C396F608E496F608E496F608E4BD
:1011F30096F622C3E096F008A3E096F008A3E096E3
:10120300F008A3E096F022181818E60846087009BB
:10121300E626087005E633F4220822191919E709AE
:1012230047097009E727097005E733F4220922C348
:10123300E697F60809E697F60809E697F60809E639
:1012430097F622C3E4939608740193960874029365
:1012530096087403939622E627F60809E637F608FC
:1012630009E637F60809E637F622700422600D18FE
:10127300C6C333C608C633C6D5E0F41822E657F60C
:101283000809E657F60809E657F60809E657F6226D
:10129300E056F608A3E056F608A3E056F608A3E0E6
:1012A30056F622E026F608A3E036F608A3E036F663
:1012B30008A3E036F622E026F008A3E036F008A300
:1012C300E036F008A3E036F022E647F60809E647E1
:1012D300F60809E647F60809E647F622E493F60816
:1012E300740193F608740293F608740393F622E6E6
:1012F30067F60809E667F60809E667F60809E66788
:10130300F622E056F008A3E056F008A3E056F008F2
:10131300A3E056F022C6F4C608C6F4C608C6F4C64F
:1013230008C6F4C622C3E09608A3E09608A3E09695
:1013330008A3E09622C3E7960809E7960809E7960B
:101343000809E7962275D00075813F752101752242
:101353000500020CA1600C08C6C313C618C613C649
:10136300D5E0F422E6F008A3E6F008A3E6F008A32C
:10137300E6F022E7094709C3134709336002E7335D
:10138300F422E0F608A3E0F608A3E0F608A3E0F6EB
:1013930022E6084608C3134608336002E633F42204
:1013A300800100E9F874FF28F90470F622CAC0E04E
:1013B300E6F0A308DAFAD0E0FA22E0F8A3E0F9A312
:1013C300E0FAA3E0FB22E8F0A3E9F0A3EAF0A3EB41
:1013D300F022EAF0A3EBF0A3ECF0A3EDF022E0FAA5
:1013E300A3E0FBA3E0FCA3E0FD22E5C754F844011E
:1013F300F5C77901222521F582E43522F58322E61A
:101403002618461846184622C2AF75D69F0200001A
:1014130022E7271947194719472212107FAC89057C
:1014230012107F5D8A0512107FAE8A0512107FF2BB
:101433008A0512107F8C8B0512107FFC8B0512100E
:101443007F2B8C0512107F318D0512107F5B8D056C
:1014530012107FAF8D0512107F838E0512107FB19E
:10146300900512107F5F910512107FCC9305121027
:101473007F51940512107F54970512107F889905A8
:1014830012107FC4990512107F1D9B0512107F3027
:101493009B0512107F6D9B0512107F099D0512108D
:1014A3007FBD9E0512107F67EF0212107FE3EF02EC
:1014B30012107F16F00212107F44F00212107F8286
:1014C300F00212107FBFF20212107FDEF20212103E
:1014D3007F23F30212107FB9F30212107F05F40287
:1014E30012107F99F40212107F72F50212107FCE50
:1014F300F50212107F2CF60212107F9FF6021210D3
:101503007FE3F60212107F3BF70212107F5DF702B2
:1015130012107FEDF70212107F7EF80212107FCABD
:10152300F80212107FF6F80212107F37F902121038
:101533007FCDFA0212107FB9FB0212107F94FC02D6
:1015430012107FC5B20612107FF0B20612107F1080
:10155300B30612107F37B30612107F7EB406121043
:101563007F9FB40612107F73B50612107F0AB6066A
:1015730012107FE1DA0612107FE6DA0612107F19E5
:10158300DB0612107F27DB0612107F44DB061210E6
:101593007F6EFD0212107F38FE0212107F4AFE0298
:1015A30012107FC1FE0212107FD7FF0412107FF1C9
:1015B300FF0412107FF87F0012107F13DC06121055
:1015C3007FA6D80612107FB6D80612107FCBD80696
:1015D30012107F33D90612107F18D40612107F9C85
:1015E300D40612107F04D50612107F0BCC061210FE
:1015F3007F1FCC0612107F95CC0612107FE4CC0619
:1016030012107F19CD0612107F3CCD0612107F5F9A
:10161300CD0612107F98CD0612107FC9CD06121089
:101623007F10CE0612107F1DD60612107FA4D60699
:1016330012107FADD60612107FD4D60612107F4645
:10164300B60612107F54B60612107FCDB6061210DE
:101653007FA6B70612107F69B90612107FAFDB06AB
:1016630012107FC6C20612107F10C30612107FA687
:10167300C30612107F2CC40612107F5EC40612101C
:101683007F76C40612107FEAC40612107F00C506D7
:1016930012107F13C50612107F1DC50612107F8519
:1016A300C70612107FB0C70612107FECC8061210CF
:1016B3007F21C90612107F43C90612107F1B9C06A7
:1016C30012107F459C0612107F5D9C0612107F74DA
:1016D3009C0612107F9D9C0612107F2E9D061210F1
:1016E3007F3F9D0612107FA79D0612107F069F065F
:1016F30012107F05A00612107F7F890612107FABA0
:10170300890612107F158C0612107F558C06121055
:101713007F918C0612107FA58C0612107FBE8C065B
:1017230012107FB08D0612107F638E0612107F7722
:101733008E0612107F86D10612107FAAD1061210D0
:101743007FC3D10612107F01D20612107F31D20659
:1017530012107F5ED20612107FC4D20612107FC70A
:10176300D20612107FD1D20612107FDED2061210DB
:101773007F1FC00612107F3FC00612107F7EC00677
:1017830012107F9CC00612107FB7C00612107F1D77
:10179300C10612107F29C10612107F86C1061210DE
:1017A3007F95C10612107FB9C10612107F7AC20657
:1017B30012107F87C20612107F98C20612107F3D57
:1017C300D90612107F85D90612107FB1D9061210DF
:1017D3007F85930612107FD9940612107FE7940633
:1017E30012107FFA940612107F0F950612107F24B1
:1017F300950612107F37950612107FB395061210C7
:101803007F18960612107FAE960612107F879706F2
:1018130012107F97970612107FA6970612107F0D5E
:10182300D80612107F31D80612107F59D80612102D
:101833007F81D80612107F30C50612107F57C50668
:1018430012107F75C50612107FE4C50612107F0EB5
:10185300BD0612107F27BD0612107F33BD0612107E
:101863007F47BD0612107F65BD0612107F6FBD0650
:1018730012107F79BD0612107F8CBD0612107F16E1
:10188300BE0612107F8BBE0612107FBFBE0612105B
:101893007F0DBF0612107F5ABF0612107F75BF0659
:1018A30012107F7FBF0612107FA5BF0612107F0A9A
:1018B300C00612107F487F0012107F6A7F0012104B
:1018C3007FE4FF0212107FACF50512107FD8F505F7
:1018D30012107FF5F50512107F08F60512107F230D
:1018E300F60512107F7DF60512107FABF605121078
:1018F3007FBFFA0512107F1DFC0512107F4FFC05F8
:1019030012107FB2FC0512107F37FE0512107F5FA5
:10191300FE0512107F74FE0512107F84FE0512105F
:101923007FC4FE0512107F06FF0512107F16FF0508
:1019330012107FE8D20612107F02D30612107F2AFC
:10194300D30612107F43D30612107F67D3061210FB
:101953007F85D30612107F9CD30612107FCAD3064D
:1019630012107FE5D30612107F6BDB0612107FB6D1
:10197300AB0612107FC6AB0612107FCBAC0612105B
:101983007FFDAC0612107F2DAD0612107F50AD0601
:1019930012107F67AD0612107FA1AD0612107F06ED
:1019A300AE0612107F48AE0612107F8FAE061210DD
:1019B3007FBCAE0612107FE7AE0612107F22D00660
:1019C30012107F42D00612107F56D10612107F5993
:1019D300D10612107FE9FE0312107F1FFF031210BE
:1019E3007F37FF0312107F79FF0312107F89FF03F4
:1019F30012107FCDFF0312107FD7FF0312107FF762
:101A0300F70312107F3AF80312107F9FF8031210A6
:101A13007FBEF80312107F60F90312107F69F90388
:101A230012107FBAF90312107FE3F90312107FF04B
:101A3300F90312107F62FA0312107FF0FA031210F7
:101A43007F35FB0312107F6EFB0312107FD3FB0362
:101A530012107FFCFB0312107F73FC0312107FC272
:101A6300FC0312107FFFFC0312107F34FD031210DE
:101A73007F46FD0312107F58FD0312107F77FD038D
:101A830012107F80FD0312107F3CFE0312107F7F34
:101A9300FE0312107FBDFE0312107F2ADA06121016
:101AA3007F3FAF0612107F7FB00612107FA2B006F1
:101AB30012107FB3B00612107FA5B20612107FCDAD
:101AC300C90612107F03CA0612107F4BCA061210F2
:101AD3007FA4CB0612107F9CEB0112107FC2EC0196
:101AE30012107FFEEC0112107FBCEE0112107FEA90
:101AF300EE0112107F54F10112107F94F1011210C4
:101B03007F36F30112107FCCF30112107F26F4010C
:101B130012107FB6F40112107FFAF40112107F3C09
:101B2300F50112107FA1F60112107F21F8011210A6
:101B33007F62FA0112107F90FA0112107FBCFA0142
:101B430012107FC5FA0112107F22FB0112107FBB16
:101B5300FB0112107FD2FE0112107F58FF011210F9
:101B63007FB4D90612107FCAD90612107FD4D906C2
:101B730012107F3DA00612107F53A00612107FF7AC
:101B8300A00612107F36A10612107F53A106121071
:101B93007F84A10612107FD1A10612107F05A20631
:101BA30012107F40A20612107F35A40612107F1D6B
:101BB300D50612107F7CD50612107FBAD5061210F7
:101BC3007FFBD50612107F46FF0512107FB4FF0579
:101BD30012107FD4FF0512107F1CD70612107F2D21
:101BE300D70612107F45D70612107F60D706121052
:101BF3007F7BD70612107F98D70612107FAFD706C8
:101C030012107FB6D70612107FC0D70612107FCCF2
:101C1300D70612107F19FF0412107FA5BA04121001
:101C23007FB1BA0412107F13BB0412107F1DBB04D3
:101C330012107FACBB0412107FE8BB0412107FE1CB
:101C4300BC0412107F3EBD0412107FCCBD041210E1
:101C53007F1DBE0412107F9DBE0412107F51C0046D
:101C630012107F29C10412107F2EC30412107F2883
:101C7300C40412107F5AC50412107FACC70412109B
:101C83007FEFC80412107F94C90412107F42CE0460
:101C930012107F38CF0412107FCECF0412107FF3BF
:101CA300CF0412107F90D00412107FADD004121015
:101CB3007FCDD00412107F3BD10412107F58D10482
:101CC30012107F86D10412107F1ED30412107F3F9F
:101CD300D30412107FE5D30412107F2DD404121005
:101CE3007F8BD40412107F2ED50412107F93D5045A
:101CF30012107FF2D50412107FA4D60412107F13A2
:101D0300D70412107F4ED70412107FC2D7041210CB
:101D13007F0DD90412107F9DDA0412107F3CDB047F
:101D230012107F7CDD0412107FDEDD0412107F0CA5
:101D3300DE0412107F2FE00412107FD9E204121088
:101D43007FECE30412107F80370012107F783A0093
:101D530012107F9D3C0012107FA73C0012107FC71A
:101D63003C0012107F5F3D0012107F833E00121073
:101D73007F19400012107F01410012107FD14100F2
:101D830012107FF3410012107F08430012107F0BE3
:101D9300450012107F32450012107F754500121066
:101DA3007F96450012107F2C520012107F3F530084
:101DB30012107F42540012107F41570012107FFF10
:101DC3005E0012107F29620012107FF2630012106E
:101DD3007FC9720012107F84730012107FED7300AD
:101DE30012107F27A80612107FE2A80612107F4860
:101DF300A90612107F69A90612107F44AA061210C1
:101E03007F43BC0512107F72BC0512107FF6BC0520
:101E130012107F59BE0512107F43BF0512107FFFBA
:101E2300C00512107F24C10512107F76C105121060
:101E33007F08C20512107F54C20512107F67C205C6
:101E430012107FC4C20512107F91C30512107F03C5
:101E5300C40512107F3AC40512107F83C405121003
:101E63007F2BC60512107F0AC70512107F58C805BD
:101E730012107F3BC90512107FC7C90512107F00DE
:101E8300CA0512107F1FCA0512107F6ACA051210F5
:101E93007F8ACA0512107F47CB0512107F6ACC05D3
:101EA30012107FC5CC0512107F0BCD0512107F13C6
:101EB300CE0512107FAED00512107FD4D0051210BC
:101EC3007F4FD10512107F74D10512107FE8D10521
:101ED30012107FC6D20512107F04D30512107F8E15
:101EE300D30512107FA7D40512107FAAD4051210B0
:101EF3007FB4D40512107FBED40512107FDAD40547
:101F030012107F4CD50512107F85D50512107FB1B5
:101F1300D50512107FD8D50512107FFCD5051210F8
:101F23007F37D60512107FAAD60512107FDED6059D
:101F330012107FE8D60512107F24D70512107F599F
:101F4300D70512107F78D70512107FB7FF01121043
:101F53007FCFFF0112107FFB7F0012107F74A0055B
:101F630012107F97A00512107FF5A10512107F3E76
:101F7300A20512107FAAA20512107F08A305121052
:101F83007F0BA30512107F5CA30512107FD1A3055D
:101F930012107F61A40512107F64A40512107FE55F
:101FA300A40512107F26A50512107F4BA905121058
:101FB3007FF5AA0512107F49AB0512107FD8AE0535
:101FC30012107F10B00512107FE4B00512107F4E7F
:101FD300B10512107F78B10512107F31B3051210CD
:101FE3007F14B50512107FC3B50512107F60B605C7
:101FF30012107F4BB70512107FB3B90512107F0D76
:10200300BB0512107F7BBB0512107FABD7051210E7
:102013007F55D80512107FC0D80512107FDBD80575
:1020230012107F5CD90512107FB6D90512107FFDFF
:10203300D90512107F5CDA0512107F6EDB051210D2
:102043007F97DE0512107FC7DF0512107F4FE00573
:1020530012107F58E20512107F0AE30512107FA4C5
:10206300E30512107F75E40512107F30E6051210A8
:102073007FCEE70512107F5BE80512107F81E9052B
:1020830012107F5FD50312107FC2D50312107F0A8F
:10209300D60312107F4ED60312107FA9D603121057
:1020A3007F06D70312107F41D70312107FC3D703D4
:1020B30012107F1DD80312107F9BD90312107F13B8
:1020C300DA0312107F30DB0312107F58DB03121088
:1020D3007FABDC0312107FBCDC0312107FD4DC0364
:1020E30012107FDDDD0312107FBADE0312107FB7FB
:1020F300DF0312107FDBDF0312107FF2DF03121006
:102103007F13E00312107F35E00312107F54E003C6
:1021130012107F2CE10312107F86E10312107F1D42
:10212300E40312107F76E40312107F95E403121088
:102133007F85E50312107FBBE50312107F37870607
:1021430012107F6DE70312107FA9E70312107FE3DC
:10215300E70312107F52E80312107F07E9031210FE
:102163007F18890512107FECEB0312107F64ED03D7
:1021730012107F5AEF0312107FD0F10312107FAABF
:10218300F30312107F6BF40312107FE3F4031210B6
:102193007FFAF40312107FF1F50312107FE5F603C3
:1021A30012107F54F70312107FC3B90612107F7306
:1021B300BB0612107F32BC0612107F9ABC061210A7
:1021C3007F75850512107F60A40612107FA4A406F4
:1021D30012107FCAA40612107FF1A40612107F0901
:1021E300A50612107F21A50612107FC3A5061210A3
:1021F3007F05A60612107F28A70612107F31A706B7
:1022030012107F3AA70612107F43A70612107F4DC4
:10221300A70612107F6EA70612107F8B8E06121070
:102223007FC9920612107FD7920612107FDC9206A6
:1022330012107FAFCE0612107FE7DB0612107F82EB
:10224300DA0612107F92DA0612107FD79706121061
:102253007F98920112107FCA920112107F36930168
:1022630012107FD1930112107F70940112107FB569
:10227300940112107FD7940112107FF09401121071
:102283007F16950112107F38950112107F76950104
:1022930012107FBA950112107FDC950112107F3E58
:1022A300960112107F05970112107FBC970112103F
:1022B3007F2E980112107F00990112107F4A990115
:1022C30012107F9D990112107F039A0112107F3D16
:1022D3009A0112107F8F9A0112107FAB9A0112108C
:1022E3007FD69A0112107FDD9C0112107F319E016F
:1022F30012107F539E0112107F879E0112107FA838
:102303009E0112107FB79E0112107FC29E01121010
:102313007F729F0112107FDB9F0112107F88A00143
:1023230012107FC0A00112107F86A10112107F93AB
:10233300A20112107FDDA20112107F6CA301121003
:102343007FD0A30112107F0BA40112107F77A60187
:1023530012107FCBA70112107F04AB0112107FD1A3
:10236300AB0112107F5FAC0112107F88AC01121019
:102373007FFAAC0112107F8EAD0112107FECAD011C
:1023830012107FDEAE0112107F00AF0112107F5CCE
:10239300B00112107F75B00112107F88B0011210C6
:1023A3007FF7B00112107F03B20112107F10B20148
:1023B30012107F19B20112107FF1B30112107F17AF
:1023C300B50112107F27B50112107F29B601121033
:1023D3007FA0B60112107FCFB60112107FE4B701C0
:1023E30012107FB0B90112107F88BD0112107F92C5
:1023F300BD0112107FA6BD0112107FB0BD011210E6
:102403007FBABD0112107FC4BD0112107FDDBD0173
:1024130012107FE7BD0112107F5BBE0112107F66B1
:10242300BE0112107F8BBE0112107F96BE011210E7
:102433007FE4BE0112107FEEBE0112107FF9BE01D0
:1024430012107F1DBF0112107F41BF0112107F9D2B
:10245300BF0112107FE3BF0112107F00C0011210F1
:102463007F7DC00112107FB4C00112107FF3C00141
:1024730012107F40C10112107FC2C10112107F5B95
:10248300C20112107F2BC40112107F89C4011210E4
:102493007FA5C50112107FCBC50112107F0AC701AA
:1024A30012107F30CA0112107F71CC0112107F4DC0
:1024B300CE0112107FE3CE0112107F0AD101121058
:1024C3007FB6D10112107FEBD10112107F50D201E0
:1024D30012107F5AD20112107F84D40112107FABE5
:1024E300D50112107FEBD50112107F91D601121086
:1024F3007F22D80112107FABD90112107FCBD901F3
:1025030012107F24DA0112107F26DB0112107F7074
:10251300DB0112107FC0DB0112107FAADC01121055
:102523007F1FDD0112107F39DE0112107FB4DE013F
:1025330012107FB9DF0112107F64E20112107F8352
:10254300E20112107FE4E30112107FA6E5011210ED
:102553007FFAE50112107FB2E60112107F61E701F5
:1025630012107FB7E70112107F6DE80112107F028E
:10257300E90112107F6EE90112107FA8E901121020
:102583007FD9E90112107F35EB0112107F00800320
:1025930012107F32800312107F69800312107F5262
:1025A300820312107F35830312107F8D8303121071
:1025B3007FC8840312107F14850312107F3C8803A5
:1025C30012107F9E8B0312107FEB8C0312107F81FE
:1025D3008D0312107F8D8D0312107FBF8D03121098
:1025E3007F418F0312107FDC900312107F849103CD
:1025F30012107FC7910312107F2D920312107F4A8E
:10260300920312107F7A920312107FAF920312107B
:102613007F7F930312107F28940312107FAC9603DD
:1026230012107FCC970312107FB5980312107F37D7
:10263300990312107F569D0312107F939D0312106E
:102643007FEB9D0312107F1E9E0312107F9F9E033C
:1026530012107FEC9E0312107F779F0312107FC925
:102663009F0312107FA0A00312107F59A103121021
:102673007FF4A10312107F0DA50312107F2DA60373
:1026830012107FDAA90312107FF8AA0312107FFB3E
:10269300AA0312107F2AAB0312107F30AD0312106E
:1026A3007F09AE0312107F3EAE0312107F46AF03C5
:1026B30012107FFCAF0312107F9DB10312107FC273
:1026C300B10312107F01B20312107F73B203121011
:1026D3007F57B30312107F24B40312107F5AB6033B
:1026E30012107FCBB60312107F0BB70312107F6C4F
:1026F300B70312107F2FBB0312107F1EBC031210EF
:102703007F05BD0312107F7DBD0312107F3FBE0303
:1027130012107F3DC00312107F55C00312107F6952
:10272300C00312107FA1C00312107FCFC003121089
:102733007F56C20312107F61C30312107FB3C3031A
:1027430012107F14C40312107FC6C40312107FED4E
:10275300C40312107FD1C50312107F82C603121067
:102763007F71C80312107FA6C80312107F0EC9031E
:1027730012107F3DCA0312107FEFCA0312107F208D
:10278300CB0312107F38CB0312107FC7CB03121079
:102793007F7BCE0312107F53D00312107F6FD003C1
:1027A30012107F8BD00312107F59D10312107F3D7B
:1027B300D50312107F00800212107F38800212109E
:1027C3007F16850212107F5C850212107FA9860294
:1027D30012107F14870212107F9D880212107FADA2
:1027E3008B0212107FC88C0212107FDA960212102D
:1027F3007F6D970212107FBF9A0212107FBB9B025C
:1028030012107F169C0212107F609D0212107F4EE1
:102813009E0212107FEAA00212107F5EA202121023
:102823007FE1A20212107FE4A20212107F59A302D9
:1028330012107F63A30212107F70A30212107F9BFA
:10284300A30212107F4BA40212107F44A5021210A0
:102853007FEFA50212107F0DA60212107F26A6029B
:1028630012107F4FA60212107F71A60212107FC6AC
:10287300A80212107F8BA90212107FD0A902121096
:102883007F4FAA0212107FFBAA0212107F2DAB0208
:1028930012107F81AB0212107FBCAB0212107F03B8
:1028A300AC0212107F53AC0212107F58AC0212100C
:1028B3007FACAC0212107FD8AC0212107FC1AD0204
:1028C30012107F12AE0212107F72AE0212107FCC72
:1028D300AE0212107F67AF0212107FA6B20212106F
:1028E3007FB8B30212107F32B50212107F42B802D2
:1028F30012107FE0B80212107FD6BB0212107F9530
:10290300BC0212107FD9BC0212107F84BE021210C7
:102913007F98BE0212107FA2BE0212107FACBE02CD
:1029230012107FB8BE0212107FDDBE0212107FB6F6
:10293300C00212107F0BC10212107F15C1021210C8
:102943007F1FC10212107F94C10212107FE3C102E4
:1029530012107FF4C20212107F41C30212107F4E85
:10296300C40212107F92C40212107F38C5021210E3
:102973007F2BC60212107FF1C60212107F14C80209
:1029830012107F32C90212107F1ACA0212107F324C
:10299300CA0212107F89CA0212107F93CA02121050
:1029A3007F9ECA0212107FBCCA0212107F04CB02A0
:1029B30012107F66CB0212107F8DCB0212107F9F05
:1029C300CB0212107F3ACC0212107F6FCC0212108E
:1029D3007F56CD0212107F9BCD0212107F81CE0253
:1029E30012107FA8CE0212107F2BCF0212107F9CF1
:1029F300CF0212107F25D10212107F51D202121082
:102A03007F14D30212107FDCD30212107F66D4022C
:102A130012107F8ED50212107F30D60212107FABB8
:102A2300D60212107F67D70212107FB1D70212109D
:102A33007F0BD80212107FE3D80212107F06D9024F
:102A430012107FB9D90212107FDBD90212107F4412
:102A5300DA0212107F5ADC0212107F52DD021210CA
:102A63007F16DE0212107F48E00212107F92E0020E
:102A730012107FE2E00212107F46E10212107FA8DB
:102A8300E10212107FD6E10212107FFAE102121066
:102A93007F2FE20212107F60E20212107F93E202A4
:102AA30012107FE3E20212107F36E30212107F5B03
:102AB300E40212107FFBE50212107F56E6021210A9
:102AC3007F7FE60212107F0CE70212107F7AE70283
:102AD30012107F88E70212107FACE70212107F0109
:102AE300E80212107F1CE80212107FCEE8021210D7
:102AF3007F06E90212107F49E90212107FACE90256
:102B030012107FAEEB0212107FD8EB0212107FCFB0
:102B1300EC0212107FD9ED0212107F89EE0212101F
:102B23007F33740012107F6B740012107F8C74005B
:102B330012107FCE740012107F30750012107F3A8E
:102B4300750012107F4A750012107F8575001210F0
:102B53007F65790012107F527B0012107F387D0051
:102B630012107FCF7D0012107F717E0012107F96AE
:102B7300800412107F41810412107FEF8104121030
:102B83007FF5820412107F15830412107F3E8404A4
:102B930012107FF9850412107F6C860412107F10C7
:102BA300870412107F1C880412107F878804121078
:102BB3007FC3880412107F06890412107F418904A1
:102BC30012107F83890412107F188A0412107F94D5
:102BD3008A0412107F5E8B0412107F3B8C04121048
:102BE3007FD38C0412107FED8C0412107F1D8D0493
:102BF30012107F4E8D0412107F148E0412107F2446
:102C03008E0412107F738E0412107F808E041210B4
:102C13007F898E0412107F078F0412107F638F0445
:102C230012107FAE8F0412107FC98F0412107FF42D
:102C33008F0412107F11900412107F1D9004121044
:102C43007FB4910412107FCD910412107F5292042D
:102C530012107F65920412107F84920412107F2851
:102C6300930412107FA9940412107F5C960412102F
:102C73007FF2960412107FF5960412107F65970475
:102C830012107F83970412107F1A980412107F6228
:102C9300980412107F65980412107F2B9904121068
:102CA3007F98990412107FBE990412107F499A04E9
:102CB30012107F679A0412107FAD9A0412107F617D
:102CC3009B0412107FAB9B0412107FDA9B0412103B
:102CD3007F379C0412107F6C9C0412107F989C0415
:102CE30012107FA69C0412107FF39C0412107F63C2
:102CF3009D0412107FAC9D0412107FF89D041210E6
:102D03007F249E0412107F2F9E0412107F4D9E0479
:102D130012107F389F0412107F429F0412107F7D90
:102D23009F0412107F8D9F0412107FE19F041210E5
:102D33007FF59F0412107F24A10412107F39A10490
:102D430012107FC7A10412107F0CA20412107F98E7
:102D5300A20412107FA3A20412107FE5A304121091
:102D63007F00A40412107F4CA40412107FBBA404A0
:102D730012107FF4A40412107F0EA50412107F6EAC
:102D8300A50412107F0DA60412107F58A60412107A
:102D93007F28A90412107FDAA90412107F47AA041E
:102DA30012107F87AC0412107F9FAC0412107FA215
:102DB300AC0412107FAEAC0412107FC2AC0412102C
:102DC3007FCAAC0412107FFDAC0412107F00AE0466
:102DD30012107F8DAE0412107FFDAE0412107F7FA0
:102DE300AF0412107F40B00412107F5FB0041210C2
:102DF3007F00B10412107F5DB10412107F60B10433
:102E030012107FD4B10412107F23B30412107F2950
:102E1300B40412107FB4B40412107FCFB50412109F
:102E23007F97B60412107FC8B60412107FEBB60466
:102E330012107FF4B60412107F23B70412107FB36D
:102E4300B70412107F69B80412107FDEB8041210A1
:102E53007F85B90412107FFAB90412107F31BA04C6
:102E630012107F6FBA0412107FB8880512107F8981
:102E7300860612107F7F860612107F758606121053
:102E83007F0E860612107FF3850612107F5085068B
:102E930012107F50840612107F6E830612107F5E1D
:102EA300810612107F6C800612107F0A80061210B2
:102EB3007F88880512107FDFEA0312107F05FF0465
:102EC30012107FFBFE0412107F2C820512107F80EC
:102ED300810512107F90FE0412107FC4FC041210AF
:102EE3007F82FC0412107F8EFB0412107F62FB04AE
:102EF30012107F19FB0412107F5AFA0412107F4636
:102F0300F70412107FFBF40412107FCBF4041210A9
:102F13007F7BF40412107F15F40412107FD4F304A2
:102F230012107F06F30412107FA0F20412107F3FE9
:102F3300F20412107FDFF10412107F7DF0041210EF
:102F43007F11F00412107F65EF0412107F60EF040D
:102F530012107F49EF0412107FEE800512107F14C8
:102F6300EF0412107FA8800512107F7380051210E2
:102F73007F40800512107F2B800512107F00800593
:102F830012107F39890612107FA6EB0412107FA35B
:102F9300EB0412107F61EB0412107F0589061210F7
:102FA3007F4EEB0412107F43EB0412107F12EB04ED
:102FB30012107F0AE90412107FDC870512107F7D4F
:102FC300E80412107F42A40612107F39E80412109D
:102FD3007F0DE80412107F46F50512107F19F505E1
:102FE30012107FE6F40512107FBEF40512107F5F06
:102FF300F40512107F3FF40512107F0AF405121036
:103003007FB6F00512107F9EEE0512107F88EC0547
:1030130012107F08EC0512107FB4EB0512107FC06D
:10302300EA0512107FAE880612107F68EB051210B6
:103033007FEEE60300000080FB0000228F0001000A
:10304300A21D87000100A01D35000400661D250098
:1030530002006A1D260002006C1D270002006E1D7F
:1030630028000100781D29000100791D8400040057
:10307300521A86000100CC1C2A0001007A1D2B0085
:1030830001007B1D2C000100801D2D000800601A2B
:103093002E000100811D2F000100821D3000010060
:1030A300831D31000100841D32000100681A3300C2
:1030B3000100691A34000100851D360001006A1AF7
:1030C30038000100861D390001007F1D83000200C6
:1030D3009E1D63000100751A640001007C1D6500DC
:1030E30001007D1D6D000100761A71000800581A59
:1030F300660001009D1D430001008E1D4400020077
:103103008F1D45000100911D46000200921D4700DE
:1031130008006D1A48000100941D4B000100951D25
:1031230004000100A11DA1000100A51D370001003D
:10313300A41D88000100A31D3C0001006B1A3D0083
:103143000100871D49000200961D67000100771AE0
:103153004D000200981D4E0001009A1D4F00020011
:103163009B1D3E0001008D1D51000100891D520071
:1031730001008A1D530001008C1D540001006C1ACC
:1031830000000000000000000000200190920000F9
:10319300010020019792000002002001929200009A
:1031A300030020019192000004004201DF8F000020
:1031B30005004201978E000006004201AF90000017
:1031C3000700300196920000004042017091000018
:1031D300FDFF21018C920A00070023012819030037
:1031E300000021231A190D04000039051C190D04D0
:1031F300210221231E1D0D0422022123201D0D0463
:1032030020021023221D0D0425021023231D0D046B
:1032130011021023151D0D0401041023161D0D04A6
:1032230005042023171D0D0406042023181D0D0477
:1032330002041023191D0D044404210122190D0455
:1032430045042023351D000136360101000102012A
:103253000001030100010401060605020000070145
:1032630000340801000F090401010D0100FF0E08DD
:10327300000017020000190100FF1A0100011B01E1
:1032830000FE1C0100081D0200001F0100012001B7
:103293000001210200002301000F24020000260187
:1032A300000127010008280200FF2A0100072B0163
:1032B30002402C0100002D0100012E0100012F010D
:1032C30000FF30010B1D310800003A0100083B01EB
:1032D300000F3C0100013D0100FF3E0400004204D9
:1032E3000000460400004A0400004E04000052049B
:1032F3000000560400005A04000001037103010397
:103303000103010301030103220302030103100369
:103313000003000300030003000300030003420350
:10332300000324030603000300030403120325031D
:1033330023032503230304030403000300030003FF
:103343004403000300032303000365032100350343
:1033530081030003050300030003000300032503A7
:1033630023030302710230016002110270020102A1
:10337300020202028002100261023A00410063026B
:103383007302720262024302000213023800000257
:103393000002040212020002000200020002040200
:1033A3000402370037003C024402000239000002E5
:1033B3000002650200023502810200020502820258
:1033C30083020002030071003001600011007000ED
:1033D300310220035004800010006100000014003B
:1033E30063007300720062004300000013000600D4
:1033F30000000000040012000000000000000000B4
:1034030004000400370037003C02440000000000C1
:103413000000000065000000350081000000050089
:10342300000083000000010171010101010111018C
:1034330001013101010101018001100161013B0022
:10344300140063017301720162014301000113015E
:1034530006013D01350004011201000100010001D4
:10346300000104010401330133013C014401320131
:1034730036000001000165010001350081010001F2
:103483000501820183010001030471040204600445
:103493001104700402040204010402041004610410
:1034A30000041404630473047204620443040004F8
:1034B30013040604000400040404120400040004BA
:1034C30000040004510464000004000400044404E4
:1034D30000040004000400046504000435048104AE
:1034E30064000504000483040004360001000600A0
:1034F30000000F00000000000000000000000000BA
:1035030003FFFF00000403FFFF0000FFFF0FF401B0
:103513000005C4040320000100000B0000000000AC
:1035230000000003010F0000000000000000000085
:103533000000000000000000000000000000000088
:103543000000000000000000051D2F1D0B1D391C8D
:10355300111D351D111D411D171D391C111D351D53
:103563001D1D391C00000000231D391C0000000034
:1035730000000000291D391C0000000000000000AD
:103583000000000000000000000000000000000038
:103593000000000000000000000000000000000028
:1035A300000000001300D51F1F00DB1F1F80E11F59
:1035B30000003B2001003B200200811F02807B1F93
:1035C3000300871F04008D1F0480931F0500991FAC
:1035D3000600A51F3100B71F3300BD1F3400C31FF2
:1035E3003600C91FFFFF00000A00000002000000B0
:1035F300040000000800000010000000200000008C
:1036030040000000800000000001000000020000F4
:10361300000400000008000000100000002000006B
:103623000040000001F127062128081B280B3F2832
:10363300103F2502F727050F2807FD270CD9270D73
:10364300E527643523FF000003000300040008009E
:1036530010001F003E007B00F600EC01D703AF070C
:103663005D0FB91E713D00000204000029052419F5
:103673000204100229231A1D05040000210526193E
:103683000504100229231C1D07ECFDFDFDECDCDC09
:10369300CCBCACAC9C9C8C7C7C6C6C5C5C5C4C4C07
:1036A3003C3C2C2C1C1C00160F00000B150B0200BD
:1036B30002220F3300000E0F000000000000000084
:1036C30000000000000000005A6967426565416C14
:1036D3006C69616E63653039D0D1D2D3D4D5D6D776
:1036E300D8D9DADBDCDDDEDF150AF4D4C0A5958298
:1036F30072636155504900034D4C4651181A250514
:1037030002303017181921301B1D1F30003C404276
:103713003A3F3F392F473000011916181616182360
:103723000300303016181920231A1C1E300C0E0209
:103733000B040B0A0708000F02040201010101092F
:103743000200BE040AE8030000F6FB0100030000C8
:1037530000E80300008B360E007F00EB360C0504F7
:10376300041E1010080A28FF0018040204001503A1
:103773003C18090A10150800FF030C031E74F61207
:103783000B7EE9FEE4F508F509780812109C7C2409
:103793007D007A017B04121B4374021210CAE9F8FC
:1037A300740968702375081575091D780812109C33
:1037B300750824750900780812109C7C007D007A36
:1037C300017B04121B4F8024E870267508157509C8
:1037D3001D780812109C75082475090078081210CA
:1037E3009C7C007D007A017B04121B55740412102B
:1037F300CA901A16E4F0EE9018B6F07A397B1D12CF
:103803002FCB7A057B1D901D39E0F9121DE37C89CE
:103813007D3190376CE493FA901D39E0F9121C4521
:103823007A457B1D122FCB7A057B1D901D45E0F950
:10383300121DE37C6B7D3690376DE493FA901D4542
:10384300E0F9121C457C597D1D7A007B00901D39DF
:10385300E0F9121C4B7C597D1D7A007B00901D45BD
:10386300E0F9121C4B9018B6E0F9121C279018B619
:10387300E0F91219DB7AD77B1D122E7B75081675BA
:103883000919780812109C750858750902780812EE
:10389300109CE4F508F509780812109C7C007D0063
:1038A3007A0D7B04790112149B74061210CA7508F1
:1038B300FD75091C780812109C7508587509027863
:1038C3000812109C75080F750900780812109C7C6B
:1038D300007D007A027B04790212149B7406121095
:1038E300CA75080175091D780812109C750858756A
:1038F3000902780812109C75080F750900780812E0
:10390300109C7C007D007A057B04790212149B7461
:10391300061210CAD2927A327B0012158B7A327B4E
:103923000012158B1215EB121BD97A327B0012157C
:103933008B1216BD121D8F750830780812109C75F6
:103943000854780812109C7508F8750981780812D4
:10395300109C79017C007D007A007B001216E774CD
:10396300061210CA1216ED1216F37AC47B09121549
:103973008B7AC47B0912158B7508197509007808B1
:1039830012109C780812109C7508D875098978085C
:1039930012109C79017C0B7D007A1E7B001216E7C6
:1039A30074061210CA1216ED1216F37AAC7B0D12BE
:1039B300158B1216C97AD17B1D121BC7D293D292D3
:1039C300C2847ADC7B0512158BD293C284C2927AAD
:1039D300DC7B0512158BD284D293C2927ADC7B05F1
:1039E30012158BD284D292C2937ADC7B0512158B8B
:1039F300D284C293C2927ADC7B0512158B901D1977
:103A0300E06004790180027900121BCD7A019018DD
:103A1300B6E0F9121B6D909216120EFB7A107B0022
:103A23009018B6E0F9121B9174041210CA90921AFE
:103A3300120EFB7A007B019018B6E0F9121B917409
:103A4300041210CA90921E120EFB7A007B1090187B
:103A5300B6E0F9121B9174041210CA909222120E4E
:103A6300FB7A007B049018B6E0F9121B91740412E0
:103A730010CA023D5A74F0120B7EEAFEEBFF54802B
:103A83006003023B4FEE54107003023BF09018BCEE
:103A9300E064D07004A3E064077003023BC7901D89
:103AA30018E0C39418400574171241C9901D17E01C
:103AB300C39418400574171241C99018B9E0FA90DD
:103AC3001D18E0FC901D17E0F8C3EC123C8D400379
:103AD300023BAE123C8B4003023BBB023BB3EA24E6
:103AE30017F8E43509F9880A890B8882F58312529D
:103AF3002460528A828B83A3A3A3A3A3A3A3A3E0DB
:103B0300640A7002A3E0703188828983A3A3A3A30C
:103B1300A3E0F8A3E0F5838882780C12138590194B
:103B230028780C1213679018CD780C121367AA0C1F
:103B3300AB0DAC0EAD0F121AA7850A82850B83124B
:103B43003D37121AD1AA08AB09121A239018B6E00E
:103B5300F9121A358A088B09EA450960468A828B6D
:103B630083E024CC7003023AE1247470D8A3A3A3A6
:103B7300E0F50B8A828B83A3A3E0F50A901CCDE0CA
:103B830064017007AA0BA90A12159DAA0BA90A12B0
:103B9300156DE50AA2E650AD9018C37401F0121D2D
:103BA3007D80A2EEFAEF6480023C82123C8B400FD0
:103BB300C3EA9C123C8E50079018CA74018004908B
:103BC30018CAE4F09018C2E0C394075018E004F058
:103BD300901D19E06004790180027900121BCD90D9
:103BE30018C37401F0121D7DEE64108058EF540465
:103BF300600B121BD3EEFAEF6404023C82EF540114
:103C0300601E90925E120EFB7A807B009018B6E0E5
:103C1300F9121B8B74041210CAEEFAEF6401805F71
:103C2300EE54406008121D5FEE64408018EE54208D
:103C33006008121D6BEE6420800BEE5480600A1244
:103C43001D71EE6480FAEF8036EF5410600D123D63
:103C530034121DADEEFAEF64108024EF5408602295
:103C63009091D6120EFB7A007B089018B6E0F912F9
:103C73001B8B74041210CA121DDDEEFAEF6408FBED
:103C830080047A007B00800DC3EA9895E0C365D079
:103C930033221210CA7F08020E30C082C083121D65
:103CA3005F0241ECC082C083909226120EFB7A40E1
:103CB3007B009018B6E0F9121B8B74041210CA79BA
:103CC300000241EC74F6120B7E75081575091D7818
:103CD3000812109C750824750900780812109C7C42
:103CE300007D007A017B04121B4F74041210CA90EA
:103CF3001D351241BFA3E0687003A3E069600B9018
:103D03001D37E8F0A3E9F0121D8F901D15E0F89020
:103D13001D24E068600E901D15E0901D24F0123DF7
:103D230034121DA11240E86006123D34121DA18019
:103D330026901920E0FAA3E0FB22780812109C7960
:103D4300017C007D007A007B001216E774061210D6
:103D5300CA1216ED1216F37F02020E3074F0120B24
:103D63007E74F812116274041213F812543185210F
:103D730082852283125432AC21AD22740412115273
:103D83001216A5901D1C125730120A9785218285A1
:103D93002283780C1213857808790C1201D2909142
:103DA300DA780C1213857808790C1205D278081288
:103DB300085490192612543A901D1A125730120AB9
:103DC3009790922A780C1213857808790C1203ECD9
:103DD30074041213F8780C1213857808790C120105
:103DE300D29091DA780C1213857808790C1205D2E7
:103DF300780812085490192412543A901CCDE060AC
:103E030016901924E024E4F0A3E034FDF0A3E024A9
:103E1300E8F0A3E03403F0901924125730120A9704
:103E230090922A780C1213857808790C1203EC907F
:103E3300922E780C1213857808790C1201D2780827
:103E43001208549018C612543A9019261273751218
:103E53000AB29091DA780C1213857808790C120360
:103E6300EC90922E780C1213857808790C1201D2FB
:103E730078081208549018C812543A7408023C95F2
:103E830074F4120B7E9018C01240E0601B1460396A
:103E930014603F147003023F2B147003023F9C1401
:103EA3007003023FA1023FA9121D779018C3E0647B
:103EB300017006121D89023FCA7C007D007A0D7BCA
:103EC30004901D39E0F9023F9712169F121D6502F7
:103ED3003FCA9018C3E0640170467A0B7B00121A44
:103EE300CB8A088B09EA45097003023F84123FEC31
:103EF30074291244DB7424F0A37419124004741A55
:103F0300F0A3741D1244FB1210A0750A01780A1263
:103F130010A0780A1210A0780812109C7C0280511D
:103F23007C007D007A0280689018C3E06401705AB7
:103F33007A0B7B00121ACB8A088B09EA4509604188
:103F4300123FEC74211244DB7426F0A3741912405F
:103F530004741CF0A3741D1244FB1210A0750A0113
:103F6300780A1210A0780A1210A0780812109C7C0C
:103F7300057D047AD27B187902121C7B740512101A
:103F8300CAAA08AB09121AD1803D7C007D007A05CC
:103F93007B0479021214A1802E121D838029123D05
:103FA30034121DA18021E4F09018C3E06401703441
:103FB300909232120EFB7A807B009018B6E0F912D1
:103FC3001B8B74041210CA9018C0E060179091BE46
:103FD300120EFB7A207B009018B6E0F9121B8B744B
:103FE300041210CA7F04020E308A828B837402F09B
:103FF300A3E4F0A3123FFB22F08A828B83A3A3A343
:10400300221244DFA3A37410F0A374021244EC74CD
:10401300291244ECA32274F6120B7E74FF12116270
:104023009018C11240E060091470030240C40240BA
:10403300D87A0C7B00121ACB8A088B09AE08AF0919
:104043008E828F83E4F0A31240F374021240F3A331
:1040530014F0852182852283F01213F87407F0A3EC
:10406300E4F09018D11240E0F50878081210A0751A
:10407300080178081210A078081210A07403121116
:104083004A88088909780812109C7C0A7D00790106
:10409300121C5D74051210CAEEFAEFFB121AD190CE
:1040A30018C1E0601790925E120EFB7A807B00903D
:1040B30018B6E0F9121B8B74041210CA7401023A89
:1040C300721240E860D9E8F060077901121BCD80D5
:1040D300CE790080F7E4F09018C3F080DFE0F87445
:1040E3000128F0E822901D19E0F8901D26E06822CF
:1040F300F08E828F83A3A3A3A3A3A3A3A322C0822F
:10410300C083901D15E0F8901D24E068600A901D9F
:1041130015E0901D241241C9901D1E1241BF901D30
:104123002BE0687003A3E0696006901D2B1241C564
:10413300901D201241BF901D2DE0687003A3E0691C
:104143006006901D2D1241C5901D22E0F8901D2F91
:10415300E0686004E81241C9901D23E0F8901D3027
:10416300E0686004E81241C9901D16E0F8901D252F
:10417300E068600B9018C37401F0E8901D25F0907F
:104183001D1A1241BF901D27E0687003A3E0696008
:1041930006901D271241C5901D1C1241BF901D2979
:1041A300E0687003A3E0696006901D291241C512FF
:1041B30040E860069018C37401F0802DE0F8A3E096
:1041C300F922E8F0A3E9F09018C37401F022C08249
:1041D300C08390925E120EFB7A207B009018B6E0AB
:1041E300F9121B8B74041210CAD083D08202107C84
:1041F30074F6120B7E901D22E0640160030242FC00
:104203009019201241BF901D1EE0FCA3E0FDC3ECFA
:1042130098ED99500E9018C4E070087401F090184E
:10422300C5E4F0901D2012571BE89AE99B500E90AD
:1042330018C5E070087401F09018C4E4F0C3EC985A
:10424300ED99500A901D23E0640160528012C3E887
:104253009AE99B4003024305901D23E06401703EED
:10426300122EBDE9F9E4F508F509780812109C78D7
:104273000812109CE9F50878081210A0E4F50878F4
:104283000812109C75080178081210A075080078B0
:10429300081210A075080178081210A0803F122E92
:1042A300BDE9F9E4F508F509780812109C780812BD
:1042B300109CE9F50878081210A0E4F508780812B4
:1042C300109C75080178081210A075080078081270
:1042D30010A075080178081210A07508007808125C
:1042E30010A07C067D007AD27B18901D39E0F9126C
:1042F3001C57740B1210CA80099018C4E4F090186C
:10430300C5F0023D5A74F4120B7E901CCDE070038D
:104313000244A57A3D7B00121ACB8A088B09EA4531
:1043230009700302449E8A828B83740C123FF274D9
:10433300391244DB741CF0A374191244DBA3A37475
:1043430021F0A374021244E874211244E8A3741EFA
:10435300F0A3741DF0EA240B1244A874221244D46F
:10436300240D1244B0240E1244A87420F0A3741D2B
:10437300F0EA24101244A874201244D424121244E4
:10438300C824131244A87422F0A3741DF0EA241560
:104393001244A874251244D424171244C8241812B2
:1043A30044A87423F0A3741DF0EA241A1244A874D9
:1043B300111244D4241C1244C8241D1244A8741599
:1043C300F0A3741DF0EA241F1244A874011244F4EC
:1043D30024211244C824221244A87416F0A3741D85
:1043E300F0EA24241244A87405F0A314F0EA242666
:1043F3001244BC24271244A87417F0A3741DF0EAD6
:1044030024291244A874061244F4242B1244BC2415
:104413002C1244A87418F0A3741DF0EA242E12443D
:10442300A874021244F424301244C824311244A85C
:104433007419F0A3741DF0EA24331244A8744412CF
:1044430044F424351244B024361244A87422F0A351
:104453007419F0EA24381244A874451244F4243A37
:104463001244BC243B1244A87435F0A3741D1244B7
:10447300FB1210A0750A01780A1210A0780A121014
:10448300A0780812109C7C0D7D047AD27B18901DB5
:1044930039E0F9121C7B74051210CAAA08AB091281
:1044A3001AD1023FE7F582E43509F58322F582E468
:1044B3003509F5837421F0EA22F582E43509F583A1
:1044C3007420F0EA22F582E43509F5837410F0EAEA
:1044D30022F0A37402F0EA221244DF221244E32200
:1044E300123FFBA3221244EC221244E3A3A3A3A38F
:1044F30022F0A37404F0EA22F09018D1E0F87401DA
:1045030028F0E8F50A780A22C082C083901D35C3DB
:10451300E09429A3E094004009901D357428F0A38A
:10452300E4F0901D35E02428F91216C30241EC741F
:10453300F6120B7E750830750900780812109C7509
:104543000854780812109C7508F0750983780812CE
:10455300109C79017C007D007A007B001216E774C1
:10456300061210CA1216ED1216F39018C2E4F002E6
:104573003D5A74F6120B7E750830750900780812DF
:10458300109C750854780812109C7508E07509870B
:10459300023D3D74E0120B7E74F5121162EAFEEBEC
:1045A300FF12522160030252089018C6123D3712BF
:1045B3001DB99018C8E0F9121DBF121DB3EEF8EF34
:1045C300F97AE87B031209BEEAF8EBF97A647B0017
:1045D3001209BEE8F50CEEF8EFF97A647B001209D4
:1045E300BEEAF8EBF97A0A7B001209BEE8F50DEE94
:1045F300F8EFF97A0A7B001209BE74061213F8EA7F
:10460300F074091213F874C6F0A37491F0740712CE
:1046130013F8747DF0A3748EF074041213F8741EEF
:10462300F0A3748FF074021213F874F2F0A3748E73
:10463300F08521828522837460F0A3748FF0751E48
:10464300C6751F8E751CDC751D8E75168C75178FC0
:1046530075144A75158F7512B075138E751008751C
:10466300118F750E34750F8F750A28750B917508A8
:10467300D675099075187675198FC3EE94E8EF9483
:10468300034003024B94751A05751B00781A121028
:104693009C751A0B781A12109C781812109C7901C9
:1046A3007C177D007A427B001216E774061210CA4B
:1046B300901D22E0640160030247639018C4E06424
:1046C300017041125212701A12109C75180B78184F
:1046D30012109C780812109C79017C207D007A428C
:1046E300801812109C751808781812109C780A12FA
:1046F300109C79017C207D007A447B001216E774BC
:10470300061210CA9018C5E064017054901D23E08E
:1047130064017022750804750900780812109C75ED
:104723000808780812109C780A12109C79017C20E2
:104733007D007A448020750A04750B00780A1210F4
:104743009C750A0B780A12109C780812109C790148
:104753007C207D007A427B001216E774061210CA91
:10476300E50C6030146044146058146073147003D3
:104773000247FE14700302481914700302483314ED
:10478300700302484D147003024867147003024813
:10479300810248AB75080D750900780812109C75E5
:1047A300080B780812109C7408802C75080D750985
:1047B30000780812109C75080B780812109C740678
:1047C300801575080D750900780812109C75080B83
:1047D300780812109C74041213F8120EFF02489901
:1047E30075080D750900780812109C75080B780878
:1047F30012109C781E12109C02489975080D7509B9
:1048030000780812109C75080B780812109C781C0D
:1048130012109C02489975080D750900780812104A
:104823009C75080B780812109C781612109C8066F1
:1048330075080D750900780812109C75080B780827
:1048430012109C781412109C804C75080D75090089
:10485300780812109C75080B780812109C781212B5
:10486300109C803275080D750900780812109C752C
:10487300080B780812109C781012109C8018750889
:104883000D750900780812109C75080B7808121032
:104893009C780E12109C79017C177D007A327B0084
:1048A3001216E774061210CAE50D60301460441442
:1048B300605814607314700302494614700302496C
:1048C3006114700302497B14700302499514700349
:1048D3000249AF1470030249C90249F375080D7503
:1048E3000900780812109C75080B780812109C7444
:1048F30008802C75080D750900780812109C75083E
:104903000B780812109C7406801575080D75090044
:10491300780812109C75080B780812109C74041206
:1049230013F8120EFF0249E175080D7509007808A6
:1049330012109C75080B780812109C781E12109C9C
:104943000249E175080D750900780812109C750875
:104953000B780812109C781C12109C0249E1750810
:104963000D750900780812109C75080B7808121051
:104973009C781612109C806675080D7509007808DE
:1049830012109C75080B780812109C781412109C56
:10499300804C75080D750900780812109C75080B7A
:1049A300780812109C781212109C803275080D75CD
:1049B3000900780812109C75080B780812109C786F
:1049C3001012109C801875080D75090078081210D4
:1049D3009C75080B780812109C780E12109C7901B4
:1049E3007C177D007A257B001216E774061210CA25
:1049F30074061213F8E060301460441460581460B5
:104A030073147003024A92147003024AAD147003C4
:104A1300024AC7147003024AE1147003024AFB14EA
:104A23007003024B15024B3F75080D75090078089A
:104A330012109C75080B780812109C7408802C7552
:104A4300080D750900780812109C75080B78081278
:104A5300109C7406801575080D75090078081210EE
:104A63009C75080B780812109C74041213F8120E2C
:104A7300FF024B2D75080D750900780812109C75FF
:104A8300080B780812109C781E12109C024B2D758F
:104A9300080D750900780812109C75080B78081228
:104AA300109C781C12109C024B2D75080D75090083
:104AB300780812109C75080B780812109C7816124F
:104AC300109C806675080D750900780812109C7596
:104AD300080B780812109C781412109C804C7508EF
:104AE3000D750900780812109C75080B78081210D0
:104AF3009C781212109C803275080D750900780895
:104B030012109C75080B780812109C781012109CD8
:104B1300801875080D750900780812109C75080B2C
:104B2300780812109C780E12109C79017C177D0076
:104B33007A187B001216E774061210CA75080D75F1
:104B43000900780812109C780812109C740B121339
:104B5300F8120EFF79017C177D007A097B0012168B
:104B6300E774061210CA901D19E064016003025134
:104B7300F5750804780812109C780812109C740DBF
:104B83001213F8120EFF79017C207D007A0902517D
:104B9300EB751A0D751B00781A12109C751A0B7899
:104BA3001A12109C781812109C79017C177D007AD8
:104BB300487B001216E774061210CA901D22E064A7
:104BC300016003024C6E9018C4E0640170411252FC
:104BD30012701A12109C75180B781812109C780812
:104BE30012109C79017C207D007A48801812109C59
:104BF300751808781812109C780A12109C79017C99
:104C0300207D007A4A7B001216E774061210CA90C0
:104C130018C5E064017054901D23E064017022758F
:104C23000804750900780812109C750808780812A2
:104C3300109C780A12109C79017C207D007A4A80AE
:104C430020750A04750B00780A12109C750A0B78FC
:104C53000A12109C780812109C79017C207D007A3E
:104C6300487B001216E774061210CAEEF8EFF97AC1
:104C7300E87B031209BEE8603014604414605814E2
:104C83006073147003024D13147003024D2E1470DD
:104C930003024D48147003024D62147003024D7CED
:104CA300147003024D96024DC075080D7509007806
:104CB3000812109C75080B780812109C7408802C3D
:104CC30075080D750900780812109C75080B780893
:104CD30012109C7406801575080D7509007808126A
:104CE300109C75080B780812109C74041213F812A8
:104CF3000EFF024DAE75080D750900780812109C61
:104D030075080B780812109C781E12109C024DAE89
:104D130075080D750900780812109C75080B780842
:104D230012109C781C12109C024DAE75080D75096B
:104D330000780812109C75080B780812109C7816DE
:104D430012109C806675080D750900780812109C76
:104D530075080B780812109C781412109C804C75FF
:104D6300080D750900780812109C75080B78081255
:104D7300109C781212109C803275080D750900780A
:104D83000812109C75080B780812109C78101210EA
:104D93009C801875080D750900780812109C750819
:104DA3000B780812109C780E12109C79017C177DE9
:104DB300007A387B001216E774061210CAE50C60FD
:104DC30030146044146058146073147003024E5B13
:104DD300147003024E76147003024E901470030293
:104DE3004EAA147003024EC4147003024EDE024F27
:104DF3000875080D750900780812109C75080B7862
:104E03000812109C7408802C75080D750900780829
:104E130012109C75080B780812109C740680157587
:104E2300080D750900780812109C75080B78081294
:104E3300109C74041213F8120EFF024EF675080D3F
:104E4300750900780812109C75080B780812109CDD
:104E5300781E12109C024EF675080D75090078082D
:104E630012109C75080B780812109C781C12109C69
:104E7300024EF675080D750900780812109C750826
:104E83000B780812109C781612109C806675080D1A
:104E9300750900780812109C75080B780812109C8D
:104EA300781412109C804C75080D7509007808124F
:104EB300109C75080B780812109C781212109C80B5
:104EC3003275080D750900780812109C75080B7867
:104ED3000812109C781012109C801875080D750923
:104EE30000780812109C75080B780812109C780E35
:104EF30012109C79017C177D007A2B7B001216E738
:104F030074061210CAE50D6030146044146058141E
:104F13006073147003024FA3147003024FBE147026
:104F230003024FD8147003024FF214700302500CA3
:104F330014700302502602505075080D750900784D
:104F43000812109C75080B780812109C7408802CAA
:104F530075080D750900780812109C75080B780800
:104F630012109C7406801575080D750900780812D7
:104F7300109C75080B780812109C74041213F81215
:104F83000EFF02503E75080D750900780812109C3B
:104F930075080B780812109C781E12109C02503E64
:104FA30075080D750900780812109C75080B7808B0
:104FB30012109C781C12109C02503E75080D750946
:104FC30000780812109C75080B780812109C78164C
:104FD30012109C806675080D750900780812109CE4
:104FE30075080B780812109C781412109C804C756D
:104FF300080D750900780812109C75080B780812C3
:10500300109C781212109C803275080D7509007877
:105013000812109C75080B780812109C7810121057
:105023009C801875080D750900780812109C750886
:105033000B780812109C780E12109C79017C177D56
:10504300007A1E7B001216E774061210CA74061249
:1050530013F8E060301460441460581460731470E3
:10506300030250EF14700302510A14700302512417
:1050730014700302513E147003025158147003025A
:10508300517202519C75080D750900780812109C25
:1050930075080B780812109C7408802C75080D7520
:1050A3000900780812109C75080B780812109C747C
:1050B30006801575080D750900780812109C75088F
:1050C3000B780812109C74041213F8120EFF02518D
:1050D3008A75080D750900780812109C75080B78FD
:1050E3000812109C781E12109C02518A75080D75C7
:1050F3000900780812109C75080B780812109C7828
:105103001C12109C02518A75080D7509007808124B
:10511300109C75080B780812109C781612109C804E
:105123006675080D750900780812109C75080B78D0
:105133000812109C781412109C804C75080D750988
:1051430000780812109C75080B780812109C7812CE
:1051530012109C803275080D750900780812109C96
:1051630075080B780812109C781012109C80187523
:10517300080D750900780812109C75080B78081241
:10518300109C780E12109C79017C177D007A117B9C
:10519300001216E774061210CA75080D7509007817
:1051A3000812109C780812109C740B1213F8120E3C
:1051B300FF79017C177D007A027B001216E77406E3
:1051C3001210CA901D19E06401702775080478084D
:1051D30012109C780812109C740D1213F8120EFF13
:1051E30079017C207D007A027B001216E774061297
:1051F30010CA121DC5121DCB1216ED1216F3EEFACC
:10520300EFFB121DA7740B1210CA7F18020E309009
:105213001D23E0640175180475190078182290198C
:105223001AE0F8A3E0F9E8492274F7120B7E901D07
:1052330015E064016003025334EA2487FEEB34FA79
:10524300FFEA2417FCEB34FCFDEA24A7F8EB34FD5A
:10525300F9A3E0640160030252E79018BCE064D054
:105263007004A3E06407607C9018CAE0F508901806
:10527300CBE065089018CA6068E06401700DC284D1
:10528300C293C2929018CB74018053C3EA9459EB32
:1052930094025008D293D292C284803EC3E8949081
:1052A300E994015006D293C284802DC3EC9490ED0F
:1052B30094015006D284D293801EC3EE9490EF944F
:1052C300015008D284D292C293800FC3EA9409EBAF
:1052D30094074006D284C293C292E09018CBF08028
:1052E30056E07053C3EA9459EB94025008D293D218
:1052F30092C2848042C3E89490E994015006D29309
:10530300C2848031C3EC9490ED94015006D284D2D0
:10531300938022C3EE9490EF94015008D284D292EA
:10532300C2938013C3EA9409EB9407400AD28480A2
:1053330002C284C293C2927F01020E3074F0120B38
:105343007E8A088B09E4F50AF50B901CFBC3E094F5
:105353003CA3E09400501190191278081212B990EE
:105363001CFB12736C02542D901CFB7401F0A3E41C
:10537300F090191278081212A690920A780C121360
:10538300857808790C120B0F9019121254319092F0
:1053930036780C12138590190E780C1211CD5030FB
:1053A30090190E780C1213857401780C12126D7417
:1053B300DE250CF5827418350DF58312543A90915D
:1053C300C2780812138590190E78081212B9805505
:1053D300909236780C12138590190E780C1211A343
:1053E30070439018DEE0FEA3E0FF780079001257C7
:1053F30022FA74183BFB8A828B83A3A3E0FCA3E00D
:10540300FD8A828B83ECF0A3EDF008E8700109C3F9
:1054130094171256F440D790190CEEF0A3EFF090C6
:10542300190C12543A9018CC7401F0023C98E4F031
:10543300A3F0A3F0A3F022E508F0A3E509F022749A
:10544300EA120B7E7E4C7F00901CFAE06401700A26
:10545300750C90750D01E4F0800A9018DEE0F50CF0
:10546300A3E0F50D78007900125711EA950CEB953E
:105473000D50048A0C8B0D08E87001091256ED409B
:10548300E79018DEE0F50EA3E0F50F78007900123F
:105493005711E50E9AE50F9B5008EA4B60048A0EFC
:1054A3008B0F08E87001091256ED40E38F108F113E
:1054B300A810E828F8E51133F974DE28F58274188A
:1054C30039F583125730120A977808121094909284
:1054D3003A120EFB90925A120EFB850E08850F09A5
:1054E300E4F50AF50B7808120AB2780812109485CD
:1054F3000C08850D09E4F50AF50B7808120AB2AA1F
:1055030008AB09AC0AAD0B121C1574101210CA12A9
:10551300084A850812850913741765104511750823
:1055230009750900780860030255F412109C750888
:1055330002780812109C79017C007D007A007B00C0
:105543001216D574041210CA750809780812109C33
:10555300750802780812109C79017C007D007A019D
:105563007B001216D574041210CA750800804A1203
:1055730056FD12109C751402781412109C7901AC1C
:105583000AAD0B7A007B001216D574041210CA758B
:105593001409781412109C751402781412109C7953
:1055A30001AC0AAD0B7A017B001216D574041210FC
:1055B300CA0508E508700205091256DE40B17508F0
:1055C30009750900780812109C75080278081210F2
:1055D3009C75082F750907780812109C79017C0CBB
:1055E3007D00EEFAEFFB1216E774061210CA02569C
:1055F300BF12109C750802780812109C79017C0078
:105603007D007A007B001216D574041210CA750847
:1056130009780812109C750802780812109C790109
:105623007C007D007A017B001216D574041210CA27
:10563300750800804A1256FD12109C7514027814E6
:1056430012109C7901AC0AAD0B7A007B001216D5BF
:1056530074041210CA751409781412109C7514027C
:10566300781412109C7901AC0AAD0B7A017B0012FD
:1056730016D574041210CA0508E50870020509124C
:1056830056DE40B1750809750900780812109C753B
:105693000802780812109C75082F750907780812FC
:1056A300109C79017C0C7D00EEFAEFFB1216E77477
:1056B300061210CAEE24FDFEEF34FFFF7900121626
:1056C300DB0510E51070020511C39418E51112569D
:1056D300F550030254B37F0E020E30C3E508951252
:1056E300E5099513A2D265D03322C394181256F458
:1056F30022E99400A2D265D03322E5082401F50AF9
:10570300E43509F50B751409751500781422125741
:1057130022F58274183BF583E0FAA3E0FBC322E889
:10572300FAE9FBEA2AFAEB33FB74DE2A22E0F508F6
:10573300A3E0F5093395E0F50AF50B78082274E048
:10574300120B7E74FE121162EAFCEBFDECF8EDF92C
:105753007A647B001209BEE8F51CECF8EDF97A6473
:105763007B001209BEEAF8EBF97A0A7B001209BE44
:10577300E8FEECF8EDF97A0A7B001209BEEAFF8530
:1057830021828522837462F0A37491F0751E8A7559
:105793001F92751A51751B9075180175199075161E
:1057A30061751790751421751590751271751390A5
:1057B300751041751190750E11750F90750C8175EB
:1057C3000D90750AF1750B8F750891750990E51C9D
:1057D3006003025AC0EE60301460481460601460C5
:1057E30078147003025877147003025892147003EC
:1057F3000258AC1470030258C61470030258E01424
:1058030070030258FA025924751C09751D00781C8F
:1058130012109C751C08781C12109C781A12109C8C
:10582300025912751C09751D00781C12109C751CF9
:1058330008781C12109C781812109C025912751CBF
:1058430009751D00781C12109C751C08781C121019
:105853009C781612109C025912751C09751D00784C
:105863001C12109C751C08781C12109C78141210C2
:105873009C025912751C09751D00781C12109C7529
:105883001C08781C12109C781212109C0259127575
:105893001C09751D00781C12109C751C08781C12BD
:1058A300109C781012109C8066751C09751D007879
:1058B3001C12109C751C08781C12109C780E121078
:1058C3009C804C751C09751D00781C12109C751C5E
:1058D30008781C12109C780C12109C8032751C09DD
:1058E300751D00781C12109C751C08781C12109CE6
:1058F300780A12109C8018751C09751D00781C12FB
:10590300109C751C08781C12109C780812109C7946
:10591300017C007D007A417B001216E774061210A9
:10592300CA751C09751D00781C12109C751C017822
:105933001C12109C781E12109C79017C007D007A49
:105943003F7B001216E774061210CAEF6030146032
:10595300481460601460781470030259ED147003E6
:10596300025A08147003025A22147003025A3C1498
:105973007003025A56147003025A70025A9A750839
:1059830009750900780812109C7508087808121028
:105993009C781A12109C025A8875080975090078B8
:1059A3000812109C750808780812109C78181210B9
:1059B3009C025A88750809750900780812109C75AD
:1059C3000808780812109C781612109C025A8875E1
:1059D3000809750900780812109C750808780812E0
:1059E300109C781412109C025A88750809750900D6
:1059F300780812109C750808780812109C78121207
:105A0300109C025A88750809750900780812109CC1
:105A1300750808780812109C781012109C8066751F
:105A23000809750900780812109C7508087808128F
:105A3300109C780E12109C804C750809750900782B
:105A43000812109C750808780812109C780C121024
:105A53009C8032750809750900780812109C750836
:105A630008780812109C780A12109C8018750A098D
:105A7300750B00780A12109C750A08780A12109C9C
:105A8300780812109C79017C007D007A347B001227
:105A930016E774061210CA7508057509007808120E
:105AA300109C750807780812109C74041213F812DE
:105AB3000EFF79017C047D007A2C025EF0603014C5
:105AC3006048146060146078147003025B5E1470A5
:105AD30003025B79147003025B93147003025BADE2
:105AE300147003025BC7147003025BE1025C0B7565
:105AF3001C09751D00781C12109C751C08781C125B
:105B0300109C781A12109C025BF9751C09751D0014
:105B1300781C12109C751C08781C12109C781812A3
:105B2300109C025BF9751C09751D00781C12109CF2
